{
  "address": "0xBe278c980649E5Bc544FFa58e83933769Cd38a17",
  "abi": [
    {
      "inputs": [
        {
          "internalType": "address",
          "name": "_RIBBON_EARN_USDC_VAULT",
          "type": "address"
        }
      ],
      "stateMutability": "payable",
      "type": "constructor"
    },
    {
      "anonymous": false,
      "inputs": [
        {
          "indexed": false,
          "internalType": "uint256",
          "name": "oldMinProviderSwap",
          "type": "uint256"
        },
        {
          "indexed": false,
          "internalType": "uint256",
          "name": "newMinProviderSwap",
          "type": "uint256"
        }
      ],
      "name": "MinProviderSwapSet",
      "type": "event"
    },
    {
      "anonymous": false,
      "inputs": [
        {
          "indexed": true,
          "internalType": "address",
          "name": "previousOwner",
          "type": "address"
        },
        {
          "indexed": true,
          "internalType": "address",
          "name": "newOwner",
          "type": "address"
        }
      ],
      "name": "OwnershipTransferred",
      "type": "event"
    },
    {
      "anonymous": false,
      "inputs": [
        {
          "indexed": true,
          "internalType": "address",
          "name": "product",
          "type": "address"
        },
        {
          "indexed": false,
          "internalType": "uint32",
          "name": "mmSpread",
          "type": "uint32"
        },
        {
          "indexed": false,
          "internalType": "uint32",
          "name": "providerSpread",
          "type": "uint32"
        },
        {
          "indexed": true,
          "internalType": "address",
          "name": "issueAddress",
          "type": "address"
        },
        {
          "indexed": true,
          "internalType": "address",
          "name": "redeemAddress",
          "type": "address"
        },
        {
          "indexed": false,
          "internalType": "address",
          "name": "oracle",
          "type": "address"
        },
        {
          "indexed": false,
          "internalType": "bool",
          "name": "isWhitelisted",
          "type": "bool"
        }
      ],
      "name": "ProductSet",
      "type": "event"
    },
    {
      "anonymous": false,
      "inputs": [
        {
          "indexed": true,
          "internalType": "address",
          "name": "fromAsset",
          "type": "address"
        },
        {
          "indexed": true,
          "internalType": "address",
          "name": "toAsset",
          "type": "address"
        },
        {
          "indexed": false,
          "internalType": "uint256",
          "name": "amountIn",
          "type": "uint256"
        },
        {
          "indexed": false,
          "internalType": "uint256",
          "name": "amountOut",
          "type": "uint256"
        }
      ],
      "name": "ProductSwapped",
      "type": "event"
    },
    {
      "anonymous": false,
      "inputs": [
        {
          "indexed": true,
          "internalType": "address",
          "name": "asset",
          "type": "address"
        },
        {
          "indexed": false,
          "internalType": "uint256",
          "name": "amountInAsset",
          "type": "uint256"
        }
      ],
      "name": "Settled",
      "type": "event"
    },
    {
      "inputs": [],
      "name": "ORACLE_DIFF_THRESH_PCT",
      "outputs": [
        {
          "internalType": "uint256",
          "name": "",
          "type": "uint256"
        }
      ],
      "stateMutability": "view",
      "type": "function"
    },
    {
      "inputs": [],
      "name": "RIBBON_EARN_USDC_VAULT",
      "outputs": [
        {
          "internalType": "address",
          "name": "",
          "type": "address"
        }
      ],
      "stateMutability": "view",
      "type": "function"
    },
    {
      "inputs": [],
      "name": "USDC",
      "outputs": [
        {
          "internalType": "address",
          "name": "",
          "type": "address"
        }
      ],
      "stateMutability": "view",
      "type": "function"
    },
    {
      "inputs": [
        {
          "internalType": "address",
          "name": "_product",
          "type": "address"
        },
        {
          "internalType": "uint256",
          "name": "_amount",
          "type": "uint256"
        }
      ],
      "name": "convertToProductAmount",
      "outputs": [
        {
          "internalType": "uint256",
          "name": "",
          "type": "uint256"
        }
      ],
      "stateMutability": "view",
      "type": "function"
    },
    {
      "inputs": [
        {
          "internalType": "address",
          "name": "_product",
          "type": "address"
        },
        {
          "internalType": "uint256",
          "name": "_amount",
          "type": "uint256"
        }
      ],
      "name": "convertToUSDCAmount",
      "outputs": [
        {
          "internalType": "uint256",
          "name": "",
          "type": "uint256"
        }
      ],
      "stateMutability": "view",
      "type": "function"
    },
    {
      "inputs": [],
      "name": "minProviderSwap",
      "outputs": [
        {
          "internalType": "uint256",
          "name": "",
          "type": "uint256"
        }
      ],
      "stateMutability": "view",
      "type": "function"
    },
    {
      "inputs": [],
      "name": "owner",
      "outputs": [
        {
          "internalType": "address",
          "name": "",
          "type": "address"
        }
      ],
      "stateMutability": "view",
      "type": "function"
    },
    {
      "inputs": [
        {
          "internalType": "address",
          "name": "",
          "type": "address"
        }
      ],
      "name": "pendingSettledAssetAmount",
      "outputs": [
        {
          "internalType": "uint256",
          "name": "",
          "type": "uint256"
        }
      ],
      "stateMutability": "view",
      "type": "function"
    },
    {
      "inputs": [
        {
          "internalType": "address",
          "name": "",
          "type": "address"
        }
      ],
      "name": "products",
      "outputs": [
        {
          "internalType": "uint32",
          "name": "mmSpread",
          "type": "uint32"
        },
        {
          "internalType": "uint32",
          "name": "providerSpread",
          "type": "uint32"
        },
        {
          "internalType": "address",
          "name": "issueAddress",
          "type": "address"
        },
        {
          "internalType": "address",
          "name": "redeemAddress",
          "type": "address"
        },
        {
          "internalType": "address",
          "name": "oracle",
          "type": "address"
        },
        {
          "internalType": "bool",
          "name": "isWhitelisted",
          "type": "bool"
        }
      ],
      "stateMutability": "view",
      "type": "function"
    },
    {
      "inputs": [],
      "name": "renounceOwnership",
      "outputs": [],
      "stateMutability": "nonpayable",
      "type": "function"
    },
    {
      "inputs": [
        {
          "internalType": "uint256",
          "name": "_minProviderSwap",
          "type": "uint256"
        }
      ],
      "name": "setMinProviderSwap",
      "outputs": [],
      "stateMutability": "nonpayable",
      "type": "function"
    },
    {
      "inputs": [
        {
          "internalType": "address",
          "name": "_product",
          "type": "address"
        },
        {
          "internalType": "uint32",
          "name": "_mmSpread",
          "type": "uint32"
        },
        {
          "internalType": "uint32",
          "name": "_providerSpread",
          "type": "uint32"
        },
        {
          "internalType": "address",
          "name": "_issueAddress",
          "type": "address"
        },
        {
          "internalType": "address",
          "name": "_redeemAddress",
          "type": "address"
        },
        {
          "internalType": "address",
          "name": "_oracleAddress",
          "type": "address"
        },
        {
          "internalType": "bool",
          "name": "_isWhitelisted",
          "type": "bool"
        }
      ],
      "name": "setProduct",
      "outputs": [],
      "stateMutability": "nonpayable",
      "type": "function"
    },
    {
      "inputs": [
        {
          "internalType": "address",
          "name": "_asset",
          "type": "address"
        }
      ],
      "name": "settleTPlus0Transfer",
      "outputs": [],
      "stateMutability": "nonpayable",
      "type": "function"
    },
    {
      "inputs": [
        {
          "internalType": "address",
          "name": "_fromAsset",
          "type": "address"
        },
        {
          "internalType": "address",
          "name": "_toAsset",
          "type": "address"
        },
        {
          "internalType": "uint256",
          "name": "_amount",
          "type": "uint256"
        }
      ],
      "name": "swap",
      "outputs": [],
      "stateMutability": "nonpayable",
      "type": "function"
    },
    {
      "inputs": [
        {
          "internalType": "address",
          "name": "newOwner",
          "type": "address"
        }
      ],
      "name": "transferOwnership",
      "outputs": [],
      "stateMutability": "nonpayable",
      "type": "function"
    }
  ],
  "transactionHash": "0x85d0eb802c5ad6967b0b4aea7b6333fdf4e569e3dcec0d2934b87c669ad31c9d",
  "args": [
    "0x84c2b16FA6877a8fF4F3271db7ea837233DFd6f0"
  ],
  "solcInputHash": "15999bdf15ea48aeca3f42aeb65799b3",
  "bytecode": "0x60a060405260405162001bd138038062001bd18339810160408190526200002691620001b6565b620000313362000166565b6001600160a01b0381166200008d5760405162461bcd60e51b815260206004820152601860248201527f215f524942424f4e5f4541524e5f555344435f5641554c54000000000000000060448201526064015b60405180910390fd5b6200009b6006600a6200022f565b620000a990611d4c620002f0565b600355606081901b6001600160601b03191660805260405160009073c58a7009b7b1e3fb7e44e97adbf4af9e3af2ff8f9034908381818185875af1925050503d806000811462000116576040519150601f19603f3d011682016040523d82523d6000602084013e6200011b565b606091505b50509050806200015e5760405162461bcd60e51b815260206004820152600d60248201526c1d995c9a599e4819985a5b1959609a1b604482015260640162000084565b505062000328565b600080546001600160a01b038381166001600160a01b0319831681178455604051919092169283917f8be0079c531659141344cd1fd0a4f28419497f9722a3daafe3b4186f6b6457e09190a35050565b600060208284031215620001c8578081fd5b81516001600160a01b0381168114620001df578182fd5b9392505050565b600181815b80851115620002275781600019048211156200020b576200020b62000312565b808516156200021957918102915b93841c9390800290620001eb565b509250929050565b6000620001df60ff8416836000826200024b57506001620002ea565b816200025a57506000620002ea565b81600181146200027357600281146200027e576200029e565b6001915050620002ea565b60ff84111562000292576200029262000312565b50506001821b620002ea565b5060208310610133831016604e8410600b8410161715620002c3575081810a620002ea565b620002cf8383620001e6565b8060001904821115620002e657620002e662000312565b0290505b92915050565b60008160001904831182151516156200030d576200030d62000312565b500290565b634e487b7160e01b600052601160045260246000fd5b60805160601c6118766200035b6000396000818160ff015281816105d401528181610c720152610e0701526118766000f3fe608060405234801561001057600080fd5b50600436106100f55760003560e01c806389a3027111610097578063d924ad4a11610066578063d924ad4a1461028f578063df791e50146102a2578063e8cde544146102b5578063f2fde38b146102d557600080fd5b806389a302711461023d5780638da5cb5b14610258578063b608af2114610269578063bf95e2a61461027c57600080fd5b8063393b2c9a116100d3578063393b2c9a14610168578063715018a6146101725780637153a0571461017c578063793a8e711461018f57600080fd5b80630d5b8d79146100fa5780631a75efaf1461013e5780632f09e1a81461015f575b600080fd5b6101217f000000000000000000000000000000000000000000000000000000000000000081565b6040516001600160a01b0390911681526020015b60405180910390f35b61015161014c3660046114f4565b6102e8565b604051908152602001610135565b61015160035481565b610151620186a081565b61017a6104c7565b005b61017a61018a36600461149f565b610506565b6101f761019d36600461149f565b600160208190526000918252604090912080549181015460029091015463ffffffff808416936401000000008104909116926001600160a01b03600160401b9092048216929082169181169060ff600160a01b9091041686565b6040805163ffffffff97881681529690951660208701526001600160a01b03938416948601949094529082166060850152166080830152151560a082015260c001610135565b61012173a0b86991c6218b36c1d19d4a2e9eb0ce3606eb4881565b6000546001600160a01b0316610121565b6101516102773660046114f4565b610691565b61017a61028a36600461151d565b61081c565b61017a61029d3660046115da565b610bfc565b61017a6102b03660046114b9565b610c67565b6101516102c336600461149f565b60026020526000908152604090205481565b61017a6102e336600461149f565b61103d565b6001600160a01b03808316600090815260016020526040812060020154909116806103175760009150506104c1565b6000816001600160a01b031663313ce5676040518163ffffffff1660e01b815260040160206040518083038186803b15801561035257600080fd5b505afa158015610366573d6000803e3d6000fd5b505050506040513d601f19601f8201168201806040525081019061038a91906115f2565b60ff169050600061040b836001600160a01b03166350d25bcd6040518163ffffffff1660e01b815260040160206040518083038186803b1580156103cd57600080fd5b505afa1580156103e1573d6000803e3d6000fd5b505050506040513d601f19601f8201168201806040525081019061040591906115c2565b836110d8565b90506000866001600160a01b031663313ce5676040518163ffffffff1660e01b815260040160206040518083038186803b15801561044857600080fd5b505afa15801561045c573d6000803e3d6000fd5b505050506040513d601f19601f8201168201806040525081019061048091906115f2565b60ff16905060066104918285611697565b61049b91906117d9565b6104a690600a611712565b6104b083886117ba565b6104ba91906116af565b9450505050505b92915050565b6000546001600160a01b031633146104fa5760405162461bcd60e51b81526004016104f190611662565b60405180910390fd5b610504600061112d565b565b6040516370a0823160e01b81523060048201526000906001600160a01b038316906370a082319060240160206040518083038186803b15801561054857600080fd5b505afa15801561055c573d6000803e3d6000fd5b505050506040513d601f19601f8201168201806040525081019061058091906115c2565b9050600081116105c55760405162461bcd60e51b815260206004820152601060248201526f021616d74546f536574746c65203e20360841b60448201526064016104f1565b6105f96001600160a01b0383167f00000000000000000000000000000000000000000000000000000000000000008361117d565b6001600160a01b03821660009081526002602052604090205480821161061f5781610621565b805b6001600160a01b038416600090815260026020526040812080549091906106499084906117d9565b90915550506040518281526001600160a01b038416907f7823e479a1a4ebe2418874847436f8a1680c5ee5b17f38bb59dbff28e1b455529060200160405180910390a2505050565b6001600160a01b03808316600090815260016020526040812060020154909116806106c05760009150506104c1565b6000816001600160a01b031663313ce5676040518163ffffffff1660e01b815260040160206040518083038186803b1580156106fb57600080fd5b505afa15801561070f573d6000803e3d6000fd5b505050506040513d601f19601f8201168201806040525081019061073391906115f2565b60ff1690506000610776836001600160a01b03166350d25bcd6040518163ffffffff1660e01b815260040160206040518083038186803b1580156103cd57600080fd5b90506000866001600160a01b031663313ce5676040518163ffffffff1660e01b815260040160206040518083038186803b1580156107b357600080fd5b505afa1580156107c7573d6000803e3d6000fd5b505050506040513d601f19601f820116820180604052508101906107eb91906115f2565b60ff1690508160066107fd8386611697565b61080791906117d9565b61081290600a611712565b6104b090886117ba565b6000546001600160a01b031633146108465760405162461bcd60e51b81526004016104f190611662565b6001600160a01b0387166108885760405162461bcd60e51b81526020600482015260096024820152680857dc1c9bd91d58dd60ba1b60448201526064016104f1565b6127108663ffffffff1611156108d35760405162461bcd60e51b815260206004820152601060248201526f215f6d6d537072656164203c3d20312560801b60448201526064016104f1565b6127108563ffffffff1611156109245760405162461bcd60e51b8152602060048201526016602482015275215f70726f7669646572537072656164203c3d20312560501b60448201526064016104f1565b6001600160a01b03841661096b5760405162461bcd60e51b815260206004820152600e60248201526d215f69737375654164647265737360901b60448201526064016104f1565b6001600160a01b0383166109b35760405162461bcd60e51b815260206004820152600f60248201526e215f72656465656d4164647265737360881b60448201526064016104f1565b6001600160a01b0382166109fb5760405162461bcd60e51b815260206004820152600f60248201526e215f6f7261636c654164647265737360881b60448201526064016104f1565b6040518060c001604052808763ffffffff1681526020018663ffffffff168152602001856001600160a01b03168152602001846001600160a01b03168152602001836001600160a01b0316815260200182151581525060016000896001600160a01b03166001600160a01b0316815260200190815260200160002060008201518160000160006101000a81548163ffffffff021916908363ffffffff16021790555060208201518160000160046101000a81548163ffffffff021916908363ffffffff16021790555060408201518160000160086101000a8154816001600160a01b0302191690836001600160a01b0316021790555060608201518160010160006101000a8154816001600160a01b0302191690836001600160a01b0316021790555060808201518160020160006101000a8154816001600160a01b0302191690836001600160a01b0316021790555060a08201518160020160146101000a81548160ff021916908315150217905550905050826001600160a01b0316846001600160a01b0316886001600160a01b03167f1629a1a1b40df5acf5208d7eacbc17d3024eb25f7ad04c214ab75cc88d57135f89898787604051610beb949392919063ffffffff94851681529290931660208301526001600160a01b03166040820152901515606082015260800190565b60405180910390a450505050505050565b6000546001600160a01b03163314610c265760405162461bcd60e51b81526004016104f190611662565b60035460408051918252602082018390527f3b5755625f55fa4c9a5dde963a67ef8ec075253bf399c3246c551c4710c4af54910160405180910390a1600355565b336001600160a01b037f00000000000000000000000000000000000000000000000000000000000000001614610cdf5760405162461bcd60e51b815260206004820152601760248201527f21524942424f4e5f4541524e5f555344435f5641554c5400000000000000000060448201526064016104f1565b60006001600160a01b03841673a0b86991c6218b36c1d19d4a2e9eb0ce3606eb4814610d0b5783610d0d565b825b6001600160a01b038116600090815260016020526040902060020154909150600160a01b900460ff16610d715760405162461bcd60e51b815260206004820152600c60248201526b085dda1a5d195b1a5cdd195960a21b60448201526064016104f1565b6003546001600160a01b03851673a0b86991c6218b36c1d19d4a2e9eb0ce3606eb4814610da757610da282846102e8565b610da9565b825b1015610df75760405162461bcd60e51b815260206004820152601a60248201527f5f616d6f756e74203c3d206d696e50726f76696465725377617000000000000060448201526064016104f1565b83610e2d6001600160a01b0382167f000000000000000000000000000000000000000000000000000000000000000030866111e5565b6001600160a01b03821660009081526001602052604081205463ffffffff1690620f4240610e5b83826117d9565b610e6590876117ba565b610e6f91906116af565b905063ffffffff821615610ead57610ead610e926000546001600160a01b031690565b610e9c83886117d9565b6001600160a01b038616919061117d565b610f2c6001600160a01b03881673a0b86991c6218b36c1d19d4a2e9eb0ce3606eb4814610ef8576001600160a01b038086166000908152600160208190526040909120015416610f1b565b6001600160a01b03808616600090815260016020526040902054600160401b9004165b6001600160a01b038516908361117d565b6001600160a01b038416600090815260016020526040812054620f424090610f6290640100000000900463ffffffff16826117d9565b610f6c90846117ba565b610f7691906116af565b905060006001600160a01b03881673a0b86991c6218b36c1d19d4a2e9eb0ce3606eb4814610fad57610fa88683610691565b610fb7565b610fb786836102e8565b6001600160a01b038916600090815260026020526040812080549293508392909190610fe4908490611697565b909155505060408051848152602081018390526001600160a01b03808b1692908c16917ff9dab28d3817714f62d2fdf7eb376b5e5ba304dc9e2af735577db8737c6f6c26910160405180910390a3505050505050505050565b6000546001600160a01b031633146110675760405162461bcd60e51b81526004016104f190611662565b6001600160a01b0381166110cc5760405162461bcd60e51b815260206004820152602660248201527f4f776e61626c653a206e6577206f776e657220697320746865207a65726f206160448201526564647265737360d01b60648201526084016104f1565b6110d58161112d565b50565b6000806110e683600a611712565b6110f19060646117ba565b9050620f424061110482620186a06117ba565b61110e91906116af565b61111882866117d9565b116111235783611125565b805b949350505050565b600080546001600160a01b038381166001600160a01b0319831681178455604051919092169283917f8be0079c531659141344cd1fd0a4f28419497f9722a3daafe3b4186f6b6457e09190a35050565b6040516001600160a01b0383166024820152604481018290526111e090849063a9059cbb60e01b906064015b60408051601f198184030181529190526020810180516001600160e01b03166001600160e01b031990931692909217909152611223565b505050565b6040516001600160a01b038085166024830152831660448201526064810182905261121d9085906323b872dd60e01b906084016111a9565b50505050565b6000611278826040518060400160405280602081526020017f5361666545524332303a206c6f772d6c6576656c2063616c6c206661696c6564815250856001600160a01b03166112f59092919063ffffffff16565b8051909150156111e0578080602001905181019061129691906115a6565b6111e05760405162461bcd60e51b815260206004820152602a60248201527f5361666545524332303a204552433230206f7065726174696f6e20646964206e6044820152691bdd081cdd58d8d9595960b21b60648201526084016104f1565b6060611304848460008561130e565b90505b9392505050565b60608247101561136f5760405162461bcd60e51b815260206004820152602660248201527f416464726573733a20696e73756666696369656e742062616c616e636520666f6044820152651c8818d85b1b60d21b60648201526084016104f1565b843b6113bd5760405162461bcd60e51b815260206004820152601d60248201527f416464726573733a2063616c6c20746f206e6f6e2d636f6e747261637400000060448201526064016104f1565b600080866001600160a01b031685876040516113d99190611613565b60006040518083038185875af1925050503d8060008114611416576040519150601f19603f3d011682016040523d82523d6000602084013e61141b565b606091505b509150915061142b828286611436565b979650505050505050565b60608315611445575081611307565b8251156114555782518084602001fd5b8160405162461bcd60e51b81526004016104f1919061162f565b80356001600160a01b038116811461148657600080fd5b919050565b803563ffffffff8116811461148657600080fd5b6000602082840312156114b0578081fd5b6113078261146f565b6000806000606084860312156114cd578182fd5b6114d68461146f565b92506114e46020850161146f565b9150604084013590509250925092565b60008060408385031215611506578182fd5b61150f8361146f565b946020939093013593505050565b600080600080600080600060e0888a031215611537578283fd5b6115408861146f565b965061154e6020890161148b565b955061155c6040890161148b565b945061156a6060890161146f565b93506115786080890161146f565b925061158660a0890161146f565b915060c088013561159681611832565b8091505092959891949750929550565b6000602082840312156115b7578081fd5b815161112381611832565b6000602082840312156115d3578081fd5b5051919050565b6000602082840312156115eb578081fd5b5035919050565b600060208284031215611603578081fd5b815160ff81168114611123578182fd5b600082516116258184602087016117f0565b9190910192915050565b602081526000825180602084015261164e8160408501602087016117f0565b601f01601f19169190910160400192915050565b6020808252818101527f4f776e61626c653a2063616c6c6572206973206e6f7420746865206f776e6572604082015260600190565b600082198211156116aa576116aa61181c565b500190565b6000826116ca57634e487b7160e01b81526012600452602481fd5b500490565b600181815b8085111561170a5781600019048211156116f0576116f061181c565b808516156116fd57918102915b93841c93908002906116d4565b509250929050565b60006113078383600082611728575060016104c1565b81611735575060006104c1565b816001811461174b576002811461175557611771565b60019150506104c1565b60ff8411156117665761176661181c565b50506001821b6104c1565b5060208310610133831016604e8410600b8410161715611794575081810a6104c1565b61179e83836116cf565b80600019048211156117b2576117b261181c565b029392505050565b60008160001904831182151516156117d4576117d461181c565b500290565b6000828210156117eb576117eb61181c565b500390565b60005b8381101561180b5781810151838201526020016117f3565b8381111561121d5750506000910152565b634e487b7160e01b600052601160045260246000fd5b80151581146110d557600080fdfea264697066735822122097ca3fb16cc5cd0990437020437b35877c6c2819b7bf74172d6cde3d3d07ca4864736f6c63430008040033",
  "devdoc": {
    "kind": "dev",
    "methods": {
      "constructor": {
        "params": {
          "_RIBBON_EARN_USDC_VAULT": "is the Ribbon Earn USDC vault address"
        }
      },
      "convertToProductAmount(address,uint256)": {
        "params": {
          "_amount": "is the amount of USDC",
          "_product": "is the product asset"
        }
      },
      "convertToUSDCAmount(address,uint256)": {
        "params": {
          "_amount": "is the amount of the product",
          "_product": "is the product asset"
        }
      },
      "owner()": {
        "details": "Returns the address of the current owner."
      },
      "renounceOwnership()": {
        "details": "Leaves the contract without owner. It will not be possible to call `onlyOwner` functions anymore. Can only be called by the current owner. NOTE: Renouncing ownership will leave the contract without an owner, thereby removing any functionality that is only available to the owner."
      },
      "setMinProviderSwap(uint256)": {
        "params": {
          "_minProviderSwap": "is the swap amount in USDC"
        }
      },
      "setProduct(address,uint32,uint32,address,address,address,bool)": {
        "params": {
          "_isWhitelisted": "is whether product is whitelisted",
          "_issueAddress": "is the sweeper address                      for sending USDC for product issuance",
          "_mmSpread": "is the mm product / USDC spread fee",
          "_oracleAddress": "is the oracle for product",
          "_product": "is the product address (ex: bIB01 address)",
          "_providerSpread": "is the provider product / USDC spread fee",
          "_redeemAddress": "is the sweeper address                      for sending product token for product redemption"
        }
      },
      "settleTPlus0Transfer(address)": {
        "params": {
          "_asset": "is the product or USDC"
        }
      },
      "swap(address,address,uint256)": {
        "params": {
          "_amount": "is the amount of the _fromAsset token",
          "_fromAsset": "is the asset to sell",
          "_toAsset": "is the product to buy"
        }
      },
      "transferOwnership(address)": {
        "details": "Transfers ownership of the contract to a new account (`newOwner`). Can only be called by the current owner."
      }
    },
    "version": 1
  },
  "userdoc": {
    "kind": "user",
    "methods": {
      "constructor": {
        "notice": "Constructor"
      },
      "convertToProductAmount(address,uint256)": {
        "notice": "Converts from USDC to product amount"
      },
      "convertToUSDCAmount(address,uint256)": {
        "notice": "Converts from product to USDC amount"
      },
      "pendingSettledAssetAmount(address)": {
        "notice": "Since issuance / redemption is T+0 but not atomic, there will be a pending settlement before USDC or product lands on MM contract"
      },
      "setMinProviderSwap(uint256)": {
        "notice": "Sets the min amount to be able to swap"
      },
      "setProduct(address,uint32,uint32,address,address,address,bool)": {
        "notice": "Sets a product"
      },
      "settleTPlus0Transfer(address)": {
        "notice": "Transfers the product OR USDC to the Ribbon Earn        USDC Vault after T+0 lag for Issuance / Redemption"
      },
      "swap(address,address,uint256)": {
        "notice": "Swaps to a product or USDC"
      }
    },
    "version": 1
  },
  "storageLayout": {
    "storage": [
      {
        "astId": 956,
        "contract": "contracts/vaults/VaultMM/MM.sol:MM",
        "label": "_owner",
        "offset": 0,
        "slot": "0",
        "type": "t_address"
      },
      {
        "astId": 10078,
        "contract": "contracts/vaults/VaultMM/MM.sol:MM",
        "label": "products",
        "offset": 0,
        "slot": "1",
        "type": "t_mapping(t_address,t_struct(Product)10073_storage)"
      },
      {
        "astId": 10083,
        "contract": "contracts/vaults/VaultMM/MM.sol:MM",
        "label": "pendingSettledAssetAmount",
        "offset": 0,
        "slot": "2",
        "type": "t_mapping(t_address,t_uint256)"
      },
      {
        "astId": 10085,
        "contract": "contracts/vaults/VaultMM/MM.sol:MM",
        "label": "minProviderSwap",
        "offset": 0,
        "slot": "3",
        "type": "t_uint256"
      }
    ],
    "types": {
      "t_address": {
        "encoding": "inplace",
        "label": "address",
        "numberOfBytes": "20"
      },
      "t_bool": {
        "encoding": "inplace",
        "label": "bool",
        "numberOfBytes": "1"
      },
      "t_mapping(t_address,t_struct(Product)10073_storage)": {
        "encoding": "mapping",
        "key": "t_address",
        "label": "mapping(address => struct MM.Product)",
        "numberOfBytes": "32",
        "value": "t_struct(Product)10073_storage"
      },
      "t_mapping(t_address,t_uint256)": {
        "encoding": "mapping",
        "key": "t_address",
        "label": "mapping(address => uint256)",
        "numberOfBytes": "32",
        "value": "t_uint256"
      },
      "t_struct(Product)10073_storage": {
        "encoding": "inplace",
        "label": "struct MM.Product",
        "members": [
          {
            "astId": 10062,
            "contract": "contracts/vaults/VaultMM/MM.sol:MM",
            "label": "mmSpread",
            "offset": 0,
            "slot": "0",
            "type": "t_uint32"
          },
          {
            "astId": 10064,
            "contract": "contracts/vaults/VaultMM/MM.sol:MM",
            "label": "providerSpread",
            "offset": 4,
            "slot": "0",
            "type": "t_uint32"
          },
          {
            "astId": 10066,
            "contract": "contracts/vaults/VaultMM/MM.sol:MM",
            "label": "issueAddress",
            "offset": 8,
            "slot": "0",
            "type": "t_address"
          },
          {
            "astId": 10068,
            "contract": "contracts/vaults/VaultMM/MM.sol:MM",
            "label": "redeemAddress",
            "offset": 0,
            "slot": "1",
            "type": "t_address"
          },
          {
            "astId": 10070,
            "contract": "contracts/vaults/VaultMM/MM.sol:MM",
            "label": "oracle",
            "offset": 0,
            "slot": "2",
            "type": "t_address"
          },
          {
            "astId": 10072,
            "contract": "contracts/vaults/VaultMM/MM.sol:MM",
            "label": "isWhitelisted",
            "offset": 20,
            "slot": "2",
            "type": "t_bool"
          }
        ],
        "numberOfBytes": "96"
      },
      "t_uint256": {
        "encoding": "inplace",
        "label": "uint256",
        "numberOfBytes": "32"
      },
      "t_uint32": {
        "encoding": "inplace",
        "label": "uint32",
        "numberOfBytes": "4"
      }
    }
  }
}