{
  "address": "0x9AF2b8088992419929C51b4cf62fA19BFF247652",
  "abi": [
    {
      "inputs": [
        {
          "internalType": "address",
          "name": "_RIBBON_EARN_USDC_VAULT",
          "type": "address"
        },
        {
          "internalType": "uint256",
          "name": "_SET_PRODUCT_TIMELOCK",
          "type": "uint256"
        },
        {
          "internalType": "uint256",
          "name": "_minProviderSwap",
          "type": "uint256"
        }
      ],
      "stateMutability": "payable",
      "type": "constructor"
    },
    {
      "anonymous": false,
      "inputs": [
        {
          "indexed": false,
          "internalType": "uint256",
          "name": "oldMinProviderSwap",
          "type": "uint256"
        },
        {
          "indexed": false,
          "internalType": "uint256",
          "name": "newMinProviderSwap",
          "type": "uint256"
        }
      ],
      "name": "MinProviderSwapSet",
      "type": "event"
    },
    {
      "anonymous": false,
      "inputs": [
        {
          "indexed": true,
          "internalType": "address",
          "name": "previousOwner",
          "type": "address"
        },
        {
          "indexed": true,
          "internalType": "address",
          "name": "newOwner",
          "type": "address"
        }
      ],
      "name": "OwnershipTransferred",
      "type": "event"
    },
    {
      "anonymous": false,
      "inputs": [
        {
          "indexed": true,
          "internalType": "address",
          "name": "product",
          "type": "address"
        },
        {
          "indexed": false,
          "internalType": "uint32",
          "name": "mmSpread",
          "type": "uint32"
        },
        {
          "indexed": false,
          "internalType": "uint32",
          "name": "providerSpread",
          "type": "uint32"
        },
        {
          "indexed": true,
          "internalType": "address",
          "name": "issueAddress",
          "type": "address"
        },
        {
          "indexed": true,
          "internalType": "address",
          "name": "redeemAddress",
          "type": "address"
        },
        {
          "indexed": false,
          "internalType": "address",
          "name": "oracle",
          "type": "address"
        },
        {
          "indexed": false,
          "internalType": "bool",
          "name": "isWhitelisted",
          "type": "bool"
        }
      ],
      "name": "ProductSet",
      "type": "event"
    },
    {
      "anonymous": false,
      "inputs": [
        {
          "indexed": true,
          "internalType": "address",
          "name": "fromAsset",
          "type": "address"
        },
        {
          "indexed": true,
          "internalType": "address",
          "name": "toAsset",
          "type": "address"
        },
        {
          "indexed": false,
          "internalType": "uint256",
          "name": "amountIn",
          "type": "uint256"
        },
        {
          "indexed": false,
          "internalType": "uint256",
          "name": "amountOut",
          "type": "uint256"
        }
      ],
      "name": "ProductSwapped",
      "type": "event"
    },
    {
      "anonymous": false,
      "inputs": [
        {
          "indexed": true,
          "internalType": "address",
          "name": "asset",
          "type": "address"
        },
        {
          "indexed": false,
          "internalType": "uint256",
          "name": "amountInAsset",
          "type": "uint256"
        }
      ],
      "name": "Settled",
      "type": "event"
    },
    {
      "inputs": [],
      "name": "ORACLE_DIFF_THRESH_PCT",
      "outputs": [
        {
          "internalType": "uint256",
          "name": "",
          "type": "uint256"
        }
      ],
      "stateMutability": "view",
      "type": "function"
    },
    {
      "inputs": [],
      "name": "RIBBON_EARN_USDC_VAULT",
      "outputs": [
        {
          "internalType": "address",
          "name": "",
          "type": "address"
        }
      ],
      "stateMutability": "view",
      "type": "function"
    },
    {
      "inputs": [],
      "name": "SET_PRODUCT_TIMELOCK",
      "outputs": [
        {
          "internalType": "uint256",
          "name": "",
          "type": "uint256"
        }
      ],
      "stateMutability": "view",
      "type": "function"
    },
    {
      "inputs": [],
      "name": "USDC",
      "outputs": [
        {
          "internalType": "address",
          "name": "",
          "type": "address"
        }
      ],
      "stateMutability": "view",
      "type": "function"
    },
    {
      "inputs": [
        {
          "internalType": "address",
          "name": "_product",
          "type": "address"
        },
        {
          "internalType": "uint256",
          "name": "_amount",
          "type": "uint256"
        }
      ],
      "name": "convertToProductAmount",
      "outputs": [
        {
          "internalType": "uint256",
          "name": "",
          "type": "uint256"
        }
      ],
      "stateMutability": "view",
      "type": "function"
    },
    {
      "inputs": [
        {
          "internalType": "address",
          "name": "_product",
          "type": "address"
        },
        {
          "internalType": "uint256",
          "name": "_amount",
          "type": "uint256"
        }
      ],
      "name": "convertToUSDCAmount",
      "outputs": [
        {
          "internalType": "uint256",
          "name": "",
          "type": "uint256"
        }
      ],
      "stateMutability": "view",
      "type": "function"
    },
    {
      "inputs": [],
      "name": "lastSetProductTimestamp",
      "outputs": [
        {
          "internalType": "uint256",
          "name": "",
          "type": "uint256"
        }
      ],
      "stateMutability": "view",
      "type": "function"
    },
    {
      "inputs": [],
      "name": "minProviderSwap",
      "outputs": [
        {
          "internalType": "uint256",
          "name": "",
          "type": "uint256"
        }
      ],
      "stateMutability": "view",
      "type": "function"
    },
    {
      "inputs": [],
      "name": "owner",
      "outputs": [
        {
          "internalType": "address",
          "name": "",
          "type": "address"
        }
      ],
      "stateMutability": "view",
      "type": "function"
    },
    {
      "inputs": [
        {
          "internalType": "address",
          "name": "",
          "type": "address"
        }
      ],
      "name": "pendingSettledAssetAmount",
      "outputs": [
        {
          "internalType": "uint256",
          "name": "",
          "type": "uint256"
        }
      ],
      "stateMutability": "view",
      "type": "function"
    },
    {
      "inputs": [
        {
          "internalType": "address",
          "name": "",
          "type": "address"
        }
      ],
      "name": "products",
      "outputs": [
        {
          "internalType": "uint32",
          "name": "mmSpread",
          "type": "uint32"
        },
        {
          "internalType": "uint32",
          "name": "providerSpread",
          "type": "uint32"
        },
        {
          "internalType": "address",
          "name": "issueAddress",
          "type": "address"
        },
        {
          "internalType": "address",
          "name": "redeemAddress",
          "type": "address"
        },
        {
          "internalType": "address",
          "name": "oracle",
          "type": "address"
        },
        {
          "internalType": "bool",
          "name": "isWhitelisted",
          "type": "bool"
        }
      ],
      "stateMutability": "view",
      "type": "function"
    },
    {
      "inputs": [],
      "name": "renounceOwnership",
      "outputs": [],
      "stateMutability": "nonpayable",
      "type": "function"
    },
    {
      "inputs": [
        {
          "internalType": "uint256",
          "name": "_minProviderSwap",
          "type": "uint256"
        }
      ],
      "name": "setMinProviderSwap",
      "outputs": [],
      "stateMutability": "nonpayable",
      "type": "function"
    },
    {
      "inputs": [
        {
          "internalType": "address",
          "name": "_product",
          "type": "address"
        },
        {
          "internalType": "uint32",
          "name": "_mmSpread",
          "type": "uint32"
        },
        {
          "internalType": "uint32",
          "name": "_providerSpread",
          "type": "uint32"
        },
        {
          "internalType": "address",
          "name": "_issueAddress",
          "type": "address"
        },
        {
          "internalType": "address",
          "name": "_redeemAddress",
          "type": "address"
        },
        {
          "internalType": "address",
          "name": "_oracleAddress",
          "type": "address"
        },
        {
          "internalType": "bool",
          "name": "_isWhitelisted",
          "type": "bool"
        }
      ],
      "name": "setProduct",
      "outputs": [],
      "stateMutability": "nonpayable",
      "type": "function"
    },
    {
      "inputs": [
        {
          "internalType": "address",
          "name": "_asset",
          "type": "address"
        }
      ],
      "name": "settleTPlus0Transfer",
      "outputs": [],
      "stateMutability": "nonpayable",
      "type": "function"
    },
    {
      "inputs": [
        {
          "internalType": "address",
          "name": "_fromAsset",
          "type": "address"
        },
        {
          "internalType": "address",
          "name": "_toAsset",
          "type": "address"
        },
        {
          "internalType": "uint256",
          "name": "_amount",
          "type": "uint256"
        }
      ],
      "name": "swap",
      "outputs": [],
      "stateMutability": "nonpayable",
      "type": "function"
    },
    {
      "inputs": [
        {
          "internalType": "address",
          "name": "newOwner",
          "type": "address"
        }
      ],
      "name": "transferOwnership",
      "outputs": [],
      "stateMutability": "nonpayable",
      "type": "function"
    }
  ],
  "transactionHash": "0xdba503e2f91f61b61b5c690fa75ec7459eede70de4f900649f56389d588b1ea3",
  "args": [
    "0x84c2b16FA6877a8fF4F3271db7ea837233DFd6f0",
    604800,
    "7500000000"
  ],
  "solcInputHash": "53145d9e81156d2066f3a05c8178f515",
  "bytecode": "0x60c060405260405162001b8c38038062001b8c8339810160408190526200002691620001a3565b620000313362000153565b6001600160a01b0383166200008d5760405162461bcd60e51b815260206004820152601860248201527f215f524942424f4e5f4541524e5f555344435f5641554c54000000000000000060448201526064015b60405180910390fd5b606083901b6001600160601b03191660805260a0829052600381905560405160009073c58a7009b7b1e3fb7e44e97adbf4af9e3af2ff8f9034908381818185875af1925050503d806000811462000101576040519150601f19603f3d011682016040523d82523d6000602084013e62000106565b606091505b5050905080620001495760405162461bcd60e51b815260206004820152600d60248201526c1d995c9a599e4819985a5b1959609a1b604482015260640162000084565b50505050620001e6565b600080546001600160a01b038381166001600160a01b0319831681178455604051919092169283917f8be0079c531659141344cd1fd0a4f28419497f9722a3daafe3b4186f6b6457e09190a35050565b600080600060608486031215620001b8578283fd5b83516001600160a01b0381168114620001cf578384fd5b602085015160409095015190969495509392505050565b60805160601c60a0516119616200022b6000396000818161018d0152610d570152600081816101150152818161061a01528181610ce80152610ef201526119616000f3fe608060405234801561001057600080fd5b506004361061010b5760003560e01c806389a30271116100a2578063c902cbe111610071578063c902cbe1146102cc578063d924ad4a146102d5578063df791e50146102e8578063e8cde544146102fb578063f2fde38b1461031b57600080fd5b806389a302711461027a5780638da5cb5b14610295578063b608af21146102a6578063bf95e2a6146102b957600080fd5b8063605ded03116100de578063605ded0314610188578063715018a6146101af5780637153a057146101b9578063793a8e71146101cc57600080fd5b80630d5b8d79146101105780631a75efaf146101545780632f09e1a814610175578063393b2c9a1461017e575b600080fd5b6101377f000000000000000000000000000000000000000000000000000000000000000081565b6040516001600160a01b0390911681526020015b60405180910390f35b6101676101623660046115df565b61032e565b60405190815260200161014b565b61016760035481565b610167620186a081565b6101677f000000000000000000000000000000000000000000000000000000000000000081565b6101b761050d565b005b6101b76101c736600461158a565b61054c565b6102346101da36600461158a565b600160208190526000918252604090912080549181015460029091015463ffffffff808416936401000000008104909116926001600160a01b03600160401b9092048216929082169181169060ff600160a01b9091041686565b6040805163ffffffff97881681529690951660208701526001600160a01b03938416948601949094529082166060850152166080830152151560a082015260c00161014b565b61013773a0b86991c6218b36c1d19d4a2e9eb0ce3606eb4881565b6000546001600160a01b0316610137565b6101676102b43660046115df565b6106d7565b6101b76102c7366004611608565b610862565b61016760045481565b6101b76102e33660046116c5565b610c72565b6101b76102f63660046115a4565b610cdd565b61016761030936600461158a565b60026020526000908152604090205481565b6101b761032936600461158a565b611128565b6001600160a01b038083166000908152600160205260408120600201549091168061035d576000915050610507565b6000816001600160a01b031663313ce5676040518163ffffffff1660e01b815260040160206040518083038186803b15801561039857600080fd5b505afa1580156103ac573d6000803e3d6000fd5b505050506040513d601f19601f820116820180604052508101906103d091906116dd565b60ff1690506000610451836001600160a01b03166350d25bcd6040518163ffffffff1660e01b815260040160206040518083038186803b15801561041357600080fd5b505afa158015610427573d6000803e3d6000fd5b505050506040513d601f19601f8201168201806040525081019061044b91906116ad565b836111c3565b90506000866001600160a01b031663313ce5676040518163ffffffff1660e01b815260040160206040518083038186803b15801561048e57600080fd5b505afa1580156104a2573d6000803e3d6000fd5b505050506040513d601f19601f820116820180604052508101906104c691906116dd565b60ff16905060066104d78285611782565b6104e191906118c4565b6104ec90600a6117fd565b6104f683886118a5565b610500919061179a565b9450505050505b92915050565b6000546001600160a01b031633146105405760405162461bcd60e51b81526004016105379061174d565b60405180910390fd5b61054a6000611218565b565b6040516370a0823160e01b81523060048201526000906001600160a01b038316906370a082319060240160206040518083038186803b15801561058e57600080fd5b505afa1580156105a2573d6000803e3d6000fd5b505050506040513d601f19601f820116820180604052508101906105c691906116ad565b90506000811161060b5760405162461bcd60e51b815260206004820152601060248201526f021616d74546f536574746c65203e20360841b6044820152606401610537565b61063f6001600160a01b0383167f000000000000000000000000000000000000000000000000000000000000000083611268565b6001600160a01b0382166000908152600260205260409020548082116106655781610667565b805b6001600160a01b0384166000908152600260205260408120805490919061068f9084906118c4565b90915550506040518281526001600160a01b038416907f7823e479a1a4ebe2418874847436f8a1680c5ee5b17f38bb59dbff28e1b455529060200160405180910390a2505050565b6001600160a01b0380831660009081526001602052604081206002015490911680610706576000915050610507565b6000816001600160a01b031663313ce5676040518163ffffffff1660e01b815260040160206040518083038186803b15801561074157600080fd5b505afa158015610755573d6000803e3d6000fd5b505050506040513d601f19601f8201168201806040525081019061077991906116dd565b60ff16905060006107bc836001600160a01b03166350d25bcd6040518163ffffffff1660e01b815260040160206040518083038186803b15801561041357600080fd5b90506000866001600160a01b031663313ce5676040518163ffffffff1660e01b815260040160206040518083038186803b1580156107f957600080fd5b505afa15801561080d573d6000803e3d6000fd5b505050506040513d601f19601f8201168201806040525081019061083191906116dd565b60ff1690508160066108438386611782565b61084d91906118c4565b61085890600a6117fd565b6104f690886118a5565b6000546001600160a01b0316331461088c5760405162461bcd60e51b81526004016105379061174d565b6001600160a01b0387166108ce5760405162461bcd60e51b81526020600482015260096024820152680857dc1c9bd91d58dd60ba1b6044820152606401610537565b6127108663ffffffff1611156109195760405162461bcd60e51b815260206004820152601060248201526f215f6d6d537072656164203c3d20312560801b6044820152606401610537565b6127108563ffffffff16111561096a5760405162461bcd60e51b8152602060048201526016602482015275215f70726f7669646572537072656164203c3d20312560501b6044820152606401610537565b6001600160a01b0384166109b15760405162461bcd60e51b815260206004820152600e60248201526d215f69737375654164647265737360901b6044820152606401610537565b6001600160a01b0383166109f95760405162461bcd60e51b815260206004820152600f60248201526e215f72656465656d4164647265737360881b6044820152606401610537565b6001600160a01b038216610a415760405162461bcd60e51b815260206004820152600f60248201526e215f6f7261636c654164647265737360881b6044820152606401610537565b6001600160a01b038716600090815260016020526040902060020154600160a01b900460ff1615610a7157426004555b6040518060c001604052808763ffffffff1681526020018663ffffffff168152602001856001600160a01b03168152602001846001600160a01b03168152602001836001600160a01b0316815260200182151581525060016000896001600160a01b03166001600160a01b0316815260200190815260200160002060008201518160000160006101000a81548163ffffffff021916908363ffffffff16021790555060208201518160000160046101000a81548163ffffffff021916908363ffffffff16021790555060408201518160000160086101000a8154816001600160a01b0302191690836001600160a01b0316021790555060608201518160010160006101000a8154816001600160a01b0302191690836001600160a01b0316021790555060808201518160020160006101000a8154816001600160a01b0302191690836001600160a01b0316021790555060a08201518160020160146101000a81548160ff021916908315150217905550905050826001600160a01b0316846001600160a01b0316886001600160a01b03167f1629a1a1b40df5acf5208d7eacbc17d3024eb25f7ad04c214ab75cc88d57135f89898787604051610c61949392919063ffffffff94851681529290931660208301526001600160a01b03166040820152901515606082015260800190565b60405180910390a450505050505050565b6000546001600160a01b03163314610c9c5760405162461bcd60e51b81526004016105379061174d565b60035460408051918252602082018390527f3b5755625f55fa4c9a5dde963a67ef8ec075253bf399c3246c551c4710c4af54910160405180910390a1600355565b336001600160a01b037f00000000000000000000000000000000000000000000000000000000000000001614610d555760405162461bcd60e51b815260206004820152601760248201527f21524942424f4e5f4541524e5f555344435f5641554c540000000000000000006044820152606401610537565b7f0000000000000000000000000000000000000000000000000000000000000000600454610d839190611782565b421015610dca5760405162461bcd60e51b8152602060048201526015602482015274215345545f50524f445543545f54494d454c4f434b60581b6044820152606401610537565b60006001600160a01b03841673a0b86991c6218b36c1d19d4a2e9eb0ce3606eb4814610df65783610df8565b825b6001600160a01b038116600090815260016020526040902060020154909150600160a01b900460ff16610e5c5760405162461bcd60e51b815260206004820152600c60248201526b085dda1a5d195b1a5cdd195960a21b6044820152606401610537565b6003546001600160a01b03851673a0b86991c6218b36c1d19d4a2e9eb0ce3606eb4814610e9257610e8d828461032e565b610e94565b825b1015610ee25760405162461bcd60e51b815260206004820152601a60248201527f5f616d6f756e74203c3d206d696e50726f7669646572537761700000000000006044820152606401610537565b83610f186001600160a01b0382167f000000000000000000000000000000000000000000000000000000000000000030866112d0565b6001600160a01b03821660009081526001602052604081205463ffffffff1690620f4240610f4683826118c4565b610f5090876118a5565b610f5a919061179a565b905063ffffffff821615610f9857610f98610f7d6000546001600160a01b031690565b610f8783886118c4565b6001600160a01b0386169190611268565b6110176001600160a01b03881673a0b86991c6218b36c1d19d4a2e9eb0ce3606eb4814610fe3576001600160a01b038086166000908152600160208190526040909120015416611006565b6001600160a01b03808616600090815260016020526040902054600160401b9004165b6001600160a01b0385169083611268565b6001600160a01b038416600090815260016020526040812054620f42409061104d90640100000000900463ffffffff16826118c4565b61105790846118a5565b611061919061179a565b905060006001600160a01b03881673a0b86991c6218b36c1d19d4a2e9eb0ce3606eb48146110985761109386836106d7565b6110a2565b6110a2868361032e565b6001600160a01b0389166000908152600260205260408120805492935083929091906110cf908490611782565b909155505060408051848152602081018390526001600160a01b03808b1692908c16917ff9dab28d3817714f62d2fdf7eb376b5e5ba304dc9e2af735577db8737c6f6c26910160405180910390a3505050505050505050565b6000546001600160a01b031633146111525760405162461bcd60e51b81526004016105379061174d565b6001600160a01b0381166111b75760405162461bcd60e51b815260206004820152602660248201527f4f776e61626c653a206e6577206f776e657220697320746865207a65726f206160448201526564647265737360d01b6064820152608401610537565b6111c081611218565b50565b6000806111d183600a6117fd565b6111dc9060646118a5565b9050620f42406111ef82620186a06118a5565b6111f9919061179a565b61120382866118c4565b1161120e5783611210565b805b949350505050565b600080546001600160a01b038381166001600160a01b0319831681178455604051919092169283917f8be0079c531659141344cd1fd0a4f28419497f9722a3daafe3b4186f6b6457e09190a35050565b6040516001600160a01b0383166024820152604481018290526112cb90849063a9059cbb60e01b906064015b60408051601f198184030181529190526020810180516001600160e01b03166001600160e01b03199093169290921790915261130e565b505050565b6040516001600160a01b03808516602483015283166044820152606481018290526113089085906323b872dd60e01b90608401611294565b50505050565b6000611363826040518060400160405280602081526020017f5361666545524332303a206c6f772d6c6576656c2063616c6c206661696c6564815250856001600160a01b03166113e09092919063ffffffff16565b8051909150156112cb57808060200190518101906113819190611691565b6112cb5760405162461bcd60e51b815260206004820152602a60248201527f5361666545524332303a204552433230206f7065726174696f6e20646964206e6044820152691bdd081cdd58d8d9595960b21b6064820152608401610537565b60606113ef84846000856113f9565b90505b9392505050565b60608247101561145a5760405162461bcd60e51b815260206004820152602660248201527f416464726573733a20696e73756666696369656e742062616c616e636520666f6044820152651c8818d85b1b60d21b6064820152608401610537565b843b6114a85760405162461bcd60e51b815260206004820152601d60248201527f416464726573733a2063616c6c20746f206e6f6e2d636f6e74726163740000006044820152606401610537565b600080866001600160a01b031685876040516114c491906116fe565b60006040518083038185875af1925050503d8060008114611501576040519150601f19603f3d011682016040523d82523d6000602084013e611506565b606091505b5091509150611516828286611521565b979650505050505050565b606083156115305750816113f2565b8251156115405782518084602001fd5b8160405162461bcd60e51b8152600401610537919061171a565b80356001600160a01b038116811461157157600080fd5b919050565b803563ffffffff8116811461157157600080fd5b60006020828403121561159b578081fd5b6113f28261155a565b6000806000606084860312156115b8578182fd5b6115c18461155a565b92506115cf6020850161155a565b9150604084013590509250925092565b600080604083850312156115f1578182fd5b6115fa8361155a565b946020939093013593505050565b600080600080600080600060e0888a031215611622578283fd5b61162b8861155a565b965061163960208901611576565b955061164760408901611576565b94506116556060890161155a565b93506116636080890161155a565b925061167160a0890161155a565b915060c08801356116818161191d565b8091505092959891949750929550565b6000602082840312156116a2578081fd5b815161120e8161191d565b6000602082840312156116be578081fd5b5051919050565b6000602082840312156116d6578081fd5b5035919050565b6000602082840312156116ee578081fd5b815160ff8116811461120e578182fd5b600082516117108184602087016118db565b9190910192915050565b60208152600082518060208401526117398160408501602087016118db565b601f01601f19169190910160400192915050565b6020808252818101527f4f776e61626c653a2063616c6c6572206973206e6f7420746865206f776e6572604082015260600190565b6000821982111561179557611795611907565b500190565b6000826117b557634e487b7160e01b81526012600452602481fd5b500490565b600181815b808511156117f55781600019048211156117db576117db611907565b808516156117e857918102915b93841c93908002906117bf565b509250929050565b60006113f2838360008261181357506001610507565b8161182057506000610507565b816001811461183657600281146118405761185c565b6001915050610507565b60ff84111561185157611851611907565b50506001821b610507565b5060208310610133831016604e8410600b841016171561187f575081810a610507565b61188983836117ba565b806000190482111561189d5761189d611907565b029392505050565b60008160001904831182151516156118bf576118bf611907565b500290565b6000828210156118d6576118d6611907565b500390565b60005b838110156118f65781810151838201526020016118de565b838111156113085750506000910152565b634e487b7160e01b600052601160045260246000fd5b80151581146111c057600080fdfea2646970667358221220f5cc5bfdbb115d0855cb17b3ecf4f05e1178ad76b6d36c4cb1d9b44a6c9b9f5f64736f6c63430008040033",
  "devdoc": {
    "kind": "dev",
    "methods": {
      "constructor": {
        "params": {
          "_RIBBON_EARN_USDC_VAULT": "is the Ribbon Earn USDC vault address",
          "_SET_PRODUCT_TIMELOCK": "is the minimum time between last product was set and swap",
          "_minProviderSwap": "is the min amount for swap"
        }
      },
      "convertToProductAmount(address,uint256)": {
        "params": {
          "_amount": "is the amount of USDC",
          "_product": "is the product asset"
        }
      },
      "convertToUSDCAmount(address,uint256)": {
        "params": {
          "_amount": "is the amount of the product",
          "_product": "is the product asset"
        }
      },
      "owner()": {
        "details": "Returns the address of the current owner."
      },
      "renounceOwnership()": {
        "details": "Leaves the contract without owner. It will not be possible to call `onlyOwner` functions anymore. Can only be called by the current owner. NOTE: Renouncing ownership will leave the contract without an owner, thereby removing any functionality that is only available to the owner."
      },
      "setMinProviderSwap(uint256)": {
        "params": {
          "_minProviderSwap": "is the swap amount in USDC"
        }
      },
      "setProduct(address,uint32,uint32,address,address,address,bool)": {
        "params": {
          "_isWhitelisted": "is whether product is whitelisted",
          "_issueAddress": "is the sweeper address                      for sending USDC for product issuance",
          "_mmSpread": "is the mm product / USDC spread fee",
          "_oracleAddress": "is the oracle for product",
          "_product": "is the product address (ex: bIB01 address)",
          "_providerSpread": "is the provider product / USDC spread fee",
          "_redeemAddress": "is the sweeper address                      for sending product token for product redemption"
        }
      },
      "settleTPlus0Transfer(address)": {
        "params": {
          "_asset": "is the product or USDC"
        }
      },
      "swap(address,address,uint256)": {
        "params": {
          "_amount": "is the amount of the _fromAsset token",
          "_fromAsset": "is the asset to sell",
          "_toAsset": "is the product to buy"
        }
      },
      "transferOwnership(address)": {
        "details": "Transfers ownership of the contract to a new account (`newOwner`). Can only be called by the current owner."
      }
    },
    "version": 1
  },
  "userdoc": {
    "kind": "user",
    "methods": {
      "constructor": {
        "notice": "Constructor"
      },
      "convertToProductAmount(address,uint256)": {
        "notice": "Converts from USDC to product amount"
      },
      "convertToUSDCAmount(address,uint256)": {
        "notice": "Converts from product to USDC amount"
      },
      "pendingSettledAssetAmount(address)": {
        "notice": "Since issuance / redemption is T+0 but not atomic, there will be a pending settlement before USDC or product lands on MM contract"
      },
      "setMinProviderSwap(uint256)": {
        "notice": "Sets the min amount to be able to swap"
      },
      "setProduct(address,uint32,uint32,address,address,address,bool)": {
        "notice": "Sets a product"
      },
      "settleTPlus0Transfer(address)": {
        "notice": "Transfers the product OR USDC to the Ribbon Earn        USDC Vault after T+0 lag for Issuance / Redemption"
      },
      "swap(address,address,uint256)": {
        "notice": "Swaps to a product or USDC"
      }
    },
    "version": 1
  },
  "storageLayout": {
    "storage": [
      {
        "astId": 956,
        "contract": "contracts/vaults/VaultMM/MM.sol:MM",
        "label": "_owner",
        "offset": 0,
        "slot": "0",
        "type": "t_address"
      },
      {
        "astId": 10078,
        "contract": "contracts/vaults/VaultMM/MM.sol:MM",
        "label": "products",
        "offset": 0,
        "slot": "1",
        "type": "t_mapping(t_address,t_struct(Product)10073_storage)"
      },
      {
        "astId": 10083,
        "contract": "contracts/vaults/VaultMM/MM.sol:MM",
        "label": "pendingSettledAssetAmount",
        "offset": 0,
        "slot": "2",
        "type": "t_mapping(t_address,t_uint256)"
      },
      {
        "astId": 10085,
        "contract": "contracts/vaults/VaultMM/MM.sol:MM",
        "label": "minProviderSwap",
        "offset": 0,
        "slot": "3",
        "type": "t_uint256"
      },
      {
        "astId": 10087,
        "contract": "contracts/vaults/VaultMM/MM.sol:MM",
        "label": "lastSetProductTimestamp",
        "offset": 0,
        "slot": "4",
        "type": "t_uint256"
      }
    ],
    "types": {
      "t_address": {
        "encoding": "inplace",
        "label": "address",
        "numberOfBytes": "20"
      },
      "t_bool": {
        "encoding": "inplace",
        "label": "bool",
        "numberOfBytes": "1"
      },
      "t_mapping(t_address,t_struct(Product)10073_storage)": {
        "encoding": "mapping",
        "key": "t_address",
        "label": "mapping(address => struct MM.Product)",
        "numberOfBytes": "32",
        "value": "t_struct(Product)10073_storage"
      },
      "t_mapping(t_address,t_uint256)": {
        "encoding": "mapping",
        "key": "t_address",
        "label": "mapping(address => uint256)",
        "numberOfBytes": "32",
        "value": "t_uint256"
      },
      "t_struct(Product)10073_storage": {
        "encoding": "inplace",
        "label": "struct MM.Product",
        "members": [
          {
            "astId": 10062,
            "contract": "contracts/vaults/VaultMM/MM.sol:MM",
            "label": "mmSpread",
            "offset": 0,
            "slot": "0",
            "type": "t_uint32"
          },
          {
            "astId": 10064,
            "contract": "contracts/vaults/VaultMM/MM.sol:MM",
            "label": "providerSpread",
            "offset": 4,
            "slot": "0",
            "type": "t_uint32"
          },
          {
            "astId": 10066,
            "contract": "contracts/vaults/VaultMM/MM.sol:MM",
            "label": "issueAddress",
            "offset": 8,
            "slot": "0",
            "type": "t_address"
          },
          {
            "astId": 10068,
            "contract": "contracts/vaults/VaultMM/MM.sol:MM",
            "label": "redeemAddress",
            "offset": 0,
            "slot": "1",
            "type": "t_address"
          },
          {
            "astId": 10070,
            "contract": "contracts/vaults/VaultMM/MM.sol:MM",
            "label": "oracle",
            "offset": 0,
            "slot": "2",
            "type": "t_address"
          },
          {
            "astId": 10072,
            "contract": "contracts/vaults/VaultMM/MM.sol:MM",
            "label": "isWhitelisted",
            "offset": 20,
            "slot": "2",
            "type": "t_bool"
          }
        ],
        "numberOfBytes": "96"
      },
      "t_uint256": {
        "encoding": "inplace",
        "label": "uint256",
        "numberOfBytes": "32"
      },
      "t_uint32": {
        "encoding": "inplace",
        "label": "uint32",
        "numberOfBytes": "4"
      }
    }
  }
}