{
  "address": "0x13874898C1a2f799262C601E5C01BfCa32Ae312b",
  "abi": [
    {
      "anonymous": false,
      "inputs": [
        {
          "indexed": true,
          "internalType": "address",
          "name": "owner",
          "type": "address"
        },
        {
          "indexed": true,
          "internalType": "address",
          "name": "spender",
          "type": "address"
        },
        {
          "indexed": false,
          "internalType": "uint256",
          "name": "value",
          "type": "uint256"
        }
      ],
      "name": "Approval",
      "type": "event"
    },
    {
      "anonymous": false,
      "inputs": [
        {
          "indexed": false,
          "internalType": "address[]",
          "name": "borrowers",
          "type": "address[]"
        },
        {
          "indexed": false,
          "internalType": "uint128[]",
          "name": "borrowerWeights",
          "type": "uint128[]"
        }
      ],
      "name": "BorrowerBasketUpdated",
      "type": "event"
    },
    {
      "anonymous": false,
      "inputs": [
        {
          "indexed": false,
          "internalType": "uint256",
          "name": "oldCap",
          "type": "uint256"
        },
        {
          "indexed": false,
          "internalType": "uint256",
          "name": "newCap",
          "type": "uint256"
        }
      ],
      "name": "CapSet",
      "type": "event"
    },
    {
      "anonymous": false,
      "inputs": [
        {
          "indexed": false,
          "internalType": "uint256",
          "name": "performanceFee",
          "type": "uint256"
        },
        {
          "indexed": false,
          "internalType": "uint256",
          "name": "vaultFee",
          "type": "uint256"
        },
        {
          "indexed": false,
          "internalType": "uint256",
          "name": "round",
          "type": "uint256"
        },
        {
          "indexed": true,
          "internalType": "address",
          "name": "feeRecipient",
          "type": "address"
        }
      ],
      "name": "CollectVaultFees",
      "type": "event"
    },
    {
      "anonymous": false,
      "inputs": [
        {
          "indexed": false,
          "internalType": "uint256",
          "name": "totalBorrowerWeight",
          "type": "uint256"
        }
      ],
      "name": "CommitBorrowerBasket",
      "type": "event"
    },
    {
      "anonymous": false,
      "inputs": [
        {
          "indexed": true,
          "internalType": "address",
          "name": "account",
          "type": "address"
        },
        {
          "indexed": false,
          "internalType": "uint256",
          "name": "amount",
          "type": "uint256"
        },
        {
          "indexed": false,
          "internalType": "uint256",
          "name": "round",
          "type": "uint256"
        }
      ],
      "name": "Deposit",
      "type": "event"
    },
    {
      "anonymous": false,
      "inputs": [
        {
          "indexed": true,
          "internalType": "address",
          "name": "account",
          "type": "address"
        },
        {
          "indexed": false,
          "internalType": "uint256",
          "name": "shares",
          "type": "uint256"
        },
        {
          "indexed": false,
          "internalType": "uint256",
          "name": "round",
          "type": "uint256"
        }
      ],
      "name": "InitiateWithdraw",
      "type": "event"
    },
    {
      "anonymous": false,
      "inputs": [
        {
          "indexed": true,
          "internalType": "address",
          "name": "account",
          "type": "address"
        },
        {
          "indexed": false,
          "internalType": "uint256",
          "name": "amount",
          "type": "uint256"
        },
        {
          "indexed": false,
          "internalType": "uint256",
          "name": "round",
          "type": "uint256"
        }
      ],
      "name": "InstantWithdraw",
      "type": "event"
    },
    {
      "anonymous": false,
      "inputs": [
        {
          "indexed": false,
          "internalType": "uint256",
          "name": "managementFee",
          "type": "uint256"
        },
        {
          "indexed": false,
          "internalType": "uint256",
          "name": "newManagementFee",
          "type": "uint256"
        }
      ],
      "name": "ManagementFeeSet",
      "type": "event"
    },
    {
      "anonymous": false,
      "inputs": [
        {
          "indexed": false,
          "internalType": "uint256",
          "name": "oldLoanAllocation",
          "type": "uint256"
        },
        {
          "indexed": false,
          "internalType": "uint256",
          "name": "oldOptionAllocation",
          "type": "uint256"
        },
        {
          "indexed": false,
          "internalType": "uint256",
          "name": "newLoanAllocation",
          "type": "uint256"
        },
        {
          "indexed": false,
          "internalType": "uint256",
          "name": "newOptionAllocation",
          "type": "uint256"
        }
      ],
      "name": "NewAllocationSet",
      "type": "event"
    },
    {
      "anonymous": false,
      "inputs": [
        {
          "indexed": false,
          "internalType": "uint256",
          "name": "oldLoanTermLength",
          "type": "uint256"
        },
        {
          "indexed": false,
          "internalType": "uint256",
          "name": "newLoanTermLength",
          "type": "uint256"
        }
      ],
      "name": "NewLoanTermLength",
      "type": "event"
    },
    {
      "anonymous": false,
      "inputs": [
        {
          "indexed": false,
          "internalType": "uint256",
          "name": "oldOptionPurchaseFrequency",
          "type": "uint256"
        },
        {
          "indexed": false,
          "internalType": "uint256",
          "name": "newOptionPurchaseFrequency",
          "type": "uint256"
        }
      ],
      "name": "NewOptionPurchaseFrequency",
      "type": "event"
    },
    {
      "anonymous": false,
      "inputs": [
        {
          "indexed": false,
          "internalType": "address",
          "name": "oldOptionSeller",
          "type": "address"
        },
        {
          "indexed": false,
          "internalType": "address",
          "name": "newOptionSeller",
          "type": "address"
        }
      ],
      "name": "OptionSellerSet",
      "type": "event"
    },
    {
      "anonymous": false,
      "inputs": [
        {
          "indexed": true,
          "internalType": "address",
          "name": "previousOwner",
          "type": "address"
        },
        {
          "indexed": true,
          "internalType": "address",
          "name": "newOwner",
          "type": "address"
        }
      ],
      "name": "OwnershipTransferred",
      "type": "event"
    },
    {
      "anonymous": false,
      "inputs": [
        {
          "indexed": false,
          "internalType": "uint256",
          "name": "yield",
          "type": "uint256"
        },
        {
          "indexed": false,
          "internalType": "uint256",
          "name": "netYield",
          "type": "uint256"
        },
        {
          "indexed": true,
          "internalType": "address",
          "name": "seller",
          "type": "address"
        }
      ],
      "name": "PayOptionYield",
      "type": "event"
    },
    {
      "anonymous": false,
      "inputs": [
        {
          "indexed": false,
          "internalType": "uint256",
          "name": "performanceFee",
          "type": "uint256"
        },
        {
          "indexed": false,
          "internalType": "uint256",
          "name": "newPerformanceFee",
          "type": "uint256"
        }
      ],
      "name": "PerformanceFeeSet",
      "type": "event"
    },
    {
      "anonymous": false,
      "inputs": [
        {
          "indexed": false,
          "internalType": "uint256",
          "name": "premium",
          "type": "uint256"
        },
        {
          "indexed": true,
          "internalType": "address",
          "name": "seller",
          "type": "address"
        }
      ],
      "name": "PurchaseOption",
      "type": "event"
    },
    {
      "anonymous": false,
      "inputs": [
        {
          "indexed": true,
          "internalType": "address",
          "name": "account",
          "type": "address"
        },
        {
          "indexed": false,
          "internalType": "uint256",
          "name": "share",
          "type": "uint256"
        },
        {
          "indexed": false,
          "internalType": "uint256",
          "name": "round",
          "type": "uint256"
        }
      ],
      "name": "Redeem",
      "type": "event"
    },
    {
      "anonymous": false,
      "inputs": [
        {
          "indexed": true,
          "internalType": "address",
          "name": "from",
          "type": "address"
        },
        {
          "indexed": true,
          "internalType": "address",
          "name": "to",
          "type": "address"
        },
        {
          "indexed": false,
          "internalType": "uint256",
          "name": "value",
          "type": "uint256"
        }
      ],
      "name": "Transfer",
      "type": "event"
    },
    {
      "anonymous": false,
      "inputs": [
        {
          "indexed": true,
          "internalType": "address",
          "name": "account",
          "type": "address"
        },
        {
          "indexed": false,
          "internalType": "uint256",
          "name": "amount",
          "type": "uint256"
        },
        {
          "indexed": false,
          "internalType": "uint256",
          "name": "shares",
          "type": "uint256"
        }
      ],
      "name": "Withdraw",
      "type": "event"
    },
    {
      "inputs": [],
      "name": "TOTAL_PCT",
      "outputs": [
        {
          "internalType": "uint32",
          "name": "",
          "type": "uint32"
        }
      ],
      "stateMutability": "view",
      "type": "function"
    },
    {
      "inputs": [],
      "name": "USDC",
      "outputs": [
        {
          "internalType": "address",
          "name": "",
          "type": "address"
        }
      ],
      "stateMutability": "view",
      "type": "function"
    },
    {
      "inputs": [
        {
          "internalType": "address",
          "name": "account",
          "type": "address"
        }
      ],
      "name": "accountVaultBalance",
      "outputs": [
        {
          "internalType": "uint256",
          "name": "",
          "type": "uint256"
        }
      ],
      "stateMutability": "view",
      "type": "function"
    },
    {
      "inputs": [],
      "name": "allocationState",
      "outputs": [
        {
          "internalType": "uint32",
          "name": "nextLoanTermLength",
          "type": "uint32"
        },
        {
          "internalType": "uint32",
          "name": "nextOptionPurchaseFreq",
          "type": "uint32"
        },
        {
          "internalType": "uint32",
          "name": "currentLoanTermLength",
          "type": "uint32"
        },
        {
          "internalType": "uint32",
          "name": "currentOptionPurchaseFreq",
          "type": "uint32"
        },
        {
          "internalType": "uint32",
          "name": "loanAllocationPCT",
          "type": "uint32"
        },
        {
          "internalType": "uint32",
          "name": "optionAllocationPCT",
          "type": "uint32"
        },
        {
          "internalType": "uint256",
          "name": "loanAllocation",
          "type": "uint256"
        },
        {
          "internalType": "uint256",
          "name": "optionAllocation",
          "type": "uint256"
        }
      ],
      "stateMutability": "view",
      "type": "function"
    },
    {
      "inputs": [
        {
          "internalType": "address",
          "name": "owner",
          "type": "address"
        },
        {
          "internalType": "address",
          "name": "spender",
          "type": "address"
        }
      ],
      "name": "allowance",
      "outputs": [
        {
          "internalType": "uint256",
          "name": "",
          "type": "uint256"
        }
      ],
      "stateMutability": "view",
      "type": "function"
    },
    {
      "inputs": [
        {
          "internalType": "address",
          "name": "spender",
          "type": "address"
        },
        {
          "internalType": "uint256",
          "name": "amount",
          "type": "uint256"
        }
      ],
      "name": "approve",
      "outputs": [
        {
          "internalType": "bool",
          "name": "",
          "type": "bool"
        }
      ],
      "stateMutability": "nonpayable",
      "type": "function"
    },
    {
      "inputs": [
        {
          "internalType": "address",
          "name": "account",
          "type": "address"
        }
      ],
      "name": "balanceOf",
      "outputs": [
        {
          "internalType": "uint256",
          "name": "",
          "type": "uint256"
        }
      ],
      "stateMutability": "view",
      "type": "function"
    },
    {
      "inputs": [
        {
          "internalType": "address",
          "name": "",
          "type": "address"
        }
      ],
      "name": "borrowerWeights",
      "outputs": [
        {
          "internalType": "bool",
          "name": "exists",
          "type": "bool"
        },
        {
          "internalType": "uint128",
          "name": "borrowerWeight",
          "type": "uint128"
        },
        {
          "internalType": "uint128",
          "name": "pendingBorrowerWeight",
          "type": "uint128"
        }
      ],
      "stateMutability": "view",
      "type": "function"
    },
    {
      "inputs": [
        {
          "internalType": "uint256",
          "name": "",
          "type": "uint256"
        }
      ],
      "name": "borrowers",
      "outputs": [
        {
          "internalType": "address",
          "name": "",
          "type": "address"
        }
      ],
      "stateMutability": "view",
      "type": "function"
    },
    {
      "inputs": [],
      "name": "buyOption",
      "outputs": [],
      "stateMutability": "nonpayable",
      "type": "function"
    },
    {
      "inputs": [],
      "name": "cap",
      "outputs": [
        {
          "internalType": "uint256",
          "name": "",
          "type": "uint256"
        }
      ],
      "stateMutability": "view",
      "type": "function"
    },
    {
      "inputs": [],
      "name": "commitOptionSeller",
      "outputs": [],
      "stateMutability": "nonpayable",
      "type": "function"
    },
    {
      "inputs": [],
      "name": "completeWithdraw",
      "outputs": [],
      "stateMutability": "nonpayable",
      "type": "function"
    },
    {
      "inputs": [],
      "name": "currentQueuedWithdrawShares",
      "outputs": [
        {
          "internalType": "uint256",
          "name": "",
          "type": "uint256"
        }
      ],
      "stateMutability": "view",
      "type": "function"
    },
    {
      "inputs": [],
      "name": "decimals",
      "outputs": [
        {
          "internalType": "uint8",
          "name": "",
          "type": "uint8"
        }
      ],
      "stateMutability": "view",
      "type": "function"
    },
    {
      "inputs": [
        {
          "internalType": "address",
          "name": "spender",
          "type": "address"
        },
        {
          "internalType": "uint256",
          "name": "subtractedValue",
          "type": "uint256"
        }
      ],
      "name": "decreaseAllowance",
      "outputs": [
        {
          "internalType": "bool",
          "name": "",
          "type": "bool"
        }
      ],
      "stateMutability": "nonpayable",
      "type": "function"
    },
    {
      "inputs": [
        {
          "internalType": "uint256",
          "name": "amount",
          "type": "uint256"
        }
      ],
      "name": "deposit",
      "outputs": [],
      "stateMutability": "nonpayable",
      "type": "function"
    },
    {
      "inputs": [
        {
          "internalType": "uint256",
          "name": "amount",
          "type": "uint256"
        },
        {
          "internalType": "address",
          "name": "creditor",
          "type": "address"
        }
      ],
      "name": "depositFor",
      "outputs": [],
      "stateMutability": "nonpayable",
      "type": "function"
    },
    {
      "inputs": [
        {
          "internalType": "address",
          "name": "",
          "type": "address"
        }
      ],
      "name": "depositReceipts",
      "outputs": [
        {
          "internalType": "uint16",
          "name": "round",
          "type": "uint16"
        },
        {
          "internalType": "uint104",
          "name": "amount",
          "type": "uint104"
        },
        {
          "internalType": "uint128",
          "name": "unredeemedShares",
          "type": "uint128"
        }
      ],
      "stateMutability": "view",
      "type": "function"
    },
    {
      "inputs": [
        {
          "internalType": "uint256",
          "name": "amount",
          "type": "uint256"
        },
        {
          "internalType": "uint256",
          "name": "deadline",
          "type": "uint256"
        },
        {
          "internalType": "uint8",
          "name": "v",
          "type": "uint8"
        },
        {
          "internalType": "bytes32",
          "name": "r",
          "type": "bytes32"
        },
        {
          "internalType": "bytes32",
          "name": "s",
          "type": "bytes32"
        }
      ],
      "name": "depositWithPermit",
      "outputs": [],
      "stateMutability": "nonpayable",
      "type": "function"
    },
    {
      "inputs": [],
      "name": "feeRecipient",
      "outputs": [
        {
          "internalType": "address",
          "name": "",
          "type": "address"
        }
      ],
      "stateMutability": "view",
      "type": "function"
    },
    {
      "inputs": [
        {
          "internalType": "address",
          "name": "spender",
          "type": "address"
        },
        {
          "internalType": "uint256",
          "name": "addedValue",
          "type": "uint256"
        }
      ],
      "name": "increaseAllowance",
      "outputs": [
        {
          "internalType": "bool",
          "name": "",
          "type": "bool"
        }
      ],
      "stateMutability": "nonpayable",
      "type": "function"
    },
    {
      "inputs": [
        {
          "components": [
            {
              "internalType": "address",
              "name": "_owner",
              "type": "address"
            },
            {
              "internalType": "address",
              "name": "_keeper",
              "type": "address"
            },
            {
              "internalType": "address[]",
              "name": "_borrowers",
              "type": "address[]"
            },
            {
              "internalType": "uint128[]",
              "name": "_borrowerWeights",
              "type": "uint128[]"
            },
            {
              "internalType": "address",
              "name": "_optionSeller",
              "type": "address"
            },
            {
              "internalType": "address",
              "name": "_feeRecipient",
              "type": "address"
            },
            {
              "internalType": "uint256",
              "name": "_managementFee",
              "type": "uint256"
            },
            {
              "internalType": "uint256",
              "name": "_performanceFee",
              "type": "uint256"
            },
            {
              "internalType": "string",
              "name": "_tokenName",
              "type": "string"
            },
            {
              "internalType": "string",
              "name": "_tokenSymbol",
              "type": "string"
            }
          ],
          "internalType": "struct RibbonEarnVault.InitParams",
          "name": "_initParams",
          "type": "tuple"
        },
        {
          "components": [
            {
              "internalType": "uint8",
              "name": "decimals",
              "type": "uint8"
            },
            {
              "internalType": "address",
              "name": "asset",
              "type": "address"
            },
            {
              "internalType": "uint56",
              "name": "minimumSupply",
              "type": "uint56"
            },
            {
              "internalType": "uint104",
              "name": "cap",
              "type": "uint104"
            }
          ],
          "internalType": "struct Vault.VaultParams",
          "name": "_vaultParams",
          "type": "tuple"
        },
        {
          "components": [
            {
              "internalType": "uint32",
              "name": "nextLoanTermLength",
              "type": "uint32"
            },
            {
              "internalType": "uint32",
              "name": "nextOptionPurchaseFreq",
              "type": "uint32"
            },
            {
              "internalType": "uint32",
              "name": "currentLoanTermLength",
              "type": "uint32"
            },
            {
              "internalType": "uint32",
              "name": "currentOptionPurchaseFreq",
              "type": "uint32"
            },
            {
              "internalType": "uint32",
              "name": "loanAllocationPCT",
              "type": "uint32"
            },
            {
              "internalType": "uint32",
              "name": "optionAllocationPCT",
              "type": "uint32"
            },
            {
              "internalType": "uint256",
              "name": "loanAllocation",
              "type": "uint256"
            },
            {
              "internalType": "uint256",
              "name": "optionAllocation",
              "type": "uint256"
            }
          ],
          "internalType": "struct Vault.AllocationState",
          "name": "_allocationState",
          "type": "tuple"
        }
      ],
      "name": "initialize",
      "outputs": [],
      "stateMutability": "nonpayable",
      "type": "function"
    },
    {
      "inputs": [
        {
          "internalType": "uint256",
          "name": "numShares",
          "type": "uint256"
        }
      ],
      "name": "initiateWithdraw",
      "outputs": [],
      "stateMutability": "nonpayable",
      "type": "function"
    },
    {
      "inputs": [],
      "name": "keeper",
      "outputs": [
        {
          "internalType": "address",
          "name": "",
          "type": "address"
        }
      ],
      "stateMutability": "view",
      "type": "function"
    },
    {
      "inputs": [],
      "name": "lastBorrowerBasketChange",
      "outputs": [
        {
          "internalType": "uint256",
          "name": "",
          "type": "uint256"
        }
      ],
      "stateMutability": "view",
      "type": "function"
    },
    {
      "inputs": [],
      "name": "lastOptionSellerChange",
      "outputs": [
        {
          "internalType": "uint256",
          "name": "",
          "type": "uint256"
        }
      ],
      "stateMutability": "view",
      "type": "function"
    },
    {
      "inputs": [],
      "name": "lastQueuedWithdrawAmount",
      "outputs": [
        {
          "internalType": "uint256",
          "name": "",
          "type": "uint256"
        }
      ],
      "stateMutability": "view",
      "type": "function"
    },
    {
      "inputs": [],
      "name": "liquidityGauge",
      "outputs": [
        {
          "internalType": "address",
          "name": "",
          "type": "address"
        }
      ],
      "stateMutability": "view",
      "type": "function"
    },
    {
      "inputs": [],
      "name": "managementFee",
      "outputs": [
        {
          "internalType": "uint256",
          "name": "",
          "type": "uint256"
        }
      ],
      "stateMutability": "view",
      "type": "function"
    },
    {
      "inputs": [],
      "name": "maxRedeem",
      "outputs": [],
      "stateMutability": "nonpayable",
      "type": "function"
    },
    {
      "inputs": [],
      "name": "migrateToRibbonLendBorrowers",
      "outputs": [],
      "stateMutability": "nonpayable",
      "type": "function"
    },
    {
      "inputs": [],
      "name": "name",
      "outputs": [
        {
          "internalType": "string",
          "name": "",
          "type": "string"
        }
      ],
      "stateMutability": "view",
      "type": "function"
    },
    {
      "inputs": [],
      "name": "optionSeller",
      "outputs": [
        {
          "internalType": "address",
          "name": "",
          "type": "address"
        }
      ],
      "stateMutability": "view",
      "type": "function"
    },
    {
      "inputs": [],
      "name": "owner",
      "outputs": [
        {
          "internalType": "address",
          "name": "",
          "type": "address"
        }
      ],
      "stateMutability": "view",
      "type": "function"
    },
    {
      "inputs": [],
      "name": "pausePosition",
      "outputs": [],
      "stateMutability": "nonpayable",
      "type": "function"
    },
    {
      "inputs": [
        {
          "internalType": "uint256",
          "name": "amount",
          "type": "uint256"
        }
      ],
      "name": "payOptionYield",
      "outputs": [],
      "stateMutability": "nonpayable",
      "type": "function"
    },
    {
      "inputs": [
        {
          "internalType": "uint256",
          "name": "amount",
          "type": "uint256"
        },
        {
          "internalType": "uint256",
          "name": "deadline",
          "type": "uint256"
        },
        {
          "internalType": "uint8",
          "name": "v",
          "type": "uint8"
        },
        {
          "internalType": "bytes32",
          "name": "r",
          "type": "bytes32"
        },
        {
          "internalType": "bytes32",
          "name": "s",
          "type": "bytes32"
        }
      ],
      "name": "payOptionYield",
      "outputs": [],
      "stateMutability": "nonpayable",
      "type": "function"
    },
    {
      "inputs": [],
      "name": "pendingOptionSeller",
      "outputs": [
        {
          "internalType": "address",
          "name": "",
          "type": "address"
        }
      ],
      "stateMutability": "view",
      "type": "function"
    },
    {
      "inputs": [],
      "name": "performanceFee",
      "outputs": [
        {
          "internalType": "uint256",
          "name": "",
          "type": "uint256"
        }
      ],
      "stateMutability": "view",
      "type": "function"
    },
    {
      "inputs": [],
      "name": "pricePerShare",
      "outputs": [
        {
          "internalType": "uint256",
          "name": "",
          "type": "uint256"
        }
      ],
      "stateMutability": "view",
      "type": "function"
    },
    {
      "inputs": [
        {
          "internalType": "address",
          "name": "token",
          "type": "address"
        },
        {
          "internalType": "address",
          "name": "recipient",
          "type": "address"
        }
      ],
      "name": "recoverTokens",
      "outputs": [],
      "stateMutability": "nonpayable",
      "type": "function"
    },
    {
      "inputs": [
        {
          "internalType": "uint256",
          "name": "numShares",
          "type": "uint256"
        }
      ],
      "name": "redeem",
      "outputs": [],
      "stateMutability": "nonpayable",
      "type": "function"
    },
    {
      "inputs": [],
      "name": "renounceOwnership",
      "outputs": [],
      "stateMutability": "nonpayable",
      "type": "function"
    },
    {
      "inputs": [],
      "name": "rollToNextRound",
      "outputs": [],
      "stateMutability": "nonpayable",
      "type": "function"
    },
    {
      "inputs": [
        {
          "internalType": "uint256",
          "name": "",
          "type": "uint256"
        }
      ],
      "name": "roundPricePerShare",
      "outputs": [
        {
          "internalType": "uint256",
          "name": "",
          "type": "uint256"
        }
      ],
      "stateMutability": "view",
      "type": "function"
    },
    {
      "inputs": [
        {
          "internalType": "uint32",
          "name": "_loanAllocationPCT",
          "type": "uint32"
        },
        {
          "internalType": "uint32",
          "name": "_optionAllocationPCT",
          "type": "uint32"
        }
      ],
      "name": "setAllocationPCT",
      "outputs": [],
      "stateMutability": "nonpayable",
      "type": "function"
    },
    {
      "inputs": [
        {
          "internalType": "uint256",
          "name": "newCap",
          "type": "uint256"
        }
      ],
      "name": "setCap",
      "outputs": [],
      "stateMutability": "nonpayable",
      "type": "function"
    },
    {
      "inputs": [
        {
          "internalType": "address",
          "name": "newFeeRecipient",
          "type": "address"
        }
      ],
      "name": "setFeeRecipient",
      "outputs": [],
      "stateMutability": "nonpayable",
      "type": "function"
    },
    {
      "inputs": [
        {
          "internalType": "address",
          "name": "newLiquidityGauge",
          "type": "address"
        }
      ],
      "name": "setLiquidityGauge",
      "outputs": [],
      "stateMutability": "nonpayable",
      "type": "function"
    },
    {
      "inputs": [
        {
          "internalType": "uint32",
          "name": "_loanTermLength",
          "type": "uint32"
        }
      ],
      "name": "setLoanTermLength",
      "outputs": [],
      "stateMutability": "nonpayable",
      "type": "function"
    },
    {
      "inputs": [
        {
          "internalType": "uint256",
          "name": "newManagementFee",
          "type": "uint256"
        }
      ],
      "name": "setManagementFee",
      "outputs": [],
      "stateMutability": "nonpayable",
      "type": "function"
    },
    {
      "inputs": [
        {
          "internalType": "address",
          "name": "newKeeper",
          "type": "address"
        }
      ],
      "name": "setNewKeeper",
      "outputs": [],
      "stateMutability": "nonpayable",
      "type": "function"
    },
    {
      "inputs": [
        {
          "internalType": "uint32",
          "name": "_optionPurchaseFreq",
          "type": "uint32"
        }
      ],
      "name": "setOptionPurchaseFrequency",
      "outputs": [],
      "stateMutability": "nonpayable",
      "type": "function"
    },
    {
      "inputs": [
        {
          "internalType": "address",
          "name": "newOptionSeller",
          "type": "address"
        }
      ],
      "name": "setOptionSeller",
      "outputs": [],
      "stateMutability": "nonpayable",
      "type": "function"
    },
    {
      "inputs": [
        {
          "internalType": "uint256",
          "name": "newPerformanceFee",
          "type": "uint256"
        }
      ],
      "name": "setPerformanceFee",
      "outputs": [],
      "stateMutability": "nonpayable",
      "type": "function"
    },
    {
      "inputs": [
        {
          "internalType": "address",
          "name": "newVaultPauser",
          "type": "address"
        }
      ],
      "name": "setVaultPauser",
      "outputs": [],
      "stateMutability": "nonpayable",
      "type": "function"
    },
    {
      "inputs": [
        {
          "internalType": "address",
          "name": "account",
          "type": "address"
        }
      ],
      "name": "shareBalances",
      "outputs": [
        {
          "internalType": "uint256",
          "name": "heldByAccount",
          "type": "uint256"
        },
        {
          "internalType": "uint256",
          "name": "heldByVault",
          "type": "uint256"
        }
      ],
      "stateMutability": "view",
      "type": "function"
    },
    {
      "inputs": [
        {
          "internalType": "address",
          "name": "account",
          "type": "address"
        }
      ],
      "name": "shares",
      "outputs": [
        {
          "internalType": "uint256",
          "name": "",
          "type": "uint256"
        }
      ],
      "stateMutability": "view",
      "type": "function"
    },
    {
      "inputs": [
        {
          "internalType": "uint256",
          "name": "numShares",
          "type": "uint256"
        }
      ],
      "name": "stake",
      "outputs": [],
      "stateMutability": "nonpayable",
      "type": "function"
    },
    {
      "inputs": [],
      "name": "symbol",
      "outputs": [
        {
          "internalType": "string",
          "name": "",
          "type": "string"
        }
      ],
      "stateMutability": "view",
      "type": "function"
    },
    {
      "inputs": [],
      "name": "totalBalance",
      "outputs": [
        {
          "internalType": "uint256",
          "name": "",
          "type": "uint256"
        }
      ],
      "stateMutability": "view",
      "type": "function"
    },
    {
      "inputs": [],
      "name": "totalBorrowerWeight",
      "outputs": [
        {
          "internalType": "uint256",
          "name": "",
          "type": "uint256"
        }
      ],
      "stateMutability": "view",
      "type": "function"
    },
    {
      "inputs": [],
      "name": "totalPending",
      "outputs": [
        {
          "internalType": "uint256",
          "name": "",
          "type": "uint256"
        }
      ],
      "stateMutability": "view",
      "type": "function"
    },
    {
      "inputs": [],
      "name": "totalSupply",
      "outputs": [
        {
          "internalType": "uint256",
          "name": "",
          "type": "uint256"
        }
      ],
      "stateMutability": "view",
      "type": "function"
    },
    {
      "inputs": [
        {
          "internalType": "address",
          "name": "recipient",
          "type": "address"
        },
        {
          "internalType": "uint256",
          "name": "amount",
          "type": "uint256"
        }
      ],
      "name": "transfer",
      "outputs": [
        {
          "internalType": "bool",
          "name": "",
          "type": "bool"
        }
      ],
      "stateMutability": "nonpayable",
      "type": "function"
    },
    {
      "inputs": [
        {
          "internalType": "address",
          "name": "sender",
          "type": "address"
        },
        {
          "internalType": "address",
          "name": "recipient",
          "type": "address"
        },
        {
          "internalType": "uint256",
          "name": "amount",
          "type": "uint256"
        }
      ],
      "name": "transferFrom",
      "outputs": [
        {
          "internalType": "bool",
          "name": "",
          "type": "bool"
        }
      ],
      "stateMutability": "nonpayable",
      "type": "function"
    },
    {
      "inputs": [
        {
          "internalType": "address",
          "name": "newOwner",
          "type": "address"
        }
      ],
      "name": "transferOwnership",
      "outputs": [],
      "stateMutability": "nonpayable",
      "type": "function"
    },
    {
      "inputs": [
        {
          "internalType": "address[]",
          "name": "borrowers",
          "type": "address[]"
        },
        {
          "internalType": "uint128[]",
          "name": "borrowerWeights",
          "type": "uint128[]"
        }
      ],
      "name": "updateBorrowerBasket",
      "outputs": [],
      "stateMutability": "nonpayable",
      "type": "function"
    },
    {
      "inputs": [],
      "name": "vaultParams",
      "outputs": [
        {
          "internalType": "uint8",
          "name": "decimals",
          "type": "uint8"
        },
        {
          "internalType": "address",
          "name": "asset",
          "type": "address"
        },
        {
          "internalType": "uint56",
          "name": "minimumSupply",
          "type": "uint56"
        },
        {
          "internalType": "uint104",
          "name": "cap",
          "type": "uint104"
        }
      ],
      "stateMutability": "view",
      "type": "function"
    },
    {
      "inputs": [],
      "name": "vaultPauser",
      "outputs": [
        {
          "internalType": "address",
          "name": "",
          "type": "address"
        }
      ],
      "stateMutability": "view",
      "type": "function"
    },
    {
      "inputs": [],
      "name": "vaultState",
      "outputs": [
        {
          "internalType": "uint16",
          "name": "round",
          "type": "uint16"
        },
        {
          "internalType": "uint104",
          "name": "lockedAmount",
          "type": "uint104"
        },
        {
          "internalType": "uint104",
          "name": "lastLockedAmount",
          "type": "uint104"
        },
        {
          "internalType": "uint128",
          "name": "totalPending",
          "type": "uint128"
        },
        {
          "internalType": "uint128",
          "name": "queuedWithdrawShares",
          "type": "uint128"
        },
        {
          "internalType": "uint64",
          "name": "lastEpochTime",
          "type": "uint64"
        },
        {
          "internalType": "uint64",
          "name": "lastOptionPurchaseTime",
          "type": "uint64"
        },
        {
          "internalType": "uint128",
          "name": "optionsBoughtInRound",
          "type": "uint128"
        },
        {
          "internalType": "uint256",
          "name": "amtFundsReturned",
          "type": "uint256"
        }
      ],
      "stateMutability": "view",
      "type": "function"
    },
    {
      "inputs": [
        {
          "internalType": "uint256",
          "name": "amount",
          "type": "uint256"
        }
      ],
      "name": "withdrawInstantly",
      "outputs": [],
      "stateMutability": "nonpayable",
      "type": "function"
    },
    {
      "inputs": [
        {
          "internalType": "address",
          "name": "",
          "type": "address"
        }
      ],
      "name": "withdrawals",
      "outputs": [
        {
          "internalType": "uint16",
          "name": "round",
          "type": "uint16"
        },
        {
          "internalType": "uint128",
          "name": "shares",
          "type": "uint128"
        }
      ],
      "stateMutability": "view",
      "type": "function"
    }
  ],
  "transactionHash": "0x195de003d761492f3c4c691dbaae0f5e15cfe9ea9cf872b95239d1c3d6f25e28",
  "args": [],
  "solcInputHash": "26706e2a217b2e350989530907619f99",
  "bytecode": "0x608060405234801561001057600080fd5b50615f7480620000216000396000f3fe608060405234801561001057600080fd5b506004361061043e5760003560e01c80637924d93f11610236578063aced16611161013b578063dd62ed3e116100c3578063f65a8fc411610087578063f65a8fc414610c04578063f756fa2114610c17578063f8eea47e14610c1f578063f9a0be6814610c32578063fe56e23214610c4557600080fd5b8063dd62ed3e14610b6a578063e74b981b14610ba3578063f2fde38b14610bb6578063f39abff714610bc9578063f656ba5114610bdc57600080fd5b8063c41d28741161010a578063c41d287414610b0a578063ca59409414610b29578063ce7c2ac214610b31578063d164cc1514610b44578063db006a7514610b5757600080fd5b8063aced166114610ad4578063ad7a672f14610ae7578063b6b55f2514610aef578063b7197fdd14610b0257600080fd5b8063947061b5116101be5780639fcc2d751161018d5780639fcc2d7514610a14578063a457c2d714610a92578063a694fc3a14610aa5578063a6f7f5d614610ab8578063a9059cbb14610ac157600080fd5b8063947061b5146109de578063953c06f2146109f157806395d89b4114610a0457806399530b0614610a0c57600080fd5b80638476d520116102055780638476d5201461097657806387153eb11461098957806387788782146109a957806389a30271146109b25780638da5cb5b146109cd57600080fd5b80637924d93f146108f05780637a9262a2146109035780637bc1a20a1461095a5780637e108d521461096357600080fd5b80633f90916a116103475780635ad2c684116102cf5780636f31ab34116102935780636f31ab341461089157806370897b231461089957806370a08231146108ac578063715018a6146108d55780637907cafd146108dd57600080fd5b80635ad2c68414610792578063669c8b42146107f75780636719b2ee1461080a57806367d6cbc21461088157806367fbd6ac1461088957600080fd5b80634b2431d9116103165780634b2431d914610752578063503c70aa1461075b5780635069fb5714610764578063557886ab1461076c578063573f0d6e1461077f57600080fd5b80633f90916a14610708578063469048401461071957806347786d371461072c5780634a970be71461073f57600080fd5b80632728f333116103ca578063355274ea11610399578063355274ea1461069357806336efd16f146106a457806339509351146106b75780633bf6b62c146106ca5780633f23bb73146106f557600080fd5b80632728f333146105845780632775d01c146106585780632a2d27f51461066b578063313ce5671461067e57600080fd5b80631725bc10116104115780631725bc10146104ac57806317b0b36d1461054957806318160ddd146105605780631bc872701461056857806323b872dd1461057157600080fd5b8063048bf08514610443578063056097ac1461045857806306fdde031461046b578063095ea7b314610489575b600080fd5b610456610451366004615309565b610c58565b005b610456610466366004615325565b610cad565b610473610e30565b60405161048091906158f5565b60405180910390f35b61049c61049736600461539d565b610ec2565b6040519015158152602001610480565b60d25460d35460d4546104f89263ffffffff808216936401000000008304821693600160401b8404831693600160601b8104841693600160801b8204811693600160a01b909204169188565b6040805163ffffffff998a1681529789166020890152958816958701959095529286166060860152908516608085015290931660a083015260c082019290925260e081019190915261010001610480565b61055260d95481565b604051908152602001610480565b609954610552565b61055260dd5481565b61049c61057f36600461535d565b610ed9565b60ce5460cf5460d05460d1546105ed9361ffff8116936001600160681b03620100008304811694600160781b90930416926001600160801b0380831693600160801b938490048216936001600160401b0380831694600160401b84049091169391909204169089565b6040805161ffff9a909a168a526001600160681b0398891660208b015296909716958801959095526001600160801b03938416606088015291831660808701526001600160401b0390811660a08701521660c08501521660e083015261010082015261012001610480565b6104566106663660046154e0565b610f85565b610456610679366004615450565b61113d565b60cc5460405160ff9091168152602001610480565b60cd546001600160681b0316610552565b6104566106b2366004615510565b6114fa565b61049c6106c536600461539d565b611581565b60db546106dd906001600160a01b031681565b6040516001600160a01b039091168152602001610480565b610552610703366004615309565b6115bd565b60cf546001600160801b0316610552565b60d5546106dd906001600160a01b031681565b61045661073a3660046154e0565b61160a565b61045661074d36600461557d565b6116e1565b61055260e15481565b61055260e05481565b610456611826565b61045661077a3660046155c5565b611b8d565b61045661078d366004615309565b611cd2565b6107d06107a0366004615309565b60d8602052600090815260409020805460019091015460ff8216916001600160801b036101009091048116911683565b6040805193151584526001600160801b039283166020850152911690820152606001610480565b6104566108053660046154e0565b611d1e565b610850610818366004615309565b60c96020526000908152604090205461ffff8116906201000081046001600160681b031690600160781b90046001600160801b031683565b6040805161ffff90941684526001600160681b0390921660208401526001600160801b031690820152606001610480565b610456611d69565b610456611f61565b610456611ff0565b6104566108a73660046154e0565b61202d565b6105526108ba366004615309565b6001600160a01b031660009081526097602052604090205490565b6104566120da565b6104566108eb36600461557d565b612110565b6106dd6108fe3660046154e0565b6121d1565b610938610911366004615309565b60cb6020526000908152604090205461ffff8116906201000090046001600160801b031682565b6040805161ffff90931683526001600160801b03909116602083015201610480565b61055260da5481565b6104566109713660046154e0565b6121fb565b610456610984366004615309565b612244565b6105526109973660046154e0565b60ca6020526000908152604090205481565b61055260de5481565b6106dd73a0b86991c6218b36c1d19d4a2e9eb0ce3606eb4881565b6065546001600160a01b03166106dd565b60e2546106dd906001600160a01b031681565b60dc546106dd906001600160a01b031681565b610473612316565b610552612325565b60cc5460cd54610a4f9160ff81169161010082046001600160a01b031691600160a81b900466ffffffffffffff16906001600160681b031684565b6040805160ff90951685526001600160a01b03909316602085015266ffffffffffffff909116918301919091526001600160681b03166060820152608001610480565b61049c610aa036600461539d565b61235a565b610456610ab33660046154e0565b6123f3565b61055260df5481565b61049c610acf36600461539d565b6124f0565b60d6546106dd906001600160a01b031681565b6105526124fd565b610456610afd3660046154e0565b6125f2565b610456612665565b610b14620f424081565b60405163ffffffff9091168152602001610480565b6104566127f7565b610552610b3f366004615309565b612899565b610456610b52366004615309565b6128b6565b610456610b653660046154e0565b61293d565b610552610b78366004615325565b6001600160a01b03918216600090815260986020908152604080832093909416825291909152205490565b610456610bb1366004615309565b6129a3565b610456610bc4366004615309565b612a2a565b610456610bd73660046155e1565b612ac2565b610bef610bea366004615309565b612bd5565b60408051928352602083019190915201610480565b610456610c123660046155c5565b612cb3565b610456612d77565b610456610c2d3660046153c8565b612e17565b60e3546106dd906001600160a01b031681565b610456610c533660046154e0565b612e57565b6065546001600160a01b03163314610c8b5760405162461bcd60e51b8152600401610c8290615993565b60405180910390fd5b60e380546001600160a01b0319166001600160a01b0392909216919091179055565b6065546001600160a01b03163314610cd75760405162461bcd60e51b8152600401610c8290615993565b60cc546001600160a01b03838116610100909204161415610d205760405162461bcd60e51b815260206004820152600360248201526252333560e81b6044820152606401610c82565b6001600160a01b038216301415610d5f5760405162461bcd60e51b815260206004820152600360248201526229199b60e91b6044820152606401610c82565b6001600160a01b038116301415610d9e5760405162461bcd60e51b815260206004820152600360248201526252333760e81b6044820152606401610c82565b6040516370a0823160e01b8152306004820152610e2c9082906001600160a01b038516906370a082319060240160206040518083038186803b158015610de357600080fd5b505afa158015610df7573d6000803e3d6000fd5b505050506040513d601f19601f82011682018060405250810190610e1b91906154f8565b6001600160a01b0385169190612f4d565b5050565b6060609a8054610e3f90615c4d565b80601f0160208091040260200160405190810160405280929190818152602001828054610e6b90615c4d565b8015610eb85780601f10610e8d57610100808354040283529160200191610eb8565b820191906000526020600020905b815481529060010190602001808311610e9b57829003601f168201915b5050505050905090565b6000610ecf338484612fb5565b5060015b92915050565b6000610ee68484846130d9565b6001600160a01b038416600090815260986020908152604080832033845290915290205482811015610f6b5760405162461bcd60e51b815260206004820152602860248201527f45524332303a207472616e7366657220616d6f756e74206578636565647320616044820152676c6c6f77616e636560c01b6064820152608401610c82565b610f788533858403612fb5565b60019150505b9392505050565b60026001541415610fa85760405162461bcd60e51b8152600401610c82906159c8565b600260015533600090815260c96020526040902060ce5461ffff1682610ff65760405162461bcd60e51b815260206004820152600360248201526252333160e81b6044820152606401610c82565b815461ffff1681146110305760405162461bcd60e51b815260206004820152600360248201526229199960e91b6044820152606401610c82565b81546201000090046001600160681b0316838110156110775760405162461bcd60e51b815260206004820152600360248201526252333360e81b6044820152606401610c82565b6110818482615c0a565b83546001600160681b0391909116620100000262010000600160781b031990911617835560cf546110bc9085906001600160801b0316615c0a565b60cf80546001600160801b0319166001600160801b0392909216919091179055604080518581526020810184905233917fab2daf3c146ca6416cbccd2a86ed2ba995e171ef6319df14a38aef01403a9c96910160405180910390a260cc546111339061010090046001600160a01b03163386612f4d565b5050600180555050565b600054610100900460ff1680611156575060005460ff16155b6111725760405162461bcd60e51b8152600401610c8290615928565b600054610100900460ff16158015611194576000805461ffff19166101011790555b60006111a36020860186615309565b6001600160a01b031614156111df5760405162461bcd60e51b8152602060048201526002602482015261523360f01b6044820152606401610c82565b7335fd2E2F59F24f002BF69eD055DF595228D1c3D46349bec6346112096040870160208801615309565b61121960c0880160a08901615309565b61122960a0890160808a01615309565b60c089013560e08a01356112416101008c018c615a46565b61124f6101208e018e615a46565b8d8d620f42406040518d63ffffffff1660e01b815260040161127c9c9b9a999897969594939291906156ee565b60006040518083038186803b15801561129457600080fd5b505af41580156112a8573d6000803e3d6000fd5b505050506112b46132a7565b6113426112c5610100860186615a46565b8080601f01602080910402602001604051908101604052809392919081815260200183838082843760009201919091525061130892505050610120870187615a46565b8080601f01602080910402602001604051908101604052809392919081815260200183838082843760009201919091525061331a92505050565b61134a613399565b61135a610bc46020860186615309565b61136a6040850160208601615309565b60d680546001600160a01b0319166001600160a01b039290921691909117905561139a60c0850160a08601615309565b60d580546001600160a01b0319166001600160a01b03929092169190911790556113ca60a0850160808601615309565b60db80546001600160a01b0319166001600160a01b039290921691909117905560e084013560de5561140260608301604084016155c5565b63ffffffff16611419620f42406301e13380615beb565b6114239190615aec565b611434620f424060c0870135615beb565b61143e9190615aec565b60df558260cc61144e8282615e25565b5082905060d261145e8282615cea565b50611483905061147160408601866159ff565b61147e60608801886159ff565b613400565b600061148d6124fd565b9050611498816136b3565b60ce805461ffff196001600160681b03909316600160781b02929092167fffffffff00000000000000000000000000ffffffffffffffffffffffffff000090921691909117600117905580156114f4576000805461ff00191690555b50505050565b6002600154141561151d5760405162461bcd60e51b8152600401610c82906159c8565b60026001558161153f5760405162461bcd60e51b8152600401610c8290615976565b6001600160a01b03811661155257600080fd5b61155c82826136fd565b60cc546115799061010090046001600160a01b0316333085613974565b505060018055565b3360008181526098602090815260408083206001600160a01b03871684529091528120549091610ecf9185906115b8908690615ab5565b612fb5565b60cc5460009060ff16816115ed6115d360995490565b6115db6124fd565b60cf546001600160801b0316856139ac565b90506116026115fb85612899565b82846139f3565b949350505050565b6065546001600160a01b031633146116345760405162461bcd60e51b8152600401610c8290615993565b6000811161166a5760405162461bcd60e51b815260206004820152600360248201526252313360e81b6044820152606401610c82565b611673816136b3565b60cd54604080516001600160681b039092168252602082018390527f5f86edbb9d92228a9edc3f0ebc0f001bda1ea345ac7335e0eeef3504b31d1a1c910160405180910390a160cd80546cffffffffffffffffffffffffff19166001600160681b0392909216919091179055565b600260015414156117045760405162461bcd60e51b8152600401610c82906159c8565b600260015560cc5461010090046001600160a01b031673a0b86991c6218b36c1d19d4a2e9eb0ce3606eb48146117625760405162461bcd60e51b815260206004820152600360248201526205232360ec1b6044820152606401610c82565b600085116117825760405162461bcd60e51b8152600401610c8290615976565b60cc5460405163d505accf60e01b81526101009091046001600160a01b03169063d505accf906117c290339030908a908a908a908a908a906004016157d3565b600060405180830381600087803b1580156117dc57600080fd5b505af11580156117f0573d6000803e3d6000fd5b505050506117fe85336136fd565b60cc5461181b9061010090046001600160a01b0316333088613974565b505060018055505050565b60d6546001600160a01b031633146118655760405162461bcd60e51b8152602060048201526002602482015261148d60f21b6044820152606401610c82565b600260015414156118885760405162461bcd60e51b8152600401610c82906159c8565b600260015560ce8054600160781b6001600160681b0362010000830416026cffffffffffffffffffffffffff60781b199091161790556000806118c9613a5c565b60e081905560e15460cf549294509092506000916118f79190600160801b90046001600160801b0316615ab5565b905061190281613d33565b60cf80546001600160801b03808416600160801b029116179055600060e15561192a836136b3565b60ce805462010000600160781b031916620100006001600160681b0386160217905560d080546001600160801b0316905560d35460005b60d754811015611b8457600060d95460d8600060d7858154811061199557634e487b7160e01b600052603260045260246000fd5b60009182526020808320909101546001600160a01b031683528201929092526040019020546119d3906001600160801b036101009091041685615beb565b6119dd9190615aec565b9050600060d78381548110611a0257634e487b7160e01b600052603260045260246000fd5b60009182526020822001546001600160a01b03169150611a2182613d7d565b905082811115611a99576001600160a01b03821663fa7fc3d2611a448584615c0a565b6040518263ffffffff1660e01b8152600401611a6291815260200190565b600060405180830381600087803b158015611a7c57600080fd5b505af1158015611a90573d6000803e3d6000fd5b50505050611b6e565b80831115611b6e57611afc60d78581548110611ac557634e487b7160e01b600052603260045260246000fd5b6000918252602090912001546001600160a01b0316611ae48386615c0a565b60cc5461010090046001600160a01b03169190613e84565b6001600160a01b0382166325274570611b158386615c0a565b6040516001600160e01b031960e084901b168152600481019190915260006024820152604401600060405180830381600087803b158015611b5557600080fd5b505af1158015611b69573d6000803e3d6000fd5b505050505b5050508080611b7c90615c82565b915050611961565b50611133613fa8565b6065546001600160a01b03163314611bb75760405162461bcd60e51b8152600401610c8290615993565b60008163ffffffff1611611bf35760405162461bcd60e51b815260206004820152600360248201526229189b60e91b6044820152606401610c82565b60d25463ffffffff16158015611c1c575060d25463ffffffff600160401b909104811690821611155b80611c33575060d25463ffffffff90811690821611155b611c655760405162461bcd60e51b815260206004820152600360248201526252313760e81b6044820152606401610c82565b60d2805467ffffffff00000000191664010000000063ffffffff848116918202929092179283905560408051600160601b909404909216835260208301527ff0d4e95ace3c30a9f74264435d024aee7c24e0a24d5f2dc0b2f097778d19944391015b60405180910390a150565b6065546001600160a01b03163314611cfc5760405162461bcd60e51b8152600401610c8290615993565b60e280546001600160a01b0319166001600160a01b0392909216919091179055565b60db546001600160a01b03163314611d5d5760405162461bcd60e51b8152602060048201526002602482015261291b60f11b6044820152606401610c82565b611d668161421d565b50565b60d6546001600160a01b03163314611da85760405162461bcd60e51b8152602060048201526002602482015261148d60f21b6044820152606401610c82565b60d054600160801b90046001600160801b03161580611df3575060d25460d054611def91600160601b900463ffffffff1690600160401b90046001600160401b0316615ab5565b4210155b611e255760405162461bcd60e51b8152602060048201526003602482015262148ccd60ea1b6044820152606401610c82565b60d254600090611e4b9063ffffffff600160601b8204811691600160401b900416615aec565b60d454611e589190615aec565b60d080549192508291601090611e7f908490600160801b90046001600160801b0316615a8a565b92506101000a8154816001600160801b0302191690836001600160801b031602179055506201518042611eb29190615c9d565b611ebc9042615c0a565b611ec890617080615ab5565b60d080546001600160401b0392909216600160401b026fffffffffffffffff00000000000000001990921691909117905560db5460cc54611f1c916101009091046001600160a01b03908116911683612f4d565b60db546040518281526001600160a01b03909116907f4c40d030ff61ad9fddd7e91383af2b30e967a5d96e128382a8b24130d6dee72e9060200160405180910390a250565b6065546001600160a01b03163314611f8b5760405162461bcd60e51b8152600401610c8290615993565b60dc546001600160a01b0316611fc95760405162461bcd60e51b815260206004820152600360248201526252353160e81b6044820152606401610c82565b60dc805460db80546001600160a01b03199081166001600160a01b03841617909155169055565b600260015414156120135760405162461bcd60e51b8152600401610c82906159c8565b6002600181905550612027600060016142c6565b60018055565b6065546001600160a01b031633146120575760405162461bcd60e51b8152600401610c8290615993565b612065620f42406064615beb565b81106120995760405162461bcd60e51b815260206004820152600360248201526229189960e91b6044820152606401610c82565b60de5460408051918252602082018390527f24867dfb6fcb9970a07be21024956524abe7a1837faa903ff0e99aaa40cf893e910160405180910390a160de55565b6065546001600160a01b031633146121045760405162461bcd60e51b8152600401610c8290615993565b61210e600061445b565b565b60db546001600160a01b0316331461214f5760405162461bcd60e51b8152602060048201526002602482015261291b60f11b6044820152606401610c82565b60cc5460405163d505accf60e01b81526101009091046001600160a01b03169063d505accf9061218f90339030908a908a908a908a908a906004016157d3565b600060405180830381600087803b1580156121a957600080fd5b505af11580156121bd573d6000803e3d6000fd5b505050506121ca8561421d565b5050505050565b60d781815481106121e157600080fd5b6000918252602090912001546001600160a01b0316905081565b6002600154141561221e5760405162461bcd60e51b8152600401610c82906159c8565b600260015561222c816144ad565b8060e15461223a9190615ab5565b60e1555060018055565b6065546001600160a01b0316331461226e5760405162461bcd60e51b8152600401610c8290615993565b6001600160a01b0381166122a95760405162461bcd60e51b8152602060048201526002602482015261523960f01b6044820152606401610c82565b60db54604080516001600160a01b03928316815291831660208301527f99e10f8286c53ce42e5bb9937b70f356c0733bf7f652059231239a1b9f12ef96910160405180910390a160dc80546001600160a01b0319166001600160a01b03929092169190911790554260dd55565b6060609b8054610e3f90615c4d565b600061235561233360995490565b61233b6124fd565b60cf5460cc546001600160801b039091169060ff166139ac565b905090565b3360009081526098602090815260408083206001600160a01b0386168452909152812054828110156123dc5760405162461bcd60e51b815260206004820152602560248201527f45524332303a2064656372656173656420616c6c6f77616e63652062656c6f77604482015264207a65726f60d81b6064820152608401610c82565b6123e93385858403612fb5565b5060019392505050565b600260015414156124165760405162461bcd60e51b8152600401610c82906159c8565b600260015560e3546001600160a01b03168061243157600080fd5b6000821161243e57600080fd5b336000908152609760205260409020548281101561246a5761246a6124638285615c0a565b60006142c6565b6124753330856130d9565b612480308385612fb5565b6040516383df674760e01b815260048101849052336024820152600060448201526001600160a01b038316906383df674790606401600060405180830381600087803b1580156124cf57600080fd5b505af11580156124e3573d6000803e3d6000fd5b5050600180555050505050565b6000610ecf3384846130d9565b60cc546040516370a0823160e01b815230600482015260009182916101009091046001600160a01b0316906370a082319060240160206040518083038186803b15801561254957600080fd5b505afa15801561255d573d6000803e3d6000fd5b505050506040513d601f19601f8201168201806040525081019061258191906154f8565b905060005b60d7548110156125ec576125ce60d782815481106125b457634e487b7160e01b600052603260045260246000fd5b6000918252602090912001546001600160a01b0316613d7d565b6125d89083615ab5565b9150806125e481615c82565b915050612586565b50919050565b600260015414156126155760405162461bcd60e51b8152600401610c82906159c8565b6002600155806126375760405162461bcd60e51b8152600401610c8290615976565b61264181336136fd565b60cc5461265e9061010090046001600160a01b0316333084613974565b5060018055565b6065546001600160a01b0316331461268f5760405162461bcd60e51b8152600401610c8290615993565b60005b6002811015611d665760d8600060d783815481106126c057634e487b7160e01b600052603260045260246000fd5b60009182526020808320909101546001600160a01b031683528201929092526040019020805470ffffffffffffffffffffffffffffffffff19168155600190810180546001600160801b031916905560d78054909161271e91615c0a565b8154811061273c57634e487b7160e01b600052603260045260246000fd5b60009182526020909120015460d780546001600160a01b03909216918390811061277657634e487b7160e01b600052603260045260246000fd5b9060005260206000200160006101000a8154816001600160a01b0302191690836001600160a01b0316021790555060d78054806127c357634e487b7160e01b600052603160045260246000fd5b600082815260209020810160001990810180546001600160a01b0319169055019055806127ef81615c82565b915050612692565b60e2546001600160a01b03168061280d57600080fd5b612819600060016142c6565b3360008181526097602052604090205490612835908383612fb5565b60405163c9c2d4f560e01b8152336004820152602481018290526001600160a01b0383169063c9c2d4f590604401600060405180830381600087803b15801561287d57600080fd5b505af1158015612891573d6000803e3d6000fd5b505050505050565b60008060006128a784612bd5565b90925090506116028183615ab5565b6065546001600160a01b031633146128e05760405162461bcd60e51b8152600401610c8290615993565b6001600160a01b03811661291b5760405162461bcd60e51b8152602060048201526002602482015261523760f01b6044820152606401610c82565b60d680546001600160a01b0319166001600160a01b0392909216919091179055565b600260015414156129605760405162461bcd60e51b8152600401610c82906159c8565b6002600155806129985760405162461bcd60e51b815260206004820152600360248201526252323960e81b6044820152606401610c82565b61265e8160006142c6565b6065546001600160a01b031633146129cd5760405162461bcd60e51b8152600401610c8290615993565b6001600160a01b038116612a085760405162461bcd60e51b81526020600482015260026024820152610a4760f31b6044820152606401610c82565b60d580546001600160a01b0319166001600160a01b0392909216919091179055565b6065546001600160a01b03163314612a545760405162461bcd60e51b8152600401610c8290615993565b6001600160a01b038116612ab95760405162461bcd60e51b815260206004820152602660248201527f4f776e61626c653a206e6577206f776e657220697320746865207a65726f206160448201526564647265737360d01b6064820152608401610c82565b611d668161445b565b6065546001600160a01b03163314612aec5760405162461bcd60e51b8152600401610c8290615993565b620f4240612afa8284615acd565b63ffffffff161115612b345760405162461bcd60e51b8152602060048201526003602482015262148c4d60ea1b6044820152606401610c82565b60d25460408051600160801b830463ffffffff9081168252600160a01b90930483166020820152848316818301529183166060830152517fc5b13904dad0762d636763061410ff20f86e9d21359fe8c2b1decacfc9bdd7539181900360800190a160d2805467ffffffffffffffff60801b1916600160801b63ffffffff9485160263ffffffff60a01b191617600160a01b9290931691909102919091179055565b6001600160a01b038116600090815260c9602090815260408083208151606081018352905461ffff81168083526201000082046001600160681b031694830194909452600160781b90046001600160801b031691810191909152829160011115612c57575050506001600160a01b031660009081526097602052604081205491565b60ce54815161ffff908116600090815260ca602052604081205460cc549193612c889386939116919060ff16614641565b9050612ca9856001600160a01b031660009081526097602052604090205490565b9590945092505050565b6065546001600160a01b03163314612cdd5760405162461bcd60e51b8152600401610c8290615993565b620151808163ffffffff161015612d1c5760405162461bcd60e51b815260206004820152600360248201526252313560e81b6044820152606401610c82565b60d2805463ffffffff191663ffffffff8381169182179283905560408051600160401b909404909116835260208301919091527fd323e49efbd1e497c4f485723f1434c9b8294a325ad121e48fdb4c1cfacea7359101611cc7565b60026001541415612d9a5760405162461bcd60e51b8152600401610c82906159c8565b60026001556000612da96146b2565b905060008111612de15760405162461bcd60e51b81526020600482015260036024820152620a464760eb1b6044820152606401610c82565b8060e054612def9190615c0a565b6001600160801b031660e05560cc5461265e9061010090046001600160a01b03163383612f4d565b6065546001600160a01b03163314612e415760405162461bcd60e51b8152600401610c8290615993565b612e4d84848484613400565b50504260da555050565b6065546001600160a01b03163314612e815760405162461bcd60e51b8152600401610c8290615993565b612e8f620f42406064615beb565b8110612ec35760405162461bcd60e51b815260206004820152600360248201526252313160e81b6044820152606401610c82565b60d254600090600160401b900463ffffffff16612ee7620f42406301e13380615beb565b612ef19190615aec565b612efe620f424084615beb565b612f089190615aec565b60df5460408051918252602082018390529192507f4e874b007ab14f7e263baefd44951834c8266f4f224d1092e49e9c254354cc54910160405180910390a160df5550565b6040516001600160a01b038316602482015260448101829052612fb090849063a9059cbb60e01b906064015b60408051601f198184030181529190526020810180516001600160e01b03166001600160e01b0319909316929092179091526147f8565b505050565b6001600160a01b0383166130175760405162461bcd60e51b8152602060048201526024808201527f45524332303a20617070726f76652066726f6d20746865207a65726f206164646044820152637265737360e01b6064820152608401610c82565b6001600160a01b0382166130785760405162461bcd60e51b815260206004820152602260248201527f45524332303a20617070726f766520746f20746865207a65726f206164647265604482015261737360f01b6064820152608401610c82565b6001600160a01b0383811660008181526098602090815260408083209487168084529482529182902085905590518481527f8c5be1e5ebec7d5bd14f71427d1e84f3dd0314c0f7b2291e5b200ac8c7c3b925910160405180910390a3505050565b6001600160a01b03831661313d5760405162461bcd60e51b815260206004820152602560248201527f45524332303a207472616e736665722066726f6d20746865207a65726f206164604482015264647265737360d81b6064820152608401610c82565b6001600160a01b03821661319f5760405162461bcd60e51b815260206004820152602360248201527f45524332303a207472616e7366657220746f20746865207a65726f206164647260448201526265737360e81b6064820152608401610c82565b6001600160a01b038316600090815260976020526040902054818110156132175760405162461bcd60e51b815260206004820152602660248201527f45524332303a207472616e7366657220616d6f756e7420657863656564732062604482015265616c616e636560d01b6064820152608401610c82565b6001600160a01b0380851660009081526097602052604080822085850390559185168152908120805484929061324e908490615ab5565b92505081905550826001600160a01b0316846001600160a01b03167fddf252ad1be2c89b69c2b068fc378daa952ba7f163c4a11628f55a4df523b3ef8460405161329a91815260200190565b60405180910390a36114f4565b600054610100900460ff16806132c0575060005460ff16155b6132dc5760405162461bcd60e51b8152600401610c8290615928565b600054610100900460ff161580156132fe576000805461ffff19166101011790555b6133066148ca565b8015611d66576000805461ff001916905550565b600054610100900460ff1680613333575060005460ff16155b61334f5760405162461bcd60e51b8152600401610c8290615928565b600054610100900460ff16158015613371576000805461ffff19166101011790555b613379614939565b61338383836149a3565b8015612fb0576000805461ff0019169055505050565b600054610100900460ff16806133b2575060005460ff16155b6133ce5760405162461bcd60e51b8152600401610c8290615928565b600054610100900460ff161580156133f0576000805461ffff19166101011790555b6133f8614939565b613306614a38565b828181146134365760405162461bcd60e51b815260206004820152600360248201526205234360ec1b6044820152606401610c82565b60005b8181101561366e57600086868381811061346357634e487b7160e01b600052603260045260246000fd5b90506020020160208101906134789190615309565b6001600160a01b0316141561348c5761365c565b60d860008787848181106134b057634e487b7160e01b600052603260045260246000fd5b90506020020160208101906134c59190615309565b6001600160a01b0316815260208101919091526040016000205460ff166135b35760d786868381811061350857634e487b7160e01b600052603260045260246000fd5b905060200201602081019061351d9190615309565b81546001808201845560009384526020842090910180546001600160a01b0319166001600160a01b0393909316929092179091559060d89088888581811061357557634e487b7160e01b600052603260045260246000fd5b905060200201602081019061358a9190615309565b6001600160a01b031681526020810191909152604001600020805460ff19169115159190911790555b8383828181106135d357634e487b7160e01b600052603260045260246000fd5b90506020020160208101906135e891906154c6565b60d8600088888581811061360c57634e487b7160e01b600052603260045260246000fd5b90506020020160208101906136219190615309565b6001600160a01b03168152602081019190915260400160002060010180546001600160801b0319166001600160801b03929092169190911790555b8061366681615c82565b915050613439565b507fc8616977b27865a3d83403e8b0eef76d389fc3f711f2bf5bcf0b4399b33d1509858585856040516136a49493929190615814565b60405180910390a15050505050565b6001600160681b03811115611d665760405162461bcd60e51b815260206004820152601060248201526f13dd995c999b1bddc81d5a5b9d0c4c0d60821b6044820152606401610c82565b60ce5461ffff1660008361370f6124fd565b6137199190615ab5565b60cd549091506001600160681b031681111561375d5760405162461bcd60e51b815260206004820152600360248201526229191960e91b6044820152606401610c82565b60cc54600160a81b900466ffffffffffffff168110156137a55760405162461bcd60e51b815260206004820152600360248201526252323360e81b6044820152606401610c82565b60408051858152602081018490526001600160a01b038516917f90890809c654f11d6e72a28fa60149770a0d11ec6c92319d6ceb2bb0a4ea1a15910160405180910390a26001600160a01b038316600090815260c9602090815260408083208151606081018352905461ffff81168083526201000082046001600160681b031683860152600160781b9091046001600160801b031682840152845260ca90925282205460cc5491929161385f91849187919060ff16614641565b8251909150869061ffff168514156138905760008784602001516001600160681b031661388c9190615ab5565b9150505b613899816136b3565b6040805160608101825261ffff80881682526001600160681b0380851660208085019182526001600160801b038089168688019081526001600160a01b038e16600090815260c990935296822095518654935197518216600160781b02600160781b600160f81b03199890951662010000026effffffffffffffffffffffffffffff1990941695169490941791909117949094161790915560cf54613940918a9116615ab5565b905061394b81613d33565b60cf80546001600160801b0319166001600160801b039290921691909117905550505050505050565b6040516001600160a01b03808516602483015283166044820152606481018290526114f49085906323b872dd60e01b90608401612f79565b6000806139ba83600a615b43565b9050600086116139ca57806139e9565b856139d58587615c0a565b6139df9083615beb565b6139e99190615aec565b9695505050505050565b600060018311613a3d5760405162461bcd60e51b8152602060048201526015602482015274496e76616c6964206173736574506572536861726560581b6044820152606401610c82565b613a4882600a615b43565b613a528486615beb565b6116029190615aec565b60d25460d0546000918291613a8791600160401b900463ffffffff16906001600160401b0316615ab5565b421015613abc5760405162461bcd60e51b815260206004820152600360248201526252333960e81b6044820152606401610c82565b60d5546040805160e0810190915260cc5460ff1681526001600160a01b03909116906000908190819081907335fd2E2F59F24f002BF69eD055DF595228D1c3D490632b8b58cf9060ce9060208101613b126124fd565b8152602001613b2060995490565b815260200160e054815260200160de54815260200160df54815260200160e1548152506040518363ffffffff1660e01b8152600401613bb192919060006101008201905083825282516020830152602083015160408301526040830151606083015260608301516080830152608083015160a083015260a083015160c083015260c083015160e08301529392505050565b60c06040518083038186803b158015613bc957600080fd5b505af4158015613bdd573d6000803e3d6000fd5b505050506040513d601f19601f82011682018060405250810190613c019190615534565b60ce5461ffff16600081815260ca60209081526040918290208790558151858152908101849052908101829052969d50949b50919850965094509250906001600160a01b038716907f0a242f7ecaf711036ca770774ceffae28e60ef042ac113ddd187f2631db0c0069060600160405180910390a260cf80546001600160801b0319169055613c91816001615ab5565b60ce805461ffff191661ffff92909216919091179055613cb46201518042615c9d565b613cbe9042615c0a565b613cca90617080615ab5565b60d0805467ffffffffffffffff19166001600160401b039290921691909117905550613cf890503084614a98565b8015613d1a5760cc54613d1a9061010090046001600160a01b03168583612f4d565b613d2386614b77565b613d2b614d2e565b505050509091565b6001600160801b03811115611d665760405162461bcd60e51b815260206004820152601060248201526f09eeccae4ccd8deee40ead2dce86264760831b6044820152606401610c82565b6000670de0b6b3a7640000826001600160a01b0316633ca967f36040518163ffffffff1660e01b815260040160206040518083038186803b158015613dc157600080fd5b505afa158015613dd5573d6000803e3d6000fd5b505050506040513d601f19601f82011682018060405250810190613df991906154f8565b6040516370a0823160e01b81523060048201526001600160a01b038516906370a082319060240160206040518083038186803b158015613e3857600080fd5b505afa158015613e4c573d6000803e3d6000fd5b505050506040513d601f19601f82011682018060405250810190613e7091906154f8565b613e7a9190615beb565b610ed39190615aec565b801580613f0d5750604051636eb1769f60e11b81523060048201526001600160a01b03838116602483015284169063dd62ed3e9060440160206040518083038186803b158015613ed357600080fd5b505afa158015613ee7573d6000803e3d6000fd5b505050506040513d601f19601f82011682018060405250810190613f0b91906154f8565b155b613f785760405162461bcd60e51b815260206004820152603660248201527f5361666545524332303a20617070726f76652066726f6d206e6f6e2d7a65726f60448201527520746f206e6f6e2d7a65726f20616c6c6f77616e636560501b6064820152608401610c82565b6040516001600160a01b038316602482015260448101829052612fb090849063095ea7b360e01b90606401612f79565b60d7546000816001600160401b03811115613fd357634e487b7160e01b600052604160045260246000fd5b604051908082528060200260200182016040528015613ffc578160200160208202803683370190505b50905060005b828110156140935760d7818154811061402b57634e487b7160e01b600052603260045260246000fd5b9060005260206000200160009054906101000a90046001600160a01b031682828151811061406957634e487b7160e01b600052603260045260246000fd5b6001600160a01b03909216602092830291909101909101528061408b81615c82565b915050614002565b50604051636909532160e11b815273312853485a41f76f20a14f927cd0ea676588936c9063d212a642906140cb9084906004016158a8565b600060405180830381600087803b1580156140e557600080fd5b505af11580156140f9573d6000803e3d6000fd5b50506040516370a0823160e01b8152306004820152736123b0049f904d730db3c36a31167d9d4121fa6b925082915063a9059cbb90735b0655f938a72052c46d2e94d206ccb6ff625a3a9083906370a082319060240160206040518083038186803b15801561416757600080fd5b505afa15801561417b573d6000803e3d6000fd5b505050506040513d601f19601f8201168201806040525081019061419f91906154f8565b6040516001600160e01b031960e085901b1681526001600160a01b0390921660048301526024820152604401602060405180830381600087803b1580156141e557600080fd5b505af11580156141f9573d6000803e3d6000fd5b505050506040513d601f19601f820116820180604052508101906114f49190615430565b60cc5461423a9061010090046001600160a01b0316333084613974565b60d2546000906142609063ffffffff600160601b8204811691600160401b900416615aec565b60d45461426d9190615aec565b9050337f0f6ba811ab59ff1520dd0aa40c3591aeb13d418d5d2bcf79b5f819a3634ed595838381116142a05760006142aa565b6142aa8486615c0a565b6040805192835260208301919091520160405180910390a25050565b33600090815260c9602090815260408083208151606081018352905461ffff8082168084526201000083046001600160681b031684870152600160781b9092046001600160801b03168385015260ce5491865260ca9094529184205460cc549194929093169261433c918591859160ff16614641565b905083614349578461434b565b805b945084614359575050505050565b8085111561438f5760405162461bcd60e51b815260206004820152600360248201526205233360ec1b6044820152606401610c82565b825161ffff168211156143bc5733600090815260c960205260409020805462010000600160781b03191690555b6143c585613d33565b6143cf8582615c0a565b33600081815260c960205260409081902080546001600160801b0394909416600160781b02600160781b600160f81b0319909416939093179092558451915190917fe5b754fb1abb7f01b499791d0b820ae3b6af3424ac1c59768edb53f4ec31a929916144489189825261ffff16602082015260400190565b60405180910390a26121ca3033876130d9565b606580546001600160a01b038381166001600160a01b0319831681179093556040519116919082907f8be0079c531659141344cd1fd0a4f28419497f9722a3daafe3b4186f6b6457e090600090a35050565b600081116144e35760405162461bcd60e51b8152602060048201526003602482015262148c8d60ea1b6044820152606401610c82565b33600090815260c960205260409020546201000090046001600160681b031615158061452d575033600090815260c96020526040902054600160781b90046001600160801b031615155b1561453e5761453e600060016142c6565b60ce5433600081815260cb60209081526040918290208054835187815261ffff96871693810184905292959194911685149290917f0c53c82ad07e2d592d88ece3b066777dd60f1118e2a081b380efc4358f0d9e2a910160405180910390a281546201000090046001600160801b0316600082156145c7576145c08683615ab5565b905061460d565b81156145fb5760405162461bcd60e51b815260206004820152600360248201526252323560e81b6044820152606401610c82565b50825461ffff191661ffff8516178355845b61461681613d33565b835462010000600160901b031916620100006001600160801b038316021784556128913330886130d9565b835160009061ffff161580159061465c5750845161ffff1684115b1561469e57600061467b86602001516001600160681b03168585614f47565b90508086604001516001600160801b03166146969190615ab5565b915050611602565b50505050604001516001600160801b031690565b33600090815260cb6020526040812080546001600160801b03620100008204169061ffff168161470a5760405162461bcd60e51b815260206004820152600360248201526229191b60e91b6044820152606401610c82565b60ce5461ffff1681106147455760405162461bcd60e51b815260206004820152600360248201526252323760e81b6044820152606401610c82565b825462010000600160901b031916835560cf54614773908390600160801b90046001600160801b0316615c0a565b60cf80546001600160801b03928316600160801b029216919091179055600081815260ca602052604081205460cc546147b091859160ff166139f3565b604080518281526020810186905291925033917ff279e6a1f5e320cca91135676d9cb6e44ca8a08c0b88342bcdb1144f6511b568910160405180910390a26116023084614fa7565b600061484d826040518060400160405280602081526020017f5361666545524332303a206c6f772d6c6576656c2063616c6c206661696c6564815250856001600160a01b03166150f59092919063ffffffff16565b805190915015612fb0578080602001905181019061486b9190615430565b612fb05760405162461bcd60e51b815260206004820152602a60248201527f5361666545524332303a204552433230206f7065726174696f6e20646964206e6044820152691bdd081cdd58d8d9595960b21b6064820152608401610c82565b600054610100900460ff16806148e3575060005460ff16155b6148ff5760405162461bcd60e51b8152600401610c8290615928565b600054610100900460ff16158015614921576000805461ffff19166101011790555b600180558015611d66576000805461ff001916905550565b600054610100900460ff1680614952575060005460ff16155b61496e5760405162461bcd60e51b8152600401610c8290615928565b600054610100900460ff16158015613306576000805461ffff19166101011790558015611d66576000805461ff001916905550565b600054610100900460ff16806149bc575060005460ff16155b6149d85760405162461bcd60e51b8152600401610c8290615928565b600054610100900460ff161580156149fa576000805461ffff19166101011790555b8251614a0d90609a906020860190615200565b508151614a2190609b906020850190615200565b508015612fb0576000805461ff0019169055505050565b600054610100900460ff1680614a51575060005460ff16155b614a6d5760405162461bcd60e51b8152600401610c8290615928565b600054610100900460ff16158015614a8f576000805461ffff19166101011790555b6133063361445b565b6001600160a01b038216614aee5760405162461bcd60e51b815260206004820152601f60248201527f45524332303a206d696e7420746f20746865207a65726f2061646472657373006044820152606401610c82565b8060996000828254614b009190615ab5565b90915550506001600160a01b03821660009081526097602052604081208054839290614b2d908490615ab5565b90915550506040518181526001600160a01b038316906000907fddf252ad1be2c89b69c2b068fc378daa952ba7f163c4a11628f55a4df523b3ef9060200160405180910390a35050565b604080516101008101825260d25463ffffffff808216808452640100000000830482166020850152600160401b8304821694840194909452600160601b820481166060840152600160801b820481166080840152600160a01b9091041660a082015260d35460c082015260d45460e08201529015614c8b5760df546040820151825163ffffffff91821691614c0d911683615beb565b614c179190615aec565b60df819055825160d280546bffffffff00000000ffffffff1916600160401b63ffffffff9093169290920263ffffffff19169190911790556040805183815260208101929092527f4e874b007ab14f7e263baefd44951834c8266f4f224d1092e49e9c254354cc54910160405180910390a1505b602081015163ffffffff1615614cda57602081015160d280546fffffffff00000000ffffffff000000001916600160601b63ffffffff9093169290920267ffffffff0000000019169190911790555b6080810151620f424090614cf590849063ffffffff16615beb565b614cff9190615aec565b60d35560a0810151620f424090614d1d90849063ffffffff16615beb565b614d279190615aec565b60d4555050565b60da54614d3e906203f480615ab5565b421015614d735760405162461bcd60e51b815260206004820152600360248201526205231360ec1b6044820152606401610c82565b60005b60d754811015614f0957600060d8600060d78481548110614da757634e487b7160e01b600052603260045260246000fd5b6000918252602080832091909101546001600160a01b0316835282019290925260400181205460d780546101009092046001600160801b0316935060d89183919086908110614e0657634e487b7160e01b600052603260045260246000fd5b60009182526020808320909101546001600160a01b031683528201929092526040019020600101546001600160801b03908116915082168114614ef4578060d8600060d78681548110614e6957634e487b7160e01b600052603260045260246000fd5b6000918252602080832091909101546001600160a01b031683528201929092526040018120805470ffffffffffffffffffffffffffffffff0019166101006001600160801b039485160217905560d9805492841692909190614ecc908490615ab5565b92505081905550816001600160801b031660d96000828254614eee9190615c0a565b90915550505b50508080614f0190615c82565b915050614d76565b507f35f63f8d8ef81a02b50e77faab37344f335fcc256a197cbaa15cd5ab8835aa0660d954604051614f3d91815260200190565b60405180910390a1565b600060018311614f915760405162461bcd60e51b8152602060048201526015602482015274496e76616c6964206173736574506572536861726560581b6044820152606401610c82565b82614f9d83600a615b43565b613a529086615beb565b6001600160a01b0382166150075760405162461bcd60e51b815260206004820152602160248201527f45524332303a206275726e2066726f6d20746865207a65726f206164647265736044820152607360f81b6064820152608401610c82565b6001600160a01b0382166000908152609760205260409020548181101561507b5760405162461bcd60e51b815260206004820152602260248201527f45524332303a206275726e20616d6f756e7420657863656564732062616c616e604482015261636560f01b6064820152608401610c82565b6001600160a01b03831660009081526097602052604081208383039055609980548492906150aa908490615c0a565b90915550506040518281526000906001600160a01b038516907fddf252ad1be2c89b69c2b068fc378daa952ba7f163c4a11628f55a4df523b3ef9060200160405180910390a3505050565b6060611602848460008585843b61514e5760405162461bcd60e51b815260206004820152601d60248201527f416464726573733a2063616c6c20746f206e6f6e2d636f6e74726163740000006044820152606401610c82565b600080866001600160a01b0316858760405161516a91906156d2565b60006040518083038185875af1925050503d80600081146151a7576040519150601f19603f3d011682016040523d82523d6000602084013e6151ac565b606091505b50915091506151bc8282866151c7565b979650505050505050565b606083156151d6575081610f7e565b8251156151e65782518084602001fd5b8160405162461bcd60e51b8152600401610c8291906158f5565b82805461520c90615c4d565b90600052602060002090601f01602090048101928261522e5760008555615274565b82601f1061524757805160ff1916838001178555615274565b82800160010185558215615274579182015b82811115615274578251825591602001919060010190615259565b50615280929150615284565b5090565b5b808211156152805760008155600101615285565b60008083601f8401126152aa578182fd5b5081356001600160401b038111156152c0578182fd5b6020830191508360208260051b85010111156152db57600080fd5b9250929050565b80356001600160801b03811681146152f957600080fd5b919050565b80356152f981615f08565b60006020828403121561531a578081fd5b8135610f7e81615ede565b60008060408385031215615337578081fd5b823561534281615ede565b9150602083013561535281615ede565b809150509250929050565b600080600060608486031215615371578081fd5b833561537c81615ede565b9250602084013561538c81615ede565b929592945050506040919091013590565b600080604083850312156153af578182fd5b82356153ba81615ede565b946020939093013593505050565b600080600080604085870312156153dd578081fd5b84356001600160401b03808211156153f3578283fd5b6153ff88838901615299565b90965094506020870135915080821115615417578283fd5b5061542487828801615299565b95989497509550505050565b600060208284031215615441578081fd5b81518015158114610f7e578182fd5b60008060008385036101a0811215615466578384fd5b84356001600160401b0381111561547b578485fd5b8501610140818803121561548d578485fd5b93506080601f19820112156154a0578283fd5b602085019250610100609f19820112156154b8578182fd5b5060a0840190509250925092565b6000602082840312156154d7578081fd5b610f7e826152e2565b6000602082840312156154f1578081fd5b5035919050565b600060208284031215615509578081fd5b5051919050565b60008060408385031215615522578182fd5b82359150602083013561535281615ede565b60008060008060008060c0878903121561554c578384fd5b865195506020870151945060408701519350606087015192506080870151915060a087015190509295509295509295565b600080600080600060a08688031215615594578283fd5b853594506020860135935060408601356155ad81615f2f565b94979396509394606081013594506080013592915050565b6000602082840312156155d6578081fd5b8135610f7e81615f08565b600080604083850312156155f3578182fd5b82356155fe81615f08565b9150602083013561535281615f08565b81835281816020850137506000828201602090810191909152601f909101601f19169091010190565b803561564281615f08565b63ffffffff908116835260208201359061565b82615f08565b908116602084015260408201359061567282615f08565b908116604084015260608201359061568982615f08565b16606083015261569b608082016152fe565b63ffffffff1660808301526156b260a082016152fe565b63ffffffff1660a083015260c0818101359083015260e090810135910152565b600082516156e4818460208701615c21565b9190910192915050565b600060018060a01b03808f168352808e166020840152808d1660408401528b60608401528a608084015261028060a084015261572f61028084018a8c61560e565b83810360c085015261574281898b61560e565b925050853561575081615f2f565b60ff1660e0840152602086013561576681615ede565b16610100830152604085013561577b81615f1a565b66ffffffffffffff16610120830152606085013561579881615ef3565b6001600160681b03166101408301526157b5610160830185615637565b63ffffffff83166102608301529d9c50505050505050505050505050565b6001600160a01b0397881681529590961660208601526040850193909352606084019190915260ff16608083015260a082015260c081019190915260e00190565b6040808252810184905260008560608301825b8781101561585757823561583a81615ede565b6001600160a01b0316825260209283019290910190600101615827565b50838103602085810191909152858252915085908201835b8681101561589b576001600160801b03615888846152e2565b168252918301919083019060010161586f565b5098975050505050505050565b6020808252825182820181905260009190848201906040850190845b818110156158e95783516001600160a01b0316835292840192918401916001016158c4565b50909695505050505050565b6020815260008251806020840152615914816040850160208701615c21565b601f01601f19169190910160400192915050565b6020808252602e908201527f496e697469616c697a61626c653a20636f6e747261637420697320616c72656160408201526d191e481a5b9a5d1a585b1a5e995960921b606082015260800190565b60208082526003908201526252323160e81b604082015260600190565b6020808252818101527f4f776e61626c653a2063616c6c6572206973206e6f7420746865206f776e6572604082015260600190565b6020808252601f908201527f5265656e7472616e637947756172643a207265656e7472616e742063616c6c00604082015260600190565b6000808335601e19843603018112615a15578283fd5b8301803591506001600160401b03821115615a2e578283fd5b6020019150600581901b36038213156152db57600080fd5b6000808335601e19843603018112615a5c578283fd5b8301803591506001600160401b03821115615a75578283fd5b6020019150368190038213156152db57600080fd5b60006001600160801b03808316818516808303821115615aac57615aac615cb1565b01949350505050565b60008219821115615ac857615ac8615cb1565b500190565b600063ffffffff808316818516808303821115615aac57615aac615cb1565b600082615afb57615afb615cc7565b500490565b600181815b80851115615b3b578160001904821115615b2157615b21615cb1565b80851615615b2e57918102915b93841c9390800290615b05565b509250929050565b6000610f7e8383600082615b5957506001610ed3565b81615b6657506000610ed3565b8160018114615b7c5760028114615b8657615ba2565b6001915050610ed3565b60ff841115615b9757615b97615cb1565b50506001821b610ed3565b5060208310610133831016604e8410600b8410161715615bc5575081810a610ed3565b615bcf8383615b00565b8060001904821115615be357615be3615cb1565b029392505050565b6000816000190483118215151615615c0557615c05615cb1565b500290565b600082821015615c1c57615c1c615cb1565b500390565b60005b83811015615c3c578181015183820152602001615c24565b838111156114f45750506000910152565b600181811c90821680615c6157607f821691505b602082108114156125ec57634e487b7160e01b600052602260045260246000fd5b6000600019821415615c9657615c96615cb1565b5060010190565b600082615cac57615cac615cc7565b500690565b634e487b7160e01b600052601160045260246000fd5b634e487b7160e01b600052601260045260246000fd5b60008135610ed381615f08565b8135615cf581615f08565b63ffffffff8116905081548163ffffffff1982161783556020840135615d1a81615f08565b67ffffffff000000008160201b16836001600160401b0319841617178455505050615d74615d4a60408401615cdd565b82546bffffffff0000000000000000191660409190911b6bffffffff000000000000000016178255565b615da7615d8360608401615cdd565b82805463ffffffff60601b191660609290921b63ffffffff60601b16919091179055565b615dda615db660808401615cdd565b82805463ffffffff60801b191660809290921b63ffffffff60801b16919091179055565b615e0d615de960a08401615cdd565b82805463ffffffff60a01b191660a09290921b63ffffffff60a01b16919091179055565b60c0820135600182015560e082013560028201555050565b8135615e3081615f2f565b60ff8116905081548160ff1982161783556020840135615e4f81615ede565b610100600160a81b0360089190911b166001600160a81b031982168317811784556040850135615e7e81615f1a565b6001600160e01b0319929092169092179190911760a89190911b66ffffffffffffff60a81b16178155600181016060830135615eb981615ef3565b81546cffffffffffffffffffffffffff19166001600160681b03919091161790555050565b6001600160a01b0381168114611d6657600080fd5b6001600160681b0381168114611d6657600080fd5b63ffffffff81168114611d6657600080fd5b66ffffffffffffff81168114611d6657600080fd5b60ff81168114611d6657600080fdfea2646970667358221220c74a19a81b25964d9b200700cf7ae70aa828cfc622df3f6fadc20c4fe45bf7a264736f6c63430008040033",
  "deployedBytecode": "0x608060405234801561001057600080fd5b506004361061043e5760003560e01c80637924d93f11610236578063aced16611161013b578063dd62ed3e116100c3578063f65a8fc411610087578063f65a8fc414610c04578063f756fa2114610c17578063f8eea47e14610c1f578063f9a0be6814610c32578063fe56e23214610c4557600080fd5b8063dd62ed3e14610b6a578063e74b981b14610ba3578063f2fde38b14610bb6578063f39abff714610bc9578063f656ba5114610bdc57600080fd5b8063c41d28741161010a578063c41d287414610b0a578063ca59409414610b29578063ce7c2ac214610b31578063d164cc1514610b44578063db006a7514610b5757600080fd5b8063aced166114610ad4578063ad7a672f14610ae7578063b6b55f2514610aef578063b7197fdd14610b0257600080fd5b8063947061b5116101be5780639fcc2d751161018d5780639fcc2d7514610a14578063a457c2d714610a92578063a694fc3a14610aa5578063a6f7f5d614610ab8578063a9059cbb14610ac157600080fd5b8063947061b5146109de578063953c06f2146109f157806395d89b4114610a0457806399530b0614610a0c57600080fd5b80638476d520116102055780638476d5201461097657806387153eb11461098957806387788782146109a957806389a30271146109b25780638da5cb5b146109cd57600080fd5b80637924d93f146108f05780637a9262a2146109035780637bc1a20a1461095a5780637e108d521461096357600080fd5b80633f90916a116103475780635ad2c684116102cf5780636f31ab34116102935780636f31ab341461089157806370897b231461089957806370a08231146108ac578063715018a6146108d55780637907cafd146108dd57600080fd5b80635ad2c68414610792578063669c8b42146107f75780636719b2ee1461080a57806367d6cbc21461088157806367fbd6ac1461088957600080fd5b80634b2431d9116103165780634b2431d914610752578063503c70aa1461075b5780635069fb5714610764578063557886ab1461076c578063573f0d6e1461077f57600080fd5b80633f90916a14610708578063469048401461071957806347786d371461072c5780634a970be71461073f57600080fd5b80632728f333116103ca578063355274ea11610399578063355274ea1461069357806336efd16f146106a457806339509351146106b75780633bf6b62c146106ca5780633f23bb73146106f557600080fd5b80632728f333146105845780632775d01c146106585780632a2d27f51461066b578063313ce5671461067e57600080fd5b80631725bc10116104115780631725bc10146104ac57806317b0b36d1461054957806318160ddd146105605780631bc872701461056857806323b872dd1461057157600080fd5b8063048bf08514610443578063056097ac1461045857806306fdde031461046b578063095ea7b314610489575b600080fd5b610456610451366004615309565b610c58565b005b610456610466366004615325565b610cad565b610473610e30565b60405161048091906158f5565b60405180910390f35b61049c61049736600461539d565b610ec2565b6040519015158152602001610480565b60d25460d35460d4546104f89263ffffffff808216936401000000008304821693600160401b8404831693600160601b8104841693600160801b8204811693600160a01b909204169188565b6040805163ffffffff998a1681529789166020890152958816958701959095529286166060860152908516608085015290931660a083015260c082019290925260e081019190915261010001610480565b61055260d95481565b604051908152602001610480565b609954610552565b61055260dd5481565b61049c61057f36600461535d565b610ed9565b60ce5460cf5460d05460d1546105ed9361ffff8116936001600160681b03620100008304811694600160781b90930416926001600160801b0380831693600160801b938490048216936001600160401b0380831694600160401b84049091169391909204169089565b6040805161ffff9a909a168a526001600160681b0398891660208b015296909716958801959095526001600160801b03938416606088015291831660808701526001600160401b0390811660a08701521660c08501521660e083015261010082015261012001610480565b6104566106663660046154e0565b610f85565b610456610679366004615450565b61113d565b60cc5460405160ff9091168152602001610480565b60cd546001600160681b0316610552565b6104566106b2366004615510565b6114fa565b61049c6106c536600461539d565b611581565b60db546106dd906001600160a01b031681565b6040516001600160a01b039091168152602001610480565b610552610703366004615309565b6115bd565b60cf546001600160801b0316610552565b60d5546106dd906001600160a01b031681565b61045661073a3660046154e0565b61160a565b61045661074d36600461557d565b6116e1565b61055260e15481565b61055260e05481565b610456611826565b61045661077a3660046155c5565b611b8d565b61045661078d366004615309565b611cd2565b6107d06107a0366004615309565b60d8602052600090815260409020805460019091015460ff8216916001600160801b036101009091048116911683565b6040805193151584526001600160801b039283166020850152911690820152606001610480565b6104566108053660046154e0565b611d1e565b610850610818366004615309565b60c96020526000908152604090205461ffff8116906201000081046001600160681b031690600160781b90046001600160801b031683565b6040805161ffff90941684526001600160681b0390921660208401526001600160801b031690820152606001610480565b610456611d69565b610456611f61565b610456611ff0565b6104566108a73660046154e0565b61202d565b6105526108ba366004615309565b6001600160a01b031660009081526097602052604090205490565b6104566120da565b6104566108eb36600461557d565b612110565b6106dd6108fe3660046154e0565b6121d1565b610938610911366004615309565b60cb6020526000908152604090205461ffff8116906201000090046001600160801b031682565b6040805161ffff90931683526001600160801b03909116602083015201610480565b61055260da5481565b6104566109713660046154e0565b6121fb565b610456610984366004615309565b612244565b6105526109973660046154e0565b60ca6020526000908152604090205481565b61055260de5481565b6106dd73a0b86991c6218b36c1d19d4a2e9eb0ce3606eb4881565b6065546001600160a01b03166106dd565b60e2546106dd906001600160a01b031681565b60dc546106dd906001600160a01b031681565b610473612316565b610552612325565b60cc5460cd54610a4f9160ff81169161010082046001600160a01b031691600160a81b900466ffffffffffffff16906001600160681b031684565b6040805160ff90951685526001600160a01b03909316602085015266ffffffffffffff909116918301919091526001600160681b03166060820152608001610480565b61049c610aa036600461539d565b61235a565b610456610ab33660046154e0565b6123f3565b61055260df5481565b61049c610acf36600461539d565b6124f0565b60d6546106dd906001600160a01b031681565b6105526124fd565b610456610afd3660046154e0565b6125f2565b610456612665565b610b14620f424081565b60405163ffffffff9091168152602001610480565b6104566127f7565b610552610b3f366004615309565b612899565b610456610b52366004615309565b6128b6565b610456610b653660046154e0565b61293d565b610552610b78366004615325565b6001600160a01b03918216600090815260986020908152604080832093909416825291909152205490565b610456610bb1366004615309565b6129a3565b610456610bc4366004615309565b612a2a565b610456610bd73660046155e1565b612ac2565b610bef610bea366004615309565b612bd5565b60408051928352602083019190915201610480565b610456610c123660046155c5565b612cb3565b610456612d77565b610456610c2d3660046153c8565b612e17565b60e3546106dd906001600160a01b031681565b610456610c533660046154e0565b612e57565b6065546001600160a01b03163314610c8b5760405162461bcd60e51b8152600401610c8290615993565b60405180910390fd5b60e380546001600160a01b0319166001600160a01b0392909216919091179055565b6065546001600160a01b03163314610cd75760405162461bcd60e51b8152600401610c8290615993565b60cc546001600160a01b03838116610100909204161415610d205760405162461bcd60e51b815260206004820152600360248201526252333560e81b6044820152606401610c82565b6001600160a01b038216301415610d5f5760405162461bcd60e51b815260206004820152600360248201526229199b60e91b6044820152606401610c82565b6001600160a01b038116301415610d9e5760405162461bcd60e51b815260206004820152600360248201526252333760e81b6044820152606401610c82565b6040516370a0823160e01b8152306004820152610e2c9082906001600160a01b038516906370a082319060240160206040518083038186803b158015610de357600080fd5b505afa158015610df7573d6000803e3d6000fd5b505050506040513d601f19601f82011682018060405250810190610e1b91906154f8565b6001600160a01b0385169190612f4d565b5050565b6060609a8054610e3f90615c4d565b80601f0160208091040260200160405190810160405280929190818152602001828054610e6b90615c4d565b8015610eb85780601f10610e8d57610100808354040283529160200191610eb8565b820191906000526020600020905b815481529060010190602001808311610e9b57829003601f168201915b5050505050905090565b6000610ecf338484612fb5565b5060015b92915050565b6000610ee68484846130d9565b6001600160a01b038416600090815260986020908152604080832033845290915290205482811015610f6b5760405162461bcd60e51b815260206004820152602860248201527f45524332303a207472616e7366657220616d6f756e74206578636565647320616044820152676c6c6f77616e636560c01b6064820152608401610c82565b610f788533858403612fb5565b60019150505b9392505050565b60026001541415610fa85760405162461bcd60e51b8152600401610c82906159c8565b600260015533600090815260c96020526040902060ce5461ffff1682610ff65760405162461bcd60e51b815260206004820152600360248201526252333160e81b6044820152606401610c82565b815461ffff1681146110305760405162461bcd60e51b815260206004820152600360248201526229199960e91b6044820152606401610c82565b81546201000090046001600160681b0316838110156110775760405162461bcd60e51b815260206004820152600360248201526252333360e81b6044820152606401610c82565b6110818482615c0a565b83546001600160681b0391909116620100000262010000600160781b031990911617835560cf546110bc9085906001600160801b0316615c0a565b60cf80546001600160801b0319166001600160801b0392909216919091179055604080518581526020810184905233917fab2daf3c146ca6416cbccd2a86ed2ba995e171ef6319df14a38aef01403a9c96910160405180910390a260cc546111339061010090046001600160a01b03163386612f4d565b5050600180555050565b600054610100900460ff1680611156575060005460ff16155b6111725760405162461bcd60e51b8152600401610c8290615928565b600054610100900460ff16158015611194576000805461ffff19166101011790555b60006111a36020860186615309565b6001600160a01b031614156111df5760405162461bcd60e51b8152602060048201526002602482015261523360f01b6044820152606401610c82565b73__$2abc2342da0ef81c8a62da4073b4b8c831$__6349bec6346112096040870160208801615309565b61121960c0880160a08901615309565b61122960a0890160808a01615309565b60c089013560e08a01356112416101008c018c615a46565b61124f6101208e018e615a46565b8d8d620f42406040518d63ffffffff1660e01b815260040161127c9c9b9a999897969594939291906156ee565b60006040518083038186803b15801561129457600080fd5b505af41580156112a8573d6000803e3d6000fd5b505050506112b46132a7565b6113426112c5610100860186615a46565b8080601f01602080910402602001604051908101604052809392919081815260200183838082843760009201919091525061130892505050610120870187615a46565b8080601f01602080910402602001604051908101604052809392919081815260200183838082843760009201919091525061331a92505050565b61134a613399565b61135a610bc46020860186615309565b61136a6040850160208601615309565b60d680546001600160a01b0319166001600160a01b039290921691909117905561139a60c0850160a08601615309565b60d580546001600160a01b0319166001600160a01b03929092169190911790556113ca60a0850160808601615309565b60db80546001600160a01b0319166001600160a01b039290921691909117905560e084013560de5561140260608301604084016155c5565b63ffffffff16611419620f42406301e13380615beb565b6114239190615aec565b611434620f424060c0870135615beb565b61143e9190615aec565b60df558260cc61144e8282615e25565b5082905060d261145e8282615cea565b50611483905061147160408601866159ff565b61147e60608801886159ff565b613400565b600061148d6124fd565b9050611498816136b3565b60ce805461ffff196001600160681b03909316600160781b02929092167fffffffff00000000000000000000000000ffffffffffffffffffffffffff000090921691909117600117905580156114f4576000805461ff00191690555b50505050565b6002600154141561151d5760405162461bcd60e51b8152600401610c82906159c8565b60026001558161153f5760405162461bcd60e51b8152600401610c8290615976565b6001600160a01b03811661155257600080fd5b61155c82826136fd565b60cc546115799061010090046001600160a01b0316333085613974565b505060018055565b3360008181526098602090815260408083206001600160a01b03871684529091528120549091610ecf9185906115b8908690615ab5565b612fb5565b60cc5460009060ff16816115ed6115d360995490565b6115db6124fd565b60cf546001600160801b0316856139ac565b90506116026115fb85612899565b82846139f3565b949350505050565b6065546001600160a01b031633146116345760405162461bcd60e51b8152600401610c8290615993565b6000811161166a5760405162461bcd60e51b815260206004820152600360248201526252313360e81b6044820152606401610c82565b611673816136b3565b60cd54604080516001600160681b039092168252602082018390527f5f86edbb9d92228a9edc3f0ebc0f001bda1ea345ac7335e0eeef3504b31d1a1c910160405180910390a160cd80546cffffffffffffffffffffffffff19166001600160681b0392909216919091179055565b600260015414156117045760405162461bcd60e51b8152600401610c82906159c8565b600260015560cc5461010090046001600160a01b031673a0b86991c6218b36c1d19d4a2e9eb0ce3606eb48146117625760405162461bcd60e51b815260206004820152600360248201526205232360ec1b6044820152606401610c82565b600085116117825760405162461bcd60e51b8152600401610c8290615976565b60cc5460405163d505accf60e01b81526101009091046001600160a01b03169063d505accf906117c290339030908a908a908a908a908a906004016157d3565b600060405180830381600087803b1580156117dc57600080fd5b505af11580156117f0573d6000803e3d6000fd5b505050506117fe85336136fd565b60cc5461181b9061010090046001600160a01b0316333088613974565b505060018055505050565b60d6546001600160a01b031633146118655760405162461bcd60e51b8152602060048201526002602482015261148d60f21b6044820152606401610c82565b600260015414156118885760405162461bcd60e51b8152600401610c82906159c8565b600260015560ce8054600160781b6001600160681b0362010000830416026cffffffffffffffffffffffffff60781b199091161790556000806118c9613a5c565b60e081905560e15460cf549294509092506000916118f79190600160801b90046001600160801b0316615ab5565b905061190281613d33565b60cf80546001600160801b03808416600160801b029116179055600060e15561192a836136b3565b60ce805462010000600160781b031916620100006001600160681b0386160217905560d080546001600160801b0316905560d35460005b60d754811015611b8457600060d95460d8600060d7858154811061199557634e487b7160e01b600052603260045260246000fd5b60009182526020808320909101546001600160a01b031683528201929092526040019020546119d3906001600160801b036101009091041685615beb565b6119dd9190615aec565b9050600060d78381548110611a0257634e487b7160e01b600052603260045260246000fd5b60009182526020822001546001600160a01b03169150611a2182613d7d565b905082811115611a99576001600160a01b03821663fa7fc3d2611a448584615c0a565b6040518263ffffffff1660e01b8152600401611a6291815260200190565b600060405180830381600087803b158015611a7c57600080fd5b505af1158015611a90573d6000803e3d6000fd5b50505050611b6e565b80831115611b6e57611afc60d78581548110611ac557634e487b7160e01b600052603260045260246000fd5b6000918252602090912001546001600160a01b0316611ae48386615c0a565b60cc5461010090046001600160a01b03169190613e84565b6001600160a01b0382166325274570611b158386615c0a565b6040516001600160e01b031960e084901b168152600481019190915260006024820152604401600060405180830381600087803b158015611b5557600080fd5b505af1158015611b69573d6000803e3d6000fd5b505050505b5050508080611b7c90615c82565b915050611961565b50611133613fa8565b6065546001600160a01b03163314611bb75760405162461bcd60e51b8152600401610c8290615993565b60008163ffffffff1611611bf35760405162461bcd60e51b815260206004820152600360248201526229189b60e91b6044820152606401610c82565b60d25463ffffffff16158015611c1c575060d25463ffffffff600160401b909104811690821611155b80611c33575060d25463ffffffff90811690821611155b611c655760405162461bcd60e51b815260206004820152600360248201526252313760e81b6044820152606401610c82565b60d2805467ffffffff00000000191664010000000063ffffffff848116918202929092179283905560408051600160601b909404909216835260208301527ff0d4e95ace3c30a9f74264435d024aee7c24e0a24d5f2dc0b2f097778d19944391015b60405180910390a150565b6065546001600160a01b03163314611cfc5760405162461bcd60e51b8152600401610c8290615993565b60e280546001600160a01b0319166001600160a01b0392909216919091179055565b60db546001600160a01b03163314611d5d5760405162461bcd60e51b8152602060048201526002602482015261291b60f11b6044820152606401610c82565b611d668161421d565b50565b60d6546001600160a01b03163314611da85760405162461bcd60e51b8152602060048201526002602482015261148d60f21b6044820152606401610c82565b60d054600160801b90046001600160801b03161580611df3575060d25460d054611def91600160601b900463ffffffff1690600160401b90046001600160401b0316615ab5565b4210155b611e255760405162461bcd60e51b8152602060048201526003602482015262148ccd60ea1b6044820152606401610c82565b60d254600090611e4b9063ffffffff600160601b8204811691600160401b900416615aec565b60d454611e589190615aec565b60d080549192508291601090611e7f908490600160801b90046001600160801b0316615a8a565b92506101000a8154816001600160801b0302191690836001600160801b031602179055506201518042611eb29190615c9d565b611ebc9042615c0a565b611ec890617080615ab5565b60d080546001600160401b0392909216600160401b026fffffffffffffffff00000000000000001990921691909117905560db5460cc54611f1c916101009091046001600160a01b03908116911683612f4d565b60db546040518281526001600160a01b03909116907f4c40d030ff61ad9fddd7e91383af2b30e967a5d96e128382a8b24130d6dee72e9060200160405180910390a250565b6065546001600160a01b03163314611f8b5760405162461bcd60e51b8152600401610c8290615993565b60dc546001600160a01b0316611fc95760405162461bcd60e51b815260206004820152600360248201526252353160e81b6044820152606401610c82565b60dc805460db80546001600160a01b03199081166001600160a01b03841617909155169055565b600260015414156120135760405162461bcd60e51b8152600401610c82906159c8565b6002600181905550612027600060016142c6565b60018055565b6065546001600160a01b031633146120575760405162461bcd60e51b8152600401610c8290615993565b612065620f42406064615beb565b81106120995760405162461bcd60e51b815260206004820152600360248201526229189960e91b6044820152606401610c82565b60de5460408051918252602082018390527f24867dfb6fcb9970a07be21024956524abe7a1837faa903ff0e99aaa40cf893e910160405180910390a160de55565b6065546001600160a01b031633146121045760405162461bcd60e51b8152600401610c8290615993565b61210e600061445b565b565b60db546001600160a01b0316331461214f5760405162461bcd60e51b8152602060048201526002602482015261291b60f11b6044820152606401610c82565b60cc5460405163d505accf60e01b81526101009091046001600160a01b03169063d505accf9061218f90339030908a908a908a908a908a906004016157d3565b600060405180830381600087803b1580156121a957600080fd5b505af11580156121bd573d6000803e3d6000fd5b505050506121ca8561421d565b5050505050565b60d781815481106121e157600080fd5b6000918252602090912001546001600160a01b0316905081565b6002600154141561221e5760405162461bcd60e51b8152600401610c82906159c8565b600260015561222c816144ad565b8060e15461223a9190615ab5565b60e1555060018055565b6065546001600160a01b0316331461226e5760405162461bcd60e51b8152600401610c8290615993565b6001600160a01b0381166122a95760405162461bcd60e51b8152602060048201526002602482015261523960f01b6044820152606401610c82565b60db54604080516001600160a01b03928316815291831660208301527f99e10f8286c53ce42e5bb9937b70f356c0733bf7f652059231239a1b9f12ef96910160405180910390a160dc80546001600160a01b0319166001600160a01b03929092169190911790554260dd55565b6060609b8054610e3f90615c4d565b600061235561233360995490565b61233b6124fd565b60cf5460cc546001600160801b039091169060ff166139ac565b905090565b3360009081526098602090815260408083206001600160a01b0386168452909152812054828110156123dc5760405162461bcd60e51b815260206004820152602560248201527f45524332303a2064656372656173656420616c6c6f77616e63652062656c6f77604482015264207a65726f60d81b6064820152608401610c82565b6123e93385858403612fb5565b5060019392505050565b600260015414156124165760405162461bcd60e51b8152600401610c82906159c8565b600260015560e3546001600160a01b03168061243157600080fd5b6000821161243e57600080fd5b336000908152609760205260409020548281101561246a5761246a6124638285615c0a565b60006142c6565b6124753330856130d9565b612480308385612fb5565b6040516383df674760e01b815260048101849052336024820152600060448201526001600160a01b038316906383df674790606401600060405180830381600087803b1580156124cf57600080fd5b505af11580156124e3573d6000803e3d6000fd5b5050600180555050505050565b6000610ecf3384846130d9565b60cc546040516370a0823160e01b815230600482015260009182916101009091046001600160a01b0316906370a082319060240160206040518083038186803b15801561254957600080fd5b505afa15801561255d573d6000803e3d6000fd5b505050506040513d601f19601f8201168201806040525081019061258191906154f8565b905060005b60d7548110156125ec576125ce60d782815481106125b457634e487b7160e01b600052603260045260246000fd5b6000918252602090912001546001600160a01b0316613d7d565b6125d89083615ab5565b9150806125e481615c82565b915050612586565b50919050565b600260015414156126155760405162461bcd60e51b8152600401610c82906159c8565b6002600155806126375760405162461bcd60e51b8152600401610c8290615976565b61264181336136fd565b60cc5461265e9061010090046001600160a01b0316333084613974565b5060018055565b6065546001600160a01b0316331461268f5760405162461bcd60e51b8152600401610c8290615993565b60005b6002811015611d665760d8600060d783815481106126c057634e487b7160e01b600052603260045260246000fd5b60009182526020808320909101546001600160a01b031683528201929092526040019020805470ffffffffffffffffffffffffffffffffff19168155600190810180546001600160801b031916905560d78054909161271e91615c0a565b8154811061273c57634e487b7160e01b600052603260045260246000fd5b60009182526020909120015460d780546001600160a01b03909216918390811061277657634e487b7160e01b600052603260045260246000fd5b9060005260206000200160006101000a8154816001600160a01b0302191690836001600160a01b0316021790555060d78054806127c357634e487b7160e01b600052603160045260246000fd5b600082815260209020810160001990810180546001600160a01b0319169055019055806127ef81615c82565b915050612692565b60e2546001600160a01b03168061280d57600080fd5b612819600060016142c6565b3360008181526097602052604090205490612835908383612fb5565b60405163c9c2d4f560e01b8152336004820152602481018290526001600160a01b0383169063c9c2d4f590604401600060405180830381600087803b15801561287d57600080fd5b505af1158015612891573d6000803e3d6000fd5b505050505050565b60008060006128a784612bd5565b90925090506116028183615ab5565b6065546001600160a01b031633146128e05760405162461bcd60e51b8152600401610c8290615993565b6001600160a01b03811661291b5760405162461bcd60e51b8152602060048201526002602482015261523760f01b6044820152606401610c82565b60d680546001600160a01b0319166001600160a01b0392909216919091179055565b600260015414156129605760405162461bcd60e51b8152600401610c82906159c8565b6002600155806129985760405162461bcd60e51b815260206004820152600360248201526252323960e81b6044820152606401610c82565b61265e8160006142c6565b6065546001600160a01b031633146129cd5760405162461bcd60e51b8152600401610c8290615993565b6001600160a01b038116612a085760405162461bcd60e51b81526020600482015260026024820152610a4760f31b6044820152606401610c82565b60d580546001600160a01b0319166001600160a01b0392909216919091179055565b6065546001600160a01b03163314612a545760405162461bcd60e51b8152600401610c8290615993565b6001600160a01b038116612ab95760405162461bcd60e51b815260206004820152602660248201527f4f776e61626c653a206e6577206f776e657220697320746865207a65726f206160448201526564647265737360d01b6064820152608401610c82565b611d668161445b565b6065546001600160a01b03163314612aec5760405162461bcd60e51b8152600401610c8290615993565b620f4240612afa8284615acd565b63ffffffff161115612b345760405162461bcd60e51b8152602060048201526003602482015262148c4d60ea1b6044820152606401610c82565b60d25460408051600160801b830463ffffffff9081168252600160a01b90930483166020820152848316818301529183166060830152517fc5b13904dad0762d636763061410ff20f86e9d21359fe8c2b1decacfc9bdd7539181900360800190a160d2805467ffffffffffffffff60801b1916600160801b63ffffffff9485160263ffffffff60a01b191617600160a01b9290931691909102919091179055565b6001600160a01b038116600090815260c9602090815260408083208151606081018352905461ffff81168083526201000082046001600160681b031694830194909452600160781b90046001600160801b031691810191909152829160011115612c57575050506001600160a01b031660009081526097602052604081205491565b60ce54815161ffff908116600090815260ca602052604081205460cc549193612c889386939116919060ff16614641565b9050612ca9856001600160a01b031660009081526097602052604090205490565b9590945092505050565b6065546001600160a01b03163314612cdd5760405162461bcd60e51b8152600401610c8290615993565b620151808163ffffffff161015612d1c5760405162461bcd60e51b815260206004820152600360248201526252313560e81b6044820152606401610c82565b60d2805463ffffffff191663ffffffff8381169182179283905560408051600160401b909404909116835260208301919091527fd323e49efbd1e497c4f485723f1434c9b8294a325ad121e48fdb4c1cfacea7359101611cc7565b60026001541415612d9a5760405162461bcd60e51b8152600401610c82906159c8565b60026001556000612da96146b2565b905060008111612de15760405162461bcd60e51b81526020600482015260036024820152620a464760eb1b6044820152606401610c82565b8060e054612def9190615c0a565b6001600160801b031660e05560cc5461265e9061010090046001600160a01b03163383612f4d565b6065546001600160a01b03163314612e415760405162461bcd60e51b8152600401610c8290615993565b612e4d84848484613400565b50504260da555050565b6065546001600160a01b03163314612e815760405162461bcd60e51b8152600401610c8290615993565b612e8f620f42406064615beb565b8110612ec35760405162461bcd60e51b815260206004820152600360248201526252313160e81b6044820152606401610c82565b60d254600090600160401b900463ffffffff16612ee7620f42406301e13380615beb565b612ef19190615aec565b612efe620f424084615beb565b612f089190615aec565b60df5460408051918252602082018390529192507f4e874b007ab14f7e263baefd44951834c8266f4f224d1092e49e9c254354cc54910160405180910390a160df5550565b6040516001600160a01b038316602482015260448101829052612fb090849063a9059cbb60e01b906064015b60408051601f198184030181529190526020810180516001600160e01b03166001600160e01b0319909316929092179091526147f8565b505050565b6001600160a01b0383166130175760405162461bcd60e51b8152602060048201526024808201527f45524332303a20617070726f76652066726f6d20746865207a65726f206164646044820152637265737360e01b6064820152608401610c82565b6001600160a01b0382166130785760405162461bcd60e51b815260206004820152602260248201527f45524332303a20617070726f766520746f20746865207a65726f206164647265604482015261737360f01b6064820152608401610c82565b6001600160a01b0383811660008181526098602090815260408083209487168084529482529182902085905590518481527f8c5be1e5ebec7d5bd14f71427d1e84f3dd0314c0f7b2291e5b200ac8c7c3b925910160405180910390a3505050565b6001600160a01b03831661313d5760405162461bcd60e51b815260206004820152602560248201527f45524332303a207472616e736665722066726f6d20746865207a65726f206164604482015264647265737360d81b6064820152608401610c82565b6001600160a01b03821661319f5760405162461bcd60e51b815260206004820152602360248201527f45524332303a207472616e7366657220746f20746865207a65726f206164647260448201526265737360e81b6064820152608401610c82565b6001600160a01b038316600090815260976020526040902054818110156132175760405162461bcd60e51b815260206004820152602660248201527f45524332303a207472616e7366657220616d6f756e7420657863656564732062604482015265616c616e636560d01b6064820152608401610c82565b6001600160a01b0380851660009081526097602052604080822085850390559185168152908120805484929061324e908490615ab5565b92505081905550826001600160a01b0316846001600160a01b03167fddf252ad1be2c89b69c2b068fc378daa952ba7f163c4a11628f55a4df523b3ef8460405161329a91815260200190565b60405180910390a36114f4565b600054610100900460ff16806132c0575060005460ff16155b6132dc5760405162461bcd60e51b8152600401610c8290615928565b600054610100900460ff161580156132fe576000805461ffff19166101011790555b6133066148ca565b8015611d66576000805461ff001916905550565b600054610100900460ff1680613333575060005460ff16155b61334f5760405162461bcd60e51b8152600401610c8290615928565b600054610100900460ff16158015613371576000805461ffff19166101011790555b613379614939565b61338383836149a3565b8015612fb0576000805461ff0019169055505050565b600054610100900460ff16806133b2575060005460ff16155b6133ce5760405162461bcd60e51b8152600401610c8290615928565b600054610100900460ff161580156133f0576000805461ffff19166101011790555b6133f8614939565b613306614a38565b828181146134365760405162461bcd60e51b815260206004820152600360248201526205234360ec1b6044820152606401610c82565b60005b8181101561366e57600086868381811061346357634e487b7160e01b600052603260045260246000fd5b90506020020160208101906134789190615309565b6001600160a01b0316141561348c5761365c565b60d860008787848181106134b057634e487b7160e01b600052603260045260246000fd5b90506020020160208101906134c59190615309565b6001600160a01b0316815260208101919091526040016000205460ff166135b35760d786868381811061350857634e487b7160e01b600052603260045260246000fd5b905060200201602081019061351d9190615309565b81546001808201845560009384526020842090910180546001600160a01b0319166001600160a01b0393909316929092179091559060d89088888581811061357557634e487b7160e01b600052603260045260246000fd5b905060200201602081019061358a9190615309565b6001600160a01b031681526020810191909152604001600020805460ff19169115159190911790555b8383828181106135d357634e487b7160e01b600052603260045260246000fd5b90506020020160208101906135e891906154c6565b60d8600088888581811061360c57634e487b7160e01b600052603260045260246000fd5b90506020020160208101906136219190615309565b6001600160a01b03168152602081019190915260400160002060010180546001600160801b0319166001600160801b03929092169190911790555b8061366681615c82565b915050613439565b507fc8616977b27865a3d83403e8b0eef76d389fc3f711f2bf5bcf0b4399b33d1509858585856040516136a49493929190615814565b60405180910390a15050505050565b6001600160681b03811115611d665760405162461bcd60e51b815260206004820152601060248201526f13dd995c999b1bddc81d5a5b9d0c4c0d60821b6044820152606401610c82565b60ce5461ffff1660008361370f6124fd565b6137199190615ab5565b60cd549091506001600160681b031681111561375d5760405162461bcd60e51b815260206004820152600360248201526229191960e91b6044820152606401610c82565b60cc54600160a81b900466ffffffffffffff168110156137a55760405162461bcd60e51b815260206004820152600360248201526252323360e81b6044820152606401610c82565b60408051858152602081018490526001600160a01b038516917f90890809c654f11d6e72a28fa60149770a0d11ec6c92319d6ceb2bb0a4ea1a15910160405180910390a26001600160a01b038316600090815260c9602090815260408083208151606081018352905461ffff81168083526201000082046001600160681b031683860152600160781b9091046001600160801b031682840152845260ca90925282205460cc5491929161385f91849187919060ff16614641565b8251909150869061ffff168514156138905760008784602001516001600160681b031661388c9190615ab5565b9150505b613899816136b3565b6040805160608101825261ffff80881682526001600160681b0380851660208085019182526001600160801b038089168688019081526001600160a01b038e16600090815260c990935296822095518654935197518216600160781b02600160781b600160f81b03199890951662010000026effffffffffffffffffffffffffffff1990941695169490941791909117949094161790915560cf54613940918a9116615ab5565b905061394b81613d33565b60cf80546001600160801b0319166001600160801b039290921691909117905550505050505050565b6040516001600160a01b03808516602483015283166044820152606481018290526114f49085906323b872dd60e01b90608401612f79565b6000806139ba83600a615b43565b9050600086116139ca57806139e9565b856139d58587615c0a565b6139df9083615beb565b6139e99190615aec565b9695505050505050565b600060018311613a3d5760405162461bcd60e51b8152602060048201526015602482015274496e76616c6964206173736574506572536861726560581b6044820152606401610c82565b613a4882600a615b43565b613a528486615beb565b6116029190615aec565b60d25460d0546000918291613a8791600160401b900463ffffffff16906001600160401b0316615ab5565b421015613abc5760405162461bcd60e51b815260206004820152600360248201526252333960e81b6044820152606401610c82565b60d5546040805160e0810190915260cc5460ff1681526001600160a01b039091169060009081908190819073__$2abc2342da0ef81c8a62da4073b4b8c831$__90632b8b58cf9060ce9060208101613b126124fd565b8152602001613b2060995490565b815260200160e054815260200160de54815260200160df54815260200160e1548152506040518363ffffffff1660e01b8152600401613bb192919060006101008201905083825282516020830152602083015160408301526040830151606083015260608301516080830152608083015160a083015260a083015160c083015260c083015160e08301529392505050565b60c06040518083038186803b158015613bc957600080fd5b505af4158015613bdd573d6000803e3d6000fd5b505050506040513d601f19601f82011682018060405250810190613c019190615534565b60ce5461ffff16600081815260ca60209081526040918290208790558151858152908101849052908101829052969d50949b50919850965094509250906001600160a01b038716907f0a242f7ecaf711036ca770774ceffae28e60ef042ac113ddd187f2631db0c0069060600160405180910390a260cf80546001600160801b0319169055613c91816001615ab5565b60ce805461ffff191661ffff92909216919091179055613cb46201518042615c9d565b613cbe9042615c0a565b613cca90617080615ab5565b60d0805467ffffffffffffffff19166001600160401b039290921691909117905550613cf890503084614a98565b8015613d1a5760cc54613d1a9061010090046001600160a01b03168583612f4d565b613d2386614b77565b613d2b614d2e565b505050509091565b6001600160801b03811115611d665760405162461bcd60e51b815260206004820152601060248201526f09eeccae4ccd8deee40ead2dce86264760831b6044820152606401610c82565b6000670de0b6b3a7640000826001600160a01b0316633ca967f36040518163ffffffff1660e01b815260040160206040518083038186803b158015613dc157600080fd5b505afa158015613dd5573d6000803e3d6000fd5b505050506040513d601f19601f82011682018060405250810190613df991906154f8565b6040516370a0823160e01b81523060048201526001600160a01b038516906370a082319060240160206040518083038186803b158015613e3857600080fd5b505afa158015613e4c573d6000803e3d6000fd5b505050506040513d601f19601f82011682018060405250810190613e7091906154f8565b613e7a9190615beb565b610ed39190615aec565b801580613f0d5750604051636eb1769f60e11b81523060048201526001600160a01b03838116602483015284169063dd62ed3e9060440160206040518083038186803b158015613ed357600080fd5b505afa158015613ee7573d6000803e3d6000fd5b505050506040513d601f19601f82011682018060405250810190613f0b91906154f8565b155b613f785760405162461bcd60e51b815260206004820152603660248201527f5361666545524332303a20617070726f76652066726f6d206e6f6e2d7a65726f60448201527520746f206e6f6e2d7a65726f20616c6c6f77616e636560501b6064820152608401610c82565b6040516001600160a01b038316602482015260448101829052612fb090849063095ea7b360e01b90606401612f79565b60d7546000816001600160401b03811115613fd357634e487b7160e01b600052604160045260246000fd5b604051908082528060200260200182016040528015613ffc578160200160208202803683370190505b50905060005b828110156140935760d7818154811061402b57634e487b7160e01b600052603260045260246000fd5b9060005260206000200160009054906101000a90046001600160a01b031682828151811061406957634e487b7160e01b600052603260045260246000fd5b6001600160a01b03909216602092830291909101909101528061408b81615c82565b915050614002565b50604051636909532160e11b815273312853485a41f76f20a14f927cd0ea676588936c9063d212a642906140cb9084906004016158a8565b600060405180830381600087803b1580156140e557600080fd5b505af11580156140f9573d6000803e3d6000fd5b50506040516370a0823160e01b8152306004820152736123b0049f904d730db3c36a31167d9d4121fa6b925082915063a9059cbb90735b0655f938a72052c46d2e94d206ccb6ff625a3a9083906370a082319060240160206040518083038186803b15801561416757600080fd5b505afa15801561417b573d6000803e3d6000fd5b505050506040513d601f19601f8201168201806040525081019061419f91906154f8565b6040516001600160e01b031960e085901b1681526001600160a01b0390921660048301526024820152604401602060405180830381600087803b1580156141e557600080fd5b505af11580156141f9573d6000803e3d6000fd5b505050506040513d601f19601f820116820180604052508101906114f49190615430565b60cc5461423a9061010090046001600160a01b0316333084613974565b60d2546000906142609063ffffffff600160601b8204811691600160401b900416615aec565b60d45461426d9190615aec565b9050337f0f6ba811ab59ff1520dd0aa40c3591aeb13d418d5d2bcf79b5f819a3634ed595838381116142a05760006142aa565b6142aa8486615c0a565b6040805192835260208301919091520160405180910390a25050565b33600090815260c9602090815260408083208151606081018352905461ffff8082168084526201000083046001600160681b031684870152600160781b9092046001600160801b03168385015260ce5491865260ca9094529184205460cc549194929093169261433c918591859160ff16614641565b905083614349578461434b565b805b945084614359575050505050565b8085111561438f5760405162461bcd60e51b815260206004820152600360248201526205233360ec1b6044820152606401610c82565b825161ffff168211156143bc5733600090815260c960205260409020805462010000600160781b03191690555b6143c585613d33565b6143cf8582615c0a565b33600081815260c960205260409081902080546001600160801b0394909416600160781b02600160781b600160f81b0319909416939093179092558451915190917fe5b754fb1abb7f01b499791d0b820ae3b6af3424ac1c59768edb53f4ec31a929916144489189825261ffff16602082015260400190565b60405180910390a26121ca3033876130d9565b606580546001600160a01b038381166001600160a01b0319831681179093556040519116919082907f8be0079c531659141344cd1fd0a4f28419497f9722a3daafe3b4186f6b6457e090600090a35050565b600081116144e35760405162461bcd60e51b8152602060048201526003602482015262148c8d60ea1b6044820152606401610c82565b33600090815260c960205260409020546201000090046001600160681b031615158061452d575033600090815260c96020526040902054600160781b90046001600160801b031615155b1561453e5761453e600060016142c6565b60ce5433600081815260cb60209081526040918290208054835187815261ffff96871693810184905292959194911685149290917f0c53c82ad07e2d592d88ece3b066777dd60f1118e2a081b380efc4358f0d9e2a910160405180910390a281546201000090046001600160801b0316600082156145c7576145c08683615ab5565b905061460d565b81156145fb5760405162461bcd60e51b815260206004820152600360248201526252323560e81b6044820152606401610c82565b50825461ffff191661ffff8516178355845b61461681613d33565b835462010000600160901b031916620100006001600160801b038316021784556128913330886130d9565b835160009061ffff161580159061465c5750845161ffff1684115b1561469e57600061467b86602001516001600160681b03168585614f47565b90508086604001516001600160801b03166146969190615ab5565b915050611602565b50505050604001516001600160801b031690565b33600090815260cb6020526040812080546001600160801b03620100008204169061ffff168161470a5760405162461bcd60e51b815260206004820152600360248201526229191b60e91b6044820152606401610c82565b60ce5461ffff1681106147455760405162461bcd60e51b815260206004820152600360248201526252323760e81b6044820152606401610c82565b825462010000600160901b031916835560cf54614773908390600160801b90046001600160801b0316615c0a565b60cf80546001600160801b03928316600160801b029216919091179055600081815260ca602052604081205460cc546147b091859160ff166139f3565b604080518281526020810186905291925033917ff279e6a1f5e320cca91135676d9cb6e44ca8a08c0b88342bcdb1144f6511b568910160405180910390a26116023084614fa7565b600061484d826040518060400160405280602081526020017f5361666545524332303a206c6f772d6c6576656c2063616c6c206661696c6564815250856001600160a01b03166150f59092919063ffffffff16565b805190915015612fb0578080602001905181019061486b9190615430565b612fb05760405162461bcd60e51b815260206004820152602a60248201527f5361666545524332303a204552433230206f7065726174696f6e20646964206e6044820152691bdd081cdd58d8d9595960b21b6064820152608401610c82565b600054610100900460ff16806148e3575060005460ff16155b6148ff5760405162461bcd60e51b8152600401610c8290615928565b600054610100900460ff16158015614921576000805461ffff19166101011790555b600180558015611d66576000805461ff001916905550565b600054610100900460ff1680614952575060005460ff16155b61496e5760405162461bcd60e51b8152600401610c8290615928565b600054610100900460ff16158015613306576000805461ffff19166101011790558015611d66576000805461ff001916905550565b600054610100900460ff16806149bc575060005460ff16155b6149d85760405162461bcd60e51b8152600401610c8290615928565b600054610100900460ff161580156149fa576000805461ffff19166101011790555b8251614a0d90609a906020860190615200565b508151614a2190609b906020850190615200565b508015612fb0576000805461ff0019169055505050565b600054610100900460ff1680614a51575060005460ff16155b614a6d5760405162461bcd60e51b8152600401610c8290615928565b600054610100900460ff16158015614a8f576000805461ffff19166101011790555b6133063361445b565b6001600160a01b038216614aee5760405162461bcd60e51b815260206004820152601f60248201527f45524332303a206d696e7420746f20746865207a65726f2061646472657373006044820152606401610c82565b8060996000828254614b009190615ab5565b90915550506001600160a01b03821660009081526097602052604081208054839290614b2d908490615ab5565b90915550506040518181526001600160a01b038316906000907fddf252ad1be2c89b69c2b068fc378daa952ba7f163c4a11628f55a4df523b3ef9060200160405180910390a35050565b604080516101008101825260d25463ffffffff808216808452640100000000830482166020850152600160401b8304821694840194909452600160601b820481166060840152600160801b820481166080840152600160a01b9091041660a082015260d35460c082015260d45460e08201529015614c8b5760df546040820151825163ffffffff91821691614c0d911683615beb565b614c179190615aec565b60df819055825160d280546bffffffff00000000ffffffff1916600160401b63ffffffff9093169290920263ffffffff19169190911790556040805183815260208101929092527f4e874b007ab14f7e263baefd44951834c8266f4f224d1092e49e9c254354cc54910160405180910390a1505b602081015163ffffffff1615614cda57602081015160d280546fffffffff00000000ffffffff000000001916600160601b63ffffffff9093169290920267ffffffff0000000019169190911790555b6080810151620f424090614cf590849063ffffffff16615beb565b614cff9190615aec565b60d35560a0810151620f424090614d1d90849063ffffffff16615beb565b614d279190615aec565b60d4555050565b60da54614d3e906203f480615ab5565b421015614d735760405162461bcd60e51b815260206004820152600360248201526205231360ec1b6044820152606401610c82565b60005b60d754811015614f0957600060d8600060d78481548110614da757634e487b7160e01b600052603260045260246000fd5b6000918252602080832091909101546001600160a01b0316835282019290925260400181205460d780546101009092046001600160801b0316935060d89183919086908110614e0657634e487b7160e01b600052603260045260246000fd5b60009182526020808320909101546001600160a01b031683528201929092526040019020600101546001600160801b03908116915082168114614ef4578060d8600060d78681548110614e6957634e487b7160e01b600052603260045260246000fd5b6000918252602080832091909101546001600160a01b031683528201929092526040018120805470ffffffffffffffffffffffffffffffff0019166101006001600160801b039485160217905560d9805492841692909190614ecc908490615ab5565b92505081905550816001600160801b031660d96000828254614eee9190615c0a565b90915550505b50508080614f0190615c82565b915050614d76565b507f35f63f8d8ef81a02b50e77faab37344f335fcc256a197cbaa15cd5ab8835aa0660d954604051614f3d91815260200190565b60405180910390a1565b600060018311614f915760405162461bcd60e51b8152602060048201526015602482015274496e76616c6964206173736574506572536861726560581b6044820152606401610c82565b82614f9d83600a615b43565b613a529086615beb565b6001600160a01b0382166150075760405162461bcd60e51b815260206004820152602160248201527f45524332303a206275726e2066726f6d20746865207a65726f206164647265736044820152607360f81b6064820152608401610c82565b6001600160a01b0382166000908152609760205260409020548181101561507b5760405162461bcd60e51b815260206004820152602260248201527f45524332303a206275726e20616d6f756e7420657863656564732062616c616e604482015261636560f01b6064820152608401610c82565b6001600160a01b03831660009081526097602052604081208383039055609980548492906150aa908490615c0a565b90915550506040518281526000906001600160a01b038516907fddf252ad1be2c89b69c2b068fc378daa952ba7f163c4a11628f55a4df523b3ef9060200160405180910390a3505050565b6060611602848460008585843b61514e5760405162461bcd60e51b815260206004820152601d60248201527f416464726573733a2063616c6c20746f206e6f6e2d636f6e74726163740000006044820152606401610c82565b600080866001600160a01b0316858760405161516a91906156d2565b60006040518083038185875af1925050503d80600081146151a7576040519150601f19603f3d011682016040523d82523d6000602084013e6151ac565b606091505b50915091506151bc8282866151c7565b979650505050505050565b606083156151d6575081610f7e565b8251156151e65782518084602001fd5b8160405162461bcd60e51b8152600401610c8291906158f5565b82805461520c90615c4d565b90600052602060002090601f01602090048101928261522e5760008555615274565b82601f1061524757805160ff1916838001178555615274565b82800160010185558215615274579182015b82811115615274578251825591602001919060010190615259565b50615280929150615284565b5090565b5b808211156152805760008155600101615285565b60008083601f8401126152aa578182fd5b5081356001600160401b038111156152c0578182fd5b6020830191508360208260051b85010111156152db57600080fd5b9250929050565b80356001600160801b03811681146152f957600080fd5b919050565b80356152f981615f08565b60006020828403121561531a578081fd5b8135610f7e81615ede565b60008060408385031215615337578081fd5b823561534281615ede565b9150602083013561535281615ede565b809150509250929050565b600080600060608486031215615371578081fd5b833561537c81615ede565b9250602084013561538c81615ede565b929592945050506040919091013590565b600080604083850312156153af578182fd5b82356153ba81615ede565b946020939093013593505050565b600080600080604085870312156153dd578081fd5b84356001600160401b03808211156153f3578283fd5b6153ff88838901615299565b90965094506020870135915080821115615417578283fd5b5061542487828801615299565b95989497509550505050565b600060208284031215615441578081fd5b81518015158114610f7e578182fd5b60008060008385036101a0811215615466578384fd5b84356001600160401b0381111561547b578485fd5b8501610140818803121561548d578485fd5b93506080601f19820112156154a0578283fd5b602085019250610100609f19820112156154b8578182fd5b5060a0840190509250925092565b6000602082840312156154d7578081fd5b610f7e826152e2565b6000602082840312156154f1578081fd5b5035919050565b600060208284031215615509578081fd5b5051919050565b60008060408385031215615522578182fd5b82359150602083013561535281615ede565b60008060008060008060c0878903121561554c578384fd5b865195506020870151945060408701519350606087015192506080870151915060a087015190509295509295509295565b600080600080600060a08688031215615594578283fd5b853594506020860135935060408601356155ad81615f2f565b94979396509394606081013594506080013592915050565b6000602082840312156155d6578081fd5b8135610f7e81615f08565b600080604083850312156155f3578182fd5b82356155fe81615f08565b9150602083013561535281615f08565b81835281816020850137506000828201602090810191909152601f909101601f19169091010190565b803561564281615f08565b63ffffffff908116835260208201359061565b82615f08565b908116602084015260408201359061567282615f08565b908116604084015260608201359061568982615f08565b16606083015261569b608082016152fe565b63ffffffff1660808301526156b260a082016152fe565b63ffffffff1660a083015260c0818101359083015260e090810135910152565b600082516156e4818460208701615c21565b9190910192915050565b600060018060a01b03808f168352808e166020840152808d1660408401528b60608401528a608084015261028060a084015261572f61028084018a8c61560e565b83810360c085015261574281898b61560e565b925050853561575081615f2f565b60ff1660e0840152602086013561576681615ede565b16610100830152604085013561577b81615f1a565b66ffffffffffffff16610120830152606085013561579881615ef3565b6001600160681b03166101408301526157b5610160830185615637565b63ffffffff83166102608301529d9c50505050505050505050505050565b6001600160a01b0397881681529590961660208601526040850193909352606084019190915260ff16608083015260a082015260c081019190915260e00190565b6040808252810184905260008560608301825b8781101561585757823561583a81615ede565b6001600160a01b0316825260209283019290910190600101615827565b50838103602085810191909152858252915085908201835b8681101561589b576001600160801b03615888846152e2565b168252918301919083019060010161586f565b5098975050505050505050565b6020808252825182820181905260009190848201906040850190845b818110156158e95783516001600160a01b0316835292840192918401916001016158c4565b50909695505050505050565b6020815260008251806020840152615914816040850160208701615c21565b601f01601f19169190910160400192915050565b6020808252602e908201527f496e697469616c697a61626c653a20636f6e747261637420697320616c72656160408201526d191e481a5b9a5d1a585b1a5e995960921b606082015260800190565b60208082526003908201526252323160e81b604082015260600190565b6020808252818101527f4f776e61626c653a2063616c6c6572206973206e6f7420746865206f776e6572604082015260600190565b6020808252601f908201527f5265656e7472616e637947756172643a207265656e7472616e742063616c6c00604082015260600190565b6000808335601e19843603018112615a15578283fd5b8301803591506001600160401b03821115615a2e578283fd5b6020019150600581901b36038213156152db57600080fd5b6000808335601e19843603018112615a5c578283fd5b8301803591506001600160401b03821115615a75578283fd5b6020019150368190038213156152db57600080fd5b60006001600160801b03808316818516808303821115615aac57615aac615cb1565b01949350505050565b60008219821115615ac857615ac8615cb1565b500190565b600063ffffffff808316818516808303821115615aac57615aac615cb1565b600082615afb57615afb615cc7565b500490565b600181815b80851115615b3b578160001904821115615b2157615b21615cb1565b80851615615b2e57918102915b93841c9390800290615b05565b509250929050565b6000610f7e8383600082615b5957506001610ed3565b81615b6657506000610ed3565b8160018114615b7c5760028114615b8657615ba2565b6001915050610ed3565b60ff841115615b9757615b97615cb1565b50506001821b610ed3565b5060208310610133831016604e8410600b8410161715615bc5575081810a610ed3565b615bcf8383615b00565b8060001904821115615be357615be3615cb1565b029392505050565b6000816000190483118215151615615c0557615c05615cb1565b500290565b600082821015615c1c57615c1c615cb1565b500390565b60005b83811015615c3c578181015183820152602001615c24565b838111156114f45750506000910152565b600181811c90821680615c6157607f821691505b602082108114156125ec57634e487b7160e01b600052602260045260246000fd5b6000600019821415615c9657615c96615cb1565b5060010190565b600082615cac57615cac615cc7565b500690565b634e487b7160e01b600052601160045260246000fd5b634e487b7160e01b600052601260045260246000fd5b60008135610ed381615f08565b8135615cf581615f08565b63ffffffff8116905081548163ffffffff1982161783556020840135615d1a81615f08565b67ffffffff000000008160201b16836001600160401b0319841617178455505050615d74615d4a60408401615cdd565b82546bffffffff0000000000000000191660409190911b6bffffffff000000000000000016178255565b615da7615d8360608401615cdd565b82805463ffffffff60601b191660609290921b63ffffffff60601b16919091179055565b615dda615db660808401615cdd565b82805463ffffffff60801b191660809290921b63ffffffff60801b16919091179055565b615e0d615de960a08401615cdd565b82805463ffffffff60a01b191660a09290921b63ffffffff60a01b16919091179055565b60c0820135600182015560e082013560028201555050565b8135615e3081615f2f565b60ff8116905081548160ff1982161783556020840135615e4f81615ede565b610100600160a81b0360089190911b166001600160a81b031982168317811784556040850135615e7e81615f1a565b6001600160e01b0319929092169092179190911760a89190911b66ffffffffffffff60a81b16178155600181016060830135615eb981615ef3565b81546cffffffffffffffffffffffffff19166001600160681b03919091161790555050565b6001600160a01b0381168114611d6657600080fd5b6001600160681b0381168114611d6657600080fd5b63ffffffff81168114611d6657600080fd5b66ffffffffffffff81168114611d6657600080fd5b60ff81168114611d6657600080fdfea2646970667358221220c74a19a81b25964d9b200700cf7ae70aa828cfc622df3f6fadc20c4fe45bf7a264736f6c63430008040033",
  "libraries": {
    "VaultLifecycleEarn": "0x35fd2E2F59F24f002BF69eD055DF595228D1c3D4"
  },
  "devdoc": {
    "kind": "dev",
    "methods": {
      "accountVaultBalance(address)": {
        "params": {
          "account": "is the address to lookup balance for"
        },
        "returns": {
          "_0": "the amount of `asset` custodied by the vault for the user"
        }
      },
      "allowance(address,address)": {
        "details": "See {IERC20-allowance}."
      },
      "approve(address,uint256)": {
        "details": "See {IERC20-approve}. Requirements: - `spender` cannot be the zero address."
      },
      "balanceOf(address)": {
        "details": "See {IERC20-balanceOf}."
      },
      "decreaseAllowance(address,uint256)": {
        "details": "Atomically decreases the allowance granted to `spender` by the caller. This is an alternative to {approve} that can be used as a mitigation for problems described in {IERC20-approve}. Emits an {Approval} event indicating the updated allowance. Requirements: - `spender` cannot be the zero address. - `spender` must have allowance for the caller of at least `subtractedValue`."
      },
      "deposit(uint256)": {
        "params": {
          "amount": "is the amount of `asset` to deposit"
        }
      },
      "depositFor(uint256,address)": {
        "params": {
          "amount": "is the amount of `asset` to deposit",
          "creditor": "is the address that can claim/withdraw deposited amount"
        }
      },
      "depositWithPermit(uint256,uint256,uint8,bytes32,bytes32)": {
        "params": {
          "amount": "is the amount of `asset` to deposit",
          "deadline": "must be a timestamp in the future",
          "r": "is a valid signature",
          "s": "is a valid signature",
          "v": "is a valid signature"
        }
      },
      "increaseAllowance(address,uint256)": {
        "details": "Atomically increases the allowance granted to `spender` by the caller. This is an alternative to {approve} that can be used as a mitigation for problems described in {IERC20-approve}. Emits an {Approval} event indicating the updated allowance. Requirements: - `spender` cannot be the zero address."
      },
      "initialize((address,address,address[],uint128[],address,address,uint256,uint256,string,string),(uint8,address,uint56,uint104),(uint32,uint32,uint32,uint32,uint32,uint32,uint256,uint256))": {
        "params": {
          "_allocationState": "is the struct with vault loan/option allocation data",
          "_initParams": "is the struct with vault initialization parameters",
          "_vaultParams": "is the struct with vault general data"
        }
      },
      "initiateWithdraw(uint256)": {
        "params": {
          "numShares": "is the number of shares to withdraw"
        }
      },
      "name()": {
        "details": "Returns the name of the token."
      },
      "owner()": {
        "details": "Returns the address of the current owner."
      },
      "payOptionYield(uint256)": {
        "params": {
          "amount": "is the amount of yield to pay"
        }
      },
      "payOptionYield(uint256,uint256,uint8,bytes32,bytes32)": {
        "params": {
          "amount": "is the amount of yield to pay",
          "deadline": "must be a timestamp in the future",
          "r": "is a valid signature",
          "s": "is a valid signature",
          "v": "is a valid signature"
        }
      },
      "recoverTokens(address,address)": {
        "params": {
          "recipient": "is the recipient of the recovered tokens",
          "token": "is the ERC20 token to recover from the vault"
        }
      },
      "redeem(uint256)": {
        "params": {
          "numShares": "is the number of shares to redeem"
        }
      },
      "renounceOwnership()": {
        "details": "Leaves the contract without owner. It will not be possible to call `onlyOwner` functions anymore. Can only be called by the current owner. NOTE: Renouncing ownership will leave the contract without an owner, thereby removing any functionality that is only available to the owner."
      },
      "setAllocationPCT(uint32,uint32)": {
        "details": "Can be called by admin",
        "params": {
          "_loanAllocationPCT": "new allocation for loan",
          "_optionAllocationPCT": "new allocation for option"
        }
      },
      "setCap(uint256)": {
        "params": {
          "newCap": "is the new cap for deposits"
        }
      },
      "setFeeRecipient(address)": {
        "params": {
          "newFeeRecipient": "is the address of the new fee recipient"
        }
      },
      "setLiquidityGauge(address)": {
        "params": {
          "newLiquidityGauge": "is the address of the new liquidityGauge contract"
        }
      },
      "setLoanTermLength(uint32)": {
        "details": "Can be called by admin",
        "params": {
          "_loanTermLength": "new loan term length"
        }
      },
      "setManagementFee(uint256)": {
        "params": {
          "newManagementFee": "is the management fee (6 decimals). ex: 2 * 10 ** 6 = 2%"
        }
      },
      "setNewKeeper(address)": {
        "params": {
          "newKeeper": "is the address of the new keeper"
        }
      },
      "setOptionPurchaseFrequency(uint32)": {
        "details": "Can be called by admin",
        "params": {
          "_optionPurchaseFreq": "new option purchase frequency"
        }
      },
      "setOptionSeller(address)": {
        "params": {
          "newOptionSeller": "is the address of the new option seller"
        }
      },
      "setPerformanceFee(uint256)": {
        "params": {
          "newPerformanceFee": "is the performance fee (6 decimals). ex: 20 * 10 ** 6 = 20%"
        }
      },
      "setVaultPauser(address)": {
        "params": {
          "newVaultPauser": "is the address of the new vaultPauser contract"
        }
      },
      "shareBalances(address)": {
        "params": {
          "account": "is the account to lookup share balance for"
        },
        "returns": {
          "heldByAccount": "is the shares held by account",
          "heldByVault": "is the shares held on the vault (unredeemedShares)"
        }
      },
      "shares(address)": {
        "params": {
          "account": "is the account to lookup share balance for"
        },
        "returns": {
          "_0": "the share balance"
        }
      },
      "stake(uint256)": {
        "params": {
          "numShares": "is the number of shares to stake"
        }
      },
      "symbol()": {
        "details": "Returns the symbol of the token, usually a shorter version of the name."
      },
      "totalBalance()": {
        "returns": {
          "_0": "total balance of the vault, including the amounts locked in third party protocols"
        }
      },
      "totalSupply()": {
        "details": "See {IERC20-totalSupply}."
      },
      "transfer(address,uint256)": {
        "details": "See {IERC20-transfer}. Requirements: - `recipient` cannot be the zero address. - the caller must have a balance of at least `amount`."
      },
      "transferFrom(address,address,uint256)": {
        "details": "See {IERC20-transferFrom}. Emits an {Approval} event indicating the updated allowance. This is not required by the EIP. See the note at the beginning of {ERC20}. Requirements: - `sender` and `recipient` cannot be the zero address. - `sender` must have a balance of at least `amount`. - the caller must have allowance for ``sender``'s tokens of at least `amount`."
      },
      "transferOwnership(address)": {
        "details": "Transfers ownership of the contract to a new account (`newOwner`). Can only be called by the current owner."
      },
      "updateBorrowerBasket(address[],uint128[])": {
        "params": {
          "borrowerWeights": "is the array of corresponding borrow weights for the borrower",
          "borrowers": "is the array of borrowers to update"
        }
      },
      "withdrawInstantly(uint256)": {
        "params": {
          "amount": "is the amount to withdraw"
        }
      }
    },
    "version": 1
  },
  "userdoc": {
    "kind": "user",
    "methods": {
      "USDC()": {
        "notice": "USDC 0xA0b86991c6218b36c1d19D4a2e9Eb0cE3606eB48"
      },
      "accountVaultBalance(address)": {
        "notice": "Returns the asset balance held on the vault for the account"
      },
      "allocationState()": {
        "notice": "Vault's state of the allocation between lending and buying options"
      },
      "borrowerWeights(address)": {
        "notice": "borrowerMapping is the mapping from borrower to their borrow weight. EX: {Wintermute -> 0.4, GSR -> 0.2}"
      },
      "borrowers(uint256)": {
        "notice": "borrowers is the array of borrowing addresses (EX: Wintermute, GSR, Alameda, Genesis)"
      },
      "buyOption()": {
        "notice": "Buys the option by transferring premiums to option seller"
      },
      "commitOptionSeller()": {
        "notice": "Commits the option seller"
      },
      "completeWithdraw()": {
        "notice": "Completes a scheduled withdrawal from a past round. Uses finalized pps for the round"
      },
      "currentQueuedWithdrawShares()": {
        "notice": "Queued withdraw shares for the current round"
      },
      "decimals()": {
        "notice": "Returns the token decimals"
      },
      "deposit(uint256)": {
        "notice": "Deposits the `asset` from msg.sender."
      },
      "depositFor(uint256,address)": {
        "notice": "Deposits the `asset` from msg.sender added to `creditor`'s deposit.Used for vault -> vault deposits on the user's behalf"
      },
      "depositReceipts(address)": {
        "notice": "Stores the user's pending deposit for the round"
      },
      "depositWithPermit(uint256,uint256,uint8,bytes32,bytes32)": {
        "notice": "Deposits the `asset` from msg.sender without an approve `v`, `r` and `s` must be a valid `secp256k1` signature from `owner` over the EIP712-formatted function arguments"
      },
      "feeRecipient()": {
        "notice": "Fee recipient for the performance and management fees"
      },
      "initialize((address,address,address[],uint128[],address,address,uint256,uint256,string,string),(uint8,address,uint56,uint104),(uint32,uint32,uint32,uint32,uint32,uint32,uint256,uint256))": {
        "notice": "Initializes the OptionVault contract with storage variables."
      },
      "initiateWithdraw(uint256)": {
        "notice": "Initiates a withdrawal that can be processed once the round completes"
      },
      "keeper()": {
        "notice": "role in charge of weekly vault operations such as rollToNextRound and burnRemainingOTokens"
      },
      "lastBorrowerBasketChange()": {
        "notice": "lastBorrowerBasketChange is the last time the basket of borrowers was changed (add / remove / set)"
      },
      "lastOptionSellerChange()": {
        "notice": "lastOptionSellerChange is the last time option seller was set"
      },
      "lastQueuedWithdrawAmount()": {
        "notice": "Amount locked for scheduled withdrawals last week;"
      },
      "liquidityGauge()": {
        "notice": "LiquidityGauge contract for the vault"
      },
      "managementFee()": {
        "notice": "Management fee charged on entire AUM in rollToNextRound. Only charged when there is no loss."
      },
      "maxRedeem()": {
        "notice": "Redeems the entire unredeemedShares balance that is owed to the account"
      },
      "optionSeller()": {
        "notice": "optionSeller is the address of the entity that we will be buying options from (EX: Orbit)"
      },
      "pausePosition()": {
        "notice": "pause a user's vault position"
      },
      "payOptionYield(uint256)": {
        "notice": "Pays option yield if option is ITM"
      },
      "payOptionYield(uint256,uint256,uint8,bytes32,bytes32)": {
        "notice": "Pays option yield if option is ITM `v`, `r` and `s` must be a valid `secp256k1` signature from `owner` over the EIP712-formatted function arguments"
      },
      "pendingOptionSeller()": {
        "notice": "pendingOptionSeller is the pending address of the entity that we will be buying options from (EX: Orbit)"
      },
      "performanceFee()": {
        "notice": "Performance fee charged on premiums earned in rollToNextRound. Only charged when there is no loss."
      },
      "pricePerShare()": {
        "notice": "The price of a unit of share denominated in the `asset`"
      },
      "recoverTokens(address,address)": {
        "notice": "Recovery function that returns an ERC20 token to the recipient"
      },
      "redeem(uint256)": {
        "notice": "Redeems shares that are owed to the account"
      },
      "rollToNextRound()": {
        "notice": "Rolls the vault's funds into a new loan + long option position."
      },
      "roundPricePerShare(uint256)": {
        "notice": "On every round's close, the pricePerShare value of an rTHETA token is stored This is used to determine the number of shares to be returned to a user with their DepositReceipt.depositAmount"
      },
      "setAllocationPCT(uint32,uint32)": {
        "notice": "Sets new loan and option allocation percentage"
      },
      "setCap(uint256)": {
        "notice": "Sets a new cap for deposits"
      },
      "setFeeRecipient(address)": {
        "notice": "Sets the new fee recipient"
      },
      "setLiquidityGauge(address)": {
        "notice": "Sets the new liquidityGauge contract for this vault"
      },
      "setLoanTermLength(uint32)": {
        "notice": "Sets loan term length"
      },
      "setManagementFee(uint256)": {
        "notice": "Sets the management fee for the vault"
      },
      "setNewKeeper(address)": {
        "notice": "Sets the new keeper"
      },
      "setOptionPurchaseFrequency(uint32)": {
        "notice": "Sets option purchase frequency"
      },
      "setOptionSeller(address)": {
        "notice": "Sets the new option seller"
      },
      "setPerformanceFee(uint256)": {
        "notice": "Sets the performance fee for the vault"
      },
      "setVaultPauser(address)": {
        "notice": "Sets the new Vault Pauser contract for this vault"
      },
      "shareBalances(address)": {
        "notice": "Getter for returning the account's share balance split between account and vault holdings"
      },
      "shares(address)": {
        "notice": "Getter for returning the account's share balance including unredeemed shares"
      },
      "stake(uint256)": {
        "notice": "Stakes a users vault shares"
      },
      "totalBalance()": {
        "notice": "Returns the vault's total balance, including the amounts lent out"
      },
      "totalBorrowerWeight()": {
        "notice": "totalBorrowerWeight is the total borrowing weight"
      },
      "updateBorrowerBasket(address[],uint128[])": {
        "notice": "Updates the basket of borrowers (this overrides current pending update to basket)"
      },
      "vaultParams()": {
        "notice": "Vault's parameters like cap, decimals"
      },
      "vaultPauser()": {
        "notice": "Vault Pauser Contract for the vault"
      },
      "vaultState()": {
        "notice": "Vault's lifecycle state like round and locked amounts"
      },
      "withdrawInstantly(uint256)": {
        "notice": "Withdraws the assets on the vault using the outstanding `DepositReceipt.amount`"
      },
      "withdrawals(address)": {
        "notice": "Stores pending user withdrawals"
      }
    },
    "notice": "UPGRADEABILITY: Since we use the upgradeable proxy pattern, we must observe the inheritance chain closely. Any changes/appends in storage variable needs to happen in RibbonEarnVaultStorage. RibbonEarnVault should not inherit from any other contract aside from RibbonVault, RibbonEarnVaultStorage",
    "version": 1
  },
  "storageLayout": {
    "storage": [
      {
        "astId": 130,
        "contract": "contracts/vaults/EarnVault/RibbonEarnVault.sol:RibbonEarnVault",
        "label": "_initialized",
        "offset": 0,
        "slot": "0",
        "type": "t_bool"
      },
      {
        "astId": 133,
        "contract": "contracts/vaults/EarnVault/RibbonEarnVault.sol:RibbonEarnVault",
        "label": "_initializing",
        "offset": 1,
        "slot": "0",
        "type": "t_bool"
      },
      {
        "astId": 184,
        "contract": "contracts/vaults/EarnVault/RibbonEarnVault.sol:RibbonEarnVault",
        "label": "_status",
        "offset": 0,
        "slot": "1",
        "type": "t_uint256"
      },
      {
        "astId": 227,
        "contract": "contracts/vaults/EarnVault/RibbonEarnVault.sol:RibbonEarnVault",
        "label": "__gap",
        "offset": 0,
        "slot": "2",
        "type": "t_array(t_uint256)49_storage"
      },
      {
        "astId": 947,
        "contract": "contracts/vaults/EarnVault/RibbonEarnVault.sol:RibbonEarnVault",
        "label": "__gap",
        "offset": 0,
        "slot": "51",
        "type": "t_array(t_uint256)50_storage"
      },
      {
        "astId": 10,
        "contract": "contracts/vaults/EarnVault/RibbonEarnVault.sol:RibbonEarnVault",
        "label": "_owner",
        "offset": 0,
        "slot": "101",
        "type": "t_address"
      },
      {
        "astId": 123,
        "contract": "contracts/vaults/EarnVault/RibbonEarnVault.sol:RibbonEarnVault",
        "label": "__gap",
        "offset": 0,
        "slot": "102",
        "type": "t_array(t_uint256)49_storage"
      },
      {
        "astId": 247,
        "contract": "contracts/vaults/EarnVault/RibbonEarnVault.sol:RibbonEarnVault",
        "label": "_balances",
        "offset": 0,
        "slot": "151",
        "type": "t_mapping(t_address,t_uint256)"
      },
      {
        "astId": 253,
        "contract": "contracts/vaults/EarnVault/RibbonEarnVault.sol:RibbonEarnVault",
        "label": "_allowances",
        "offset": 0,
        "slot": "152",
        "type": "t_mapping(t_address,t_mapping(t_address,t_uint256))"
      },
      {
        "astId": 255,
        "contract": "contracts/vaults/EarnVault/RibbonEarnVault.sol:RibbonEarnVault",
        "label": "_totalSupply",
        "offset": 0,
        "slot": "153",
        "type": "t_uint256"
      },
      {
        "astId": 257,
        "contract": "contracts/vaults/EarnVault/RibbonEarnVault.sol:RibbonEarnVault",
        "label": "_name",
        "offset": 0,
        "slot": "154",
        "type": "t_string_storage"
      },
      {
        "astId": 259,
        "contract": "contracts/vaults/EarnVault/RibbonEarnVault.sol:RibbonEarnVault",
        "label": "_symbol",
        "offset": 0,
        "slot": "155",
        "type": "t_string_storage"
      },
      {
        "astId": 800,
        "contract": "contracts/vaults/EarnVault/RibbonEarnVault.sol:RibbonEarnVault",
        "label": "__gap",
        "offset": 0,
        "slot": "156",
        "type": "t_array(t_uint256)45_storage"
      },
      {
        "astId": 3732,
        "contract": "contracts/vaults/EarnVault/RibbonEarnVault.sol:RibbonEarnVault",
        "label": "depositReceipts",
        "offset": 0,
        "slot": "201",
        "type": "t_mapping(t_address,t_struct(DepositReceipt)3257_storage)"
      },
      {
        "astId": 3737,
        "contract": "contracts/vaults/EarnVault/RibbonEarnVault.sol:RibbonEarnVault",
        "label": "roundPricePerShare",
        "offset": 0,
        "slot": "202",
        "type": "t_mapping(t_uint256,t_uint256)"
      },
      {
        "astId": 3743,
        "contract": "contracts/vaults/EarnVault/RibbonEarnVault.sol:RibbonEarnVault",
        "label": "withdrawals",
        "offset": 0,
        "slot": "203",
        "type": "t_mapping(t_address,t_struct(Withdrawal)3262_storage)"
      },
      {
        "astId": 3747,
        "contract": "contracts/vaults/EarnVault/RibbonEarnVault.sol:RibbonEarnVault",
        "label": "vaultParams",
        "offset": 0,
        "slot": "204",
        "type": "t_struct(VaultParams)3214_storage"
      },
      {
        "astId": 3751,
        "contract": "contracts/vaults/EarnVault/RibbonEarnVault.sol:RibbonEarnVault",
        "label": "vaultState",
        "offset": 0,
        "slot": "206",
        "type": "t_struct(VaultState)3250_storage"
      },
      {
        "astId": 3755,
        "contract": "contracts/vaults/EarnVault/RibbonEarnVault.sol:RibbonEarnVault",
        "label": "allocationState",
        "offset": 0,
        "slot": "210",
        "type": "t_struct(AllocationState)3231_storage"
      },
      {
        "astId": 3758,
        "contract": "contracts/vaults/EarnVault/RibbonEarnVault.sol:RibbonEarnVault",
        "label": "feeRecipient",
        "offset": 0,
        "slot": "213",
        "type": "t_address"
      },
      {
        "astId": 3761,
        "contract": "contracts/vaults/EarnVault/RibbonEarnVault.sol:RibbonEarnVault",
        "label": "keeper",
        "offset": 0,
        "slot": "214",
        "type": "t_address"
      },
      {
        "astId": 3765,
        "contract": "contracts/vaults/EarnVault/RibbonEarnVault.sol:RibbonEarnVault",
        "label": "borrowers",
        "offset": 0,
        "slot": "215",
        "type": "t_array(t_address)dyn_storage"
      },
      {
        "astId": 3771,
        "contract": "contracts/vaults/EarnVault/RibbonEarnVault.sol:RibbonEarnVault",
        "label": "borrowerWeights",
        "offset": 0,
        "slot": "216",
        "type": "t_mapping(t_address,t_struct(BorrowerState)3269_storage)"
      },
      {
        "astId": 3774,
        "contract": "contracts/vaults/EarnVault/RibbonEarnVault.sol:RibbonEarnVault",
        "label": "totalBorrowerWeight",
        "offset": 0,
        "slot": "217",
        "type": "t_uint256"
      },
      {
        "astId": 3777,
        "contract": "contracts/vaults/EarnVault/RibbonEarnVault.sol:RibbonEarnVault",
        "label": "lastBorrowerBasketChange",
        "offset": 0,
        "slot": "218",
        "type": "t_uint256"
      },
      {
        "astId": 3780,
        "contract": "contracts/vaults/EarnVault/RibbonEarnVault.sol:RibbonEarnVault",
        "label": "optionSeller",
        "offset": 0,
        "slot": "219",
        "type": "t_address"
      },
      {
        "astId": 3783,
        "contract": "contracts/vaults/EarnVault/RibbonEarnVault.sol:RibbonEarnVault",
        "label": "pendingOptionSeller",
        "offset": 0,
        "slot": "220",
        "type": "t_address"
      },
      {
        "astId": 3786,
        "contract": "contracts/vaults/EarnVault/RibbonEarnVault.sol:RibbonEarnVault",
        "label": "lastOptionSellerChange",
        "offset": 0,
        "slot": "221",
        "type": "t_uint256"
      },
      {
        "astId": 3789,
        "contract": "contracts/vaults/EarnVault/RibbonEarnVault.sol:RibbonEarnVault",
        "label": "performanceFee",
        "offset": 0,
        "slot": "222",
        "type": "t_uint256"
      },
      {
        "astId": 3792,
        "contract": "contracts/vaults/EarnVault/RibbonEarnVault.sol:RibbonEarnVault",
        "label": "managementFee",
        "offset": 0,
        "slot": "223",
        "type": "t_uint256"
      },
      {
        "astId": 3795,
        "contract": "contracts/vaults/EarnVault/RibbonEarnVault.sol:RibbonEarnVault",
        "label": "lastQueuedWithdrawAmount",
        "offset": 0,
        "slot": "224",
        "type": "t_uint256"
      },
      {
        "astId": 3798,
        "contract": "contracts/vaults/EarnVault/RibbonEarnVault.sol:RibbonEarnVault",
        "label": "currentQueuedWithdrawShares",
        "offset": 0,
        "slot": "225",
        "type": "t_uint256"
      },
      {
        "astId": 3801,
        "contract": "contracts/vaults/EarnVault/RibbonEarnVault.sol:RibbonEarnVault",
        "label": "vaultPauser",
        "offset": 0,
        "slot": "226",
        "type": "t_address"
      },
      {
        "astId": 3804,
        "contract": "contracts/vaults/EarnVault/RibbonEarnVault.sol:RibbonEarnVault",
        "label": "liquidityGauge",
        "offset": 0,
        "slot": "227",
        "type": "t_address"
      }
    ],
    "types": {
      "t_address": {
        "encoding": "inplace",
        "label": "address",
        "numberOfBytes": "20"
      },
      "t_array(t_address)dyn_storage": {
        "base": "t_address",
        "encoding": "dynamic_array",
        "label": "address[]",
        "numberOfBytes": "32"
      },
      "t_array(t_uint256)45_storage": {
        "base": "t_uint256",
        "encoding": "inplace",
        "label": "uint256[45]",
        "numberOfBytes": "1440"
      },
      "t_array(t_uint256)49_storage": {
        "base": "t_uint256",
        "encoding": "inplace",
        "label": "uint256[49]",
        "numberOfBytes": "1568"
      },
      "t_array(t_uint256)50_storage": {
        "base": "t_uint256",
        "encoding": "inplace",
        "label": "uint256[50]",
        "numberOfBytes": "1600"
      },
      "t_bool": {
        "encoding": "inplace",
        "label": "bool",
        "numberOfBytes": "1"
      },
      "t_mapping(t_address,t_mapping(t_address,t_uint256))": {
        "encoding": "mapping",
        "key": "t_address",
        "label": "mapping(address => mapping(address => uint256))",
        "numberOfBytes": "32",
        "value": "t_mapping(t_address,t_uint256)"
      },
      "t_mapping(t_address,t_struct(BorrowerState)3269_storage)": {
        "encoding": "mapping",
        "key": "t_address",
        "label": "mapping(address => struct Vault.BorrowerState)",
        "numberOfBytes": "32",
        "value": "t_struct(BorrowerState)3269_storage"
      },
      "t_mapping(t_address,t_struct(DepositReceipt)3257_storage)": {
        "encoding": "mapping",
        "key": "t_address",
        "label": "mapping(address => struct Vault.DepositReceipt)",
        "numberOfBytes": "32",
        "value": "t_struct(DepositReceipt)3257_storage"
      },
      "t_mapping(t_address,t_struct(Withdrawal)3262_storage)": {
        "encoding": "mapping",
        "key": "t_address",
        "label": "mapping(address => struct Vault.Withdrawal)",
        "numberOfBytes": "32",
        "value": "t_struct(Withdrawal)3262_storage"
      },
      "t_mapping(t_address,t_uint256)": {
        "encoding": "mapping",
        "key": "t_address",
        "label": "mapping(address => uint256)",
        "numberOfBytes": "32",
        "value": "t_uint256"
      },
      "t_mapping(t_uint256,t_uint256)": {
        "encoding": "mapping",
        "key": "t_uint256",
        "label": "mapping(uint256 => uint256)",
        "numberOfBytes": "32",
        "value": "t_uint256"
      },
      "t_string_storage": {
        "encoding": "bytes",
        "label": "string",
        "numberOfBytes": "32"
      },
      "t_struct(AllocationState)3231_storage": {
        "encoding": "inplace",
        "label": "struct Vault.AllocationState",
        "members": [
          {
            "astId": 3216,
            "contract": "contracts/vaults/EarnVault/RibbonEarnVault.sol:RibbonEarnVault",
            "label": "nextLoanTermLength",
            "offset": 0,
            "slot": "0",
            "type": "t_uint32"
          },
          {
            "astId": 3218,
            "contract": "contracts/vaults/EarnVault/RibbonEarnVault.sol:RibbonEarnVault",
            "label": "nextOptionPurchaseFreq",
            "offset": 4,
            "slot": "0",
            "type": "t_uint32"
          },
          {
            "astId": 3220,
            "contract": "contracts/vaults/EarnVault/RibbonEarnVault.sol:RibbonEarnVault",
            "label": "currentLoanTermLength",
            "offset": 8,
            "slot": "0",
            "type": "t_uint32"
          },
          {
            "astId": 3222,
            "contract": "contracts/vaults/EarnVault/RibbonEarnVault.sol:RibbonEarnVault",
            "label": "currentOptionPurchaseFreq",
            "offset": 12,
            "slot": "0",
            "type": "t_uint32"
          },
          {
            "astId": 3224,
            "contract": "contracts/vaults/EarnVault/RibbonEarnVault.sol:RibbonEarnVault",
            "label": "loanAllocationPCT",
            "offset": 16,
            "slot": "0",
            "type": "t_uint32"
          },
          {
            "astId": 3226,
            "contract": "contracts/vaults/EarnVault/RibbonEarnVault.sol:RibbonEarnVault",
            "label": "optionAllocationPCT",
            "offset": 20,
            "slot": "0",
            "type": "t_uint32"
          },
          {
            "astId": 3228,
            "contract": "contracts/vaults/EarnVault/RibbonEarnVault.sol:RibbonEarnVault",
            "label": "loanAllocation",
            "offset": 0,
            "slot": "1",
            "type": "t_uint256"
          },
          {
            "astId": 3230,
            "contract": "contracts/vaults/EarnVault/RibbonEarnVault.sol:RibbonEarnVault",
            "label": "optionAllocation",
            "offset": 0,
            "slot": "2",
            "type": "t_uint256"
          }
        ],
        "numberOfBytes": "96"
      },
      "t_struct(BorrowerState)3269_storage": {
        "encoding": "inplace",
        "label": "struct Vault.BorrowerState",
        "members": [
          {
            "astId": 3264,
            "contract": "contracts/vaults/EarnVault/RibbonEarnVault.sol:RibbonEarnVault",
            "label": "exists",
            "offset": 0,
            "slot": "0",
            "type": "t_bool"
          },
          {
            "astId": 3266,
            "contract": "contracts/vaults/EarnVault/RibbonEarnVault.sol:RibbonEarnVault",
            "label": "borrowerWeight",
            "offset": 1,
            "slot": "0",
            "type": "t_uint128"
          },
          {
            "astId": 3268,
            "contract": "contracts/vaults/EarnVault/RibbonEarnVault.sol:RibbonEarnVault",
            "label": "pendingBorrowerWeight",
            "offset": 0,
            "slot": "1",
            "type": "t_uint128"
          }
        ],
        "numberOfBytes": "64"
      },
      "t_struct(DepositReceipt)3257_storage": {
        "encoding": "inplace",
        "label": "struct Vault.DepositReceipt",
        "members": [
          {
            "astId": 3252,
            "contract": "contracts/vaults/EarnVault/RibbonEarnVault.sol:RibbonEarnVault",
            "label": "round",
            "offset": 0,
            "slot": "0",
            "type": "t_uint16"
          },
          {
            "astId": 3254,
            "contract": "contracts/vaults/EarnVault/RibbonEarnVault.sol:RibbonEarnVault",
            "label": "amount",
            "offset": 2,
            "slot": "0",
            "type": "t_uint104"
          },
          {
            "astId": 3256,
            "contract": "contracts/vaults/EarnVault/RibbonEarnVault.sol:RibbonEarnVault",
            "label": "unredeemedShares",
            "offset": 15,
            "slot": "0",
            "type": "t_uint128"
          }
        ],
        "numberOfBytes": "32"
      },
      "t_struct(VaultParams)3214_storage": {
        "encoding": "inplace",
        "label": "struct Vault.VaultParams",
        "members": [
          {
            "astId": 3207,
            "contract": "contracts/vaults/EarnVault/RibbonEarnVault.sol:RibbonEarnVault",
            "label": "decimals",
            "offset": 0,
            "slot": "0",
            "type": "t_uint8"
          },
          {
            "astId": 3209,
            "contract": "contracts/vaults/EarnVault/RibbonEarnVault.sol:RibbonEarnVault",
            "label": "asset",
            "offset": 1,
            "slot": "0",
            "type": "t_address"
          },
          {
            "astId": 3211,
            "contract": "contracts/vaults/EarnVault/RibbonEarnVault.sol:RibbonEarnVault",
            "label": "minimumSupply",
            "offset": 21,
            "slot": "0",
            "type": "t_uint56"
          },
          {
            "astId": 3213,
            "contract": "contracts/vaults/EarnVault/RibbonEarnVault.sol:RibbonEarnVault",
            "label": "cap",
            "offset": 0,
            "slot": "1",
            "type": "t_uint104"
          }
        ],
        "numberOfBytes": "64"
      },
      "t_struct(VaultState)3250_storage": {
        "encoding": "inplace",
        "label": "struct Vault.VaultState",
        "members": [
          {
            "astId": 3233,
            "contract": "contracts/vaults/EarnVault/RibbonEarnVault.sol:RibbonEarnVault",
            "label": "round",
            "offset": 0,
            "slot": "0",
            "type": "t_uint16"
          },
          {
            "astId": 3235,
            "contract": "contracts/vaults/EarnVault/RibbonEarnVault.sol:RibbonEarnVault",
            "label": "lockedAmount",
            "offset": 2,
            "slot": "0",
            "type": "t_uint104"
          },
          {
            "astId": 3237,
            "contract": "contracts/vaults/EarnVault/RibbonEarnVault.sol:RibbonEarnVault",
            "label": "lastLockedAmount",
            "offset": 15,
            "slot": "0",
            "type": "t_uint104"
          },
          {
            "astId": 3239,
            "contract": "contracts/vaults/EarnVault/RibbonEarnVault.sol:RibbonEarnVault",
            "label": "totalPending",
            "offset": 0,
            "slot": "1",
            "type": "t_uint128"
          },
          {
            "astId": 3241,
            "contract": "contracts/vaults/EarnVault/RibbonEarnVault.sol:RibbonEarnVault",
            "label": "queuedWithdrawShares",
            "offset": 16,
            "slot": "1",
            "type": "t_uint128"
          },
          {
            "astId": 3243,
            "contract": "contracts/vaults/EarnVault/RibbonEarnVault.sol:RibbonEarnVault",
            "label": "lastEpochTime",
            "offset": 0,
            "slot": "2",
            "type": "t_uint64"
          },
          {
            "astId": 3245,
            "contract": "contracts/vaults/EarnVault/RibbonEarnVault.sol:RibbonEarnVault",
            "label": "lastOptionPurchaseTime",
            "offset": 8,
            "slot": "2",
            "type": "t_uint64"
          },
          {
            "astId": 3247,
            "contract": "contracts/vaults/EarnVault/RibbonEarnVault.sol:RibbonEarnVault",
            "label": "optionsBoughtInRound",
            "offset": 16,
            "slot": "2",
            "type": "t_uint128"
          },
          {
            "astId": 3249,
            "contract": "contracts/vaults/EarnVault/RibbonEarnVault.sol:RibbonEarnVault",
            "label": "amtFundsReturned",
            "offset": 0,
            "slot": "3",
            "type": "t_uint256"
          }
        ],
        "numberOfBytes": "128"
      },
      "t_struct(Withdrawal)3262_storage": {
        "encoding": "inplace",
        "label": "struct Vault.Withdrawal",
        "members": [
          {
            "astId": 3259,
            "contract": "contracts/vaults/EarnVault/RibbonEarnVault.sol:RibbonEarnVault",
            "label": "round",
            "offset": 0,
            "slot": "0",
            "type": "t_uint16"
          },
          {
            "astId": 3261,
            "contract": "contracts/vaults/EarnVault/RibbonEarnVault.sol:RibbonEarnVault",
            "label": "shares",
            "offset": 2,
            "slot": "0",
            "type": "t_uint128"
          }
        ],
        "numberOfBytes": "32"
      },
      "t_uint104": {
        "encoding": "inplace",
        "label": "uint104",
        "numberOfBytes": "13"
      },
      "t_uint128": {
        "encoding": "inplace",
        "label": "uint128",
        "numberOfBytes": "16"
      },
      "t_uint16": {
        "encoding": "inplace",
        "label": "uint16",
        "numberOfBytes": "2"
      },
      "t_uint256": {
        "encoding": "inplace",
        "label": "uint256",
        "numberOfBytes": "32"
      },
      "t_uint32": {
        "encoding": "inplace",
        "label": "uint32",
        "numberOfBytes": "4"
      },
      "t_uint56": {
        "encoding": "inplace",
        "label": "uint56",
        "numberOfBytes": "7"
      },
      "t_uint64": {
        "encoding": "inplace",
        "label": "uint64",
        "numberOfBytes": "8"
      },
      "t_uint8": {
        "encoding": "inplace",
        "label": "uint8",
        "numberOfBytes": "1"
      }
    }
  }
}