{
  "address": "0x7a8BfDc7b8FA02c7860b8AFb4503A10a57d0100F",
  "abi": [
    {
      "anonymous": false,
      "inputs": [
        {
          "indexed": true,
          "internalType": "address",
          "name": "owner",
          "type": "address"
        },
        {
          "indexed": true,
          "internalType": "address",
          "name": "spender",
          "type": "address"
        },
        {
          "indexed": false,
          "internalType": "uint256",
          "name": "value",
          "type": "uint256"
        }
      ],
      "name": "Approval",
      "type": "event"
    },
    {
      "anonymous": false,
      "inputs": [
        {
          "indexed": false,
          "internalType": "address[]",
          "name": "borrowers",
          "type": "address[]"
        },
        {
          "indexed": false,
          "internalType": "uint128[]",
          "name": "borrowerWeights",
          "type": "uint128[]"
        }
      ],
      "name": "BorrowerBasketUpdated",
      "type": "event"
    },
    {
      "anonymous": false,
      "inputs": [
        {
          "indexed": false,
          "internalType": "uint256",
          "name": "oldCap",
          "type": "uint256"
        },
        {
          "indexed": false,
          "internalType": "uint256",
          "name": "newCap",
          "type": "uint256"
        }
      ],
      "name": "CapSet",
      "type": "event"
    },
    {
      "anonymous": false,
      "inputs": [
        {
          "indexed": false,
          "internalType": "uint256",
          "name": "amount",
          "type": "uint256"
        },
        {
          "indexed": false,
          "internalType": "uint256",
          "name": "yield",
          "type": "uint256"
        },
        {
          "indexed": true,
          "internalType": "address",
          "name": "borrower",
          "type": "address"
        }
      ],
      "name": "CloseLoan",
      "type": "event"
    },
    {
      "anonymous": false,
      "inputs": [
        {
          "indexed": false,
          "internalType": "uint256",
          "name": "performanceFee",
          "type": "uint256"
        },
        {
          "indexed": false,
          "internalType": "uint256",
          "name": "vaultFee",
          "type": "uint256"
        },
        {
          "indexed": false,
          "internalType": "uint256",
          "name": "round",
          "type": "uint256"
        },
        {
          "indexed": true,
          "internalType": "address",
          "name": "feeRecipient",
          "type": "address"
        }
      ],
      "name": "CollectVaultFees",
      "type": "event"
    },
    {
      "anonymous": false,
      "inputs": [
        {
          "indexed": false,
          "internalType": "uint256",
          "name": "totalBorrowerWeight",
          "type": "uint256"
        }
      ],
      "name": "CommitBorrowerBasket",
      "type": "event"
    },
    {
      "anonymous": false,
      "inputs": [
        {
          "indexed": true,
          "internalType": "address",
          "name": "account",
          "type": "address"
        },
        {
          "indexed": false,
          "internalType": "uint256",
          "name": "amount",
          "type": "uint256"
        },
        {
          "indexed": false,
          "internalType": "uint256",
          "name": "round",
          "type": "uint256"
        }
      ],
      "name": "Deposit",
      "type": "event"
    },
    {
      "anonymous": false,
      "inputs": [
        {
          "indexed": true,
          "internalType": "address",
          "name": "account",
          "type": "address"
        },
        {
          "indexed": false,
          "internalType": "uint256",
          "name": "shares",
          "type": "uint256"
        },
        {
          "indexed": false,
          "internalType": "uint256",
          "name": "round",
          "type": "uint256"
        }
      ],
      "name": "InitiateWithdraw",
      "type": "event"
    },
    {
      "anonymous": false,
      "inputs": [
        {
          "indexed": true,
          "internalType": "address",
          "name": "account",
          "type": "address"
        },
        {
          "indexed": false,
          "internalType": "uint256",
          "name": "amount",
          "type": "uint256"
        },
        {
          "indexed": false,
          "internalType": "uint256",
          "name": "round",
          "type": "uint256"
        }
      ],
      "name": "InstantWithdraw",
      "type": "event"
    },
    {
      "anonymous": false,
      "inputs": [
        {
          "indexed": false,
          "internalType": "uint256",
          "name": "managementFee",
          "type": "uint256"
        },
        {
          "indexed": false,
          "internalType": "uint256",
          "name": "newManagementFee",
          "type": "uint256"
        }
      ],
      "name": "ManagementFeeSet",
      "type": "event"
    },
    {
      "anonymous": false,
      "inputs": [
        {
          "indexed": false,
          "internalType": "uint256",
          "name": "oldLoanAllocation",
          "type": "uint256"
        },
        {
          "indexed": false,
          "internalType": "uint256",
          "name": "oldOptionAllocation",
          "type": "uint256"
        },
        {
          "indexed": false,
          "internalType": "uint256",
          "name": "newLoanAllocation",
          "type": "uint256"
        },
        {
          "indexed": false,
          "internalType": "uint256",
          "name": "newOptionAllocation",
          "type": "uint256"
        }
      ],
      "name": "NewAllocationSet",
      "type": "event"
    },
    {
      "anonymous": false,
      "inputs": [
        {
          "indexed": false,
          "internalType": "uint256",
          "name": "oldLoanTermLength",
          "type": "uint256"
        },
        {
          "indexed": false,
          "internalType": "uint256",
          "name": "newLoanTermLength",
          "type": "uint256"
        }
      ],
      "name": "NewLoanTermLength",
      "type": "event"
    },
    {
      "anonymous": false,
      "inputs": [
        {
          "indexed": false,
          "internalType": "uint256",
          "name": "oldOptionPurchaseFrequency",
          "type": "uint256"
        },
        {
          "indexed": false,
          "internalType": "uint256",
          "name": "newOptionPurchaseFrequency",
          "type": "uint256"
        }
      ],
      "name": "NewOptionPurchaseFrequency",
      "type": "event"
    },
    {
      "anonymous": false,
      "inputs": [
        {
          "indexed": false,
          "internalType": "uint256",
          "name": "amount",
          "type": "uint256"
        },
        {
          "indexed": true,
          "internalType": "address",
          "name": "borrower",
          "type": "address"
        }
      ],
      "name": "OpenLoan",
      "type": "event"
    },
    {
      "anonymous": false,
      "inputs": [
        {
          "indexed": false,
          "internalType": "address",
          "name": "oldOptionSeller",
          "type": "address"
        },
        {
          "indexed": false,
          "internalType": "address",
          "name": "newOptionSeller",
          "type": "address"
        }
      ],
      "name": "OptionSellerSet",
      "type": "event"
    },
    {
      "anonymous": false,
      "inputs": [
        {
          "indexed": true,
          "internalType": "address",
          "name": "previousOwner",
          "type": "address"
        },
        {
          "indexed": true,
          "internalType": "address",
          "name": "newOwner",
          "type": "address"
        }
      ],
      "name": "OwnershipTransferred",
      "type": "event"
    },
    {
      "anonymous": false,
      "inputs": [
        {
          "indexed": false,
          "internalType": "uint256",
          "name": "yield",
          "type": "uint256"
        },
        {
          "indexed": false,
          "internalType": "uint256",
          "name": "netYield",
          "type": "uint256"
        },
        {
          "indexed": true,
          "internalType": "address",
          "name": "seller",
          "type": "address"
        }
      ],
      "name": "PayOptionYield",
      "type": "event"
    },
    {
      "anonymous": false,
      "inputs": [
        {
          "indexed": false,
          "internalType": "uint256",
          "name": "performanceFee",
          "type": "uint256"
        },
        {
          "indexed": false,
          "internalType": "uint256",
          "name": "newPerformanceFee",
          "type": "uint256"
        }
      ],
      "name": "PerformanceFeeSet",
      "type": "event"
    },
    {
      "anonymous": false,
      "inputs": [
        {
          "indexed": false,
          "internalType": "uint256",
          "name": "premium",
          "type": "uint256"
        },
        {
          "indexed": true,
          "internalType": "address",
          "name": "seller",
          "type": "address"
        }
      ],
      "name": "PurchaseOption",
      "type": "event"
    },
    {
      "anonymous": false,
      "inputs": [
        {
          "indexed": true,
          "internalType": "address",
          "name": "account",
          "type": "address"
        },
        {
          "indexed": false,
          "internalType": "uint256",
          "name": "share",
          "type": "uint256"
        },
        {
          "indexed": false,
          "internalType": "uint256",
          "name": "round",
          "type": "uint256"
        }
      ],
      "name": "Redeem",
      "type": "event"
    },
    {
      "anonymous": false,
      "inputs": [
        {
          "indexed": true,
          "internalType": "address",
          "name": "from",
          "type": "address"
        },
        {
          "indexed": true,
          "internalType": "address",
          "name": "to",
          "type": "address"
        },
        {
          "indexed": false,
          "internalType": "uint256",
          "name": "value",
          "type": "uint256"
        }
      ],
      "name": "Transfer",
      "type": "event"
    },
    {
      "anonymous": false,
      "inputs": [
        {
          "indexed": true,
          "internalType": "address",
          "name": "account",
          "type": "address"
        },
        {
          "indexed": false,
          "internalType": "uint256",
          "name": "amount",
          "type": "uint256"
        },
        {
          "indexed": false,
          "internalType": "uint256",
          "name": "shares",
          "type": "uint256"
        }
      ],
      "name": "Withdraw",
      "type": "event"
    },
    {
      "inputs": [],
      "name": "TOTAL_PCT",
      "outputs": [
        {
          "internalType": "uint32",
          "name": "",
          "type": "uint32"
        }
      ],
      "stateMutability": "view",
      "type": "function"
    },
    {
      "inputs": [],
      "name": "USDC",
      "outputs": [
        {
          "internalType": "address",
          "name": "",
          "type": "address"
        }
      ],
      "stateMutability": "view",
      "type": "function"
    },
    {
      "inputs": [
        {
          "internalType": "address",
          "name": "account",
          "type": "address"
        }
      ],
      "name": "accountVaultBalance",
      "outputs": [
        {
          "internalType": "uint256",
          "name": "",
          "type": "uint256"
        }
      ],
      "stateMutability": "view",
      "type": "function"
    },
    {
      "inputs": [],
      "name": "allocationState",
      "outputs": [
        {
          "internalType": "uint32",
          "name": "nextLoanTermLength",
          "type": "uint32"
        },
        {
          "internalType": "uint32",
          "name": "nextOptionPurchaseFreq",
          "type": "uint32"
        },
        {
          "internalType": "uint32",
          "name": "currentLoanTermLength",
          "type": "uint32"
        },
        {
          "internalType": "uint32",
          "name": "currentOptionPurchaseFreq",
          "type": "uint32"
        },
        {
          "internalType": "uint32",
          "name": "loanAllocationPCT",
          "type": "uint32"
        },
        {
          "internalType": "uint32",
          "name": "optionAllocationPCT",
          "type": "uint32"
        },
        {
          "internalType": "uint256",
          "name": "loanAllocation",
          "type": "uint256"
        },
        {
          "internalType": "uint256",
          "name": "optionAllocation",
          "type": "uint256"
        }
      ],
      "stateMutability": "view",
      "type": "function"
    },
    {
      "inputs": [
        {
          "internalType": "address",
          "name": "owner",
          "type": "address"
        },
        {
          "internalType": "address",
          "name": "spender",
          "type": "address"
        }
      ],
      "name": "allowance",
      "outputs": [
        {
          "internalType": "uint256",
          "name": "",
          "type": "uint256"
        }
      ],
      "stateMutability": "view",
      "type": "function"
    },
    {
      "inputs": [
        {
          "internalType": "address",
          "name": "spender",
          "type": "address"
        },
        {
          "internalType": "uint256",
          "name": "amount",
          "type": "uint256"
        }
      ],
      "name": "approve",
      "outputs": [
        {
          "internalType": "bool",
          "name": "",
          "type": "bool"
        }
      ],
      "stateMutability": "nonpayable",
      "type": "function"
    },
    {
      "inputs": [
        {
          "internalType": "address",
          "name": "account",
          "type": "address"
        }
      ],
      "name": "balanceOf",
      "outputs": [
        {
          "internalType": "uint256",
          "name": "",
          "type": "uint256"
        }
      ],
      "stateMutability": "view",
      "type": "function"
    },
    {
      "inputs": [
        {
          "internalType": "address",
          "name": "",
          "type": "address"
        }
      ],
      "name": "borrowerWeights",
      "outputs": [
        {
          "internalType": "bool",
          "name": "exists",
          "type": "bool"
        },
        {
          "internalType": "uint128",
          "name": "borrowerWeight",
          "type": "uint128"
        },
        {
          "internalType": "uint128",
          "name": "pendingBorrowerWeight",
          "type": "uint128"
        }
      ],
      "stateMutability": "view",
      "type": "function"
    },
    {
      "inputs": [
        {
          "internalType": "uint256",
          "name": "",
          "type": "uint256"
        }
      ],
      "name": "borrowers",
      "outputs": [
        {
          "internalType": "address",
          "name": "",
          "type": "address"
        }
      ],
      "stateMutability": "view",
      "type": "function"
    },
    {
      "inputs": [],
      "name": "buyOption",
      "outputs": [],
      "stateMutability": "nonpayable",
      "type": "function"
    },
    {
      "inputs": [],
      "name": "cap",
      "outputs": [
        {
          "internalType": "uint256",
          "name": "",
          "type": "uint256"
        }
      ],
      "stateMutability": "view",
      "type": "function"
    },
    {
      "inputs": [],
      "name": "commitOptionSeller",
      "outputs": [],
      "stateMutability": "nonpayable",
      "type": "function"
    },
    {
      "inputs": [],
      "name": "completeWithdraw",
      "outputs": [],
      "stateMutability": "nonpayable",
      "type": "function"
    },
    {
      "inputs": [],
      "name": "currentQueuedWithdrawShares",
      "outputs": [
        {
          "internalType": "uint256",
          "name": "",
          "type": "uint256"
        }
      ],
      "stateMutability": "view",
      "type": "function"
    },
    {
      "inputs": [],
      "name": "decimals",
      "outputs": [
        {
          "internalType": "uint8",
          "name": "",
          "type": "uint8"
        }
      ],
      "stateMutability": "view",
      "type": "function"
    },
    {
      "inputs": [
        {
          "internalType": "address",
          "name": "spender",
          "type": "address"
        },
        {
          "internalType": "uint256",
          "name": "subtractedValue",
          "type": "uint256"
        }
      ],
      "name": "decreaseAllowance",
      "outputs": [
        {
          "internalType": "bool",
          "name": "",
          "type": "bool"
        }
      ],
      "stateMutability": "nonpayable",
      "type": "function"
    },
    {
      "inputs": [
        {
          "internalType": "uint256",
          "name": "amount",
          "type": "uint256"
        }
      ],
      "name": "deposit",
      "outputs": [],
      "stateMutability": "nonpayable",
      "type": "function"
    },
    {
      "inputs": [
        {
          "internalType": "uint256",
          "name": "amount",
          "type": "uint256"
        },
        {
          "internalType": "address",
          "name": "creditor",
          "type": "address"
        }
      ],
      "name": "depositFor",
      "outputs": [],
      "stateMutability": "nonpayable",
      "type": "function"
    },
    {
      "inputs": [
        {
          "internalType": "address",
          "name": "",
          "type": "address"
        }
      ],
      "name": "depositReceipts",
      "outputs": [
        {
          "internalType": "uint16",
          "name": "round",
          "type": "uint16"
        },
        {
          "internalType": "uint104",
          "name": "amount",
          "type": "uint104"
        },
        {
          "internalType": "uint128",
          "name": "unredeemedShares",
          "type": "uint128"
        }
      ],
      "stateMutability": "view",
      "type": "function"
    },
    {
      "inputs": [
        {
          "internalType": "uint256",
          "name": "amount",
          "type": "uint256"
        },
        {
          "internalType": "uint256",
          "name": "deadline",
          "type": "uint256"
        },
        {
          "internalType": "uint8",
          "name": "v",
          "type": "uint8"
        },
        {
          "internalType": "bytes32",
          "name": "r",
          "type": "bytes32"
        },
        {
          "internalType": "bytes32",
          "name": "s",
          "type": "bytes32"
        }
      ],
      "name": "depositWithPermit",
      "outputs": [],
      "stateMutability": "nonpayable",
      "type": "function"
    },
    {
      "inputs": [],
      "name": "feeRecipient",
      "outputs": [
        {
          "internalType": "address",
          "name": "",
          "type": "address"
        }
      ],
      "stateMutability": "view",
      "type": "function"
    },
    {
      "inputs": [
        {
          "internalType": "address",
          "name": "spender",
          "type": "address"
        },
        {
          "internalType": "uint256",
          "name": "addedValue",
          "type": "uint256"
        }
      ],
      "name": "increaseAllowance",
      "outputs": [
        {
          "internalType": "bool",
          "name": "",
          "type": "bool"
        }
      ],
      "stateMutability": "nonpayable",
      "type": "function"
    },
    {
      "inputs": [
        {
          "components": [
            {
              "internalType": "address",
              "name": "_owner",
              "type": "address"
            },
            {
              "internalType": "address",
              "name": "_keeper",
              "type": "address"
            },
            {
              "internalType": "address[]",
              "name": "_borrowers",
              "type": "address[]"
            },
            {
              "internalType": "uint128[]",
              "name": "_borrowerWeights",
              "type": "uint128[]"
            },
            {
              "internalType": "address",
              "name": "_optionSeller",
              "type": "address"
            },
            {
              "internalType": "address",
              "name": "_feeRecipient",
              "type": "address"
            },
            {
              "internalType": "uint256",
              "name": "_managementFee",
              "type": "uint256"
            },
            {
              "internalType": "uint256",
              "name": "_performanceFee",
              "type": "uint256"
            },
            {
              "internalType": "string",
              "name": "_tokenName",
              "type": "string"
            },
            {
              "internalType": "string",
              "name": "_tokenSymbol",
              "type": "string"
            }
          ],
          "internalType": "struct RibbonEarnVaultFixedRate.InitParams",
          "name": "_initParams",
          "type": "tuple"
        },
        {
          "components": [
            {
              "internalType": "uint8",
              "name": "decimals",
              "type": "uint8"
            },
            {
              "internalType": "address",
              "name": "asset",
              "type": "address"
            },
            {
              "internalType": "uint56",
              "name": "minimumSupply",
              "type": "uint56"
            },
            {
              "internalType": "uint104",
              "name": "cap",
              "type": "uint104"
            }
          ],
          "internalType": "struct Vault.VaultParams",
          "name": "_vaultParams",
          "type": "tuple"
        },
        {
          "components": [
            {
              "internalType": "uint32",
              "name": "nextLoanTermLength",
              "type": "uint32"
            },
            {
              "internalType": "uint32",
              "name": "nextOptionPurchaseFreq",
              "type": "uint32"
            },
            {
              "internalType": "uint32",
              "name": "currentLoanTermLength",
              "type": "uint32"
            },
            {
              "internalType": "uint32",
              "name": "currentOptionPurchaseFreq",
              "type": "uint32"
            },
            {
              "internalType": "uint32",
              "name": "loanAllocationPCT",
              "type": "uint32"
            },
            {
              "internalType": "uint32",
              "name": "optionAllocationPCT",
              "type": "uint32"
            },
            {
              "internalType": "uint256",
              "name": "loanAllocation",
              "type": "uint256"
            },
            {
              "internalType": "uint256",
              "name": "optionAllocation",
              "type": "uint256"
            }
          ],
          "internalType": "struct Vault.AllocationState",
          "name": "_allocationState",
          "type": "tuple"
        }
      ],
      "name": "initialize",
      "outputs": [],
      "stateMutability": "nonpayable",
      "type": "function"
    },
    {
      "inputs": [
        {
          "internalType": "uint256",
          "name": "numShares",
          "type": "uint256"
        }
      ],
      "name": "initiateWithdraw",
      "outputs": [],
      "stateMutability": "nonpayable",
      "type": "function"
    },
    {
      "inputs": [],
      "name": "keeper",
      "outputs": [
        {
          "internalType": "address",
          "name": "",
          "type": "address"
        }
      ],
      "stateMutability": "view",
      "type": "function"
    },
    {
      "inputs": [],
      "name": "lastBorrowerBasketChange",
      "outputs": [
        {
          "internalType": "uint256",
          "name": "",
          "type": "uint256"
        }
      ],
      "stateMutability": "view",
      "type": "function"
    },
    {
      "inputs": [],
      "name": "lastOptionSellerChange",
      "outputs": [
        {
          "internalType": "uint256",
          "name": "",
          "type": "uint256"
        }
      ],
      "stateMutability": "view",
      "type": "function"
    },
    {
      "inputs": [],
      "name": "lastQueuedWithdrawAmount",
      "outputs": [
        {
          "internalType": "uint256",
          "name": "",
          "type": "uint256"
        }
      ],
      "stateMutability": "view",
      "type": "function"
    },
    {
      "inputs": [],
      "name": "liquidityGauge",
      "outputs": [
        {
          "internalType": "address",
          "name": "",
          "type": "address"
        }
      ],
      "stateMutability": "view",
      "type": "function"
    },
    {
      "inputs": [],
      "name": "managementFee",
      "outputs": [
        {
          "internalType": "uint256",
          "name": "",
          "type": "uint256"
        }
      ],
      "stateMutability": "view",
      "type": "function"
    },
    {
      "inputs": [],
      "name": "maxRedeem",
      "outputs": [],
      "stateMutability": "nonpayable",
      "type": "function"
    },
    {
      "inputs": [],
      "name": "name",
      "outputs": [
        {
          "internalType": "string",
          "name": "",
          "type": "string"
        }
      ],
      "stateMutability": "view",
      "type": "function"
    },
    {
      "inputs": [],
      "name": "optionSeller",
      "outputs": [
        {
          "internalType": "address",
          "name": "",
          "type": "address"
        }
      ],
      "stateMutability": "view",
      "type": "function"
    },
    {
      "inputs": [],
      "name": "owner",
      "outputs": [
        {
          "internalType": "address",
          "name": "",
          "type": "address"
        }
      ],
      "stateMutability": "view",
      "type": "function"
    },
    {
      "inputs": [],
      "name": "pausePosition",
      "outputs": [],
      "stateMutability": "nonpayable",
      "type": "function"
    },
    {
      "inputs": [
        {
          "internalType": "uint256",
          "name": "amount",
          "type": "uint256"
        }
      ],
      "name": "payOptionYield",
      "outputs": [],
      "stateMutability": "nonpayable",
      "type": "function"
    },
    {
      "inputs": [
        {
          "internalType": "uint256",
          "name": "amount",
          "type": "uint256"
        },
        {
          "internalType": "uint256",
          "name": "deadline",
          "type": "uint256"
        },
        {
          "internalType": "uint8",
          "name": "v",
          "type": "uint8"
        },
        {
          "internalType": "bytes32",
          "name": "r",
          "type": "bytes32"
        },
        {
          "internalType": "bytes32",
          "name": "s",
          "type": "bytes32"
        }
      ],
      "name": "payOptionYield",
      "outputs": [],
      "stateMutability": "nonpayable",
      "type": "function"
    },
    {
      "inputs": [],
      "name": "pendingOptionSeller",
      "outputs": [
        {
          "internalType": "address",
          "name": "",
          "type": "address"
        }
      ],
      "stateMutability": "view",
      "type": "function"
    },
    {
      "inputs": [],
      "name": "performanceFee",
      "outputs": [
        {
          "internalType": "uint256",
          "name": "",
          "type": "uint256"
        }
      ],
      "stateMutability": "view",
      "type": "function"
    },
    {
      "inputs": [],
      "name": "pricePerShare",
      "outputs": [
        {
          "internalType": "uint256",
          "name": "",
          "type": "uint256"
        }
      ],
      "stateMutability": "view",
      "type": "function"
    },
    {
      "inputs": [
        {
          "internalType": "address",
          "name": "token",
          "type": "address"
        },
        {
          "internalType": "address",
          "name": "recipient",
          "type": "address"
        }
      ],
      "name": "recoverTokens",
      "outputs": [],
      "stateMutability": "nonpayable",
      "type": "function"
    },
    {
      "inputs": [
        {
          "internalType": "uint256",
          "name": "numShares",
          "type": "uint256"
        }
      ],
      "name": "redeem",
      "outputs": [],
      "stateMutability": "nonpayable",
      "type": "function"
    },
    {
      "inputs": [],
      "name": "renounceOwnership",
      "outputs": [],
      "stateMutability": "nonpayable",
      "type": "function"
    },
    {
      "inputs": [
        {
          "internalType": "uint256",
          "name": "amount",
          "type": "uint256"
        }
      ],
      "name": "returnLentFunds",
      "outputs": [],
      "stateMutability": "nonpayable",
      "type": "function"
    },
    {
      "inputs": [
        {
          "internalType": "uint256",
          "name": "amount",
          "type": "uint256"
        },
        {
          "internalType": "uint256",
          "name": "deadline",
          "type": "uint256"
        },
        {
          "internalType": "uint8",
          "name": "v",
          "type": "uint8"
        },
        {
          "internalType": "bytes32",
          "name": "r",
          "type": "bytes32"
        },
        {
          "internalType": "bytes32",
          "name": "s",
          "type": "bytes32"
        }
      ],
      "name": "returnLentFunds",
      "outputs": [],
      "stateMutability": "nonpayable",
      "type": "function"
    },
    {
      "inputs": [],
      "name": "rollToNextRound",
      "outputs": [],
      "stateMutability": "nonpayable",
      "type": "function"
    },
    {
      "inputs": [
        {
          "internalType": "uint256",
          "name": "",
          "type": "uint256"
        }
      ],
      "name": "roundPricePerShare",
      "outputs": [
        {
          "internalType": "uint256",
          "name": "",
          "type": "uint256"
        }
      ],
      "stateMutability": "view",
      "type": "function"
    },
    {
      "inputs": [
        {
          "internalType": "uint32",
          "name": "_loanAllocationPCT",
          "type": "uint32"
        },
        {
          "internalType": "uint32",
          "name": "_optionAllocationPCT",
          "type": "uint32"
        }
      ],
      "name": "setAllocationPCT",
      "outputs": [],
      "stateMutability": "nonpayable",
      "type": "function"
    },
    {
      "inputs": [
        {
          "internalType": "uint256",
          "name": "newCap",
          "type": "uint256"
        }
      ],
      "name": "setCap",
      "outputs": [],
      "stateMutability": "nonpayable",
      "type": "function"
    },
    {
      "inputs": [
        {
          "internalType": "address",
          "name": "newFeeRecipient",
          "type": "address"
        }
      ],
      "name": "setFeeRecipient",
      "outputs": [],
      "stateMutability": "nonpayable",
      "type": "function"
    },
    {
      "inputs": [
        {
          "internalType": "address",
          "name": "newLiquidityGauge",
          "type": "address"
        }
      ],
      "name": "setLiquidityGauge",
      "outputs": [],
      "stateMutability": "nonpayable",
      "type": "function"
    },
    {
      "inputs": [
        {
          "internalType": "uint32",
          "name": "_loanTermLength",
          "type": "uint32"
        }
      ],
      "name": "setLoanTermLength",
      "outputs": [],
      "stateMutability": "nonpayable",
      "type": "function"
    },
    {
      "inputs": [
        {
          "internalType": "uint256",
          "name": "newManagementFee",
          "type": "uint256"
        }
      ],
      "name": "setManagementFee",
      "outputs": [],
      "stateMutability": "nonpayable",
      "type": "function"
    },
    {
      "inputs": [
        {
          "internalType": "address",
          "name": "newKeeper",
          "type": "address"
        }
      ],
      "name": "setNewKeeper",
      "outputs": [],
      "stateMutability": "nonpayable",
      "type": "function"
    },
    {
      "inputs": [
        {
          "internalType": "uint32",
          "name": "_optionPurchaseFreq",
          "type": "uint32"
        }
      ],
      "name": "setOptionPurchaseFrequency",
      "outputs": [],
      "stateMutability": "nonpayable",
      "type": "function"
    },
    {
      "inputs": [
        {
          "internalType": "address",
          "name": "newOptionSeller",
          "type": "address"
        }
      ],
      "name": "setOptionSeller",
      "outputs": [],
      "stateMutability": "nonpayable",
      "type": "function"
    },
    {
      "inputs": [
        {
          "internalType": "uint256",
          "name": "newPerformanceFee",
          "type": "uint256"
        }
      ],
      "name": "setPerformanceFee",
      "outputs": [],
      "stateMutability": "nonpayable",
      "type": "function"
    },
    {
      "inputs": [
        {
          "internalType": "address",
          "name": "newVaultPauser",
          "type": "address"
        }
      ],
      "name": "setVaultPauser",
      "outputs": [],
      "stateMutability": "nonpayable",
      "type": "function"
    },
    {
      "inputs": [
        {
          "internalType": "address",
          "name": "account",
          "type": "address"
        }
      ],
      "name": "shareBalances",
      "outputs": [
        {
          "internalType": "uint256",
          "name": "heldByAccount",
          "type": "uint256"
        },
        {
          "internalType": "uint256",
          "name": "heldByVault",
          "type": "uint256"
        }
      ],
      "stateMutability": "view",
      "type": "function"
    },
    {
      "inputs": [
        {
          "internalType": "address",
          "name": "account",
          "type": "address"
        }
      ],
      "name": "shares",
      "outputs": [
        {
          "internalType": "uint256",
          "name": "",
          "type": "uint256"
        }
      ],
      "stateMutability": "view",
      "type": "function"
    },
    {
      "inputs": [
        {
          "internalType": "uint256",
          "name": "numShares",
          "type": "uint256"
        }
      ],
      "name": "stake",
      "outputs": [],
      "stateMutability": "nonpayable",
      "type": "function"
    },
    {
      "inputs": [],
      "name": "symbol",
      "outputs": [
        {
          "internalType": "string",
          "name": "",
          "type": "string"
        }
      ],
      "stateMutability": "view",
      "type": "function"
    },
    {
      "inputs": [],
      "name": "totalBalance",
      "outputs": [
        {
          "internalType": "uint256",
          "name": "",
          "type": "uint256"
        }
      ],
      "stateMutability": "view",
      "type": "function"
    },
    {
      "inputs": [],
      "name": "totalBorrowerWeight",
      "outputs": [
        {
          "internalType": "uint256",
          "name": "",
          "type": "uint256"
        }
      ],
      "stateMutability": "view",
      "type": "function"
    },
    {
      "inputs": [],
      "name": "totalPending",
      "outputs": [
        {
          "internalType": "uint256",
          "name": "",
          "type": "uint256"
        }
      ],
      "stateMutability": "view",
      "type": "function"
    },
    {
      "inputs": [],
      "name": "totalSupply",
      "outputs": [
        {
          "internalType": "uint256",
          "name": "",
          "type": "uint256"
        }
      ],
      "stateMutability": "view",
      "type": "function"
    },
    {
      "inputs": [
        {
          "internalType": "address",
          "name": "recipient",
          "type": "address"
        },
        {
          "internalType": "uint256",
          "name": "amount",
          "type": "uint256"
        }
      ],
      "name": "transfer",
      "outputs": [
        {
          "internalType": "bool",
          "name": "",
          "type": "bool"
        }
      ],
      "stateMutability": "nonpayable",
      "type": "function"
    },
    {
      "inputs": [
        {
          "internalType": "address",
          "name": "sender",
          "type": "address"
        },
        {
          "internalType": "address",
          "name": "recipient",
          "type": "address"
        },
        {
          "internalType": "uint256",
          "name": "amount",
          "type": "uint256"
        }
      ],
      "name": "transferFrom",
      "outputs": [
        {
          "internalType": "bool",
          "name": "",
          "type": "bool"
        }
      ],
      "stateMutability": "nonpayable",
      "type": "function"
    },
    {
      "inputs": [
        {
          "internalType": "address",
          "name": "newOwner",
          "type": "address"
        }
      ],
      "name": "transferOwnership",
      "outputs": [],
      "stateMutability": "nonpayable",
      "type": "function"
    },
    {
      "inputs": [
        {
          "internalType": "address[]",
          "name": "borrowers",
          "type": "address[]"
        },
        {
          "internalType": "uint128[]",
          "name": "borrowerWeights",
          "type": "uint128[]"
        }
      ],
      "name": "updateBorrowerBasket",
      "outputs": [],
      "stateMutability": "nonpayable",
      "type": "function"
    },
    {
      "inputs": [],
      "name": "vaultParams",
      "outputs": [
        {
          "internalType": "uint8",
          "name": "decimals",
          "type": "uint8"
        },
        {
          "internalType": "address",
          "name": "asset",
          "type": "address"
        },
        {
          "internalType": "uint56",
          "name": "minimumSupply",
          "type": "uint56"
        },
        {
          "internalType": "uint104",
          "name": "cap",
          "type": "uint104"
        }
      ],
      "stateMutability": "view",
      "type": "function"
    },
    {
      "inputs": [],
      "name": "vaultPauser",
      "outputs": [
        {
          "internalType": "address",
          "name": "",
          "type": "address"
        }
      ],
      "stateMutability": "view",
      "type": "function"
    },
    {
      "inputs": [],
      "name": "vaultState",
      "outputs": [
        {
          "internalType": "uint16",
          "name": "round",
          "type": "uint16"
        },
        {
          "internalType": "uint104",
          "name": "lockedAmount",
          "type": "uint104"
        },
        {
          "internalType": "uint104",
          "name": "lastLockedAmount",
          "type": "uint104"
        },
        {
          "internalType": "uint128",
          "name": "totalPending",
          "type": "uint128"
        },
        {
          "internalType": "uint128",
          "name": "queuedWithdrawShares",
          "type": "uint128"
        },
        {
          "internalType": "uint64",
          "name": "lastEpochTime",
          "type": "uint64"
        },
        {
          "internalType": "uint64",
          "name": "lastOptionPurchaseTime",
          "type": "uint64"
        },
        {
          "internalType": "uint128",
          "name": "optionsBoughtInRound",
          "type": "uint128"
        },
        {
          "internalType": "uint256",
          "name": "amtFundsReturned",
          "type": "uint256"
        }
      ],
      "stateMutability": "view",
      "type": "function"
    },
    {
      "inputs": [
        {
          "internalType": "uint256",
          "name": "amount",
          "type": "uint256"
        }
      ],
      "name": "withdrawInstantly",
      "outputs": [],
      "stateMutability": "nonpayable",
      "type": "function"
    },
    {
      "inputs": [
        {
          "internalType": "address",
          "name": "",
          "type": "address"
        }
      ],
      "name": "withdrawals",
      "outputs": [
        {
          "internalType": "uint16",
          "name": "round",
          "type": "uint16"
        },
        {
          "internalType": "uint128",
          "name": "shares",
          "type": "uint128"
        }
      ],
      "stateMutability": "view",
      "type": "function"
    }
  ],
  "transactionHash": "0x3bc95bbe63b2c0687c4f194cd601af0446baa959d052b3101db67657c1be1def",
  "args": [],
  "solcInputHash": "26706e2a217b2e350989530907619f99",
  "bytecode": "0x608060405234801561001057600080fd5b50615adb80620000216000396000f3fe608060405234801561001057600080fd5b50600436106104495760003560e01c80637907cafd11610241578063a94045021161013b578063dd62ed3e116100c3578063f65a8fc411610087578063f65a8fc414610c2f578063f756fa2114610c42578063f8eea47e14610c4a578063f9a0be6814610c5d578063fe56e23214610c7057600080fd5b8063dd62ed3e14610b95578063e74b981b14610bce578063f2fde38b14610be1578063f39abff714610bf4578063f656ba5114610c0757600080fd5b8063c41d28741161010a578063c41d287414610b35578063ca59409414610b54578063ce7c2ac214610b5c578063d164cc1514610b6f578063db006a7514610b8257600080fd5b8063a940450214610af4578063aced166114610b07578063ad7a672f14610b1a578063b6b55f2514610b2257600080fd5b80638da5cb5b116101c95780639fcc2d751161018d5780639fcc2d7514610a34578063a457c2d714610ab2578063a694fc3a14610ac5578063a6f7f5d614610ad8578063a9059cbb14610ae157600080fd5b80638da5cb5b146109ed578063947061b5146109fe578063953c06f214610a1157806395d89b4114610a2457806399530b0614610a2c57600080fd5b80637e108d52116102105780637e108d52146109835780638476d5201461099657806387153eb1146109a957806387788782146109c957806389a30271146109d257600080fd5b80637907cafd146108fd5780637924d93f146109105780637a9262a2146109235780637bc1a20a1461097a57600080fd5b80633f90916a116103525780635ad2c684116102da57806367fbd6ac1161029e57806367fbd6ac146108a95780636f31ab34146108b157806370897b23146108b957806370a08231146108cc578063715018a6146108f557600080fd5b80635ad2c6841461079f57806361cfa87114610804578063669c8b42146108175780636719b2ee1461082a57806367d6cbc2146108a157600080fd5b80634b2431d9116103215780634b2431d91461075f578063503c70aa146107685780635069fb5714610771578063557886ab14610779578063573f0d6e1461078c57600080fd5b80633f90916a14610715578063469048401461072657806347786d37146107395780634a970be71461074c57600080fd5b80632728f333116103d5578063355274ea116103a4578063355274ea146106a057806336efd16f146106b157806339509351146106c45780633bf6b62c146106d75780633f23bb731461070257600080fd5b80632728f3331461058f5780632775d01c146106655780632a2d27f514610678578063313ce5671461068b57600080fd5b80631725bc101161041c5780631725bc10146104b757806317b0b36d1461055457806318160ddd1461056b5780631bc872701461057357806323b872dd1461057c57600080fd5b8063048bf0851461044e578063056097ac1461046357806306fdde0314610476578063095ea7b314610494575b600080fd5b61046161045c366004614eb2565b610c83565b005b610461610471366004614ece565b610cd8565b61047e610e5b565b60405161048b9190615453565b60405180910390f35b6104a76104a2366004614f46565b610eed565b604051901515815260200161048b565b60d25460d35460d4546105039263ffffffff808216936401000000008304821693600160401b8404831693600160601b8104841693600160801b8204811693600160a01b909204169188565b6040805163ffffffff998a1681529789166020890152958816958701959095529286166060860152908516608085015290931660a083015260c082019290925260e08101919091526101000161048b565b61055d60d95481565b60405190815260200161048b565b60995461055d565b61055d60dd5481565b6104a761058a366004614f06565b610f04565b60ce5460cf5460d05460d1546105f99361ffff8116936001600160681b03620100008304811694600160781b90930416926001600160801b0380831693600160801b9384900482169367ffffffffffffffff80831694600160401b84049091169391909204169089565b6040805161ffff9a909a168a526001600160681b0398891660208b015296909716958801959095526001600160801b039384166060880152918316608087015267ffffffffffffffff90811660a08701521660c08501521660e08301526101008201526101200161048b565b61046161067336600461508b565b610fb0565b610461610686366004614ffa565b611168565b60cc5460405160ff909116815260200161048b565b60cd546001600160681b031661055d565b6104616106bf3660046150bb565b61159c565b6104a76106d2366004614f46565b611623565b60db546106ea906001600160a01b031681565b6040516001600160a01b03909116815260200161048b565b61055d610710366004614eb2565b61165f565b60cf546001600160801b031661055d565b60d5546106ea906001600160a01b031681565b61046161074736600461508b565b6116ac565b61046161075a366004615128565b611783565b61055d60e15481565b61055d60e05481565b6104616118c8565b610461610787366004615170565b611b68565b61046161079a366004614eb2565b611cad565b6107dd6107ad366004614eb2565b60d8602052600090815260409020805460019091015460ff8216916001600160801b036101009091048116911683565b6040805193151584526001600160801b03928316602085015291169082015260600161048b565b61046161081236600461508b565b611cf9565b61046161082536600461508b565b611d54565b610870610838366004614eb2565b60c96020526000908152604090205461ffff8116906201000081046001600160681b031690600160781b90046001600160801b031683565b6040805161ffff90941684526001600160681b0390921660208401526001600160801b03169082015260600161048b565b610461611d9c565b610461611f96565b610461612025565b6104616108c736600461508b565b612062565b61055d6108da366004614eb2565b6001600160a01b031660009081526097602052604090205490565b61046161210f565b61046161090b366004615128565b612145565b6106ea61091e36600461508b565b612206565b610958610931366004614eb2565b60cb6020526000908152604090205461ffff8116906201000090046001600160801b031682565b6040805161ffff90931683526001600160801b0390911660208301520161048b565b61055d60da5481565b61046161099136600461508b565b612230565b6104616109a4366004614eb2565b612279565b61055d6109b736600461508b565b60ca6020526000908152604090205481565b61055d60de5481565b6106ea73a0b86991c6218b36c1d19d4a2e9eb0ce3606eb4881565b6065546001600160a01b03166106ea565b60e2546106ea906001600160a01b031681565b60dc546106ea906001600160a01b031681565b61047e61234b565b61055d61235a565b60cc5460cd54610a6f9160ff81169161010082046001600160a01b031691600160a81b900466ffffffffffffff16906001600160681b031684565b6040805160ff90951685526001600160a01b03909316602085015266ffffffffffffff909116918301919091526001600160681b0316606082015260800161048b565b6104a7610ac0366004614f46565b61238f565b610461610ad336600461508b565b612428565b61055d60df5481565b6104a7610aef366004614f46565b612525565b610461610b02366004615128565b612532565b60d6546106ea906001600160a01b031681565b61055d6125fc565b610461610b3036600461508b565b6126b7565b610b3f620f424081565b60405163ffffffff909116815260200161048b565b61046161272a565b61055d610b6a366004614eb2565b6127cc565b610461610b7d366004614eb2565b6127e9565b610461610b9036600461508b565b612870565b61055d610ba3366004614ece565b6001600160a01b03918216600090815260986020908152604080832093909416825291909152205490565b610461610bdc366004614eb2565b6128d6565b610461610bef366004614eb2565b61295d565b610461610c0236600461518c565b6129f5565b610c1a610c15366004614eb2565b612b08565b6040805192835260208301919091520161048b565b610461610c3d366004615170565b612be6565b610461612caa565b610461610c58366004614f71565b612d4a565b60e3546106ea906001600160a01b031681565b610461610c7e36600461508b565b612d8a565b6065546001600160a01b03163314610cb65760405162461bcd60e51b8152600401610cad906154f1565b60405180910390fd5b60e380546001600160a01b0319166001600160a01b0392909216919091179055565b6065546001600160a01b03163314610d025760405162461bcd60e51b8152600401610cad906154f1565b60cc546001600160a01b03838116610100909204161415610d4b5760405162461bcd60e51b815260206004820152600360248201526252333560e81b6044820152606401610cad565b6001600160a01b038216301415610d8a5760405162461bcd60e51b815260206004820152600360248201526229199b60e91b6044820152606401610cad565b6001600160a01b038116301415610dc95760405162461bcd60e51b815260206004820152600360248201526252333760e81b6044820152606401610cad565b6040516370a0823160e01b8152306004820152610e579082906001600160a01b038516906370a082319060240160206040518083038186803b158015610e0e57600080fd5b505afa158015610e22573d6000803e3d6000fd5b505050506040513d601f19601f82011682018060405250810190610e4691906150a3565b6001600160a01b0385169190612e80565b5050565b6060609a8054610e6a906157ad565b80601f0160208091040260200160405190810160405280929190818152602001828054610e96906157ad565b8015610ee35780601f10610eb857610100808354040283529160200191610ee3565b820191906000526020600020905b815481529060010190602001808311610ec657829003601f168201915b5050505050905090565b6000610efa338484612ee8565b5060015b92915050565b6000610f1184848461300c565b6001600160a01b038416600090815260986020908152604080832033845290915290205482811015610f965760405162461bcd60e51b815260206004820152602860248201527f45524332303a207472616e7366657220616d6f756e74206578636565647320616044820152676c6c6f77616e636560c01b6064820152608401610cad565b610fa38533858403612ee8565b60019150505b9392505050565b60026001541415610fd35760405162461bcd60e51b8152600401610cad90615526565b600260015533600090815260c96020526040902060ce5461ffff16826110215760405162461bcd60e51b815260206004820152600360248201526252333160e81b6044820152606401610cad565b815461ffff16811461105b5760405162461bcd60e51b815260206004820152600360248201526229199960e91b6044820152606401610cad565b81546201000090046001600160681b0316838110156110a25760405162461bcd60e51b815260206004820152600360248201526252333360e81b6044820152606401610cad565b6110ac848261576a565b83546001600160681b0391909116620100000262010000600160781b031990911617835560cf546110e79085906001600160801b031661576a565b60cf80546001600160801b0319166001600160801b0392909216919091179055604080518581526020810184905233917fab2daf3c146ca6416cbccd2a86ed2ba995e171ef6319df14a38aef01403a9c96910160405180910390a260cc5461115e9061010090046001600160a01b03163386612e80565b5050600180555050565b600054610100900460ff1680611181575060005460ff16155b61119d5760405162461bcd60e51b8152600401610cad90615486565b600054610100900460ff161580156111bf576000805461ffff19166101011790555b60006111ce6020860186614eb2565b6001600160a01b0316141561120a5760405162461bcd60e51b8152602060048201526002602482015261523360f01b6044820152606401610cad565b7335fd2E2F59F24f002BF69eD055DF595228D1c3D46349bec6346112346040870160208801614eb2565b61124460c0880160a08901614eb2565b61125460a0890160808a01614eb2565b60c089013560e08a013561126c6101008c018c6155a5565b61127a6101208e018e6155a5565b8d8d620f42406040518d63ffffffff1660e01b81526004016112a79c9b9a99989796959493929190615299565b60006040518083038186803b1580156112bf57600080fd5b505af41580156112d3573d6000803e3d6000fd5b505050506112df6131da565b61136d6112f06101008601866155a5565b8080601f016020809104026020016040519081016040528093929190818152602001838380828437600092019190915250611333925050506101208701876155a5565b8080601f01602080910402602001604051908101604052809392919081815260200183838082843760009201919091525061324d92505050565b6113756132cc565b611385610bef6020860186614eb2565b6113956040850160208601614eb2565b60d680546001600160a01b0319166001600160a01b03929092169190911790556113c560c0850160a08601614eb2565b60d580546001600160a01b0319166001600160a01b03929092169190911790556113f560a0850160808601614eb2565b60db80546001600160a01b0319166001600160a01b039290921691909117905560e084013560de5561142d6060830160408401615170565b63ffffffff16611444620f42406301e1338061574b565b61144e919061564c565b61145f620f424060c087013561574b565b611469919061564c565b60df558260cc611479828261598c565b5082905060d26114898282615850565b506114ae905061149c604086018661555d565b6114a9606088018861555d565b613333565b60cc546040516370a0823160e01b815230600482015260009161010090046001600160a01b0316906370a082319060240160206040518083038186803b1580156114f757600080fd5b505afa15801561150b573d6000803e3d6000fd5b505050506040513d601f19601f8201168201806040525081019061152f91906150a3565b905061153a816135e6565b60ce805461ffff196001600160681b03909316600160781b02929092167fffffffff00000000000000000000000000ffffffffffffffffffffffffff00009092169190911760011790558015611596576000805461ff00191690555b50505050565b600260015414156115bf5760405162461bcd60e51b8152600401610cad90615526565b6002600155816115e15760405162461bcd60e51b8152600401610cad906154d4565b6001600160a01b0381166115f457600080fd5b6115fe8282613630565b60cc5461161b9061010090046001600160a01b03163330856138a7565b505060018055565b3360008181526098602090815260408083206001600160a01b03871684529091528120549091610efa91859061165a908690615615565b612ee8565b60cc5460009060ff168161168f61167560995490565b61167d6125fc565b60cf546001600160801b0316856138df565b90506116a461169d856127cc565b8284613926565b949350505050565b6065546001600160a01b031633146116d65760405162461bcd60e51b8152600401610cad906154f1565b6000811161170c5760405162461bcd60e51b815260206004820152600360248201526252313360e81b6044820152606401610cad565b611715816135e6565b60cd54604080516001600160681b039092168252602082018390527f5f86edbb9d92228a9edc3f0ebc0f001bda1ea345ac7335e0eeef3504b31d1a1c910160405180910390a160cd80546cffffffffffffffffffffffffff19166001600160681b0392909216919091179055565b600260015414156117a65760405162461bcd60e51b8152600401610cad90615526565b600260015560cc5461010090046001600160a01b031673a0b86991c6218b36c1d19d4a2e9eb0ce3606eb48146118045760405162461bcd60e51b815260206004820152600360248201526205232360ec1b6044820152606401610cad565b600085116118245760405162461bcd60e51b8152600401610cad906154d4565b60cc5460405163d505accf60e01b81526101009091046001600160a01b03169063d505accf9061186490339030908a908a908a908a908a9060040161537e565b600060405180830381600087803b15801561187e57600080fd5b505af1158015611892573d6000803e3d6000fd5b505050506118a08533613630565b60cc546118bd9061010090046001600160a01b03163330886138a7565b505060018055505050565b60d6546001600160a01b031633146119075760405162461bcd60e51b8152602060048201526002602482015261148d60f21b6044820152606401610cad565b6002600154141561192a5760405162461bcd60e51b8152600401610cad90615526565b600260015560ce8054600160781b6001600160681b0362010000830416026cffffffffffffffffffffffffff60781b1990911617905560008061196b61398f565b60e081905560e15460cf549294509092506000916119999190600160801b90046001600160801b0316615615565b90506119a481613cd5565b60cf80546001600160801b03808416600160801b029116179055600060e1556119cc836135e6565b60ce805462010000600160781b031916620100006001600160681b0386160217905560d080546001600160801b03169055600060d181905560d354905b60d7548110156118bd5760d954611a1f576118bd565b600060d95460d8600060d78581548110611a4957634e487b7160e01b600052603260045260246000fd5b60009182526020808320909101546001600160a01b03168352820192909252604001902054611a87906001600160801b03610100909104168561574b565b611a91919061564c565b905080611a9e5750611b56565b611ae960d78381548110611ac257634e487b7160e01b600052603260045260246000fd5b60009182526020909120015460cc5461010090046001600160a01b03908116911683612e80565b60d78281548110611b0a57634e487b7160e01b600052603260045260246000fd5b600091825260209182902001546040518381526001600160a01b03909116917f88af4e011812ac0591fac38c5d6532fd401d8fa1fdf20e82b019e78405f42b71910160405180910390a2505b80611b60816157e8565b915050611a09565b6065546001600160a01b03163314611b925760405162461bcd60e51b8152600401610cad906154f1565b60008163ffffffff1611611bce5760405162461bcd60e51b815260206004820152600360248201526229189b60e91b6044820152606401610cad565b60d25463ffffffff16158015611bf7575060d25463ffffffff600160401b909104811690821611155b80611c0e575060d25463ffffffff90811690821611155b611c405760405162461bcd60e51b815260206004820152600360248201526252313760e81b6044820152606401610cad565b60d2805467ffffffff00000000191664010000000063ffffffff848116918202929092179283905560408051600160601b909404909216835260208301527ff0d4e95ace3c30a9f74264435d024aee7c24e0a24d5f2dc0b2f097778d19944391015b60405180910390a150565b6065546001600160a01b03163314611cd75760405162461bcd60e51b8152600401610cad906154f1565b60e280546001600160a01b0319166001600160a01b0392909216919091179055565b33600090815260d8602052604090205461010090046001600160801b0316611d485760405162461bcd60e51b8152602060048201526002602482015261523560f01b6044820152606401610cad565b611d5181613d1f565b50565b60db546001600160a01b03163314611d935760405162461bcd60e51b8152602060048201526002602482015261291b60f11b6044820152606401610cad565b611d5181613deb565b60d6546001600160a01b03163314611ddb5760405162461bcd60e51b8152602060048201526002602482015261148d60f21b6044820152606401610cad565b60d054600160801b90046001600160801b03161580611e27575060d25460d054611e2391600160601b900463ffffffff1690600160401b900467ffffffffffffffff16615615565b4210155b611e595760405162461bcd60e51b8152602060048201526003602482015262148ccd60ea1b6044820152606401610cad565b60d254600090611e7f9063ffffffff600160601b8204811691600160401b90041661564c565b60d454611e8c919061564c565b60d080549192508291601090611eb3908490600160801b90046001600160801b03166155ea565b92506101000a8154816001600160801b0302191690836001600160801b031602179055506201518042611ee69190615803565b611ef0904261576a565b611efc90617080615615565b60d0805467ffffffffffffffff92909216600160401b026fffffffffffffffff00000000000000001990921691909117905560db5460cc54611f51916101009091046001600160a01b03908116911683612e80565b60db546040518281526001600160a01b03909116907f4c40d030ff61ad9fddd7e91383af2b30e967a5d96e128382a8b24130d6dee72e9060200160405180910390a250565b6065546001600160a01b03163314611fc05760405162461bcd60e51b8152600401610cad906154f1565b60dc546001600160a01b0316611ffe5760405162461bcd60e51b815260206004820152600360248201526252353160e81b6044820152606401610cad565b60dc805460db80546001600160a01b03199081166001600160a01b03841617909155169055565b600260015414156120485760405162461bcd60e51b8152600401610cad90615526565b600260018190555061205c60006001613e6e565b60018055565b6065546001600160a01b0316331461208c5760405162461bcd60e51b8152600401610cad906154f1565b61209a620f4240606461574b565b81106120ce5760405162461bcd60e51b815260206004820152600360248201526229189960e91b6044820152606401610cad565b60de5460408051918252602082018390527f24867dfb6fcb9970a07be21024956524abe7a1837faa903ff0e99aaa40cf893e910160405180910390a160de55565b6065546001600160a01b031633146121395760405162461bcd60e51b8152600401610cad906154f1565b6121436000614003565b565b60db546001600160a01b031633146121845760405162461bcd60e51b8152602060048201526002602482015261291b60f11b6044820152606401610cad565b60cc5460405163d505accf60e01b81526101009091046001600160a01b03169063d505accf906121c490339030908a908a908a908a908a9060040161537e565b600060405180830381600087803b1580156121de57600080fd5b505af11580156121f2573d6000803e3d6000fd5b505050506121ff85613deb565b5050505050565b60d7818154811061221657600080fd5b6000918252602090912001546001600160a01b0316905081565b600260015414156122535760405162461bcd60e51b8152600401610cad90615526565b600260015561226181614055565b8060e15461226f9190615615565b60e1555060018055565b6065546001600160a01b031633146122a35760405162461bcd60e51b8152600401610cad906154f1565b6001600160a01b0381166122de5760405162461bcd60e51b8152602060048201526002602482015261523960f01b6044820152606401610cad565b60db54604080516001600160a01b03928316815291831660208301527f99e10f8286c53ce42e5bb9937b70f356c0733bf7f652059231239a1b9f12ef96910160405180910390a160dc80546001600160a01b0319166001600160a01b03929092169190911790554260dd55565b6060609b8054610e6a906157ad565b600061238a61236860995490565b6123706125fc565b60cf5460cc546001600160801b039091169060ff166138df565b905090565b3360009081526098602090815260408083206001600160a01b0386168452909152812054828110156124115760405162461bcd60e51b815260206004820152602560248201527f45524332303a2064656372656173656420616c6c6f77616e63652062656c6f77604482015264207a65726f60d81b6064820152608401610cad565b61241e3385858403612ee8565b5060019392505050565b6002600154141561244b5760405162461bcd60e51b8152600401610cad90615526565b600260015560e3546001600160a01b03168061246657600080fd5b6000821161247357600080fd5b336000908152609760205260409020548281101561249f5761249f612498828561576a565b6000613e6e565b6124aa33308561300c565b6124b5308385612ee8565b6040516383df674760e01b815260048101849052336024820152600060448201526001600160a01b038316906383df674790606401600060405180830381600087803b15801561250457600080fd5b505af1158015612518573d6000803e3d6000fd5b5050600180555050505050565b6000610efa33848461300c565b33600090815260d8602052604090205461010090046001600160801b03166125815760405162461bcd60e51b8152602060048201526002602482015261523560f01b6044820152606401610cad565b60cc5460405163d505accf60e01b81526101009091046001600160a01b03169063d505accf906125c190339030908a908a908a908a908a9060040161537e565b600060405180830381600087803b1580156125db57600080fd5b505af11580156125ef573d6000803e3d6000fd5b505050506121ff85613d1f565b60d35460d15460009190829082106126165760d154612618565b815b60cc546040516370a0823160e01b815230600482015291925082916101009091046001600160a01b0316906370a082319060240160206040518083038186803b15801561266457600080fd5b505afa158015612678573d6000803e3d6000fd5b505050506040513d601f19601f8201168201806040525081019061269c91906150a3565b6126a69084615615565b6126b0919061576a565b9250505090565b600260015414156126da5760405162461bcd60e51b8152600401610cad90615526565b6002600155806126fc5760405162461bcd60e51b8152600401610cad906154d4565b6127068133613630565b60cc546127239061010090046001600160a01b03163330846138a7565b5060018055565b60e2546001600160a01b03168061274057600080fd5b61274c60006001613e6e565b3360008181526097602052604090205490612768908383612ee8565b60405163c9c2d4f560e01b8152336004820152602481018290526001600160a01b0383169063c9c2d4f590604401600060405180830381600087803b1580156127b057600080fd5b505af11580156127c4573d6000803e3d6000fd5b505050505050565b60008060006127da84612b08565b90925090506116a48183615615565b6065546001600160a01b031633146128135760405162461bcd60e51b8152600401610cad906154f1565b6001600160a01b03811661284e5760405162461bcd60e51b8152602060048201526002602482015261523760f01b6044820152606401610cad565b60d680546001600160a01b0319166001600160a01b0392909216919091179055565b600260015414156128935760405162461bcd60e51b8152600401610cad90615526565b6002600155806128cb5760405162461bcd60e51b815260206004820152600360248201526252323960e81b6044820152606401610cad565b612723816000613e6e565b6065546001600160a01b031633146129005760405162461bcd60e51b8152600401610cad906154f1565b6001600160a01b03811661293b5760405162461bcd60e51b81526020600482015260026024820152610a4760f31b6044820152606401610cad565b60d580546001600160a01b0319166001600160a01b0392909216919091179055565b6065546001600160a01b031633146129875760405162461bcd60e51b8152600401610cad906154f1565b6001600160a01b0381166129ec5760405162461bcd60e51b815260206004820152602660248201527f4f776e61626c653a206e6577206f776e657220697320746865207a65726f206160448201526564647265737360d01b6064820152608401610cad565b611d5181614003565b6065546001600160a01b03163314612a1f5760405162461bcd60e51b8152600401610cad906154f1565b620f4240612a2d828461562d565b63ffffffff161115612a675760405162461bcd60e51b8152602060048201526003602482015262148c4d60ea1b6044820152606401610cad565b60d25460408051600160801b830463ffffffff90811682528581166020830152600160a01b9093048316818301529183166060830152517fc5b13904dad0762d636763061410ff20f86e9d21359fe8c2b1decacfc9bdd7539181900360800190a160d2805467ffffffffffffffff60801b1916600160801b63ffffffff9485160263ffffffff60a01b191617600160a01b9290931691909102919091179055565b6001600160a01b038116600090815260c9602090815260408083208151606081018352905461ffff81168083526201000082046001600160681b031694830194909452600160781b90046001600160801b031691810191909152829160011115612b8a575050506001600160a01b031660009081526097602052604081205491565b60ce54815161ffff908116600090815260ca602052604081205460cc549193612bbb9386939116919060ff166141e9565b9050612bdc856001600160a01b031660009081526097602052604090205490565b9590945092505050565b6065546001600160a01b03163314612c105760405162461bcd60e51b8152600401610cad906154f1565b620151808163ffffffff161015612c4f5760405162461bcd60e51b815260206004820152600360248201526252313560e81b6044820152606401610cad565b60d2805463ffffffff191663ffffffff8381169182179283905560408051600160401b909404909116835260208301919091527fd323e49efbd1e497c4f485723f1434c9b8294a325ad121e48fdb4c1cfacea7359101611ca2565b60026001541415612ccd5760405162461bcd60e51b8152600401610cad90615526565b60026001556000612cdc61425a565b905060008111612d145760405162461bcd60e51b81526020600482015260036024820152620a464760eb1b6044820152606401610cad565b8060e054612d22919061576a565b6001600160801b031660e05560cc546127239061010090046001600160a01b03163383612e80565b6065546001600160a01b03163314612d745760405162461bcd60e51b8152600401610cad906154f1565b612d8084848484613333565b50504260da555050565b6065546001600160a01b03163314612db45760405162461bcd60e51b8152600401610cad906154f1565b612dc2620f4240606461574b565b8110612df65760405162461bcd60e51b815260206004820152600360248201526252313160e81b6044820152606401610cad565b60d254600090600160401b900463ffffffff16612e1a620f42406301e1338061574b565b612e24919061564c565b612e31620f42408461574b565b612e3b919061564c565b60df5460408051918252602082018390529192507f4e874b007ab14f7e263baefd44951834c8266f4f224d1092e49e9c254354cc54910160405180910390a160df5550565b6040516001600160a01b038316602482015260448101829052612ee390849063a9059cbb60e01b906064015b60408051601f198184030181529190526020810180516001600160e01b03166001600160e01b0319909316929092179091526143a0565b505050565b6001600160a01b038316612f4a5760405162461bcd60e51b8152602060048201526024808201527f45524332303a20617070726f76652066726f6d20746865207a65726f206164646044820152637265737360e01b6064820152608401610cad565b6001600160a01b038216612fab5760405162461bcd60e51b815260206004820152602260248201527f45524332303a20617070726f766520746f20746865207a65726f206164647265604482015261737360f01b6064820152608401610cad565b6001600160a01b0383811660008181526098602090815260408083209487168084529482529182902085905590518481527f8c5be1e5ebec7d5bd14f71427d1e84f3dd0314c0f7b2291e5b200ac8c7c3b925910160405180910390a3505050565b6001600160a01b0383166130705760405162461bcd60e51b815260206004820152602560248201527f45524332303a207472616e736665722066726f6d20746865207a65726f206164604482015264647265737360d81b6064820152608401610cad565b6001600160a01b0382166130d25760405162461bcd60e51b815260206004820152602360248201527f45524332303a207472616e7366657220746f20746865207a65726f206164647260448201526265737360e81b6064820152608401610cad565b6001600160a01b0383166000908152609760205260409020548181101561314a5760405162461bcd60e51b815260206004820152602660248201527f45524332303a207472616e7366657220616d6f756e7420657863656564732062604482015265616c616e636560d01b6064820152608401610cad565b6001600160a01b03808516600090815260976020526040808220858503905591851681529081208054849290613181908490615615565b92505081905550826001600160a01b0316846001600160a01b03167fddf252ad1be2c89b69c2b068fc378daa952ba7f163c4a11628f55a4df523b3ef846040516131cd91815260200190565b60405180910390a3611596565b600054610100900460ff16806131f3575060005460ff16155b61320f5760405162461bcd60e51b8152600401610cad90615486565b600054610100900460ff16158015613231576000805461ffff19166101011790555b613239614472565b8015611d51576000805461ff001916905550565b600054610100900460ff1680613266575060005460ff16155b6132825760405162461bcd60e51b8152600401610cad90615486565b600054610100900460ff161580156132a4576000805461ffff19166101011790555b6132ac6144e1565b6132b6838361454b565b8015612ee3576000805461ff0019169055505050565b600054610100900460ff16806132e5575060005460ff16155b6133015760405162461bcd60e51b8152600401610cad90615486565b600054610100900460ff16158015613323576000805461ffff19166101011790555b61332b6144e1565b6132396145e0565b828181146133695760405162461bcd60e51b815260206004820152600360248201526205234360ec1b6044820152606401610cad565b60005b818110156135a157600086868381811061339657634e487b7160e01b600052603260045260246000fd5b90506020020160208101906133ab9190614eb2565b6001600160a01b031614156133bf5761358f565b60d860008787848181106133e357634e487b7160e01b600052603260045260246000fd5b90506020020160208101906133f89190614eb2565b6001600160a01b0316815260208101919091526040016000205460ff166134e65760d786868381811061343b57634e487b7160e01b600052603260045260246000fd5b90506020020160208101906134509190614eb2565b81546001808201845560009384526020842090910180546001600160a01b0319166001600160a01b0393909316929092179091559060d8908888858181106134a857634e487b7160e01b600052603260045260246000fd5b90506020020160208101906134bd9190614eb2565b6001600160a01b031681526020810191909152604001600020805460ff19169115159190911790555b83838281811061350657634e487b7160e01b600052603260045260246000fd5b905060200201602081019061351b9190615071565b60d8600088888581811061353f57634e487b7160e01b600052603260045260246000fd5b90506020020160208101906135549190614eb2565b6001600160a01b03168152602081019190915260400160002060010180546001600160801b0319166001600160801b03929092169190911790555b80613599816157e8565b91505061336c565b507fc8616977b27865a3d83403e8b0eef76d389fc3f711f2bf5bcf0b4399b33d1509858585856040516135d794939291906153bf565b60405180910390a15050505050565b6001600160681b03811115611d515760405162461bcd60e51b815260206004820152601060248201526f13dd995c999b1bddc81d5a5b9d0c4c0d60821b6044820152606401610cad565b60ce5461ffff166000836136426125fc565b61364c9190615615565b60cd549091506001600160681b03168111156136905760405162461bcd60e51b815260206004820152600360248201526229191960e91b6044820152606401610cad565b60cc54600160a81b900466ffffffffffffff168110156136d85760405162461bcd60e51b815260206004820152600360248201526252323360e81b6044820152606401610cad565b60408051858152602081018490526001600160a01b038516917f90890809c654f11d6e72a28fa60149770a0d11ec6c92319d6ceb2bb0a4ea1a15910160405180910390a26001600160a01b038316600090815260c9602090815260408083208151606081018352905461ffff81168083526201000082046001600160681b031683860152600160781b9091046001600160801b031682840152845260ca90925282205460cc5491929161379291849187919060ff166141e9565b8251909150869061ffff168514156137c35760008784602001516001600160681b03166137bf9190615615565b9150505b6137cc816135e6565b6040805160608101825261ffff80881682526001600160681b0380851660208085019182526001600160801b038089168688019081526001600160a01b038e16600090815260c990935296822095518654935197518216600160781b02600160781b600160f81b03199890951662010000026effffffffffffffffffffffffffffff1990941695169490941791909117949094161790915560cf54613873918a9116615615565b905061387e81613cd5565b60cf80546001600160801b0319166001600160801b039290921691909117905550505050505050565b6040516001600160a01b03808516602483015283166044820152606481018290526115969085906323b872dd60e01b90608401612eac565b6000806138ed83600a6156a3565b9050600086116138fd578061391c565b85613908858761576a565b613912908361574b565b61391c919061564c565b9695505050505050565b6000600183116139705760405162461bcd60e51b8152602060048201526015602482015274496e76616c6964206173736574506572536861726560581b6044820152606401610cad565b61397b82600a6156a3565b613985848661574b565b6116a4919061564c565b60d25460d05460009182916139bb91600160401b900463ffffffff169067ffffffffffffffff16615615565b4210156139f05760405162461bcd60e51b815260206004820152600360248201526252333960e81b6044820152606401610cad565b60d5546040805160e08101825260cc5460ff8116825291516370a0823160e01b81523060048201526001600160a01b03938416936000938493849384937335fd2E2F59F24f002BF69eD055DF595228D1c3D493632b8b58cf9360ce9390926020840192610100900416906370a082319060240160206040518083038186803b158015613a7b57600080fd5b505afa158015613a8f573d6000803e3d6000fd5b505050506040513d601f19601f82011682018060405250810190613ab391906150a3565b8152602001613ac160995490565b815260200160e054815260200160de54815260200160df54815260200160e1548152506040518363ffffffff1660e01b8152600401613b5292919060006101008201905083825282516020830152602083015160408301526040830151606083015260608301516080830152608083015160a083015260a083015160c083015260c083015160e08301529392505050565b60c06040518083038186803b158015613b6a57600080fd5b505af4158015613b7e573d6000803e3d6000fd5b505050506040513d601f19601f82011682018060405250810190613ba291906150df565b60ce5461ffff16600081815260ca60209081526040918290208790558151858152908101849052908101829052969d50949b50919850965094509250906001600160a01b038716907f0a242f7ecaf711036ca770774ceffae28e60ef042ac113ddd187f2631db0c0069060600160405180910390a260cf80546001600160801b0319169055613c32816001615615565b60ce805461ffff191661ffff92909216919091179055613c556201518042615803565b613c5f904261576a565b613c6b90617080615615565b60d0805467ffffffffffffffff191667ffffffffffffffff9290921691909117905550613c9a90503084614640565b8015613cbc5760cc54613cbc9061010090046001600160a01b03168583612e80565b613cc58661471f565b613ccd6148d6565b505050509091565b6001600160801b03811115611d515760405162461bcd60e51b815260206004820152601060248201526f09eeccae4ccd8deee40ead2dce86264760831b6044820152606401610cad565b60cc54613d3c9061010090046001600160a01b03163330846138a7565b60d95433600090815260d8602052604081205460d354919291613d6d9161010090046001600160801b03169061574b565b613d77919061564c565b90508160ce6003016000828254613d8e9190615615565b909155503390507f68fdeed3f1a82d492cf10b1608f9eb8c69f1a1d9f58c952fb01f9325c9e140f383838111613dc5576000613dcf565b613dcf848661576a565b6040805192835260208301919091520160405180910390a25050565b60cc54613e089061010090046001600160a01b03163330846138a7565b60d254600090613e2e9063ffffffff600160601b8204811691600160401b90041661564c565b60d454613e3b919061564c565b9050337f0f6ba811ab59ff1520dd0aa40c3591aeb13d418d5d2bcf79b5f819a3634ed59583838111613dc5576000613dcf565b33600090815260c9602090815260408083208151606081018352905461ffff8082168084526201000083046001600160681b031684870152600160781b9092046001600160801b03168385015260ce5491865260ca9094529184205460cc5491949290931692613ee4918591859160ff166141e9565b905083613ef15784613ef3565b805b945084613f01575050505050565b80851115613f375760405162461bcd60e51b815260206004820152600360248201526205233360ec1b6044820152606401610cad565b825161ffff16821115613f645733600090815260c960205260409020805462010000600160781b03191690555b613f6d85613cd5565b613f77858261576a565b33600081815260c960205260409081902080546001600160801b0394909416600160781b02600160781b600160f81b0319909416939093179092558451915190917fe5b754fb1abb7f01b499791d0b820ae3b6af3424ac1c59768edb53f4ec31a92991613ff09189825261ffff16602082015260400190565b60405180910390a26121ff30338761300c565b606580546001600160a01b038381166001600160a01b0319831681179093556040519116919082907f8be0079c531659141344cd1fd0a4f28419497f9722a3daafe3b4186f6b6457e090600090a35050565b6000811161408b5760405162461bcd60e51b8152602060048201526003602482015262148c8d60ea1b6044820152606401610cad565b33600090815260c960205260409020546201000090046001600160681b03161515806140d5575033600090815260c96020526040902054600160781b90046001600160801b031615155b156140e6576140e660006001613e6e565b60ce5433600081815260cb60209081526040918290208054835187815261ffff96871693810184905292959194911685149290917f0c53c82ad07e2d592d88ece3b066777dd60f1118e2a081b380efc4358f0d9e2a910160405180910390a281546201000090046001600160801b03166000821561416f576141688683615615565b90506141b5565b81156141a35760405162461bcd60e51b815260206004820152600360248201526252323560e81b6044820152606401610cad565b50825461ffff191661ffff8516178355845b6141be81613cd5565b835462010000600160901b031916620100006001600160801b038316021784556127c433308861300c565b835160009061ffff16158015906142045750845161ffff1684115b1561424657600061422386602001516001600160681b03168585614aef565b90508086604001516001600160801b031661423e9190615615565b9150506116a4565b50505050604001516001600160801b031690565b33600090815260cb6020526040812080546001600160801b03620100008204169061ffff16816142b25760405162461bcd60e51b815260206004820152600360248201526229191b60e91b6044820152606401610cad565b60ce5461ffff1681106142ed5760405162461bcd60e51b815260206004820152600360248201526252323760e81b6044820152606401610cad565b825462010000600160901b031916835560cf5461431b908390600160801b90046001600160801b031661576a565b60cf80546001600160801b03928316600160801b029216919091179055600081815260ca602052604081205460cc5461435891859160ff16613926565b604080518281526020810186905291925033917ff279e6a1f5e320cca91135676d9cb6e44ca8a08c0b88342bcdb1144f6511b568910160405180910390a26116a43084614b4f565b60006143f5826040518060400160405280602081526020017f5361666545524332303a206c6f772d6c6576656c2063616c6c206661696c6564815250856001600160a01b0316614c9d9092919063ffffffff16565b805190915015612ee357808060200190518101906144139190614fda565b612ee35760405162461bcd60e51b815260206004820152602a60248201527f5361666545524332303a204552433230206f7065726174696f6e20646964206e6044820152691bdd081cdd58d8d9595960b21b6064820152608401610cad565b600054610100900460ff168061448b575060005460ff16155b6144a75760405162461bcd60e51b8152600401610cad90615486565b600054610100900460ff161580156144c9576000805461ffff19166101011790555b600180558015611d51576000805461ff001916905550565b600054610100900460ff16806144fa575060005460ff16155b6145165760405162461bcd60e51b8152600401610cad90615486565b600054610100900460ff16158015613239576000805461ffff19166101011790558015611d51576000805461ff001916905550565b600054610100900460ff1680614564575060005460ff16155b6145805760405162461bcd60e51b8152600401610cad90615486565b600054610100900460ff161580156145a2576000805461ffff19166101011790555b82516145b590609a906020860190614da8565b5081516145c990609b906020850190614da8565b508015612ee3576000805461ff0019169055505050565b600054610100900460ff16806145f9575060005460ff16155b6146155760405162461bcd60e51b8152600401610cad90615486565b600054610100900460ff16158015614637576000805461ffff19166101011790555b61323933614003565b6001600160a01b0382166146965760405162461bcd60e51b815260206004820152601f60248201527f45524332303a206d696e7420746f20746865207a65726f2061646472657373006044820152606401610cad565b80609960008282546146a89190615615565b90915550506001600160a01b038216600090815260976020526040812080548392906146d5908490615615565b90915550506040518181526001600160a01b038316906000907fddf252ad1be2c89b69c2b068fc378daa952ba7f163c4a11628f55a4df523b3ef9060200160405180910390a35050565b604080516101008101825260d25463ffffffff808216808452640100000000830482166020850152600160401b8304821694840194909452600160601b820481166060840152600160801b820481166080840152600160a01b9091041660a082015260d35460c082015260d45460e082015290156148335760df546040820151825163ffffffff918216916147b591168361574b565b6147bf919061564c565b60df819055825160d280546bffffffff00000000ffffffff1916600160401b63ffffffff9093169290920263ffffffff19169190911790556040805183815260208101929092527f4e874b007ab14f7e263baefd44951834c8266f4f224d1092e49e9c254354cc54910160405180910390a1505b602081015163ffffffff161561488257602081015160d280546fffffffff00000000ffffffff000000001916600160601b63ffffffff9093169290920267ffffffff0000000019169190911790555b6080810151620f42409061489d90849063ffffffff1661574b565b6148a7919061564c565b60d35560a0810151620f4240906148c590849063ffffffff1661574b565b6148cf919061564c565b60d4555050565b60da546148e6906203f480615615565b42101561491b5760405162461bcd60e51b815260206004820152600360248201526205231360ec1b6044820152606401610cad565b60005b60d754811015614ab157600060d8600060d7848154811061494f57634e487b7160e01b600052603260045260246000fd5b6000918252602080832091909101546001600160a01b0316835282019290925260400181205460d780546101009092046001600160801b0316935060d891839190869081106149ae57634e487b7160e01b600052603260045260246000fd5b60009182526020808320909101546001600160a01b031683528201929092526040019020600101546001600160801b03908116915082168114614a9c578060d8600060d78681548110614a1157634e487b7160e01b600052603260045260246000fd5b6000918252602080832091909101546001600160a01b031683528201929092526040018120805470ffffffffffffffffffffffffffffffff0019166101006001600160801b039485160217905560d9805492841692909190614a74908490615615565b92505081905550816001600160801b031660d96000828254614a96919061576a565b90915550505b50508080614aa9906157e8565b91505061491e565b507f35f63f8d8ef81a02b50e77faab37344f335fcc256a197cbaa15cd5ab8835aa0660d954604051614ae591815260200190565b60405180910390a1565b600060018311614b395760405162461bcd60e51b8152602060048201526015602482015274496e76616c6964206173736574506572536861726560581b6044820152606401610cad565b82614b4583600a6156a3565b613985908661574b565b6001600160a01b038216614baf5760405162461bcd60e51b815260206004820152602160248201527f45524332303a206275726e2066726f6d20746865207a65726f206164647265736044820152607360f81b6064820152608401610cad565b6001600160a01b03821660009081526097602052604090205481811015614c235760405162461bcd60e51b815260206004820152602260248201527f45524332303a206275726e20616d6f756e7420657863656564732062616c616e604482015261636560f01b6064820152608401610cad565b6001600160a01b0383166000908152609760205260408120838303905560998054849290614c5290849061576a565b90915550506040518281526000906001600160a01b038516907fddf252ad1be2c89b69c2b068fc378daa952ba7f163c4a11628f55a4df523b3ef9060200160405180910390a3505050565b60606116a4848460008585843b614cf65760405162461bcd60e51b815260206004820152601d60248201527f416464726573733a2063616c6c20746f206e6f6e2d636f6e74726163740000006044820152606401610cad565b600080866001600160a01b03168587604051614d12919061527d565b60006040518083038185875af1925050503d8060008114614d4f576040519150601f19603f3d011682016040523d82523d6000602084013e614d54565b606091505b5091509150614d64828286614d6f565b979650505050505050565b60608315614d7e575081610fa9565b825115614d8e5782518084602001fd5b8160405162461bcd60e51b8152600401610cad9190615453565b828054614db4906157ad565b90600052602060002090601f016020900481019282614dd65760008555614e1c565b82601f10614def57805160ff1916838001178555614e1c565b82800160010185558215614e1c579182015b82811115614e1c578251825591602001919060010190614e01565b50614e28929150614e2c565b5090565b5b80821115614e285760008155600101614e2d565b60008083601f840112614e52578182fd5b50813567ffffffffffffffff811115614e69578182fd5b6020830191508360208260051b8501011115614e8457600080fd5b9250929050565b80356001600160801b0381168114614ea257600080fd5b919050565b8035614ea281615a6f565b600060208284031215614ec3578081fd5b8135610fa981615a45565b60008060408385031215614ee0578081fd5b8235614eeb81615a45565b91506020830135614efb81615a45565b809150509250929050565b600080600060608486031215614f1a578081fd5b8335614f2581615a45565b92506020840135614f3581615a45565b929592945050506040919091013590565b60008060408385031215614f58578182fd5b8235614f6381615a45565b946020939093013593505050565b60008060008060408587031215614f86578081fd5b843567ffffffffffffffff80821115614f9d578283fd5b614fa988838901614e41565b90965094506020870135915080821115614fc1578283fd5b50614fce87828801614e41565b95989497509550505050565b600060208284031215614feb578081fd5b81518015158114610fa9578182fd5b60008060008385036101a0811215615010578384fd5b843567ffffffffffffffff811115615026578485fd5b85016101408188031215615038578485fd5b93506080601f198201121561504b578283fd5b602085019250610100609f1982011215615063578182fd5b5060a0840190509250925092565b600060208284031215615082578081fd5b610fa982614e8b565b60006020828403121561509c578081fd5b5035919050565b6000602082840312156150b4578081fd5b5051919050565b600080604083850312156150cd578182fd5b823591506020830135614efb81615a45565b60008060008060008060c087890312156150f7578384fd5b865195506020870151945060408701519350606087015192506080870151915060a087015190509295509295509295565b600080600080600060a0868803121561513f578283fd5b8535945060208601359350604086013561515881615a96565b94979396509394606081013594506080013592915050565b600060208284031215615181578081fd5b8135610fa981615a6f565b6000806040838503121561519e578182fd5b82356151a981615a6f565b91506020830135614efb81615a6f565b81835281816020850137506000828201602090810191909152601f909101601f19169091010190565b80356151ed81615a6f565b63ffffffff908116835260208201359061520682615a6f565b908116602084015260408201359061521d82615a6f565b908116604084015260608201359061523482615a6f565b16606083015261524660808201614ea7565b63ffffffff16608083015261525d60a08201614ea7565b63ffffffff1660a083015260c0818101359083015260e090810135910152565b6000825161528f818460208701615781565b9190910192915050565b600060018060a01b03808f168352808e166020840152808d1660408401528b60608401528a608084015261028060a08401526152da61028084018a8c6151b9565b83810360c08501526152ed81898b6151b9565b92505085356152fb81615a96565b60ff1660e0840152602086013561531181615a45565b16610100830152604085013561532681615a81565b66ffffffffffffff16610120830152606085013561534381615a5a565b6001600160681b03166101408301526153606101608301856151e2565b63ffffffff83166102608301529d9c50505050505050505050505050565b6001600160a01b0397881681529590961660208601526040850193909352606084019190915260ff16608083015260a082015260c081019190915260e00190565b6040808252810184905260008560608301825b878110156154025782356153e581615a45565b6001600160a01b03168252602092830192909101906001016153d2565b50838103602085810191909152858252915085908201835b86811015615446576001600160801b0361543384614e8b565b168252918301919083019060010161541a565b5098975050505050505050565b6020815260008251806020840152615472816040850160208701615781565b601f01601f19169190910160400192915050565b6020808252602e908201527f496e697469616c697a61626c653a20636f6e747261637420697320616c72656160408201526d191e481a5b9a5d1a585b1a5e995960921b606082015260800190565b60208082526003908201526252323160e81b604082015260600190565b6020808252818101527f4f776e61626c653a2063616c6c6572206973206e6f7420746865206f776e6572604082015260600190565b6020808252601f908201527f5265656e7472616e637947756172643a207265656e7472616e742063616c6c00604082015260600190565b6000808335601e19843603018112615573578283fd5b83018035915067ffffffffffffffff82111561558d578283fd5b6020019150600581901b3603821315614e8457600080fd5b6000808335601e198436030181126155bb578283fd5b83018035915067ffffffffffffffff8211156155d5578283fd5b602001915036819003821315614e8457600080fd5b60006001600160801b0380831681851680830382111561560c5761560c615817565b01949350505050565b6000821982111561562857615628615817565b500190565b600063ffffffff80831681851680830382111561560c5761560c615817565b60008261565b5761565b61582d565b500490565b600181815b8085111561569b57816000190482111561568157615681615817565b8085161561568e57918102915b93841c9390800290615665565b509250929050565b6000610fa983836000826156b957506001610efe565b816156c657506000610efe565b81600181146156dc57600281146156e657615702565b6001915050610efe565b60ff8411156156f7576156f7615817565b50506001821b610efe565b5060208310610133831016604e8410600b8410161715615725575081810a610efe565b61572f8383615660565b806000190482111561574357615743615817565b029392505050565b600081600019048311821515161561576557615765615817565b500290565b60008282101561577c5761577c615817565b500390565b60005b8381101561579c578181015183820152602001615784565b838111156115965750506000910152565b600181811c908216806157c157607f821691505b602082108114156157e257634e487b7160e01b600052602260045260246000fd5b50919050565b60006000198214156157fc576157fc615817565b5060010190565b6000826158125761581261582d565b500690565b634e487b7160e01b600052601160045260246000fd5b634e487b7160e01b600052601260045260246000fd5b60008135610efe81615a6f565b813561585b81615a6f565b63ffffffff8116905081548163ffffffff198216178355602084013561588081615a6f565b67ffffffff000000008160201b168367ffffffffffffffff198416171784555050506158db6158b160408401615843565b82546bffffffff0000000000000000191660409190911b6bffffffff000000000000000016178255565b61590e6158ea60608401615843565b82805463ffffffff60601b191660609290921b63ffffffff60601b16919091179055565b61594161591d60808401615843565b82805463ffffffff60801b191660809290921b63ffffffff60801b16919091179055565b61597461595060a08401615843565b82805463ffffffff60a01b191660a09290921b63ffffffff60a01b16919091179055565b60c0820135600182015560e082013560028201555050565b813561599781615a96565b60ff8116905081548160ff19821617835560208401356159b681615a45565b610100600160a81b0360089190911b166001600160a81b0319821683178117845560408501356159e581615a81565b6001600160e01b0319929092169092179190911760a89190911b66ffffffffffffff60a81b16178155600181016060830135615a2081615a5a565b81546cffffffffffffffffffffffffff19166001600160681b03919091161790555050565b6001600160a01b0381168114611d5157600080fd5b6001600160681b0381168114611d5157600080fd5b63ffffffff81168114611d5157600080fd5b66ffffffffffffff81168114611d5157600080fd5b60ff81168114611d5157600080fdfea2646970667358221220a25ff173480fcf0e9e70cb4246c2b18d834a2c7ca39de9576f573216ccd6889164736f6c63430008040033",
  "deployedBytecode": "0x608060405234801561001057600080fd5b50600436106104495760003560e01c80637907cafd11610241578063a94045021161013b578063dd62ed3e116100c3578063f65a8fc411610087578063f65a8fc414610c2f578063f756fa2114610c42578063f8eea47e14610c4a578063f9a0be6814610c5d578063fe56e23214610c7057600080fd5b8063dd62ed3e14610b95578063e74b981b14610bce578063f2fde38b14610be1578063f39abff714610bf4578063f656ba5114610c0757600080fd5b8063c41d28741161010a578063c41d287414610b35578063ca59409414610b54578063ce7c2ac214610b5c578063d164cc1514610b6f578063db006a7514610b8257600080fd5b8063a940450214610af4578063aced166114610b07578063ad7a672f14610b1a578063b6b55f2514610b2257600080fd5b80638da5cb5b116101c95780639fcc2d751161018d5780639fcc2d7514610a34578063a457c2d714610ab2578063a694fc3a14610ac5578063a6f7f5d614610ad8578063a9059cbb14610ae157600080fd5b80638da5cb5b146109ed578063947061b5146109fe578063953c06f214610a1157806395d89b4114610a2457806399530b0614610a2c57600080fd5b80637e108d52116102105780637e108d52146109835780638476d5201461099657806387153eb1146109a957806387788782146109c957806389a30271146109d257600080fd5b80637907cafd146108fd5780637924d93f146109105780637a9262a2146109235780637bc1a20a1461097a57600080fd5b80633f90916a116103525780635ad2c684116102da57806367fbd6ac1161029e57806367fbd6ac146108a95780636f31ab34146108b157806370897b23146108b957806370a08231146108cc578063715018a6146108f557600080fd5b80635ad2c6841461079f57806361cfa87114610804578063669c8b42146108175780636719b2ee1461082a57806367d6cbc2146108a157600080fd5b80634b2431d9116103215780634b2431d91461075f578063503c70aa146107685780635069fb5714610771578063557886ab14610779578063573f0d6e1461078c57600080fd5b80633f90916a14610715578063469048401461072657806347786d37146107395780634a970be71461074c57600080fd5b80632728f333116103d5578063355274ea116103a4578063355274ea146106a057806336efd16f146106b157806339509351146106c45780633bf6b62c146106d75780633f23bb731461070257600080fd5b80632728f3331461058f5780632775d01c146106655780632a2d27f514610678578063313ce5671461068b57600080fd5b80631725bc101161041c5780631725bc10146104b757806317b0b36d1461055457806318160ddd1461056b5780631bc872701461057357806323b872dd1461057c57600080fd5b8063048bf0851461044e578063056097ac1461046357806306fdde0314610476578063095ea7b314610494575b600080fd5b61046161045c366004614eb2565b610c83565b005b610461610471366004614ece565b610cd8565b61047e610e5b565b60405161048b9190615453565b60405180910390f35b6104a76104a2366004614f46565b610eed565b604051901515815260200161048b565b60d25460d35460d4546105039263ffffffff808216936401000000008304821693600160401b8404831693600160601b8104841693600160801b8204811693600160a01b909204169188565b6040805163ffffffff998a1681529789166020890152958816958701959095529286166060860152908516608085015290931660a083015260c082019290925260e08101919091526101000161048b565b61055d60d95481565b60405190815260200161048b565b60995461055d565b61055d60dd5481565b6104a761058a366004614f06565b610f04565b60ce5460cf5460d05460d1546105f99361ffff8116936001600160681b03620100008304811694600160781b90930416926001600160801b0380831693600160801b9384900482169367ffffffffffffffff80831694600160401b84049091169391909204169089565b6040805161ffff9a909a168a526001600160681b0398891660208b015296909716958801959095526001600160801b039384166060880152918316608087015267ffffffffffffffff90811660a08701521660c08501521660e08301526101008201526101200161048b565b61046161067336600461508b565b610fb0565b610461610686366004614ffa565b611168565b60cc5460405160ff909116815260200161048b565b60cd546001600160681b031661055d565b6104616106bf3660046150bb565b61159c565b6104a76106d2366004614f46565b611623565b60db546106ea906001600160a01b031681565b6040516001600160a01b03909116815260200161048b565b61055d610710366004614eb2565b61165f565b60cf546001600160801b031661055d565b60d5546106ea906001600160a01b031681565b61046161074736600461508b565b6116ac565b61046161075a366004615128565b611783565b61055d60e15481565b61055d60e05481565b6104616118c8565b610461610787366004615170565b611b68565b61046161079a366004614eb2565b611cad565b6107dd6107ad366004614eb2565b60d8602052600090815260409020805460019091015460ff8216916001600160801b036101009091048116911683565b6040805193151584526001600160801b03928316602085015291169082015260600161048b565b61046161081236600461508b565b611cf9565b61046161082536600461508b565b611d54565b610870610838366004614eb2565b60c96020526000908152604090205461ffff8116906201000081046001600160681b031690600160781b90046001600160801b031683565b6040805161ffff90941684526001600160681b0390921660208401526001600160801b03169082015260600161048b565b610461611d9c565b610461611f96565b610461612025565b6104616108c736600461508b565b612062565b61055d6108da366004614eb2565b6001600160a01b031660009081526097602052604090205490565b61046161210f565b61046161090b366004615128565b612145565b6106ea61091e36600461508b565b612206565b610958610931366004614eb2565b60cb6020526000908152604090205461ffff8116906201000090046001600160801b031682565b6040805161ffff90931683526001600160801b0390911660208301520161048b565b61055d60da5481565b61046161099136600461508b565b612230565b6104616109a4366004614eb2565b612279565b61055d6109b736600461508b565b60ca6020526000908152604090205481565b61055d60de5481565b6106ea73a0b86991c6218b36c1d19d4a2e9eb0ce3606eb4881565b6065546001600160a01b03166106ea565b60e2546106ea906001600160a01b031681565b60dc546106ea906001600160a01b031681565b61047e61234b565b61055d61235a565b60cc5460cd54610a6f9160ff81169161010082046001600160a01b031691600160a81b900466ffffffffffffff16906001600160681b031684565b6040805160ff90951685526001600160a01b03909316602085015266ffffffffffffff909116918301919091526001600160681b0316606082015260800161048b565b6104a7610ac0366004614f46565b61238f565b610461610ad336600461508b565b612428565b61055d60df5481565b6104a7610aef366004614f46565b612525565b610461610b02366004615128565b612532565b60d6546106ea906001600160a01b031681565b61055d6125fc565b610461610b3036600461508b565b6126b7565b610b3f620f424081565b60405163ffffffff909116815260200161048b565b61046161272a565b61055d610b6a366004614eb2565b6127cc565b610461610b7d366004614eb2565b6127e9565b610461610b9036600461508b565b612870565b61055d610ba3366004614ece565b6001600160a01b03918216600090815260986020908152604080832093909416825291909152205490565b610461610bdc366004614eb2565b6128d6565b610461610bef366004614eb2565b61295d565b610461610c0236600461518c565b6129f5565b610c1a610c15366004614eb2565b612b08565b6040805192835260208301919091520161048b565b610461610c3d366004615170565b612be6565b610461612caa565b610461610c58366004614f71565b612d4a565b60e3546106ea906001600160a01b031681565b610461610c7e36600461508b565b612d8a565b6065546001600160a01b03163314610cb65760405162461bcd60e51b8152600401610cad906154f1565b60405180910390fd5b60e380546001600160a01b0319166001600160a01b0392909216919091179055565b6065546001600160a01b03163314610d025760405162461bcd60e51b8152600401610cad906154f1565b60cc546001600160a01b03838116610100909204161415610d4b5760405162461bcd60e51b815260206004820152600360248201526252333560e81b6044820152606401610cad565b6001600160a01b038216301415610d8a5760405162461bcd60e51b815260206004820152600360248201526229199b60e91b6044820152606401610cad565b6001600160a01b038116301415610dc95760405162461bcd60e51b815260206004820152600360248201526252333760e81b6044820152606401610cad565b6040516370a0823160e01b8152306004820152610e579082906001600160a01b038516906370a082319060240160206040518083038186803b158015610e0e57600080fd5b505afa158015610e22573d6000803e3d6000fd5b505050506040513d601f19601f82011682018060405250810190610e4691906150a3565b6001600160a01b0385169190612e80565b5050565b6060609a8054610e6a906157ad565b80601f0160208091040260200160405190810160405280929190818152602001828054610e96906157ad565b8015610ee35780601f10610eb857610100808354040283529160200191610ee3565b820191906000526020600020905b815481529060010190602001808311610ec657829003601f168201915b5050505050905090565b6000610efa338484612ee8565b5060015b92915050565b6000610f1184848461300c565b6001600160a01b038416600090815260986020908152604080832033845290915290205482811015610f965760405162461bcd60e51b815260206004820152602860248201527f45524332303a207472616e7366657220616d6f756e74206578636565647320616044820152676c6c6f77616e636560c01b6064820152608401610cad565b610fa38533858403612ee8565b60019150505b9392505050565b60026001541415610fd35760405162461bcd60e51b8152600401610cad90615526565b600260015533600090815260c96020526040902060ce5461ffff16826110215760405162461bcd60e51b815260206004820152600360248201526252333160e81b6044820152606401610cad565b815461ffff16811461105b5760405162461bcd60e51b815260206004820152600360248201526229199960e91b6044820152606401610cad565b81546201000090046001600160681b0316838110156110a25760405162461bcd60e51b815260206004820152600360248201526252333360e81b6044820152606401610cad565b6110ac848261576a565b83546001600160681b0391909116620100000262010000600160781b031990911617835560cf546110e79085906001600160801b031661576a565b60cf80546001600160801b0319166001600160801b0392909216919091179055604080518581526020810184905233917fab2daf3c146ca6416cbccd2a86ed2ba995e171ef6319df14a38aef01403a9c96910160405180910390a260cc5461115e9061010090046001600160a01b03163386612e80565b5050600180555050565b600054610100900460ff1680611181575060005460ff16155b61119d5760405162461bcd60e51b8152600401610cad90615486565b600054610100900460ff161580156111bf576000805461ffff19166101011790555b60006111ce6020860186614eb2565b6001600160a01b0316141561120a5760405162461bcd60e51b8152602060048201526002602482015261523360f01b6044820152606401610cad565b73__$2abc2342da0ef81c8a62da4073b4b8c831$__6349bec6346112346040870160208801614eb2565b61124460c0880160a08901614eb2565b61125460a0890160808a01614eb2565b60c089013560e08a013561126c6101008c018c6155a5565b61127a6101208e018e6155a5565b8d8d620f42406040518d63ffffffff1660e01b81526004016112a79c9b9a99989796959493929190615299565b60006040518083038186803b1580156112bf57600080fd5b505af41580156112d3573d6000803e3d6000fd5b505050506112df6131da565b61136d6112f06101008601866155a5565b8080601f016020809104026020016040519081016040528093929190818152602001838380828437600092019190915250611333925050506101208701876155a5565b8080601f01602080910402602001604051908101604052809392919081815260200183838082843760009201919091525061324d92505050565b6113756132cc565b611385610bef6020860186614eb2565b6113956040850160208601614eb2565b60d680546001600160a01b0319166001600160a01b03929092169190911790556113c560c0850160a08601614eb2565b60d580546001600160a01b0319166001600160a01b03929092169190911790556113f560a0850160808601614eb2565b60db80546001600160a01b0319166001600160a01b039290921691909117905560e084013560de5561142d6060830160408401615170565b63ffffffff16611444620f42406301e1338061574b565b61144e919061564c565b61145f620f424060c087013561574b565b611469919061564c565b60df558260cc611479828261598c565b5082905060d26114898282615850565b506114ae905061149c604086018661555d565b6114a9606088018861555d565b613333565b60cc546040516370a0823160e01b815230600482015260009161010090046001600160a01b0316906370a082319060240160206040518083038186803b1580156114f757600080fd5b505afa15801561150b573d6000803e3d6000fd5b505050506040513d601f19601f8201168201806040525081019061152f91906150a3565b905061153a816135e6565b60ce805461ffff196001600160681b03909316600160781b02929092167fffffffff00000000000000000000000000ffffffffffffffffffffffffff00009092169190911760011790558015611596576000805461ff00191690555b50505050565b600260015414156115bf5760405162461bcd60e51b8152600401610cad90615526565b6002600155816115e15760405162461bcd60e51b8152600401610cad906154d4565b6001600160a01b0381166115f457600080fd5b6115fe8282613630565b60cc5461161b9061010090046001600160a01b03163330856138a7565b505060018055565b3360008181526098602090815260408083206001600160a01b03871684529091528120549091610efa91859061165a908690615615565b612ee8565b60cc5460009060ff168161168f61167560995490565b61167d6125fc565b60cf546001600160801b0316856138df565b90506116a461169d856127cc565b8284613926565b949350505050565b6065546001600160a01b031633146116d65760405162461bcd60e51b8152600401610cad906154f1565b6000811161170c5760405162461bcd60e51b815260206004820152600360248201526252313360e81b6044820152606401610cad565b611715816135e6565b60cd54604080516001600160681b039092168252602082018390527f5f86edbb9d92228a9edc3f0ebc0f001bda1ea345ac7335e0eeef3504b31d1a1c910160405180910390a160cd80546cffffffffffffffffffffffffff19166001600160681b0392909216919091179055565b600260015414156117a65760405162461bcd60e51b8152600401610cad90615526565b600260015560cc5461010090046001600160a01b031673a0b86991c6218b36c1d19d4a2e9eb0ce3606eb48146118045760405162461bcd60e51b815260206004820152600360248201526205232360ec1b6044820152606401610cad565b600085116118245760405162461bcd60e51b8152600401610cad906154d4565b60cc5460405163d505accf60e01b81526101009091046001600160a01b03169063d505accf9061186490339030908a908a908a908a908a9060040161537e565b600060405180830381600087803b15801561187e57600080fd5b505af1158015611892573d6000803e3d6000fd5b505050506118a08533613630565b60cc546118bd9061010090046001600160a01b03163330886138a7565b505060018055505050565b60d6546001600160a01b031633146119075760405162461bcd60e51b8152602060048201526002602482015261148d60f21b6044820152606401610cad565b6002600154141561192a5760405162461bcd60e51b8152600401610cad90615526565b600260015560ce8054600160781b6001600160681b0362010000830416026cffffffffffffffffffffffffff60781b1990911617905560008061196b61398f565b60e081905560e15460cf549294509092506000916119999190600160801b90046001600160801b0316615615565b90506119a481613cd5565b60cf80546001600160801b03808416600160801b029116179055600060e1556119cc836135e6565b60ce805462010000600160781b031916620100006001600160681b0386160217905560d080546001600160801b03169055600060d181905560d354905b60d7548110156118bd5760d954611a1f576118bd565b600060d95460d8600060d78581548110611a4957634e487b7160e01b600052603260045260246000fd5b60009182526020808320909101546001600160a01b03168352820192909252604001902054611a87906001600160801b03610100909104168561574b565b611a91919061564c565b905080611a9e5750611b56565b611ae960d78381548110611ac257634e487b7160e01b600052603260045260246000fd5b60009182526020909120015460cc5461010090046001600160a01b03908116911683612e80565b60d78281548110611b0a57634e487b7160e01b600052603260045260246000fd5b600091825260209182902001546040518381526001600160a01b03909116917f88af4e011812ac0591fac38c5d6532fd401d8fa1fdf20e82b019e78405f42b71910160405180910390a2505b80611b60816157e8565b915050611a09565b6065546001600160a01b03163314611b925760405162461bcd60e51b8152600401610cad906154f1565b60008163ffffffff1611611bce5760405162461bcd60e51b815260206004820152600360248201526229189b60e91b6044820152606401610cad565b60d25463ffffffff16158015611bf7575060d25463ffffffff600160401b909104811690821611155b80611c0e575060d25463ffffffff90811690821611155b611c405760405162461bcd60e51b815260206004820152600360248201526252313760e81b6044820152606401610cad565b60d2805467ffffffff00000000191664010000000063ffffffff848116918202929092179283905560408051600160601b909404909216835260208301527ff0d4e95ace3c30a9f74264435d024aee7c24e0a24d5f2dc0b2f097778d19944391015b60405180910390a150565b6065546001600160a01b03163314611cd75760405162461bcd60e51b8152600401610cad906154f1565b60e280546001600160a01b0319166001600160a01b0392909216919091179055565b33600090815260d8602052604090205461010090046001600160801b0316611d485760405162461bcd60e51b8152602060048201526002602482015261523560f01b6044820152606401610cad565b611d5181613d1f565b50565b60db546001600160a01b03163314611d935760405162461bcd60e51b8152602060048201526002602482015261291b60f11b6044820152606401610cad565b611d5181613deb565b60d6546001600160a01b03163314611ddb5760405162461bcd60e51b8152602060048201526002602482015261148d60f21b6044820152606401610cad565b60d054600160801b90046001600160801b03161580611e27575060d25460d054611e2391600160601b900463ffffffff1690600160401b900467ffffffffffffffff16615615565b4210155b611e595760405162461bcd60e51b8152602060048201526003602482015262148ccd60ea1b6044820152606401610cad565b60d254600090611e7f9063ffffffff600160601b8204811691600160401b90041661564c565b60d454611e8c919061564c565b60d080549192508291601090611eb3908490600160801b90046001600160801b03166155ea565b92506101000a8154816001600160801b0302191690836001600160801b031602179055506201518042611ee69190615803565b611ef0904261576a565b611efc90617080615615565b60d0805467ffffffffffffffff92909216600160401b026fffffffffffffffff00000000000000001990921691909117905560db5460cc54611f51916101009091046001600160a01b03908116911683612e80565b60db546040518281526001600160a01b03909116907f4c40d030ff61ad9fddd7e91383af2b30e967a5d96e128382a8b24130d6dee72e9060200160405180910390a250565b6065546001600160a01b03163314611fc05760405162461bcd60e51b8152600401610cad906154f1565b60dc546001600160a01b0316611ffe5760405162461bcd60e51b815260206004820152600360248201526252353160e81b6044820152606401610cad565b60dc805460db80546001600160a01b03199081166001600160a01b03841617909155169055565b600260015414156120485760405162461bcd60e51b8152600401610cad90615526565b600260018190555061205c60006001613e6e565b60018055565b6065546001600160a01b0316331461208c5760405162461bcd60e51b8152600401610cad906154f1565b61209a620f4240606461574b565b81106120ce5760405162461bcd60e51b815260206004820152600360248201526229189960e91b6044820152606401610cad565b60de5460408051918252602082018390527f24867dfb6fcb9970a07be21024956524abe7a1837faa903ff0e99aaa40cf893e910160405180910390a160de55565b6065546001600160a01b031633146121395760405162461bcd60e51b8152600401610cad906154f1565b6121436000614003565b565b60db546001600160a01b031633146121845760405162461bcd60e51b8152602060048201526002602482015261291b60f11b6044820152606401610cad565b60cc5460405163d505accf60e01b81526101009091046001600160a01b03169063d505accf906121c490339030908a908a908a908a908a9060040161537e565b600060405180830381600087803b1580156121de57600080fd5b505af11580156121f2573d6000803e3d6000fd5b505050506121ff85613deb565b5050505050565b60d7818154811061221657600080fd5b6000918252602090912001546001600160a01b0316905081565b600260015414156122535760405162461bcd60e51b8152600401610cad90615526565b600260015561226181614055565b8060e15461226f9190615615565b60e1555060018055565b6065546001600160a01b031633146122a35760405162461bcd60e51b8152600401610cad906154f1565b6001600160a01b0381166122de5760405162461bcd60e51b8152602060048201526002602482015261523960f01b6044820152606401610cad565b60db54604080516001600160a01b03928316815291831660208301527f99e10f8286c53ce42e5bb9937b70f356c0733bf7f652059231239a1b9f12ef96910160405180910390a160dc80546001600160a01b0319166001600160a01b03929092169190911790554260dd55565b6060609b8054610e6a906157ad565b600061238a61236860995490565b6123706125fc565b60cf5460cc546001600160801b039091169060ff166138df565b905090565b3360009081526098602090815260408083206001600160a01b0386168452909152812054828110156124115760405162461bcd60e51b815260206004820152602560248201527f45524332303a2064656372656173656420616c6c6f77616e63652062656c6f77604482015264207a65726f60d81b6064820152608401610cad565b61241e3385858403612ee8565b5060019392505050565b6002600154141561244b5760405162461bcd60e51b8152600401610cad90615526565b600260015560e3546001600160a01b03168061246657600080fd5b6000821161247357600080fd5b336000908152609760205260409020548281101561249f5761249f612498828561576a565b6000613e6e565b6124aa33308561300c565b6124b5308385612ee8565b6040516383df674760e01b815260048101849052336024820152600060448201526001600160a01b038316906383df674790606401600060405180830381600087803b15801561250457600080fd5b505af1158015612518573d6000803e3d6000fd5b5050600180555050505050565b6000610efa33848461300c565b33600090815260d8602052604090205461010090046001600160801b03166125815760405162461bcd60e51b8152602060048201526002602482015261523560f01b6044820152606401610cad565b60cc5460405163d505accf60e01b81526101009091046001600160a01b03169063d505accf906125c190339030908a908a908a908a908a9060040161537e565b600060405180830381600087803b1580156125db57600080fd5b505af11580156125ef573d6000803e3d6000fd5b505050506121ff85613d1f565b60d35460d15460009190829082106126165760d154612618565b815b60cc546040516370a0823160e01b815230600482015291925082916101009091046001600160a01b0316906370a082319060240160206040518083038186803b15801561266457600080fd5b505afa158015612678573d6000803e3d6000fd5b505050506040513d601f19601f8201168201806040525081019061269c91906150a3565b6126a69084615615565b6126b0919061576a565b9250505090565b600260015414156126da5760405162461bcd60e51b8152600401610cad90615526565b6002600155806126fc5760405162461bcd60e51b8152600401610cad906154d4565b6127068133613630565b60cc546127239061010090046001600160a01b03163330846138a7565b5060018055565b60e2546001600160a01b03168061274057600080fd5b61274c60006001613e6e565b3360008181526097602052604090205490612768908383612ee8565b60405163c9c2d4f560e01b8152336004820152602481018290526001600160a01b0383169063c9c2d4f590604401600060405180830381600087803b1580156127b057600080fd5b505af11580156127c4573d6000803e3d6000fd5b505050505050565b60008060006127da84612b08565b90925090506116a48183615615565b6065546001600160a01b031633146128135760405162461bcd60e51b8152600401610cad906154f1565b6001600160a01b03811661284e5760405162461bcd60e51b8152602060048201526002602482015261523760f01b6044820152606401610cad565b60d680546001600160a01b0319166001600160a01b0392909216919091179055565b600260015414156128935760405162461bcd60e51b8152600401610cad90615526565b6002600155806128cb5760405162461bcd60e51b815260206004820152600360248201526252323960e81b6044820152606401610cad565b612723816000613e6e565b6065546001600160a01b031633146129005760405162461bcd60e51b8152600401610cad906154f1565b6001600160a01b03811661293b5760405162461bcd60e51b81526020600482015260026024820152610a4760f31b6044820152606401610cad565b60d580546001600160a01b0319166001600160a01b0392909216919091179055565b6065546001600160a01b031633146129875760405162461bcd60e51b8152600401610cad906154f1565b6001600160a01b0381166129ec5760405162461bcd60e51b815260206004820152602660248201527f4f776e61626c653a206e6577206f776e657220697320746865207a65726f206160448201526564647265737360d01b6064820152608401610cad565b611d5181614003565b6065546001600160a01b03163314612a1f5760405162461bcd60e51b8152600401610cad906154f1565b620f4240612a2d828461562d565b63ffffffff161115612a675760405162461bcd60e51b8152602060048201526003602482015262148c4d60ea1b6044820152606401610cad565b60d25460408051600160801b830463ffffffff90811682528581166020830152600160a01b9093048316818301529183166060830152517fc5b13904dad0762d636763061410ff20f86e9d21359fe8c2b1decacfc9bdd7539181900360800190a160d2805467ffffffffffffffff60801b1916600160801b63ffffffff9485160263ffffffff60a01b191617600160a01b9290931691909102919091179055565b6001600160a01b038116600090815260c9602090815260408083208151606081018352905461ffff81168083526201000082046001600160681b031694830194909452600160781b90046001600160801b031691810191909152829160011115612b8a575050506001600160a01b031660009081526097602052604081205491565b60ce54815161ffff908116600090815260ca602052604081205460cc549193612bbb9386939116919060ff166141e9565b9050612bdc856001600160a01b031660009081526097602052604090205490565b9590945092505050565b6065546001600160a01b03163314612c105760405162461bcd60e51b8152600401610cad906154f1565b620151808163ffffffff161015612c4f5760405162461bcd60e51b815260206004820152600360248201526252313560e81b6044820152606401610cad565b60d2805463ffffffff191663ffffffff8381169182179283905560408051600160401b909404909116835260208301919091527fd323e49efbd1e497c4f485723f1434c9b8294a325ad121e48fdb4c1cfacea7359101611ca2565b60026001541415612ccd5760405162461bcd60e51b8152600401610cad90615526565b60026001556000612cdc61425a565b905060008111612d145760405162461bcd60e51b81526020600482015260036024820152620a464760eb1b6044820152606401610cad565b8060e054612d22919061576a565b6001600160801b031660e05560cc546127239061010090046001600160a01b03163383612e80565b6065546001600160a01b03163314612d745760405162461bcd60e51b8152600401610cad906154f1565b612d8084848484613333565b50504260da555050565b6065546001600160a01b03163314612db45760405162461bcd60e51b8152600401610cad906154f1565b612dc2620f4240606461574b565b8110612df65760405162461bcd60e51b815260206004820152600360248201526252313160e81b6044820152606401610cad565b60d254600090600160401b900463ffffffff16612e1a620f42406301e1338061574b565b612e24919061564c565b612e31620f42408461574b565b612e3b919061564c565b60df5460408051918252602082018390529192507f4e874b007ab14f7e263baefd44951834c8266f4f224d1092e49e9c254354cc54910160405180910390a160df5550565b6040516001600160a01b038316602482015260448101829052612ee390849063a9059cbb60e01b906064015b60408051601f198184030181529190526020810180516001600160e01b03166001600160e01b0319909316929092179091526143a0565b505050565b6001600160a01b038316612f4a5760405162461bcd60e51b8152602060048201526024808201527f45524332303a20617070726f76652066726f6d20746865207a65726f206164646044820152637265737360e01b6064820152608401610cad565b6001600160a01b038216612fab5760405162461bcd60e51b815260206004820152602260248201527f45524332303a20617070726f766520746f20746865207a65726f206164647265604482015261737360f01b6064820152608401610cad565b6001600160a01b0383811660008181526098602090815260408083209487168084529482529182902085905590518481527f8c5be1e5ebec7d5bd14f71427d1e84f3dd0314c0f7b2291e5b200ac8c7c3b925910160405180910390a3505050565b6001600160a01b0383166130705760405162461bcd60e51b815260206004820152602560248201527f45524332303a207472616e736665722066726f6d20746865207a65726f206164604482015264647265737360d81b6064820152608401610cad565b6001600160a01b0382166130d25760405162461bcd60e51b815260206004820152602360248201527f45524332303a207472616e7366657220746f20746865207a65726f206164647260448201526265737360e81b6064820152608401610cad565b6001600160a01b0383166000908152609760205260409020548181101561314a5760405162461bcd60e51b815260206004820152602660248201527f45524332303a207472616e7366657220616d6f756e7420657863656564732062604482015265616c616e636560d01b6064820152608401610cad565b6001600160a01b03808516600090815260976020526040808220858503905591851681529081208054849290613181908490615615565b92505081905550826001600160a01b0316846001600160a01b03167fddf252ad1be2c89b69c2b068fc378daa952ba7f163c4a11628f55a4df523b3ef846040516131cd91815260200190565b60405180910390a3611596565b600054610100900460ff16806131f3575060005460ff16155b61320f5760405162461bcd60e51b8152600401610cad90615486565b600054610100900460ff16158015613231576000805461ffff19166101011790555b613239614472565b8015611d51576000805461ff001916905550565b600054610100900460ff1680613266575060005460ff16155b6132825760405162461bcd60e51b8152600401610cad90615486565b600054610100900460ff161580156132a4576000805461ffff19166101011790555b6132ac6144e1565b6132b6838361454b565b8015612ee3576000805461ff0019169055505050565b600054610100900460ff16806132e5575060005460ff16155b6133015760405162461bcd60e51b8152600401610cad90615486565b600054610100900460ff16158015613323576000805461ffff19166101011790555b61332b6144e1565b6132396145e0565b828181146133695760405162461bcd60e51b815260206004820152600360248201526205234360ec1b6044820152606401610cad565b60005b818110156135a157600086868381811061339657634e487b7160e01b600052603260045260246000fd5b90506020020160208101906133ab9190614eb2565b6001600160a01b031614156133bf5761358f565b60d860008787848181106133e357634e487b7160e01b600052603260045260246000fd5b90506020020160208101906133f89190614eb2565b6001600160a01b0316815260208101919091526040016000205460ff166134e65760d786868381811061343b57634e487b7160e01b600052603260045260246000fd5b90506020020160208101906134509190614eb2565b81546001808201845560009384526020842090910180546001600160a01b0319166001600160a01b0393909316929092179091559060d8908888858181106134a857634e487b7160e01b600052603260045260246000fd5b90506020020160208101906134bd9190614eb2565b6001600160a01b031681526020810191909152604001600020805460ff19169115159190911790555b83838281811061350657634e487b7160e01b600052603260045260246000fd5b905060200201602081019061351b9190615071565b60d8600088888581811061353f57634e487b7160e01b600052603260045260246000fd5b90506020020160208101906135549190614eb2565b6001600160a01b03168152602081019190915260400160002060010180546001600160801b0319166001600160801b03929092169190911790555b80613599816157e8565b91505061336c565b507fc8616977b27865a3d83403e8b0eef76d389fc3f711f2bf5bcf0b4399b33d1509858585856040516135d794939291906153bf565b60405180910390a15050505050565b6001600160681b03811115611d515760405162461bcd60e51b815260206004820152601060248201526f13dd995c999b1bddc81d5a5b9d0c4c0d60821b6044820152606401610cad565b60ce5461ffff166000836136426125fc565b61364c9190615615565b60cd549091506001600160681b03168111156136905760405162461bcd60e51b815260206004820152600360248201526229191960e91b6044820152606401610cad565b60cc54600160a81b900466ffffffffffffff168110156136d85760405162461bcd60e51b815260206004820152600360248201526252323360e81b6044820152606401610cad565b60408051858152602081018490526001600160a01b038516917f90890809c654f11d6e72a28fa60149770a0d11ec6c92319d6ceb2bb0a4ea1a15910160405180910390a26001600160a01b038316600090815260c9602090815260408083208151606081018352905461ffff81168083526201000082046001600160681b031683860152600160781b9091046001600160801b031682840152845260ca90925282205460cc5491929161379291849187919060ff166141e9565b8251909150869061ffff168514156137c35760008784602001516001600160681b03166137bf9190615615565b9150505b6137cc816135e6565b6040805160608101825261ffff80881682526001600160681b0380851660208085019182526001600160801b038089168688019081526001600160a01b038e16600090815260c990935296822095518654935197518216600160781b02600160781b600160f81b03199890951662010000026effffffffffffffffffffffffffffff1990941695169490941791909117949094161790915560cf54613873918a9116615615565b905061387e81613cd5565b60cf80546001600160801b0319166001600160801b039290921691909117905550505050505050565b6040516001600160a01b03808516602483015283166044820152606481018290526115969085906323b872dd60e01b90608401612eac565b6000806138ed83600a6156a3565b9050600086116138fd578061391c565b85613908858761576a565b613912908361574b565b61391c919061564c565b9695505050505050565b6000600183116139705760405162461bcd60e51b8152602060048201526015602482015274496e76616c6964206173736574506572536861726560581b6044820152606401610cad565b61397b82600a6156a3565b613985848661574b565b6116a4919061564c565b60d25460d05460009182916139bb91600160401b900463ffffffff169067ffffffffffffffff16615615565b4210156139f05760405162461bcd60e51b815260206004820152600360248201526252333960e81b6044820152606401610cad565b60d5546040805160e08101825260cc5460ff8116825291516370a0823160e01b81523060048201526001600160a01b039384169360009384938493849373__$2abc2342da0ef81c8a62da4073b4b8c831$__93632b8b58cf9360ce9390926020840192610100900416906370a082319060240160206040518083038186803b158015613a7b57600080fd5b505afa158015613a8f573d6000803e3d6000fd5b505050506040513d601f19601f82011682018060405250810190613ab391906150a3565b8152602001613ac160995490565b815260200160e054815260200160de54815260200160df54815260200160e1548152506040518363ffffffff1660e01b8152600401613b5292919060006101008201905083825282516020830152602083015160408301526040830151606083015260608301516080830152608083015160a083015260a083015160c083015260c083015160e08301529392505050565b60c06040518083038186803b158015613b6a57600080fd5b505af4158015613b7e573d6000803e3d6000fd5b505050506040513d601f19601f82011682018060405250810190613ba291906150df565b60ce5461ffff16600081815260ca60209081526040918290208790558151858152908101849052908101829052969d50949b50919850965094509250906001600160a01b038716907f0a242f7ecaf711036ca770774ceffae28e60ef042ac113ddd187f2631db0c0069060600160405180910390a260cf80546001600160801b0319169055613c32816001615615565b60ce805461ffff191661ffff92909216919091179055613c556201518042615803565b613c5f904261576a565b613c6b90617080615615565b60d0805467ffffffffffffffff191667ffffffffffffffff9290921691909117905550613c9a90503084614640565b8015613cbc5760cc54613cbc9061010090046001600160a01b03168583612e80565b613cc58661471f565b613ccd6148d6565b505050509091565b6001600160801b03811115611d515760405162461bcd60e51b815260206004820152601060248201526f09eeccae4ccd8deee40ead2dce86264760831b6044820152606401610cad565b60cc54613d3c9061010090046001600160a01b03163330846138a7565b60d95433600090815260d8602052604081205460d354919291613d6d9161010090046001600160801b03169061574b565b613d77919061564c565b90508160ce6003016000828254613d8e9190615615565b909155503390507f68fdeed3f1a82d492cf10b1608f9eb8c69f1a1d9f58c952fb01f9325c9e140f383838111613dc5576000613dcf565b613dcf848661576a565b6040805192835260208301919091520160405180910390a25050565b60cc54613e089061010090046001600160a01b03163330846138a7565b60d254600090613e2e9063ffffffff600160601b8204811691600160401b90041661564c565b60d454613e3b919061564c565b9050337f0f6ba811ab59ff1520dd0aa40c3591aeb13d418d5d2bcf79b5f819a3634ed59583838111613dc5576000613dcf565b33600090815260c9602090815260408083208151606081018352905461ffff8082168084526201000083046001600160681b031684870152600160781b9092046001600160801b03168385015260ce5491865260ca9094529184205460cc5491949290931692613ee4918591859160ff166141e9565b905083613ef15784613ef3565b805b945084613f01575050505050565b80851115613f375760405162461bcd60e51b815260206004820152600360248201526205233360ec1b6044820152606401610cad565b825161ffff16821115613f645733600090815260c960205260409020805462010000600160781b03191690555b613f6d85613cd5565b613f77858261576a565b33600081815260c960205260409081902080546001600160801b0394909416600160781b02600160781b600160f81b0319909416939093179092558451915190917fe5b754fb1abb7f01b499791d0b820ae3b6af3424ac1c59768edb53f4ec31a92991613ff09189825261ffff16602082015260400190565b60405180910390a26121ff30338761300c565b606580546001600160a01b038381166001600160a01b0319831681179093556040519116919082907f8be0079c531659141344cd1fd0a4f28419497f9722a3daafe3b4186f6b6457e090600090a35050565b6000811161408b5760405162461bcd60e51b8152602060048201526003602482015262148c8d60ea1b6044820152606401610cad565b33600090815260c960205260409020546201000090046001600160681b03161515806140d5575033600090815260c96020526040902054600160781b90046001600160801b031615155b156140e6576140e660006001613e6e565b60ce5433600081815260cb60209081526040918290208054835187815261ffff96871693810184905292959194911685149290917f0c53c82ad07e2d592d88ece3b066777dd60f1118e2a081b380efc4358f0d9e2a910160405180910390a281546201000090046001600160801b03166000821561416f576141688683615615565b90506141b5565b81156141a35760405162461bcd60e51b815260206004820152600360248201526252323560e81b6044820152606401610cad565b50825461ffff191661ffff8516178355845b6141be81613cd5565b835462010000600160901b031916620100006001600160801b038316021784556127c433308861300c565b835160009061ffff16158015906142045750845161ffff1684115b1561424657600061422386602001516001600160681b03168585614aef565b90508086604001516001600160801b031661423e9190615615565b9150506116a4565b50505050604001516001600160801b031690565b33600090815260cb6020526040812080546001600160801b03620100008204169061ffff16816142b25760405162461bcd60e51b815260206004820152600360248201526229191b60e91b6044820152606401610cad565b60ce5461ffff1681106142ed5760405162461bcd60e51b815260206004820152600360248201526252323760e81b6044820152606401610cad565b825462010000600160901b031916835560cf5461431b908390600160801b90046001600160801b031661576a565b60cf80546001600160801b03928316600160801b029216919091179055600081815260ca602052604081205460cc5461435891859160ff16613926565b604080518281526020810186905291925033917ff279e6a1f5e320cca91135676d9cb6e44ca8a08c0b88342bcdb1144f6511b568910160405180910390a26116a43084614b4f565b60006143f5826040518060400160405280602081526020017f5361666545524332303a206c6f772d6c6576656c2063616c6c206661696c6564815250856001600160a01b0316614c9d9092919063ffffffff16565b805190915015612ee357808060200190518101906144139190614fda565b612ee35760405162461bcd60e51b815260206004820152602a60248201527f5361666545524332303a204552433230206f7065726174696f6e20646964206e6044820152691bdd081cdd58d8d9595960b21b6064820152608401610cad565b600054610100900460ff168061448b575060005460ff16155b6144a75760405162461bcd60e51b8152600401610cad90615486565b600054610100900460ff161580156144c9576000805461ffff19166101011790555b600180558015611d51576000805461ff001916905550565b600054610100900460ff16806144fa575060005460ff16155b6145165760405162461bcd60e51b8152600401610cad90615486565b600054610100900460ff16158015613239576000805461ffff19166101011790558015611d51576000805461ff001916905550565b600054610100900460ff1680614564575060005460ff16155b6145805760405162461bcd60e51b8152600401610cad90615486565b600054610100900460ff161580156145a2576000805461ffff19166101011790555b82516145b590609a906020860190614da8565b5081516145c990609b906020850190614da8565b508015612ee3576000805461ff0019169055505050565b600054610100900460ff16806145f9575060005460ff16155b6146155760405162461bcd60e51b8152600401610cad90615486565b600054610100900460ff16158015614637576000805461ffff19166101011790555b61323933614003565b6001600160a01b0382166146965760405162461bcd60e51b815260206004820152601f60248201527f45524332303a206d696e7420746f20746865207a65726f2061646472657373006044820152606401610cad565b80609960008282546146a89190615615565b90915550506001600160a01b038216600090815260976020526040812080548392906146d5908490615615565b90915550506040518181526001600160a01b038316906000907fddf252ad1be2c89b69c2b068fc378daa952ba7f163c4a11628f55a4df523b3ef9060200160405180910390a35050565b604080516101008101825260d25463ffffffff808216808452640100000000830482166020850152600160401b8304821694840194909452600160601b820481166060840152600160801b820481166080840152600160a01b9091041660a082015260d35460c082015260d45460e082015290156148335760df546040820151825163ffffffff918216916147b591168361574b565b6147bf919061564c565b60df819055825160d280546bffffffff00000000ffffffff1916600160401b63ffffffff9093169290920263ffffffff19169190911790556040805183815260208101929092527f4e874b007ab14f7e263baefd44951834c8266f4f224d1092e49e9c254354cc54910160405180910390a1505b602081015163ffffffff161561488257602081015160d280546fffffffff00000000ffffffff000000001916600160601b63ffffffff9093169290920267ffffffff0000000019169190911790555b6080810151620f42409061489d90849063ffffffff1661574b565b6148a7919061564c565b60d35560a0810151620f4240906148c590849063ffffffff1661574b565b6148cf919061564c565b60d4555050565b60da546148e6906203f480615615565b42101561491b5760405162461bcd60e51b815260206004820152600360248201526205231360ec1b6044820152606401610cad565b60005b60d754811015614ab157600060d8600060d7848154811061494f57634e487b7160e01b600052603260045260246000fd5b6000918252602080832091909101546001600160a01b0316835282019290925260400181205460d780546101009092046001600160801b0316935060d891839190869081106149ae57634e487b7160e01b600052603260045260246000fd5b60009182526020808320909101546001600160a01b031683528201929092526040019020600101546001600160801b03908116915082168114614a9c578060d8600060d78681548110614a1157634e487b7160e01b600052603260045260246000fd5b6000918252602080832091909101546001600160a01b031683528201929092526040018120805470ffffffffffffffffffffffffffffffff0019166101006001600160801b039485160217905560d9805492841692909190614a74908490615615565b92505081905550816001600160801b031660d96000828254614a96919061576a565b90915550505b50508080614aa9906157e8565b91505061491e565b507f35f63f8d8ef81a02b50e77faab37344f335fcc256a197cbaa15cd5ab8835aa0660d954604051614ae591815260200190565b60405180910390a1565b600060018311614b395760405162461bcd60e51b8152602060048201526015602482015274496e76616c6964206173736574506572536861726560581b6044820152606401610cad565b82614b4583600a6156a3565b613985908661574b565b6001600160a01b038216614baf5760405162461bcd60e51b815260206004820152602160248201527f45524332303a206275726e2066726f6d20746865207a65726f206164647265736044820152607360f81b6064820152608401610cad565b6001600160a01b03821660009081526097602052604090205481811015614c235760405162461bcd60e51b815260206004820152602260248201527f45524332303a206275726e20616d6f756e7420657863656564732062616c616e604482015261636560f01b6064820152608401610cad565b6001600160a01b0383166000908152609760205260408120838303905560998054849290614c5290849061576a565b90915550506040518281526000906001600160a01b038516907fddf252ad1be2c89b69c2b068fc378daa952ba7f163c4a11628f55a4df523b3ef9060200160405180910390a3505050565b60606116a4848460008585843b614cf65760405162461bcd60e51b815260206004820152601d60248201527f416464726573733a2063616c6c20746f206e6f6e2d636f6e74726163740000006044820152606401610cad565b600080866001600160a01b03168587604051614d12919061527d565b60006040518083038185875af1925050503d8060008114614d4f576040519150601f19603f3d011682016040523d82523d6000602084013e614d54565b606091505b5091509150614d64828286614d6f565b979650505050505050565b60608315614d7e575081610fa9565b825115614d8e5782518084602001fd5b8160405162461bcd60e51b8152600401610cad9190615453565b828054614db4906157ad565b90600052602060002090601f016020900481019282614dd65760008555614e1c565b82601f10614def57805160ff1916838001178555614e1c565b82800160010185558215614e1c579182015b82811115614e1c578251825591602001919060010190614e01565b50614e28929150614e2c565b5090565b5b80821115614e285760008155600101614e2d565b60008083601f840112614e52578182fd5b50813567ffffffffffffffff811115614e69578182fd5b6020830191508360208260051b8501011115614e8457600080fd5b9250929050565b80356001600160801b0381168114614ea257600080fd5b919050565b8035614ea281615a6f565b600060208284031215614ec3578081fd5b8135610fa981615a45565b60008060408385031215614ee0578081fd5b8235614eeb81615a45565b91506020830135614efb81615a45565b809150509250929050565b600080600060608486031215614f1a578081fd5b8335614f2581615a45565b92506020840135614f3581615a45565b929592945050506040919091013590565b60008060408385031215614f58578182fd5b8235614f6381615a45565b946020939093013593505050565b60008060008060408587031215614f86578081fd5b843567ffffffffffffffff80821115614f9d578283fd5b614fa988838901614e41565b90965094506020870135915080821115614fc1578283fd5b50614fce87828801614e41565b95989497509550505050565b600060208284031215614feb578081fd5b81518015158114610fa9578182fd5b60008060008385036101a0811215615010578384fd5b843567ffffffffffffffff811115615026578485fd5b85016101408188031215615038578485fd5b93506080601f198201121561504b578283fd5b602085019250610100609f1982011215615063578182fd5b5060a0840190509250925092565b600060208284031215615082578081fd5b610fa982614e8b565b60006020828403121561509c578081fd5b5035919050565b6000602082840312156150b4578081fd5b5051919050565b600080604083850312156150cd578182fd5b823591506020830135614efb81615a45565b60008060008060008060c087890312156150f7578384fd5b865195506020870151945060408701519350606087015192506080870151915060a087015190509295509295509295565b600080600080600060a0868803121561513f578283fd5b8535945060208601359350604086013561515881615a96565b94979396509394606081013594506080013592915050565b600060208284031215615181578081fd5b8135610fa981615a6f565b6000806040838503121561519e578182fd5b82356151a981615a6f565b91506020830135614efb81615a6f565b81835281816020850137506000828201602090810191909152601f909101601f19169091010190565b80356151ed81615a6f565b63ffffffff908116835260208201359061520682615a6f565b908116602084015260408201359061521d82615a6f565b908116604084015260608201359061523482615a6f565b16606083015261524660808201614ea7565b63ffffffff16608083015261525d60a08201614ea7565b63ffffffff1660a083015260c0818101359083015260e090810135910152565b6000825161528f818460208701615781565b9190910192915050565b600060018060a01b03808f168352808e166020840152808d1660408401528b60608401528a608084015261028060a08401526152da61028084018a8c6151b9565b83810360c08501526152ed81898b6151b9565b92505085356152fb81615a96565b60ff1660e0840152602086013561531181615a45565b16610100830152604085013561532681615a81565b66ffffffffffffff16610120830152606085013561534381615a5a565b6001600160681b03166101408301526153606101608301856151e2565b63ffffffff83166102608301529d9c50505050505050505050505050565b6001600160a01b0397881681529590961660208601526040850193909352606084019190915260ff16608083015260a082015260c081019190915260e00190565b6040808252810184905260008560608301825b878110156154025782356153e581615a45565b6001600160a01b03168252602092830192909101906001016153d2565b50838103602085810191909152858252915085908201835b86811015615446576001600160801b0361543384614e8b565b168252918301919083019060010161541a565b5098975050505050505050565b6020815260008251806020840152615472816040850160208701615781565b601f01601f19169190910160400192915050565b6020808252602e908201527f496e697469616c697a61626c653a20636f6e747261637420697320616c72656160408201526d191e481a5b9a5d1a585b1a5e995960921b606082015260800190565b60208082526003908201526252323160e81b604082015260600190565b6020808252818101527f4f776e61626c653a2063616c6c6572206973206e6f7420746865206f776e6572604082015260600190565b6020808252601f908201527f5265656e7472616e637947756172643a207265656e7472616e742063616c6c00604082015260600190565b6000808335601e19843603018112615573578283fd5b83018035915067ffffffffffffffff82111561558d578283fd5b6020019150600581901b3603821315614e8457600080fd5b6000808335601e198436030181126155bb578283fd5b83018035915067ffffffffffffffff8211156155d5578283fd5b602001915036819003821315614e8457600080fd5b60006001600160801b0380831681851680830382111561560c5761560c615817565b01949350505050565b6000821982111561562857615628615817565b500190565b600063ffffffff80831681851680830382111561560c5761560c615817565b60008261565b5761565b61582d565b500490565b600181815b8085111561569b57816000190482111561568157615681615817565b8085161561568e57918102915b93841c9390800290615665565b509250929050565b6000610fa983836000826156b957506001610efe565b816156c657506000610efe565b81600181146156dc57600281146156e657615702565b6001915050610efe565b60ff8411156156f7576156f7615817565b50506001821b610efe565b5060208310610133831016604e8410600b8410161715615725575081810a610efe565b61572f8383615660565b806000190482111561574357615743615817565b029392505050565b600081600019048311821515161561576557615765615817565b500290565b60008282101561577c5761577c615817565b500390565b60005b8381101561579c578181015183820152602001615784565b838111156115965750506000910152565b600181811c908216806157c157607f821691505b602082108114156157e257634e487b7160e01b600052602260045260246000fd5b50919050565b60006000198214156157fc576157fc615817565b5060010190565b6000826158125761581261582d565b500690565b634e487b7160e01b600052601160045260246000fd5b634e487b7160e01b600052601260045260246000fd5b60008135610efe81615a6f565b813561585b81615a6f565b63ffffffff8116905081548163ffffffff198216178355602084013561588081615a6f565b67ffffffff000000008160201b168367ffffffffffffffff198416171784555050506158db6158b160408401615843565b82546bffffffff0000000000000000191660409190911b6bffffffff000000000000000016178255565b61590e6158ea60608401615843565b82805463ffffffff60601b191660609290921b63ffffffff60601b16919091179055565b61594161591d60808401615843565b82805463ffffffff60801b191660809290921b63ffffffff60801b16919091179055565b61597461595060a08401615843565b82805463ffffffff60a01b191660a09290921b63ffffffff60a01b16919091179055565b60c0820135600182015560e082013560028201555050565b813561599781615a96565b60ff8116905081548160ff19821617835560208401356159b681615a45565b610100600160a81b0360089190911b166001600160a81b0319821683178117845560408501356159e581615a81565b6001600160e01b0319929092169092179190911760a89190911b66ffffffffffffff60a81b16178155600181016060830135615a2081615a5a565b81546cffffffffffffffffffffffffff19166001600160681b03919091161790555050565b6001600160a01b0381168114611d5157600080fd5b6001600160681b0381168114611d5157600080fd5b63ffffffff81168114611d5157600080fd5b66ffffffffffffff81168114611d5157600080fd5b60ff81168114611d5157600080fdfea2646970667358221220a25ff173480fcf0e9e70cb4246c2b18d834a2c7ca39de9576f573216ccd6889164736f6c63430008040033",
  "libraries": {
    "VaultLifecycleEarn": "0x35fd2E2F59F24f002BF69eD055DF595228D1c3D4"
  },
  "devdoc": {
    "kind": "dev",
    "methods": {
      "accountVaultBalance(address)": {
        "params": {
          "account": "is the address to lookup balance for"
        },
        "returns": {
          "_0": "the amount of `asset` custodied by the vault for the user"
        }
      },
      "allowance(address,address)": {
        "details": "See {IERC20-allowance}."
      },
      "approve(address,uint256)": {
        "details": "See {IERC20-approve}. Requirements: - `spender` cannot be the zero address."
      },
      "balanceOf(address)": {
        "details": "See {IERC20-balanceOf}."
      },
      "decreaseAllowance(address,uint256)": {
        "details": "Atomically decreases the allowance granted to `spender` by the caller. This is an alternative to {approve} that can be used as a mitigation for problems described in {IERC20-approve}. Emits an {Approval} event indicating the updated allowance. Requirements: - `spender` cannot be the zero address. - `spender` must have allowance for the caller of at least `subtractedValue`."
      },
      "deposit(uint256)": {
        "params": {
          "amount": "is the amount of `asset` to deposit"
        }
      },
      "depositFor(uint256,address)": {
        "params": {
          "amount": "is the amount of `asset` to deposit",
          "creditor": "is the address that can claim/withdraw deposited amount"
        }
      },
      "depositWithPermit(uint256,uint256,uint8,bytes32,bytes32)": {
        "params": {
          "amount": "is the amount of `asset` to deposit",
          "deadline": "must be a timestamp in the future",
          "r": "is a valid signature",
          "s": "is a valid signature",
          "v": "is a valid signature"
        }
      },
      "increaseAllowance(address,uint256)": {
        "details": "Atomically increases the allowance granted to `spender` by the caller. This is an alternative to {approve} that can be used as a mitigation for problems described in {IERC20-approve}. Emits an {Approval} event indicating the updated allowance. Requirements: - `spender` cannot be the zero address."
      },
      "initialize((address,address,address[],uint128[],address,address,uint256,uint256,string,string),(uint8,address,uint56,uint104),(uint32,uint32,uint32,uint32,uint32,uint32,uint256,uint256))": {
        "params": {
          "_allocationState": "is the struct with vault loan/option allocation data",
          "_initParams": "is the struct with vault initialization parameters",
          "_vaultParams": "is the struct with vault general data"
        }
      },
      "initiateWithdraw(uint256)": {
        "params": {
          "numShares": "is the number of shares to withdraw"
        }
      },
      "name()": {
        "details": "Returns the name of the token."
      },
      "owner()": {
        "details": "Returns the address of the current owner."
      },
      "payOptionYield(uint256)": {
        "params": {
          "amount": "is the amount of yield to pay"
        }
      },
      "payOptionYield(uint256,uint256,uint8,bytes32,bytes32)": {
        "params": {
          "amount": "is the amount of yield to pay",
          "deadline": "must be a timestamp in the future",
          "r": "is a valid signature",
          "s": "is a valid signature",
          "v": "is a valid signature"
        }
      },
      "recoverTokens(address,address)": {
        "params": {
          "recipient": "is the recipient of the recovered tokens",
          "token": "is the ERC20 token to recover from the vault"
        }
      },
      "redeem(uint256)": {
        "params": {
          "numShares": "is the number of shares to redeem"
        }
      },
      "renounceOwnership()": {
        "details": "Leaves the contract without owner. It will not be possible to call `onlyOwner` functions anymore. Can only be called by the current owner. NOTE: Renouncing ownership will leave the contract without an owner, thereby removing any functionality that is only available to the owner."
      },
      "returnLentFunds(uint256)": {
        "params": {
          "amount": "is the amount to return (principal + interest)"
        }
      },
      "returnLentFunds(uint256,uint256,uint8,bytes32,bytes32)": {
        "params": {
          "amount": "is the amount to return (principal + interest)",
          "deadline": "must be a timestamp in the future",
          "r": "is a valid signature",
          "s": "is a valid signature",
          "v": "is a valid signature"
        }
      },
      "setAllocationPCT(uint32,uint32)": {
        "details": "Can be called by admin",
        "params": {
          "_loanAllocationPCT": "new allocation for loan",
          "_optionAllocationPCT": "new allocation for option"
        }
      },
      "setCap(uint256)": {
        "params": {
          "newCap": "is the new cap for deposits"
        }
      },
      "setFeeRecipient(address)": {
        "params": {
          "newFeeRecipient": "is the address of the new fee recipient"
        }
      },
      "setLiquidityGauge(address)": {
        "params": {
          "newLiquidityGauge": "is the address of the new liquidityGauge contract"
        }
      },
      "setLoanTermLength(uint32)": {
        "details": "Can be called by admin",
        "params": {
          "_loanTermLength": "new loan term length"
        }
      },
      "setManagementFee(uint256)": {
        "params": {
          "newManagementFee": "is the management fee (6 decimals). ex: 2 * 10 ** 6 = 2%"
        }
      },
      "setNewKeeper(address)": {
        "params": {
          "newKeeper": "is the address of the new keeper"
        }
      },
      "setOptionPurchaseFrequency(uint32)": {
        "details": "Can be called by admin",
        "params": {
          "_optionPurchaseFreq": "new option purchase frequency"
        }
      },
      "setOptionSeller(address)": {
        "params": {
          "newOptionSeller": "is the address of the new option seller"
        }
      },
      "setPerformanceFee(uint256)": {
        "params": {
          "newPerformanceFee": "is the performance fee (6 decimals). ex: 20 * 10 ** 6 = 20%"
        }
      },
      "setVaultPauser(address)": {
        "params": {
          "newVaultPauser": "is the address of the new vaultPauser contract"
        }
      },
      "shareBalances(address)": {
        "params": {
          "account": "is the account to lookup share balance for"
        },
        "returns": {
          "heldByAccount": "is the shares held by account",
          "heldByVault": "is the shares held on the vault (unredeemedShares)"
        }
      },
      "shares(address)": {
        "params": {
          "account": "is the account to lookup share balance for"
        },
        "returns": {
          "_0": "the share balance"
        }
      },
      "stake(uint256)": {
        "params": {
          "numShares": "is the number of shares to stake"
        }
      },
      "symbol()": {
        "details": "Returns the symbol of the token, usually a shorter version of the name."
      },
      "totalBalance()": {
        "returns": {
          "_0": "total balance of the vault, including the amounts locked in third party protocols"
        }
      },
      "totalSupply()": {
        "details": "See {IERC20-totalSupply}."
      },
      "transfer(address,uint256)": {
        "details": "See {IERC20-transfer}. Requirements: - `recipient` cannot be the zero address. - the caller must have a balance of at least `amount`."
      },
      "transferFrom(address,address,uint256)": {
        "details": "See {IERC20-transferFrom}. Emits an {Approval} event indicating the updated allowance. This is not required by the EIP. See the note at the beginning of {ERC20}. Requirements: - `sender` and `recipient` cannot be the zero address. - `sender` must have a balance of at least `amount`. - the caller must have allowance for ``sender``'s tokens of at least `amount`."
      },
      "transferOwnership(address)": {
        "details": "Transfers ownership of the contract to a new account (`newOwner`). Can only be called by the current owner."
      },
      "updateBorrowerBasket(address[],uint128[])": {
        "params": {
          "borrowerWeights": "is the array of corresponding borrow weights for the borrower",
          "borrowers": "is the array of borrowers to update"
        }
      },
      "withdrawInstantly(uint256)": {
        "params": {
          "amount": "is the amount to withdraw"
        }
      }
    },
    "version": 1
  },
  "userdoc": {
    "kind": "user",
    "methods": {
      "USDC()": {
        "notice": "USDC 0xA0b86991c6218b36c1d19D4a2e9Eb0cE3606eB48"
      },
      "accountVaultBalance(address)": {
        "notice": "Returns the asset balance held on the vault for the account"
      },
      "allocationState()": {
        "notice": "Vault's state of the allocation between lending and buying options"
      },
      "borrowerWeights(address)": {
        "notice": "borrowerMapping is the mapping from borrower to their borrow weight. EX: {Wintermute -> 0.4, GSR -> 0.2}"
      },
      "borrowers(uint256)": {
        "notice": "borrowers is the array of borrowing addresses (EX: Wintermute, GSR, Alameda, Genesis)"
      },
      "buyOption()": {
        "notice": "Buys the option by transferring premiums to option seller"
      },
      "commitOptionSeller()": {
        "notice": "Commits the option seller"
      },
      "completeWithdraw()": {
        "notice": "Completes a scheduled withdrawal from a past round. Uses finalized pps for the round"
      },
      "currentQueuedWithdrawShares()": {
        "notice": "Queued withdraw shares for the current round"
      },
      "decimals()": {
        "notice": "Returns the token decimals"
      },
      "deposit(uint256)": {
        "notice": "Deposits the `asset` from msg.sender."
      },
      "depositFor(uint256,address)": {
        "notice": "Deposits the `asset` from msg.sender added to `creditor`'s deposit.Used for vault -> vault deposits on the user's behalf"
      },
      "depositReceipts(address)": {
        "notice": "Stores the user's pending deposit for the round"
      },
      "depositWithPermit(uint256,uint256,uint8,bytes32,bytes32)": {
        "notice": "Deposits the `asset` from msg.sender without an approve `v`, `r` and `s` must be a valid `secp256k1` signature from `owner` over the EIP712-formatted function arguments"
      },
      "feeRecipient()": {
        "notice": "Fee recipient for the performance and management fees"
      },
      "initialize((address,address,address[],uint128[],address,address,uint256,uint256,string,string),(uint8,address,uint56,uint104),(uint32,uint32,uint32,uint32,uint32,uint32,uint256,uint256))": {
        "notice": "Initializes the OptionVault contract with storage variables."
      },
      "initiateWithdraw(uint256)": {
        "notice": "Initiates a withdrawal that can be processed once the round completes"
      },
      "keeper()": {
        "notice": "role in charge of weekly vault operations such as rollToNextRound and burnRemainingOTokens"
      },
      "lastBorrowerBasketChange()": {
        "notice": "lastBorrowerBasketChange is the last time the basket of borrowers was changed (add / remove / set)"
      },
      "lastOptionSellerChange()": {
        "notice": "lastOptionSellerChange is the last time option seller was set"
      },
      "lastQueuedWithdrawAmount()": {
        "notice": "Amount locked for scheduled withdrawals last week;"
      },
      "liquidityGauge()": {
        "notice": "LiquidityGauge contract for the vault"
      },
      "managementFee()": {
        "notice": "Management fee charged on entire AUM in rollToNextRound. Only charged when there is no loss."
      },
      "maxRedeem()": {
        "notice": "Redeems the entire unredeemedShares balance that is owed to the account"
      },
      "optionSeller()": {
        "notice": "optionSeller is the address of the entity that we will be buying options from (EX: Orbit)"
      },
      "pausePosition()": {
        "notice": "pause a user's vault position"
      },
      "payOptionYield(uint256)": {
        "notice": "Pays option yield if option is ITM"
      },
      "payOptionYield(uint256,uint256,uint8,bytes32,bytes32)": {
        "notice": "Pays option yield if option is ITM `v`, `r` and `s` must be a valid `secp256k1` signature from `owner` over the EIP712-formatted function arguments"
      },
      "pendingOptionSeller()": {
        "notice": "pendingOptionSeller is the pending address of the entity that we will be buying options from (EX: Orbit)"
      },
      "performanceFee()": {
        "notice": "Performance fee charged on premiums earned in rollToNextRound. Only charged when there is no loss."
      },
      "pricePerShare()": {
        "notice": "The price of a unit of share denominated in the `asset`"
      },
      "recoverTokens(address,address)": {
        "notice": "Recovery function that returns an ERC20 token to the recipient"
      },
      "redeem(uint256)": {
        "notice": "Redeems shares that are owed to the account"
      },
      "returnLentFunds(uint256)": {
        "notice": "Return lend funds"
      },
      "returnLentFunds(uint256,uint256,uint8,bytes32,bytes32)": {
        "notice": "Return lend funds `v`, `r` and `s` must be a valid `secp256k1` signature from `owner` over the EIP712-formatted function arguments"
      },
      "rollToNextRound()": {
        "notice": "Rolls the vault's funds into a new short position."
      },
      "roundPricePerShare(uint256)": {
        "notice": "On every round's close, the pricePerShare value of an rTHETA token is stored This is used to determine the number of shares to be returned to a user with their DepositReceipt.depositAmount"
      },
      "setAllocationPCT(uint32,uint32)": {
        "notice": "Sets new loan and option allocation percentage"
      },
      "setCap(uint256)": {
        "notice": "Sets a new cap for deposits"
      },
      "setFeeRecipient(address)": {
        "notice": "Sets the new fee recipient"
      },
      "setLiquidityGauge(address)": {
        "notice": "Sets the new liquidityGauge contract for this vault"
      },
      "setLoanTermLength(uint32)": {
        "notice": "Sets loan term length"
      },
      "setManagementFee(uint256)": {
        "notice": "Sets the management fee for the vault"
      },
      "setNewKeeper(address)": {
        "notice": "Sets the new keeper"
      },
      "setOptionPurchaseFrequency(uint32)": {
        "notice": "Sets option purchase frequency"
      },
      "setOptionSeller(address)": {
        "notice": "Sets the new option seller"
      },
      "setPerformanceFee(uint256)": {
        "notice": "Sets the performance fee for the vault"
      },
      "setVaultPauser(address)": {
        "notice": "Sets the new Vault Pauser contract for this vault"
      },
      "shareBalances(address)": {
        "notice": "Getter for returning the account's share balance split between account and vault holdings"
      },
      "shares(address)": {
        "notice": "Getter for returning the account's share balance including unredeemed shares"
      },
      "stake(uint256)": {
        "notice": "Stakes a users vault shares"
      },
      "totalBalance()": {
        "notice": "Returns the vault's total balance, including the amounts lent out"
      },
      "totalBorrowerWeight()": {
        "notice": "totalBorrowerWeight is the total borrowing weight"
      },
      "updateBorrowerBasket(address[],uint128[])": {
        "notice": "Updates the basket of borrowers (this overrides current pending update to basket)"
      },
      "vaultParams()": {
        "notice": "Vault's parameters like cap, decimals"
      },
      "vaultPauser()": {
        "notice": "Vault Pauser Contract for the vault"
      },
      "vaultState()": {
        "notice": "Vault's lifecycle state like round and locked amounts"
      },
      "withdrawInstantly(uint256)": {
        "notice": "Withdraws the assets on the vault using the outstanding `DepositReceipt.amount`"
      },
      "withdrawals(address)": {
        "notice": "Stores pending user withdrawals"
      }
    },
    "notice": "UPGRADEABILITY: Since we use the upgradeable proxy pattern, we must observe the inheritance chain closely. Any changes/appends in storage variable needs to happen in RibbonEarnVaultStorage. RibbonEarnVault should not inherit from any other contract aside from RibbonVault, RibbonEarnVaultStorage",
    "version": 1
  },
  "storageLayout": {
    "storage": [
      {
        "astId": 130,
        "contract": "contracts/vaults/EarnVault/RibbonEarnVaultFixedRate.sol:RibbonEarnVaultFixedRate",
        "label": "_initialized",
        "offset": 0,
        "slot": "0",
        "type": "t_bool"
      },
      {
        "astId": 133,
        "contract": "contracts/vaults/EarnVault/RibbonEarnVaultFixedRate.sol:RibbonEarnVaultFixedRate",
        "label": "_initializing",
        "offset": 1,
        "slot": "0",
        "type": "t_bool"
      },
      {
        "astId": 184,
        "contract": "contracts/vaults/EarnVault/RibbonEarnVaultFixedRate.sol:RibbonEarnVaultFixedRate",
        "label": "_status",
        "offset": 0,
        "slot": "1",
        "type": "t_uint256"
      },
      {
        "astId": 227,
        "contract": "contracts/vaults/EarnVault/RibbonEarnVaultFixedRate.sol:RibbonEarnVaultFixedRate",
        "label": "__gap",
        "offset": 0,
        "slot": "2",
        "type": "t_array(t_uint256)49_storage"
      },
      {
        "astId": 947,
        "contract": "contracts/vaults/EarnVault/RibbonEarnVaultFixedRate.sol:RibbonEarnVaultFixedRate",
        "label": "__gap",
        "offset": 0,
        "slot": "51",
        "type": "t_array(t_uint256)50_storage"
      },
      {
        "astId": 10,
        "contract": "contracts/vaults/EarnVault/RibbonEarnVaultFixedRate.sol:RibbonEarnVaultFixedRate",
        "label": "_owner",
        "offset": 0,
        "slot": "101",
        "type": "t_address"
      },
      {
        "astId": 123,
        "contract": "contracts/vaults/EarnVault/RibbonEarnVaultFixedRate.sol:RibbonEarnVaultFixedRate",
        "label": "__gap",
        "offset": 0,
        "slot": "102",
        "type": "t_array(t_uint256)49_storage"
      },
      {
        "astId": 247,
        "contract": "contracts/vaults/EarnVault/RibbonEarnVaultFixedRate.sol:RibbonEarnVaultFixedRate",
        "label": "_balances",
        "offset": 0,
        "slot": "151",
        "type": "t_mapping(t_address,t_uint256)"
      },
      {
        "astId": 253,
        "contract": "contracts/vaults/EarnVault/RibbonEarnVaultFixedRate.sol:RibbonEarnVaultFixedRate",
        "label": "_allowances",
        "offset": 0,
        "slot": "152",
        "type": "t_mapping(t_address,t_mapping(t_address,t_uint256))"
      },
      {
        "astId": 255,
        "contract": "contracts/vaults/EarnVault/RibbonEarnVaultFixedRate.sol:RibbonEarnVaultFixedRate",
        "label": "_totalSupply",
        "offset": 0,
        "slot": "153",
        "type": "t_uint256"
      },
      {
        "astId": 257,
        "contract": "contracts/vaults/EarnVault/RibbonEarnVaultFixedRate.sol:RibbonEarnVaultFixedRate",
        "label": "_name",
        "offset": 0,
        "slot": "154",
        "type": "t_string_storage"
      },
      {
        "astId": 259,
        "contract": "contracts/vaults/EarnVault/RibbonEarnVaultFixedRate.sol:RibbonEarnVaultFixedRate",
        "label": "_symbol",
        "offset": 0,
        "slot": "155",
        "type": "t_string_storage"
      },
      {
        "astId": 800,
        "contract": "contracts/vaults/EarnVault/RibbonEarnVaultFixedRate.sol:RibbonEarnVaultFixedRate",
        "label": "__gap",
        "offset": 0,
        "slot": "156",
        "type": "t_array(t_uint256)45_storage"
      },
      {
        "astId": 3732,
        "contract": "contracts/vaults/EarnVault/RibbonEarnVaultFixedRate.sol:RibbonEarnVaultFixedRate",
        "label": "depositReceipts",
        "offset": 0,
        "slot": "201",
        "type": "t_mapping(t_address,t_struct(DepositReceipt)3257_storage)"
      },
      {
        "astId": 3737,
        "contract": "contracts/vaults/EarnVault/RibbonEarnVaultFixedRate.sol:RibbonEarnVaultFixedRate",
        "label": "roundPricePerShare",
        "offset": 0,
        "slot": "202",
        "type": "t_mapping(t_uint256,t_uint256)"
      },
      {
        "astId": 3743,
        "contract": "contracts/vaults/EarnVault/RibbonEarnVaultFixedRate.sol:RibbonEarnVaultFixedRate",
        "label": "withdrawals",
        "offset": 0,
        "slot": "203",
        "type": "t_mapping(t_address,t_struct(Withdrawal)3262_storage)"
      },
      {
        "astId": 3747,
        "contract": "contracts/vaults/EarnVault/RibbonEarnVaultFixedRate.sol:RibbonEarnVaultFixedRate",
        "label": "vaultParams",
        "offset": 0,
        "slot": "204",
        "type": "t_struct(VaultParams)3214_storage"
      },
      {
        "astId": 3751,
        "contract": "contracts/vaults/EarnVault/RibbonEarnVaultFixedRate.sol:RibbonEarnVaultFixedRate",
        "label": "vaultState",
        "offset": 0,
        "slot": "206",
        "type": "t_struct(VaultState)3250_storage"
      },
      {
        "astId": 3755,
        "contract": "contracts/vaults/EarnVault/RibbonEarnVaultFixedRate.sol:RibbonEarnVaultFixedRate",
        "label": "allocationState",
        "offset": 0,
        "slot": "210",
        "type": "t_struct(AllocationState)3231_storage"
      },
      {
        "astId": 3758,
        "contract": "contracts/vaults/EarnVault/RibbonEarnVaultFixedRate.sol:RibbonEarnVaultFixedRate",
        "label": "feeRecipient",
        "offset": 0,
        "slot": "213",
        "type": "t_address"
      },
      {
        "astId": 3761,
        "contract": "contracts/vaults/EarnVault/RibbonEarnVaultFixedRate.sol:RibbonEarnVaultFixedRate",
        "label": "keeper",
        "offset": 0,
        "slot": "214",
        "type": "t_address"
      },
      {
        "astId": 3765,
        "contract": "contracts/vaults/EarnVault/RibbonEarnVaultFixedRate.sol:RibbonEarnVaultFixedRate",
        "label": "borrowers",
        "offset": 0,
        "slot": "215",
        "type": "t_array(t_address)dyn_storage"
      },
      {
        "astId": 3771,
        "contract": "contracts/vaults/EarnVault/RibbonEarnVaultFixedRate.sol:RibbonEarnVaultFixedRate",
        "label": "borrowerWeights",
        "offset": 0,
        "slot": "216",
        "type": "t_mapping(t_address,t_struct(BorrowerState)3269_storage)"
      },
      {
        "astId": 3774,
        "contract": "contracts/vaults/EarnVault/RibbonEarnVaultFixedRate.sol:RibbonEarnVaultFixedRate",
        "label": "totalBorrowerWeight",
        "offset": 0,
        "slot": "217",
        "type": "t_uint256"
      },
      {
        "astId": 3777,
        "contract": "contracts/vaults/EarnVault/RibbonEarnVaultFixedRate.sol:RibbonEarnVaultFixedRate",
        "label": "lastBorrowerBasketChange",
        "offset": 0,
        "slot": "218",
        "type": "t_uint256"
      },
      {
        "astId": 3780,
        "contract": "contracts/vaults/EarnVault/RibbonEarnVaultFixedRate.sol:RibbonEarnVaultFixedRate",
        "label": "optionSeller",
        "offset": 0,
        "slot": "219",
        "type": "t_address"
      },
      {
        "astId": 3783,
        "contract": "contracts/vaults/EarnVault/RibbonEarnVaultFixedRate.sol:RibbonEarnVaultFixedRate",
        "label": "pendingOptionSeller",
        "offset": 0,
        "slot": "220",
        "type": "t_address"
      },
      {
        "astId": 3786,
        "contract": "contracts/vaults/EarnVault/RibbonEarnVaultFixedRate.sol:RibbonEarnVaultFixedRate",
        "label": "lastOptionSellerChange",
        "offset": 0,
        "slot": "221",
        "type": "t_uint256"
      },
      {
        "astId": 3789,
        "contract": "contracts/vaults/EarnVault/RibbonEarnVaultFixedRate.sol:RibbonEarnVaultFixedRate",
        "label": "performanceFee",
        "offset": 0,
        "slot": "222",
        "type": "t_uint256"
      },
      {
        "astId": 3792,
        "contract": "contracts/vaults/EarnVault/RibbonEarnVaultFixedRate.sol:RibbonEarnVaultFixedRate",
        "label": "managementFee",
        "offset": 0,
        "slot": "223",
        "type": "t_uint256"
      },
      {
        "astId": 3795,
        "contract": "contracts/vaults/EarnVault/RibbonEarnVaultFixedRate.sol:RibbonEarnVaultFixedRate",
        "label": "lastQueuedWithdrawAmount",
        "offset": 0,
        "slot": "224",
        "type": "t_uint256"
      },
      {
        "astId": 3798,
        "contract": "contracts/vaults/EarnVault/RibbonEarnVaultFixedRate.sol:RibbonEarnVaultFixedRate",
        "label": "currentQueuedWithdrawShares",
        "offset": 0,
        "slot": "225",
        "type": "t_uint256"
      },
      {
        "astId": 3801,
        "contract": "contracts/vaults/EarnVault/RibbonEarnVaultFixedRate.sol:RibbonEarnVaultFixedRate",
        "label": "vaultPauser",
        "offset": 0,
        "slot": "226",
        "type": "t_address"
      },
      {
        "astId": 3804,
        "contract": "contracts/vaults/EarnVault/RibbonEarnVaultFixedRate.sol:RibbonEarnVaultFixedRate",
        "label": "liquidityGauge",
        "offset": 0,
        "slot": "227",
        "type": "t_address"
      }
    ],
    "types": {
      "t_address": {
        "encoding": "inplace",
        "label": "address",
        "numberOfBytes": "20"
      },
      "t_array(t_address)dyn_storage": {
        "base": "t_address",
        "encoding": "dynamic_array",
        "label": "address[]",
        "numberOfBytes": "32"
      },
      "t_array(t_uint256)45_storage": {
        "base": "t_uint256",
        "encoding": "inplace",
        "label": "uint256[45]",
        "numberOfBytes": "1440"
      },
      "t_array(t_uint256)49_storage": {
        "base": "t_uint256",
        "encoding": "inplace",
        "label": "uint256[49]",
        "numberOfBytes": "1568"
      },
      "t_array(t_uint256)50_storage": {
        "base": "t_uint256",
        "encoding": "inplace",
        "label": "uint256[50]",
        "numberOfBytes": "1600"
      },
      "t_bool": {
        "encoding": "inplace",
        "label": "bool",
        "numberOfBytes": "1"
      },
      "t_mapping(t_address,t_mapping(t_address,t_uint256))": {
        "encoding": "mapping",
        "key": "t_address",
        "label": "mapping(address => mapping(address => uint256))",
        "numberOfBytes": "32",
        "value": "t_mapping(t_address,t_uint256)"
      },
      "t_mapping(t_address,t_struct(BorrowerState)3269_storage)": {
        "encoding": "mapping",
        "key": "t_address",
        "label": "mapping(address => struct Vault.BorrowerState)",
        "numberOfBytes": "32",
        "value": "t_struct(BorrowerState)3269_storage"
      },
      "t_mapping(t_address,t_struct(DepositReceipt)3257_storage)": {
        "encoding": "mapping",
        "key": "t_address",
        "label": "mapping(address => struct Vault.DepositReceipt)",
        "numberOfBytes": "32",
        "value": "t_struct(DepositReceipt)3257_storage"
      },
      "t_mapping(t_address,t_struct(Withdrawal)3262_storage)": {
        "encoding": "mapping",
        "key": "t_address",
        "label": "mapping(address => struct Vault.Withdrawal)",
        "numberOfBytes": "32",
        "value": "t_struct(Withdrawal)3262_storage"
      },
      "t_mapping(t_address,t_uint256)": {
        "encoding": "mapping",
        "key": "t_address",
        "label": "mapping(address => uint256)",
        "numberOfBytes": "32",
        "value": "t_uint256"
      },
      "t_mapping(t_uint256,t_uint256)": {
        "encoding": "mapping",
        "key": "t_uint256",
        "label": "mapping(uint256 => uint256)",
        "numberOfBytes": "32",
        "value": "t_uint256"
      },
      "t_string_storage": {
        "encoding": "bytes",
        "label": "string",
        "numberOfBytes": "32"
      },
      "t_struct(AllocationState)3231_storage": {
        "encoding": "inplace",
        "label": "struct Vault.AllocationState",
        "members": [
          {
            "astId": 3216,
            "contract": "contracts/vaults/EarnVault/RibbonEarnVaultFixedRate.sol:RibbonEarnVaultFixedRate",
            "label": "nextLoanTermLength",
            "offset": 0,
            "slot": "0",
            "type": "t_uint32"
          },
          {
            "astId": 3218,
            "contract": "contracts/vaults/EarnVault/RibbonEarnVaultFixedRate.sol:RibbonEarnVaultFixedRate",
            "label": "nextOptionPurchaseFreq",
            "offset": 4,
            "slot": "0",
            "type": "t_uint32"
          },
          {
            "astId": 3220,
            "contract": "contracts/vaults/EarnVault/RibbonEarnVaultFixedRate.sol:RibbonEarnVaultFixedRate",
            "label": "currentLoanTermLength",
            "offset": 8,
            "slot": "0",
            "type": "t_uint32"
          },
          {
            "astId": 3222,
            "contract": "contracts/vaults/EarnVault/RibbonEarnVaultFixedRate.sol:RibbonEarnVaultFixedRate",
            "label": "currentOptionPurchaseFreq",
            "offset": 12,
            "slot": "0",
            "type": "t_uint32"
          },
          {
            "astId": 3224,
            "contract": "contracts/vaults/EarnVault/RibbonEarnVaultFixedRate.sol:RibbonEarnVaultFixedRate",
            "label": "loanAllocationPCT",
            "offset": 16,
            "slot": "0",
            "type": "t_uint32"
          },
          {
            "astId": 3226,
            "contract": "contracts/vaults/EarnVault/RibbonEarnVaultFixedRate.sol:RibbonEarnVaultFixedRate",
            "label": "optionAllocationPCT",
            "offset": 20,
            "slot": "0",
            "type": "t_uint32"
          },
          {
            "astId": 3228,
            "contract": "contracts/vaults/EarnVault/RibbonEarnVaultFixedRate.sol:RibbonEarnVaultFixedRate",
            "label": "loanAllocation",
            "offset": 0,
            "slot": "1",
            "type": "t_uint256"
          },
          {
            "astId": 3230,
            "contract": "contracts/vaults/EarnVault/RibbonEarnVaultFixedRate.sol:RibbonEarnVaultFixedRate",
            "label": "optionAllocation",
            "offset": 0,
            "slot": "2",
            "type": "t_uint256"
          }
        ],
        "numberOfBytes": "96"
      },
      "t_struct(BorrowerState)3269_storage": {
        "encoding": "inplace",
        "label": "struct Vault.BorrowerState",
        "members": [
          {
            "astId": 3264,
            "contract": "contracts/vaults/EarnVault/RibbonEarnVaultFixedRate.sol:RibbonEarnVaultFixedRate",
            "label": "exists",
            "offset": 0,
            "slot": "0",
            "type": "t_bool"
          },
          {
            "astId": 3266,
            "contract": "contracts/vaults/EarnVault/RibbonEarnVaultFixedRate.sol:RibbonEarnVaultFixedRate",
            "label": "borrowerWeight",
            "offset": 1,
            "slot": "0",
            "type": "t_uint128"
          },
          {
            "astId": 3268,
            "contract": "contracts/vaults/EarnVault/RibbonEarnVaultFixedRate.sol:RibbonEarnVaultFixedRate",
            "label": "pendingBorrowerWeight",
            "offset": 0,
            "slot": "1",
            "type": "t_uint128"
          }
        ],
        "numberOfBytes": "64"
      },
      "t_struct(DepositReceipt)3257_storage": {
        "encoding": "inplace",
        "label": "struct Vault.DepositReceipt",
        "members": [
          {
            "astId": 3252,
            "contract": "contracts/vaults/EarnVault/RibbonEarnVaultFixedRate.sol:RibbonEarnVaultFixedRate",
            "label": "round",
            "offset": 0,
            "slot": "0",
            "type": "t_uint16"
          },
          {
            "astId": 3254,
            "contract": "contracts/vaults/EarnVault/RibbonEarnVaultFixedRate.sol:RibbonEarnVaultFixedRate",
            "label": "amount",
            "offset": 2,
            "slot": "0",
            "type": "t_uint104"
          },
          {
            "astId": 3256,
            "contract": "contracts/vaults/EarnVault/RibbonEarnVaultFixedRate.sol:RibbonEarnVaultFixedRate",
            "label": "unredeemedShares",
            "offset": 15,
            "slot": "0",
            "type": "t_uint128"
          }
        ],
        "numberOfBytes": "32"
      },
      "t_struct(VaultParams)3214_storage": {
        "encoding": "inplace",
        "label": "struct Vault.VaultParams",
        "members": [
          {
            "astId": 3207,
            "contract": "contracts/vaults/EarnVault/RibbonEarnVaultFixedRate.sol:RibbonEarnVaultFixedRate",
            "label": "decimals",
            "offset": 0,
            "slot": "0",
            "type": "t_uint8"
          },
          {
            "astId": 3209,
            "contract": "contracts/vaults/EarnVault/RibbonEarnVaultFixedRate.sol:RibbonEarnVaultFixedRate",
            "label": "asset",
            "offset": 1,
            "slot": "0",
            "type": "t_address"
          },
          {
            "astId": 3211,
            "contract": "contracts/vaults/EarnVault/RibbonEarnVaultFixedRate.sol:RibbonEarnVaultFixedRate",
            "label": "minimumSupply",
            "offset": 21,
            "slot": "0",
            "type": "t_uint56"
          },
          {
            "astId": 3213,
            "contract": "contracts/vaults/EarnVault/RibbonEarnVaultFixedRate.sol:RibbonEarnVaultFixedRate",
            "label": "cap",
            "offset": 0,
            "slot": "1",
            "type": "t_uint104"
          }
        ],
        "numberOfBytes": "64"
      },
      "t_struct(VaultState)3250_storage": {
        "encoding": "inplace",
        "label": "struct Vault.VaultState",
        "members": [
          {
            "astId": 3233,
            "contract": "contracts/vaults/EarnVault/RibbonEarnVaultFixedRate.sol:RibbonEarnVaultFixedRate",
            "label": "round",
            "offset": 0,
            "slot": "0",
            "type": "t_uint16"
          },
          {
            "astId": 3235,
            "contract": "contracts/vaults/EarnVault/RibbonEarnVaultFixedRate.sol:RibbonEarnVaultFixedRate",
            "label": "lockedAmount",
            "offset": 2,
            "slot": "0",
            "type": "t_uint104"
          },
          {
            "astId": 3237,
            "contract": "contracts/vaults/EarnVault/RibbonEarnVaultFixedRate.sol:RibbonEarnVaultFixedRate",
            "label": "lastLockedAmount",
            "offset": 15,
            "slot": "0",
            "type": "t_uint104"
          },
          {
            "astId": 3239,
            "contract": "contracts/vaults/EarnVault/RibbonEarnVaultFixedRate.sol:RibbonEarnVaultFixedRate",
            "label": "totalPending",
            "offset": 0,
            "slot": "1",
            "type": "t_uint128"
          },
          {
            "astId": 3241,
            "contract": "contracts/vaults/EarnVault/RibbonEarnVaultFixedRate.sol:RibbonEarnVaultFixedRate",
            "label": "queuedWithdrawShares",
            "offset": 16,
            "slot": "1",
            "type": "t_uint128"
          },
          {
            "astId": 3243,
            "contract": "contracts/vaults/EarnVault/RibbonEarnVaultFixedRate.sol:RibbonEarnVaultFixedRate",
            "label": "lastEpochTime",
            "offset": 0,
            "slot": "2",
            "type": "t_uint64"
          },
          {
            "astId": 3245,
            "contract": "contracts/vaults/EarnVault/RibbonEarnVaultFixedRate.sol:RibbonEarnVaultFixedRate",
            "label": "lastOptionPurchaseTime",
            "offset": 8,
            "slot": "2",
            "type": "t_uint64"
          },
          {
            "astId": 3247,
            "contract": "contracts/vaults/EarnVault/RibbonEarnVaultFixedRate.sol:RibbonEarnVaultFixedRate",
            "label": "optionsBoughtInRound",
            "offset": 16,
            "slot": "2",
            "type": "t_uint128"
          },
          {
            "astId": 3249,
            "contract": "contracts/vaults/EarnVault/RibbonEarnVaultFixedRate.sol:RibbonEarnVaultFixedRate",
            "label": "amtFundsReturned",
            "offset": 0,
            "slot": "3",
            "type": "t_uint256"
          }
        ],
        "numberOfBytes": "128"
      },
      "t_struct(Withdrawal)3262_storage": {
        "encoding": "inplace",
        "label": "struct Vault.Withdrawal",
        "members": [
          {
            "astId": 3259,
            "contract": "contracts/vaults/EarnVault/RibbonEarnVaultFixedRate.sol:RibbonEarnVaultFixedRate",
            "label": "round",
            "offset": 0,
            "slot": "0",
            "type": "t_uint16"
          },
          {
            "astId": 3261,
            "contract": "contracts/vaults/EarnVault/RibbonEarnVaultFixedRate.sol:RibbonEarnVaultFixedRate",
            "label": "shares",
            "offset": 2,
            "slot": "0",
            "type": "t_uint128"
          }
        ],
        "numberOfBytes": "32"
      },
      "t_uint104": {
        "encoding": "inplace",
        "label": "uint104",
        "numberOfBytes": "13"
      },
      "t_uint128": {
        "encoding": "inplace",
        "label": "uint128",
        "numberOfBytes": "16"
      },
      "t_uint16": {
        "encoding": "inplace",
        "label": "uint16",
        "numberOfBytes": "2"
      },
      "t_uint256": {
        "encoding": "inplace",
        "label": "uint256",
        "numberOfBytes": "32"
      },
      "t_uint32": {
        "encoding": "inplace",
        "label": "uint32",
        "numberOfBytes": "4"
      },
      "t_uint56": {
        "encoding": "inplace",
        "label": "uint56",
        "numberOfBytes": "7"
      },
      "t_uint64": {
        "encoding": "inplace",
        "label": "uint64",
        "numberOfBytes": "8"
      },
      "t_uint8": {
        "encoding": "inplace",
        "label": "uint8",
        "numberOfBytes": "1"
      }
    }
  }
}