{
  "address": "0xedAe76E579A3aCf71Dc11250D70b1A4f80748Be1",
  "abi": [
    {
      "inputs": [
        {
          "internalType": "address",
          "name": "_curveETHSTETHPool",
          "type": "address"
        },
        {
          "internalType": "address",
          "name": "_stETHEarnVault",
          "type": "address"
        },
        {
          "internalType": "address",
          "name": "_stETH",
          "type": "address"
        }
      ],
      "stateMutability": "nonpayable",
      "type": "constructor"
    },
    {
      "inputs": [],
      "name": "curveETHSTETHPool",
      "outputs": [
        {
          "internalType": "contract ICurveETHSTETHPool",
          "name": "",
          "type": "address"
        }
      ],
      "stateMutability": "view",
      "type": "function"
    },
    {
      "inputs": [
        {
          "internalType": "uint256",
          "name": "minSTETHAmount",
          "type": "uint256"
        }
      ],
      "name": "deposit",
      "outputs": [],
      "stateMutability": "payable",
      "type": "function"
    },
    {
      "inputs": [],
      "name": "stETH",
      "outputs": [
        {
          "internalType": "contract IERC20",
          "name": "",
          "type": "address"
        }
      ],
      "stateMutability": "view",
      "type": "function"
    },
    {
      "inputs": [],
      "name": "stETHEarnVault",
      "outputs": [
        {
          "internalType": "contract IRibbonEarnVault",
          "name": "",
          "type": "address"
        }
      ],
      "stateMutability": "view",
      "type": "function"
    }
  ],
  "transactionHash": "0x4b4cef0cc3705ed459a42772d9a5393a80f4f0a554dc0f7665c73eceb9c42c8b",
  "args": [
    "0xDC24316b9AE028F1497c275EB9192a3Ea0f67022",
    "0xCE5513474E077F5336cf1B33c1347FDD8D48aE8c",
    "0xae7ab96520DE3A18E5e111B5EaAb095312D7fE84"
  ],
  "solcInputHash": "26706e2a217b2e350989530907619f99",
  "bytecode": "0x60e060405234801561001057600080fd5b506040516109c73803806109c783398101604081905261002f91610155565b6001600160a01b03831661008a5760405162461bcd60e51b815260206004820152601360248201527f216375727665455448535445544820506f6f6c0000000000000000000000000060448201526064015b60405180910390fd5b6001600160a01b0382166100d25760405162461bcd60e51b815260206004820152600f60248201526e085cdd11551211585c9b95985d5b1d608a1b6044820152606401610081565b6001600160a01b0381166101125760405162461bcd60e51b8152602060048201526007602482015266042bee6e88aa8960cb1b6044820152606401610081565b6001600160601b0319606093841b811660805291831b821660a05290911b1660c052610197565b80516001600160a01b038116811461015057600080fd5b919050565b600080600060608486031215610169578283fd5b61017284610139565b925061018060208501610139565b915061018e60408501610139565b90509250925092565b60805160601c60a05160601c60c05160601c6107d86101ef6000396000818160ef015281816101db015261026c01526000818160a60152818161028e01526102cf0152600081816056015261013d01526107d86000f3fe60806040526004361061003f5760003560e01c80637cec9e0414610044578063abea01d714610094578063b6b55f25146100c8578063c1fe3e48146100dd575b600080fd5b34801561005057600080fd5b506100787f000000000000000000000000000000000000000000000000000000000000000081565b6040516001600160a01b03909116815260200160405180910390f35b3480156100a057600080fd5b506100787f000000000000000000000000000000000000000000000000000000000000000081565b6100db6100d63660046106f3565b610111565b005b3480156100e957600080fd5b506100787f000000000000000000000000000000000000000000000000000000000000000081565b604051630f7c084960e21b815260006004820152600160248201523460448201819052606482018390527f00000000000000000000000000000000000000000000000000000000000000006001600160a01b031691633df0212491906084016020604051808303818588803b15801561018957600080fd5b505af115801561019d573d6000803e3d6000fd5b50505050506040513d601f19601f820116820180604052508101906101c2919061070b565b506040516370a0823160e01b81523060048201526000907f00000000000000000000000000000000000000000000000000000000000000006001600160a01b0316906370a082319060240160206040518083038186803b15801561022557600080fd5b505afa158015610239573d6000803e3d6000fd5b505050506040513d601f19601f8201168201806040525081019061025d919061070b565b90506102b36001600160a01b037f0000000000000000000000000000000000000000000000000000000000000000167f000000000000000000000000000000000000000000000000000000000000000083610337565b6040516336efd16f60e01b8152600481018290523360248201527f00000000000000000000000000000000000000000000000000000000000000006001600160a01b0316906336efd16f90604401600060405180830381600087803b15801561031b57600080fd5b505af115801561032f573d6000803e3d6000fd5b505050505050565b8015806103c05750604051636eb1769f60e11b81523060048201526001600160a01b03838116602483015284169063dd62ed3e9060440160206040518083038186803b15801561038657600080fd5b505afa15801561039a573d6000803e3d6000fd5b505050506040513d601f19601f820116820180604052508101906103be919061070b565b155b6104305760405162461bcd60e51b815260206004820152603660248201527f5361666545524332303a20617070726f76652066726f6d206e6f6e2d7a65726f60448201527520746f206e6f6e2d7a65726f20616c6c6f77616e636560501b60648201526084015b60405180910390fd5b604080516001600160a01b038416602482015260448082018490528251808303909101815260649091019091526020810180516001600160e01b031663095ea7b360e01b179052610482908490610487565b505050565b60006104dc826040518060400160405280602081526020017f5361666545524332303a206c6f772d6c6576656c2063616c6c206661696c6564815250856001600160a01b03166105599092919063ffffffff16565b80519091501561048257808060200190518101906104fa91906106d3565b6104825760405162461bcd60e51b815260206004820152602a60248201527f5361666545524332303a204552433230206f7065726174696f6e20646964206e6044820152691bdd081cdd58d8d9595960b21b6064820152608401610427565b60606105688484600085610572565b90505b9392505050565b6060824710156105d35760405162461bcd60e51b815260206004820152602660248201527f416464726573733a20696e73756666696369656e742062616c616e636520666f6044820152651c8818d85b1b60d21b6064820152608401610427565b843b6106215760405162461bcd60e51b815260206004820152601d60248201527f416464726573733a2063616c6c20746f206e6f6e2d636f6e74726163740000006044820152606401610427565b600080866001600160a01b0316858760405161063d9190610723565b60006040518083038185875af1925050503d806000811461067a576040519150601f19603f3d011682016040523d82523d6000602084013e61067f565b606091505b509150915061068f82828661069a565b979650505050505050565b606083156106a957508161056b565b8251156106b95782518084602001fd5b8160405162461bcd60e51b8152600401610427919061073f565b6000602082840312156106e4578081fd5b8151801515811461056b578182fd5b600060208284031215610704578081fd5b5035919050565b60006020828403121561071c578081fd5b5051919050565b60008251610735818460208701610772565b9190910192915050565b602081526000825180602084015261075e816040850160208701610772565b601f01601f19169190910160400192915050565b60005b8381101561078d578181015183820152602001610775565b8381111561079c576000848401525b5050505056fea2646970667358221220191507724694a8fdfa34f03a1a87e3bfa2c2143fc539205b1ada14d8f4d9cbd664736f6c63430008040033",
  "devdoc": {
    "kind": "dev",
    "methods": {},
    "version": 1
  },
  "userdoc": {
    "kind": "user",
    "methods": {
      "deposit(uint256)": {
        "notice": "Swaps ETH -> stETH on Curve ETH-stETH pool, and deposits into stETH vault"
      }
    },
    "version": 1
  },
  "storageLayout": {
    "storage": [],
    "types": null
  }
}